{
  "_format": "hh-sol-artifact-1",
  "contractName": "VotingPowerFacet",
  "sourceName": "contracts/_library/habitat/facets/VotingPowerFacet.sol",
  "abi": [
    {
      "inputs": [
        {
          "internalType": "address",
          "name": "voter",
          "type": "address"
        },
        {
          "internalType": "uint256",
          "name": "amount",
          "type": "uint256"
        }
      ],
      "name": "decreaseVotingPower",
      "outputs": [],
      "stateMutability": "nonpayable",
      "type": "function"
    },
    {
      "inputs": [],
      "name": "getMaxAmountOfVotingPower",
      "outputs": [
        {
          "internalType": "uint256",
          "name": "",
          "type": "uint256"
        }
      ],
      "stateMutability": "view",
      "type": "function"
    },
    {
      "inputs": [],
      "name": "getTotalAmountOfVotingPower",
      "outputs": [
        {
          "internalType": "uint256",
          "name": "",
          "type": "uint256"
        }
      ],
      "stateMutability": "view",
      "type": "function"
    },
    {
      "inputs": [
        {
          "internalType": "address",
          "name": "voter",
          "type": "address"
        }
      ],
      "name": "getVoterVotingPower",
      "outputs": [
        {
          "internalType": "uint256",
          "name": "",
          "type": "uint256"
        }
      ],
      "stateMutability": "view",
      "type": "function"
    },
    {
      "inputs": [],
      "name": "getVotingPowerManager",
      "outputs": [
        {
          "internalType": "address",
          "name": "",
          "type": "address"
        }
      ],
      "stateMutability": "view",
      "type": "function"
    },
    {
      "inputs": [
        {
          "internalType": "address",
          "name": "voter",
          "type": "address"
        },
        {
          "internalType": "uint256",
          "name": "amount",
          "type": "uint256"
        }
      ],
      "name": "increaseVotingPower",
      "outputs": [],
      "stateMutability": "nonpayable",
      "type": "function"
    },
    {
      "inputs": [
        {
          "internalType": "address",
          "name": "_votingPowerManager",
          "type": "address"
        }
      ],
      "name": "initVotingPower",
      "outputs": [],
      "stateMutability": "nonpayable",
      "type": "function"
    }
  ],
  "bytecode": "0x608060405234801561001057600080fd5b50610a26806100206000396000f3fe608060405234801561001057600080fd5b506004361061007d5760003560e01c8063833288901161005b57806383328890146100d85780638ac015be146100f6578063dc7d5d2514610114578063e33435c4146101305761007d565b80630bebb5f4146100825780631c6d156c1461009e57806321b69fd6146100ba575b600080fd5b61009c600480360381019061009791906106e3565b610160565b005b6100b860048036038101906100b39190610746565b6101bd565b005b6100c26101cb565b6040516100cf9190610795565b60405180910390f35b6100e06101da565b6040516100ed91906107bf565b60405180910390f35b6100fe61024e565b60405161010b91906107bf565b60405180910390f35b61012e60048036038101906101299190610746565b61025d565b005b61014a600480360381019061014591906106e3565b61026b565b60405161015791906107bf565b60405180910390f35b600061016a61027d565b9050818160000160006101000a81548173ffffffffffffffffffffffffffffffffffffffff021916908373ffffffffffffffffffffffffffffffffffffffff160217905550600f81600301819055505050565b6101c782826102aa565b5050565b60006101d56103d3565b905090565b600073__$ff217afc1007a043e503c20835d8f6c058$__63200cd9cc6040518163ffffffff1660e01b8152600401602060405180830381865af4158015610225573d6000803e3d6000fd5b505050506040513d601f19601f8201168201806040525081019061024991906107ef565b905090565b600061025861040b565b905090565b6102678282610423565b5050565b600061027682610503565b9050919050565b6000807f534276485ab019670afde26394d87b7e6a7f0dab7b16287011cc6ad8ed0d94f690508091505090565b60006102b461027d565b90508060000160009054906101000a900473ffffffffffffffffffffffffffffffffffffffff1673ffffffffffffffffffffffffffffffffffffffff163373ffffffffffffffffffffffffffffffffffffffff161461031257600080fd5b61031b8361055a565b1561035b576040517f08c379a00000000000000000000000000000000000000000000000000000000081526004016103529061089f565b60405180910390fd5b8181600201600082825461036f91906108ee565b92505081905550818160010160008573ffffffffffffffffffffffffffffffffffffffff1673ffffffffffffffffffffffffffffffffffffffff16815260200190815260200160002060008282546103c791906108ee565b92505081905550505050565b6000806103de61027d565b90508060000160009054906101000a900473ffffffffffffffffffffffffffffffffffffffff1691505090565b60008061041661027d565b9050806002015491505090565b600061042d61027d565b90508060000160009054906101000a900473ffffffffffffffffffffffffffffffffffffffff1673ffffffffffffffffffffffffffffffffffffffff163373ffffffffffffffffffffffffffffffffffffffff161461048b57600080fd5b8181600201600082825461049f9190610922565b92505081905550818160010160008573ffffffffffffffffffffffffffffffffffffffff1673ffffffffffffffffffffffffffffffffffffffff16815260200190815260200160002060008282546104f79190610922565b92505081905550505050565b60008061050e61027d565b90508060010160008473ffffffffffffffffffffffffffffffffffffffff1673ffffffffffffffffffffffffffffffffffffffff16815260200190815260200160002054915050919050565b600080610565610653565b905060008160030180549050141561058157600091505061064e565b60005b81600301805490508110156106475760008260030182815481106105ab576105aa610978565b5b90600052602060002001549050600083600501600083815260200190815260200160002060010160008773ffffffffffffffffffffffffffffffffffffffff1673ffffffffffffffffffffffffffffffffffffffff16815260200190815260200160002060009054906101000a900460ff169050801561063257600194505050505061064e565b5050808061063f906109a7565b915050610584565b5060009150505b919050565b6000807fd5211e15e362f5251dbdeabddfd30aa19c1d7433b35372348d9978301f444fb690508091505090565b600080fd5b600073ffffffffffffffffffffffffffffffffffffffff82169050919050565b60006106b082610685565b9050919050565b6106c0816106a5565b81146106cb57600080fd5b50565b6000813590506106dd816106b7565b92915050565b6000602082840312156106f9576106f8610680565b5b6000610707848285016106ce565b91505092915050565b6000819050919050565b61072381610710565b811461072e57600080fd5b50565b6000813590506107408161071a565b92915050565b6000806040838503121561075d5761075c610680565b5b600061076b858286016106ce565b925050602061077c85828601610731565b9150509250929050565b61078f816106a5565b82525050565b60006020820190506107aa6000830184610786565b92915050565b6107b981610710565b82525050565b60006020820190506107d460008301846107b0565b92915050565b6000815190506107e98161071a565b92915050565b60006020828403121561080557610804610680565b5b6000610813848285016107da565b91505092915050565b600082825260208201905092915050565b7f43616e6e6f7420756e7374616b6520756e74696c2070726f706f73616c20697360008201527f2061637469766500000000000000000000000000000000000000000000000000602082015250565b600061088960278361081c565b91506108948261082d565b604082019050919050565b600060208201905081810360008301526108b88161087c565b9050919050565b7f4e487b7100000000000000000000000000000000000000000000000000000000600052601160045260246000fd5b60006108f982610710565b915061090483610710565b925082821015610917576109166108bf565b5b828203905092915050565b600061092d82610710565b915061093883610710565b9250827fffffffffffffffffffffffffffffffffffffffffffffffffffffffffffffffff0382111561096d5761096c6108bf565b5b828201905092915050565b7f4e487b7100000000000000000000000000000000000000000000000000000000600052603260045260246000fd5b60006109b282610710565b91507fffffffffffffffffffffffffffffffffffffffffffffffffffffffffffffffff8214156109e5576109e46108bf565b5b60018201905091905056fea26469706673582212200b2de43520d9bd8ef4548b95896d1f8e7de64b0dfde9cd421c02ffb99227b5ec64736f6c634300080c0033",
  "linkReferences": {
    "contracts/_library/habitat/libraries/LibVotingPower.sol": {
      "LibVotingPower": [
        {
          "length": 20,
          "start": 510
        }
      ]
    }
  },
  "deployedLinkReferences": {
    "contracts/_library/habitat/libraries/LibVotingPower.sol": {
      "LibVotingPower": [
        {
          "length": 20,
          "start": 478
        }
      ]
    }
  }
}