{
  "_format": "hh-sol-artifact-1",
  "contractName": "TreasuryViewerFacet",
  "sourceName": "contracts/_library/habitat/facets/treasury/TreasuryViewerFacet.sol",
  "abi": [
    {
      "inputs": [],
      "name": "getActiveProposalsIds",
      "outputs": [
        {
          "internalType": "uint256[]",
          "name": "",
          "type": "uint256[]"
        }
      ],
      "stateMutability": "view",
      "type": "function"
    },
    {
      "inputs": [],
      "name": "getProposalsCount",
      "outputs": [
        {
          "internalType": "uint128",
          "name": "",
          "type": "uint128"
        }
      ],
      "stateMutability": "view",
      "type": "function"
    },
    {
      "inputs": [],
      "name": "getTreasuryMaxDuration",
      "outputs": [
        {
          "internalType": "uint128",
          "name": "",
          "type": "uint128"
        }
      ],
      "stateMutability": "view",
      "type": "function"
    },
    {
      "inputs": [
        {
          "internalType": "uint256",
          "name": "proposalId",
          "type": "uint256"
        }
      ],
      "name": "getTreasuryProposal",
      "outputs": [
        {
          "components": [
            {
              "internalType": "bool",
              "name": "proposalAccepted",
              "type": "bool"
            },
            {
              "internalType": "address",
              "name": "destinationAddress",
              "type": "address"
            },
            {
              "internalType": "uint256",
              "name": "value",
              "type": "uint256"
            },
            {
              "internalType": "bytes",
              "name": "callData",
              "type": "bytes"
            },
            {
              "internalType": "bool",
              "name": "proposalExecuted",
              "type": "bool"
            }
          ],
          "internalType": "struct ITreasury.Proposal",
          "name": "",
          "type": "tuple"
        }
      ],
      "stateMutability": "view",
      "type": "function"
    },
    {
      "inputs": [
        {
          "internalType": "uint256",
          "name": "proposalId",
          "type": "uint256"
        }
      ],
      "name": "getTreasuryProposalVotingDeadlineTimestamp",
      "outputs": [
        {
          "internalType": "uint256",
          "name": "",
          "type": "uint256"
        }
      ],
      "stateMutability": "view",
      "type": "function"
    },
    {
      "inputs": [
        {
          "internalType": "uint256",
          "name": "proposalId",
          "type": "uint256"
        }
      ],
      "name": "getTreasuryProposalVotingVotesNo",
      "outputs": [
        {
          "internalType": "uint256",
          "name": "",
          "type": "uint256"
        }
      ],
      "stateMutability": "view",
      "type": "function"
    },
    {
      "inputs": [
        {
          "internalType": "uint256",
          "name": "proposalId",
          "type": "uint256"
        }
      ],
      "name": "getTreasuryProposalVotingVotesYes",
      "outputs": [
        {
          "internalType": "uint256",
          "name": "",
          "type": "uint256"
        }
      ],
      "stateMutability": "view",
      "type": "function"
    },
    {
      "inputs": [],
      "name": "getVotingType",
      "outputs": [
        {
          "internalType": "enum ITreasury.VotingType",
          "name": "",
          "type": "uint8"
        }
      ],
      "stateMutability": "view",
      "type": "function"
    },
    {
      "inputs": [
        {
          "internalType": "address",
          "name": "voter",
          "type": "address"
        }
      ],
      "name": "hasVotedInActiveProposals",
      "outputs": [
        {
          "internalType": "bool",
          "name": "",
          "type": "bool"
        }
      ],
      "stateMutability": "view",
      "type": "function"
    },
    {
      "inputs": [
        {
          "internalType": "uint256",
          "name": "proposalId",
          "type": "uint256"
        },
        {
          "internalType": "address",
          "name": "holder",
          "type": "address"
        }
      ],
      "name": "isHolderVotedForProposal",
      "outputs": [
        {
          "internalType": "bool",
          "name": "",
          "type": "bool"
        }
      ],
      "stateMutability": "view",
      "type": "function"
    },
    {
      "inputs": [
        {
          "internalType": "uint256",
          "name": "proposalId",
          "type": "uint256"
        }
      ],
      "name": "isVotingForProposalStarted",
      "outputs": [
        {
          "internalType": "bool",
          "name": "",
          "type": "bool"
        }
      ],
      "stateMutability": "view",
      "type": "function"
    }
  ],
  "bytecode": "0x608060405234801561001057600080fd5b50610d01806100206000396000f3fe608060405234801561001057600080fd5b50600436106100a95760003560e01c806398e527d31161007157806398e527d314610168578063b954c3db14610186578063d1b53594146101b6578063d90e430d146101e6578063daa4bdf414610216578063f051f0dd14610246576100a9565b8063075502b8146100ae578063263b7ead146100de57806336faf41b146100fc578063380134981461012c5780637e9b8f801461014a575b600080fd5b6100c860048036038101906100c39190610764565b610276565b6040516100d591906107ac565b60405180910390f35b6100e6610299565b6040516100f3919061083e565b60405180910390f35b61011660048036038101906101119190610764565b6102b9565b6040516101239190610868565b60405180910390f35b6101346102cf565b60405161014191906108ae565b60405180910390f35b6101526102fe565b60405161015f9190610987565b60405180910390f35b61017061035f565b60405161017d91906108ae565b60405180910390f35b6101a0600480360381019061019b9190610764565b61038e565b6040516101ad9190610868565b60405180910390f35b6101d060048036038101906101cb9190610a07565b6103a4565b6040516101dd91906107ac565b60405180910390f35b61020060048036038101906101fb9190610764565b61049d565b60405161020d9190610b61565b60405180910390f35b610230600480360381019061022b9190610764565b6105e8565b60405161023d9190610868565b60405180910390f35b610260600480360381019061025b9190610b83565b6105fe565b60405161026d91906107ac565b60405180910390f35b60006102818261065f565b60000160009054906101000a900460ff169050919050565b60006102a3610689565b60000160009054906101000a900460ff16905090565b60006102c48261065f565b600401549050919050565b60006102d9610689565b60020160009054906101000a90046fffffffffffffffffffffffffffffffff16905090565b6060610308610689565b60030180548060200260200160405190810160405280929190818152602001828054801561035557602002820191906000526020600020905b815481526020019060010190808311610341575b5050505050905090565b6000610369610689565b60020160109054906101000a90046fffffffffffffffffffffffffffffffff16905090565b60006103998261065f565b600301549050919050565b6000806103af610689565b90506000816003018054905014156103cb576000915050610498565b60005b81600301805490508110156104915760008260030182815481106103f5576103f4610bc3565b5b90600052602060002001549050600083600501600083815260200190815260200160002060010160008773ffffffffffffffffffffffffffffffffffffffff1673ffffffffffffffffffffffffffffffffffffffff16815260200190815260200160002060009054906101000a900460ff169050801561047c576001945050505050610498565b5050808061048990610c21565b9150506103ce565b5060009150505b919050565b6104a56106e0565b6104ae826106b6565b6040518060a00160405290816000820160009054906101000a900460ff161515151581526020016000820160019054906101000a900473ffffffffffffffffffffffffffffffffffffffff1673ffffffffffffffffffffffffffffffffffffffff1673ffffffffffffffffffffffffffffffffffffffff1681526020016001820154815260200160028201805461054490610c99565b80601f016020809104026020016040519081016040528092919081815260200182805461057090610c99565b80156105bd5780601f10610592576101008083540402835291602001916105bd565b820191906000526020600020905b8154815290600101906020018083116105a057829003601f168201915b505050505081526020016003820160009054906101000a900460ff1615151515815250509050919050565b60006105f38261065f565b600201549050919050565b60006106098361065f565b60010160008373ffffffffffffffffffffffffffffffffffffffff1673ffffffffffffffffffffffffffffffffffffffff16815260200190815260200160002060009054906101000a900460ff16905092915050565b60008061066a610689565b9050806005016000848152602001908152602001600020915050919050565b6000807fd5211e15e362f5251dbdeabddfd30aa19c1d7433b35372348d9978301f444fb690508091505090565b6000806106c1610689565b9050806004016000848152602001908152602001600020915050919050565b6040518060a00160405280600015158152602001600073ffffffffffffffffffffffffffffffffffffffff16815260200160008152602001606081526020016000151581525090565b600080fd5b6000819050919050565b6107418161072e565b811461074c57600080fd5b50565b60008135905061075e81610738565b92915050565b60006020828403121561077a57610779610729565b5b60006107888482850161074f565b91505092915050565b60008115159050919050565b6107a681610791565b82525050565b60006020820190506107c1600083018461079d565b92915050565b7f4e487b7100000000000000000000000000000000000000000000000000000000600052602160045260246000fd5b60028110610807576108066107c7565b5b50565b6000819050610818826107f6565b919050565b60006108288261080a565b9050919050565b6108388161081d565b82525050565b6000602082019050610853600083018461082f565b92915050565b6108628161072e565b82525050565b600060208201905061087d6000830184610859565b92915050565b60006fffffffffffffffffffffffffffffffff82169050919050565b6108a881610883565b82525050565b60006020820190506108c3600083018461089f565b92915050565b600081519050919050565b600082825260208201905092915050565b6000819050602082019050919050565b6108fe8161072e565b82525050565b600061091083836108f5565b60208301905092915050565b6000602082019050919050565b6000610934826108c9565b61093e81856108d4565b9350610949836108e5565b8060005b8381101561097a5781516109618882610904565b975061096c8361091c565b92505060018101905061094d565b5085935050505092915050565b600060208201905081810360008301526109a18184610929565b905092915050565b600073ffffffffffffffffffffffffffffffffffffffff82169050919050565b60006109d4826109a9565b9050919050565b6109e4816109c9565b81146109ef57600080fd5b50565b600081359050610a01816109db565b92915050565b600060208284031215610a1d57610a1c610729565b5b6000610a2b848285016109f2565b91505092915050565b610a3d81610791565b82525050565b610a4c816109c9565b82525050565b600081519050919050565b600082825260208201905092915050565b60005b83811015610a8c578082015181840152602081019050610a71565b83811115610a9b576000848401525b50505050565b6000601f19601f8301169050919050565b6000610abd82610a52565b610ac78185610a5d565b9350610ad7818560208601610a6e565b610ae081610aa1565b840191505092915050565b600060a083016000830151610b036000860182610a34565b506020830151610b166020860182610a43565b506040830151610b2960408601826108f5565b5060608301518482036060860152610b418282610ab2565b9150506080830151610b566080860182610a34565b508091505092915050565b60006020820190508181036000830152610b7b8184610aeb565b905092915050565b60008060408385031215610b9a57610b99610729565b5b6000610ba88582860161074f565b9250506020610bb9858286016109f2565b9150509250929050565b7f4e487b7100000000000000000000000000000000000000000000000000000000600052603260045260246000fd5b7f4e487b7100000000000000000000000000000000000000000000000000000000600052601160045260246000fd5b6000610c2c8261072e565b91507fffffffffffffffffffffffffffffffffffffffffffffffffffffffffffffffff821415610c5f57610c5e610bf2565b5b600182019050919050565b7f4e487b7100000000000000000000000000000000000000000000000000000000600052602260045260246000fd5b60006002820490506001821680610cb157607f821691505b60208210811415610cc557610cc4610c6a565b5b5091905056fea2646970667358221220f1b680abebfac92a41f8c4440b3460f3c15f6a37930ad49042227312db00313364736f6c634300080c0033",
  "linkReferences": {},
  "deployedLinkReferences": {}
}