{
  "_format": "hh-sol-artifact-1",
  "contractName": "DiamondRegistry",
  "sourceName": "contracts/logic/DiamondRegistry.sol",
  "abi": [
    {
      "inputs": [
        {
          "internalType": "address",
          "name": "packagemanager",
          "type": "address"
        },
        {
          "internalType": "bytes4[]",
          "name": "_pmSelectors",
          "type": "bytes4[]"
        },
        {
          "internalType": "address",
          "name": "_initAddr",
          "type": "address"
        },
        {
          "internalType": "bytes",
          "name": "_initFunc",
          "type": "bytes"
        }
      ],
      "stateMutability": "nonpayable",
      "type": "constructor"
    },
    {
      "anonymous": false,
      "inputs": [
        {
          "indexed": false,
          "internalType": "address",
          "name": "diamond",
          "type": "address"
        },
        {
          "indexed": false,
          "internalType": "address",
          "name": "owner",
          "type": "address"
        }
      ],
      "name": "Registered",
      "type": "event"
    },
    {
      "anonymous": false,
      "inputs": [
        {
          "indexed": false,
          "internalType": "address",
          "name": "diamond",
          "type": "address"
        }
      ],
      "name": "Unregistered",
      "type": "event"
    },
    {
      "inputs": [],
      "name": "register",
      "outputs": [],
      "stateMutability": "nonpayable",
      "type": "function"
    },
    {
      "inputs": [],
      "name": "unregister",
      "outputs": [],
      "stateMutability": "nonpayable",
      "type": "function"
    }
  ],
  "bytecode": "0x60806040523480156200001157600080fd5b506040516200256738038062002567833981810160405281019062000037919062000592565b836000806101000a81548173ffffffffffffffffffffffffffffffffffffffff021916908373ffffffffffffffffffffffffffffffffffffffff16021790555082600190805190602001906200008f929190620000f4565b5081600260006101000a81548173ffffffffffffffffffffffffffffffffffffffff021916908373ffffffffffffffffffffffffffffffffffffffff1602179055508060039080519060200190620000e9929190620001a8565b5050505050620006a7565b82805482825590600052602060002090600701600890048101928215620001955791602002820160005b838211156200016157835183826101000a81548163ffffffff021916908360e01c021790555092602001926004016020816003010492830192600103026200011e565b8015620001935782816101000a81549063ffffffff021916905560040160208160030104928301926001030262000161565b505b509050620001a4919062000239565b5090565b828054620001b69062000671565b90600052602060002090601f016020900481019282620001da576000855562000226565b82601f10620001f557805160ff191683800117855562000226565b8280016001018555821562000226579182015b828111156200022557825182559160200191906001019062000208565b5b50905062000235919062000239565b5090565b5b80821115620002545760008160009055506001016200023a565b5090565b6000604051905090565b600080fd5b600080fd5b600073ffffffffffffffffffffffffffffffffffffffff82169050919050565b600062000299826200026c565b9050919050565b620002ab816200028c565b8114620002b757600080fd5b50565b600081519050620002cb81620002a0565b92915050565b600080fd5b6000601f19601f8301169050919050565b7f4e487b7100000000000000000000000000000000000000000000000000000000600052604160045260246000fd5b6200032182620002d6565b810181811067ffffffffffffffff82111715620003435762000342620002e7565b5b80604052505050565b60006200035862000258565b905062000366828262000316565b919050565b600067ffffffffffffffff821115620003895762000388620002e7565b5b602082029050602081019050919050565b600080fd5b60007fffffffff0000000000000000000000000000000000000000000000000000000082169050919050565b620003d6816200039f565b8114620003e257600080fd5b50565b600081519050620003f681620003cb565b92915050565b6000620004136200040d846200036b565b6200034c565b905080838252602082019050602084028301858111156200043957620004386200039a565b5b835b81811015620004665780620004518882620003e5565b8452602084019350506020810190506200043b565b5050509392505050565b600082601f830112620004885762000487620002d1565b5b81516200049a848260208601620003fc565b91505092915050565b600080fd5b600067ffffffffffffffff821115620004c657620004c5620002e7565b5b620004d182620002d6565b9050602081019050919050565b60005b83811015620004fe578082015181840152602081019050620004e1565b838111156200050e576000848401525b50505050565b60006200052b6200052584620004a8565b6200034c565b9050828152602081018484840111156200054a5762000549620004a3565b5b62000557848285620004de565b509392505050565b600082601f830112620005775762000576620002d1565b5b81516200058984826020860162000514565b91505092915050565b60008060008060808587031215620005af57620005ae62000262565b5b6000620005bf87828801620002ba565b945050602085015167ffffffffffffffff811115620005e357620005e262000267565b5b620005f18782880162000470565b93505060406200060487828801620002ba565b925050606085015167ffffffffffffffff81111562000628576200062762000267565b5b62000636878288016200055f565b91505092959194509250565b7f4e487b7100000000000000000000000000000000000000000000000000000000600052602260045260246000fd5b600060028204905060018216806200068a57607f821691505b60208210811415620006a157620006a062000642565b5b50919050565b611eb080620006b76000396000f3fe608060405234801561001057600080fd5b50600436106100365760003560e01c80631aa3a0081461003b578063e79a198f14610045575b600080fd5b61004361004f565b005b61004d6102c3565b005b6000600167ffffffffffffffff81111561006c5761006b6113e4565b5b6040519080825280602002602001820160405280156100a557816020015b61009261139b565b81526020019060019003908161008a5790505b509050604051806060016040528060008054906101000a900473ffffffffffffffffffffffffffffffffffffffff1673ffffffffffffffffffffffffffffffffffffffff1681526020016000600281111561010357610102611413565b5b8152602001600180548060200260200160405190810160405280929190818152602001828054801561019657602002820191906000526020600020906000905b82829054906101000a900460e01b7bffffffffffffffffffffffffffffffffffffffffffffffffffffffff1916815260200190600401906020826003010492830192600103820291508084116101435790505b5050505050815250816000815181106101b2576101b1611442565b5b602002602001018190525061028781600260009054906101000a900473ffffffffffffffffffffffffffffffffffffffff16600380546101f1906114a0565b80601f016020809104026020016040519081016040528092919081815260200182805461021d906114a0565b801561026a5780601f1061023f5761010080835404028352916020019161026a565b820191906000526020600020905b81548152906001019060200180831161024d57829003601f168201915b505050505061027761049f565b6104cc909392919063ffffffff16565b7f0a31ee9d46a828884b81003c8498156ea6aa15b9b54bdd0ef0b533d9eba57e5530336040516102b8929190611513565b60405180910390a150565b6000600167ffffffffffffffff8111156102e0576102df6113e4565b5b60405190808252806020026020018201604052801561031957816020015b61030661139b565b8152602001906001900390816102fe5790505b5090506040518060600160405280600073ffffffffffffffffffffffffffffffffffffffff16815260200160028081111561035757610356611413565b5b815260200160018054806020026020016040519081016040528092919081815260200182805480156103ea57602002820191906000526020600020906000905b82829054906101000a900460e01b7bffffffffffffffffffffffffffffffffffffffffffffffffffffffff1916815260200190600401906020826003010492830192600103820291508084116103975790505b50505050508152508160008151811061040657610405611442565b5b60200260200101819052506104658160006040518060400160405280600281526020017f307800000000000000000000000000000000000000000000000000000000000081525061045561049f565b6104cc909392919063ffffffff16565b7f75cd6de711483e11488a1cd9b66172abccb9e5c19572f92015a7880f0c8c0edc30604051610494919061153c565b60405180910390a150565b6000807f177481ac65e4292921c69f62d1cc7f57541261e5d61c8175cf4e36a01c9bfc9390508091505090565b60008460010160009054906101000a900461ffff1661ffff169050600081905060008060078316111561051657866002016000600384901c81526020019081526020016000205490505b60005b865181101561068557600087828151811061053757610536611442565b5b60200260200101519050600081602001519050600082604001515111610592576040517f08c379a0000000000000000000000000000000000000000000000000000000008152600401610589906115da565b60405180910390fd5b600060028111156105a6576105a5611413565b5b8160028111156105b9576105b8611413565b5b14156105e3576105d68585848d610726909392919063ffffffff16565b8095508196505050610676565b600160028111156105f7576105f6611413565b5b81600281111561060a57610609611413565b5b141561062857610623828b6109e790919063ffffffff16565b610675565b60028081111561063b5761063a611413565b5b81600281111561064e5761064d611413565b5b14156106745761066b8585848d610cc4909392919063ffffffff16565b80955081965050505b5b5b50508080600101915050610519565b508282146106ad57818760010160006101000a81548161ffff021916908361ffff1602179055505b60006007831611156106d85780876002016000600385901c8152602001908152602001600020819055505b7f8faa70878671ccd212d20771b795c50af8fd3ff6cf27f4bde57e5d4de0aeb67386868660405161070b939291906118e6565b60405180910390a161071d85856111c9565b50505050505050565b6000803073ffffffffffffffffffffffffffffffffffffffff16836000015173ffffffffffffffffffffffffffffffffffffffff1614806107865750610785836000015173ffffffffffffffffffffffffffffffffffffffff16611388565b5b6107c5576040517f08c379a00000000000000000000000000000000000000000000000000000000081526004016107bc9061199d565b60405180910390fd5b60005b8360400151518110156109d7576000846040015182815181106107ee576107ed611442565b5b602002602001015190506000886000016000837bffffffffffffffffffffffffffffffffffffffffffffffffffffffff19167bffffffffffffffffffffffffffffffffffffffffffffffffffffffff19168152602001908152602001600020549050600073ffffffffffffffffffffffffffffffffffffffff168160601c73ffffffffffffffffffffffffffffffffffffffff16146108c2576040517f08c379a00000000000000000000000000000000000000000000000000000000081526004016108b990611a2f565b60405180910390fd5b8760001b866000015160601b6bffffffffffffffffffffffff191617896000016000847bffffffffffffffffffffffffffffffffffffffffffffffffffffffff19167bffffffffffffffffffffffffffffffffffffffffffffffffffffffff19168152602001908152602001600020819055506000600560078a16901b905080837bffffffffffffffffffffffffffffffffffffffffffffffffffffffff1916901c817fffffffff0000000000000000000000000000000000000000000000000000000060001b901c19891617975060e08114156109bf57878a600201600060038c901c8152602001908152602001600020819055506000801b97505b888060010199505050505080806001019150506107c8565b5084849150915094509492505050565b610a0a816000015173ffffffffffffffffffffffffffffffffffffffff16611388565b610a49576040517f08c379a0000000000000000000000000000000000000000000000000000000008152600401610a4090611ac1565b60405180910390fd5b60005b816040015151811015610cbf57600082604001518281518110610a7257610a71611442565b5b602002602001015190506000846000016000837bffffffffffffffffffffffffffffffffffffffffffffffffffffffff19167bffffffffffffffffffffffffffffffffffffffffffffffffffffffff1916815260200190815260200160002054905060008160601c9050600073ffffffffffffffffffffffffffffffffffffffff168173ffffffffffffffffffffffffffffffffffffffff161415610b4c576040517f08c379a0000000000000000000000000000000000000000000000000000000008152600401610b4390611b2d565b60405180910390fd5b3073ffffffffffffffffffffffffffffffffffffffff168173ffffffffffffffffffffffffffffffffffffffff161415610bbb576040517f08c379a0000000000000000000000000000000000000000000000000000000008152600401610bb290611bbf565b60405180910390fd5b846000015173ffffffffffffffffffffffffffffffffffffffff168173ffffffffffffffffffffffffffffffffffffffff161415610c2e576040517f08c379a0000000000000000000000000000000000000000000000000000000008152600401610c2590611c51565b60405180910390fd5b846000015160601b6bffffffffffffffffffffffff19166bffffffffffffffffffffffff60001b831617866000016000857bffffffffffffffffffffffffffffffffffffffffffffffffffffffff19167bffffffffffffffffffffffffffffffffffffffffffffffffffffffff19168152602001908152602001600020819055505050508080600101915050610a4c565b505050565b600080600073ffffffffffffffffffffffffffffffffffffffff16836000015173ffffffffffffffffffffffffffffffffffffffff1614610d3a576040517f08c379a0000000000000000000000000000000000000000000000000000000008152600401610d3190611ce3565b60405180910390fd5b6000600386901c9050600060078716905060005b8560400151518110156111ae57600086604001518281518110610d7457610d73611442565b5b6020026020010151905060008a6000016000837bffffffffffffffffffffffffffffffffffffffffffffffffffffffff19167bffffffffffffffffffffffffffffffffffffffffffffffffffffffff19168152602001908152602001600020549050600073ffffffffffffffffffffffffffffffffffffffff168160601c73ffffffffffffffffffffffffffffffffffffffff161415610e49576040517f08c379a0000000000000000000000000000000000000000000000000000000008152600401610e4090611b2d565b60405180910390fd5b3073ffffffffffffffffffffffffffffffffffffffff168160601c73ffffffffffffffffffffffffffffffffffffffff161415610ebb576040517f08c379a0000000000000000000000000000000000000000000000000000000008152600401610eb290611bbf565b60405180910390fd5b6000801b891415610ef0578480600190039550508a600201600086815260200190815260200160002054985060079350610efa565b8380600190039450505b6000806000600587901b8c901b9250847bffffffffffffffffffffffffffffffffffffffffffffffffffffffff1916837bffffffffffffffffffffffffffffffffffffffffffffffffffffffff19161461101c578d6000016000847bffffffffffffffffffffffffffffffffffffffffffffffffffffffff19167bffffffffffffffffffffffffffffffffffffffffffffffffffffffff19168152602001908152602001600020546bffffffffffffffffffffffff19166bffffffffffffffffffffffff60001b8516178e6000016000857bffffffffffffffffffffffffffffffffffffffffffffffffffffffff19167bffffffffffffffffffffffffffffffffffffffffffffffffffffffff19168152602001908152602001600020819055505b8d6000016000867bffffffffffffffffffffffffffffffffffffffffffffffffffffffff19167bffffffffffffffffffffffffffffffffffffffffffffffffffffffff191681526020019081526020016000206000905560008460001c61ffff169050600381901c9250600560078216901b9150508782146111225760008e600201600084815260200190815260200160002054905081847bffffffffffffffffffffffffffffffffffffffffffffffffffffffff1916901c827fffffffff0000000000000000000000000000000000000000000000000000000060001b901c198216179050808f60020160008581526020019081526020016000208190555050611173565b80837bffffffffffffffffffffffffffffffffffffffffffffffffffffffff1916901c817fffffffff0000000000000000000000000000000000000000000000000000000060001b901c198d16179b505b600087141561119c578d6002016000898152602001908152602001600020600090556000801b9b505b50505050508080600101915050610d4e565b5080600383901b179650868693509350505094509492505050565b60008151141515600073ffffffffffffffffffffffffffffffffffffffff168373ffffffffffffffffffffffffffffffffffffffff1614151514611242576040517f08c379a000000000000000000000000000000000000000000000000000000000815260040161123990611d75565b60405180910390fd5b600073ffffffffffffffffffffffffffffffffffffffff168273ffffffffffffffffffffffffffffffffffffffff1614611384573073ffffffffffffffffffffffffffffffffffffffff168273ffffffffffffffffffffffffffffffffffffffff1614611308576112c88273ffffffffffffffffffffffffffffffffffffffff16611388565b611307576040517f08c379a00000000000000000000000000000000000000000000000000000000081526004016112fe90611e07565b60405180910390fd5b5b60008273ffffffffffffffffffffffffffffffffffffffff168260405161132f9190611e63565b600060405180830381855af49150503d806000811461136a576040519150601f19603f3d011682016040523d82523d6000602084013e61136f565b606091505b5050905080611382573d6000803e3d6000fd5b505b5050565b600080823b905060008111915050919050565b6040518060600160405280600073ffffffffffffffffffffffffffffffffffffffff168152602001600060028111156113d7576113d6611413565b5b8152602001606081525090565b7f4e487b7100000000000000000000000000000000000000000000000000000000600052604160045260246000fd5b7f4e487b7100000000000000000000000000000000000000000000000000000000600052602160045260246000fd5b7f4e487b7100000000000000000000000000000000000000000000000000000000600052603260045260246000fd5b7f4e487b7100000000000000000000000000000000000000000000000000000000600052602260045260246000fd5b600060028204905060018216806114b857607f821691505b602082108114156114cc576114cb611471565b5b50919050565b600073ffffffffffffffffffffffffffffffffffffffff82169050919050565b60006114fd826114d2565b9050919050565b61150d816114f2565b82525050565b60006040820190506115286000830185611504565b6115356020830184611504565b9392505050565b60006020820190506115516000830184611504565b92915050565b600082825260208201905092915050565b7f4469616d6f6e64426173653a206e6f2073656c6563746f72732073706563696660008201527f6965640000000000000000000000000000000000000000000000000000000000602082015250565b60006115c4602383611557565b91506115cf82611568565b604082019050919050565b600060208201905081810360008301526115f3816115b7565b9050919050565b600081519050919050565b600082825260208201905092915050565b6000819050602082019050919050565b61162f816114f2565b82525050565b6003811061164657611645611413565b5b50565b600081905061165782611635565b919050565b600061166782611649565b9050919050565b6116778161165c565b82525050565b600081519050919050565b600082825260208201905092915050565b6000819050602082019050919050565b60007fffffffff0000000000000000000000000000000000000000000000000000000082169050919050565b6116de816116a9565b82525050565b60006116f083836116d5565b60208301905092915050565b6000602082019050919050565b60006117148261167d565b61171e8185611688565b935061172983611699565b8060005b8381101561175a57815161174188826116e4565b975061174c836116fc565b92505060018101905061172d565b5085935050505092915050565b600060608301600083015161177f6000860182611626565b506020830151611792602086018261166e565b50604083015184820360408601526117aa8282611709565b9150508091505092915050565b60006117c38383611767565b905092915050565b6000602082019050919050565b60006117e3826115fa565b6117ed8185611605565b9350836020820285016117ff85611616565b8060005b8581101561183b578484038952815161181c85826117b7565b9450611827836117cb565b925060208a01995050600181019050611803565b50829750879550505050505092915050565b600081519050919050565b600082825260208201905092915050565b60005b8381101561188757808201518184015260208101905061186c565b83811115611896576000848401525b50505050565b6000601f19601f8301169050919050565b60006118b88261184d565b6118c28185611858565b93506118d2818560208601611869565b6118db8161189c565b840191505092915050565b6000606082019050818103600083015261190081866117d8565b905061190f6020830185611504565b818103604083015261192181846118ad565b9050949350505050565b7f4469616d6f6e64426173653a204144442074617267657420686173206e6f206360008201527f6f64650000000000000000000000000000000000000000000000000000000000602082015250565b6000611987602383611557565b91506119928261192b565b604082019050919050565b600060208201905081810360008301526119b68161197a565b9050919050565b7f4469616d6f6e64426173653a2073656c6563746f7220616c726561647920616460008201527f6465640000000000000000000000000000000000000000000000000000000000602082015250565b6000611a19602383611557565b9150611a24826119bd565b604082019050919050565b60006020820190508181036000830152611a4881611a0c565b9050919050565b7f4469616d6f6e64426173653a205245504c41434520746172676574206861732060008201527f6e6f20636f646500000000000000000000000000000000000000000000000000602082015250565b6000611aab602783611557565b9150611ab682611a4f565b604082019050919050565b60006020820190508181036000830152611ada81611a9e565b9050919050565b7f4469616d6f6e64426173653a2073656c6563746f72206e6f7420666f756e6400600082015250565b6000611b17601f83611557565b9150611b2282611ae1565b602082019050919050565b60006020820190508181036000830152611b4681611b0a565b9050919050565b7f4469616d6f6e64426173653a2073656c6563746f7220697320696d6d7574616260008201527f6c65000000000000000000000000000000000000000000000000000000000000602082015250565b6000611ba9602283611557565b9150611bb482611b4d565b604082019050919050565b60006020820190508181036000830152611bd881611b9c565b9050919050565b7f4469616d6f6e64426173653a205245504c41434520746172676574206973206960008201527f64656e746963616c000000000000000000000000000000000000000000000000602082015250565b6000611c3b602883611557565b9150611c4682611bdf565b604082019050919050565b60006020820190508181036000830152611c6a81611c2e565b9050919050565b7f4469616d6f6e64426173653a2052454d4f564520746172676574206d7573742060008201527f6265207a65726f20616464726573730000000000000000000000000000000000602082015250565b6000611ccd602f83611557565b9150611cd882611c71565b604082019050919050565b60006020820190508181036000830152611cfc81611cc0565b9050919050565b7f4469616d6f6e64426173653a20696e76616c696420696e697469616c697a617460008201527f696f6e20706172616d6574657273000000000000000000000000000000000000602082015250565b6000611d5f602e83611557565b9150611d6a82611d03565b604082019050919050565b60006020820190508181036000830152611d8e81611d52565b9050919050565b7f4469616d6f6e64426173653a20696e697469616c697a6174696f6e207461726760008201527f657420686173206e6f20636f6465000000000000000000000000000000000000602082015250565b6000611df1602e83611557565b9150611dfc82611d95565b604082019050919050565b60006020820190508181036000830152611e2081611de4565b9050919050565b600081905092915050565b6000611e3d8261184d565b611e478185611e27565b9350611e57818560208601611869565b80840191505092915050565b6000611e6f8284611e32565b91508190509291505056fea2646970667358221220a28f2f3168c0c96d8d2d65e7f1333e92e734a37ad0e9bda04fb142b6a411330964736f6c634300080c0033",
  "linkReferences": {},
  "deployedLinkReferences": {}
}