{
  "_format": "hh-sol-artifact-1",
  "contractName": "LocalFacetTest",
  "sourceName": "contracts/_library/habitat/facets/LocalFacetTest.sol",
  "abi": [
    {
      "inputs": [
        {
          "internalType": "address",
          "name": "_address",
          "type": "address"
        },
        {
          "internalType": "uint256",
          "name": "_power",
          "type": "uint256"
        }
      ],
      "name": "increaseVotingPower",
      "outputs": [],
      "stateMutability": "nonpayable",
      "type": "function"
    },
    {
      "inputs": [
        {
          "internalType": "uint256",
          "name": "amount",
          "type": "uint256"
        }
      ],
      "name": "setCounter",
      "outputs": [],
      "stateMutability": "nonpayable",
      "type": "function"
    },
    {
      "inputs": [
        {
          "components": [
            {
              "components": [
                {
                  "internalType": "uint256",
                  "name": "test",
                  "type": "uint256"
                }
              ],
              "internalType": "struct LocalFacetTest.Qwe",
              "name": "test",
              "type": "tuple"
            }
          ],
          "internalType": "struct LocalFacetTest.Asd",
          "name": "prova",
          "type": "tuple"
        }
      ],
      "name": "test",
      "outputs": [],
      "stateMutability": "nonpayable",
      "type": "function"
    }
  ],
  "bytecode": "0x608060405234801561001057600080fd5b5061039f806100206000396000f3fe608060405234801561001057600080fd5b50600436106100415760003560e01c80638bb5d9c314610046578063a6d12a6a14610062578063dc7d5d251461007e575b600080fd5b610060600480360381019061005b91906101c8565b61009a565b005b61007c60048036038101906100779190610219565b6100c5565b005b610098600480360381019061009391906102a4565b6100f7565b005b60006100a4610160565b9050818160000160008282546100ba9190610313565b925050819055505050565b60006100cf610160565b905081600001600001358160000160008282546100ec9190610313565b925050819055505050565b6000610101610160565b9050818160010160008573ffffffffffffffffffffffffffffffffffffffff1673ffffffffffffffffffffffffffffffffffffffff16815260200190815260200160002060008282546101549190610313565b92505081905550505050565b6000807fb4026e2cff33ccc8c4677a4cda06ed94a8d1a2a5524e59fbfe9e8cc3f3c31efd90508091505090565b600080fd5b6000819050919050565b6101a581610192565b81146101b057600080fd5b50565b6000813590506101c28161019c565b92915050565b6000602082840312156101de576101dd61018d565b5b60006101ec848285016101b3565b91505092915050565b600080fd5b6000602082840312156102105761020f6101f5565b5b81905092915050565b60006020828403121561022f5761022e61018d565b5b600061023d848285016101fa565b91505092915050565b600073ffffffffffffffffffffffffffffffffffffffff82169050919050565b600061027182610246565b9050919050565b61028181610266565b811461028c57600080fd5b50565b60008135905061029e81610278565b92915050565b600080604083850312156102bb576102ba61018d565b5b60006102c98582860161028f565b92505060206102da858286016101b3565b9150509250929050565b7f4e487b7100000000000000000000000000000000000000000000000000000000600052601160045260246000fd5b600061031e82610192565b915061032983610192565b9250827fffffffffffffffffffffffffffffffffffffffffffffffffffffffffffffffff0382111561035e5761035d6102e4565b5b82820190509291505056fea2646970667358221220bbe2c1e3616e5f8924cfc4365644a49655a3648f6cf9c9af24285cc129425b9964736f6c634300080c0033",
  "linkReferences": {},
  "deployedLinkReferences": {}
}