{
  "_format": "hh-sol-artifact-1",
  "contractName": "Ownership",
  "sourceName": "contracts/_library/solidstate/Ownership.sol",
  "abi": [
    {
      "anonymous": false,
      "inputs": [
        {
          "indexed": true,
          "internalType": "address",
          "name": "previousOwner",
          "type": "address"
        },
        {
          "indexed": true,
          "internalType": "address",
          "name": "newOwner",
          "type": "address"
        }
      ],
      "name": "OwnershipTransferred",
      "type": "event"
    },
    {
      "inputs": [],
      "name": "acceptOwnership",
      "outputs": [],
      "stateMutability": "nonpayable",
      "type": "function"
    },
    {
      "inputs": [],
      "name": "nomineeOwner",
      "outputs": [
        {
          "internalType": "address",
          "name": "",
          "type": "address"
        }
      ],
      "stateMutability": "view",
      "type": "function"
    },
    {
      "inputs": [],
      "name": "owner",
      "outputs": [
        {
          "internalType": "address",
          "name": "",
          "type": "address"
        }
      ],
      "stateMutability": "view",
      "type": "function"
    },
    {
      "inputs": [
        {
          "internalType": "address",
          "name": "account",
          "type": "address"
        }
      ],
      "name": "transferOwnership",
      "outputs": [],
      "stateMutability": "nonpayable",
      "type": "function"
    }
  ],
  "bytecode": "0x608060405234801561001057600080fd5b50610626806100206000396000f3fe608060405234801561001057600080fd5b506004361061004c5760003560e01c806379ba5097146100515780638ab5150a1461005b5780638da5cb5b14610079578063f2fde38b14610097575b600080fd5b6100596100b3565b005b610063610132565b6040516100709190610468565b60405180910390f35b610081610141565b60405161008e9190610468565b60405180910390f35b6100b160048036038101906100ac91906104b4565b610150565b005b6100bb6101f5565b73ffffffffffffffffffffffffffffffffffffffff163373ffffffffffffffffffffffffffffffffffffffff1614610128576040517f08c379a000000000000000000000000000000000000000000000000000000000815260040161011f90610564565b60405180910390fd5b610130610228565b565b600061013c6101f5565b905090565b600061014b6102e3565b905090565b610158610316565b60000160009054906101000a900473ffffffffffffffffffffffffffffffffffffffff1673ffffffffffffffffffffffffffffffffffffffff163373ffffffffffffffffffffffffffffffffffffffff16146101e9576040517f08c379a00000000000000000000000000000000000000000000000000000000081526004016101e0906105d0565b60405180910390fd5b6101f281610343565b50565b60006101ff61034f565b60000160009054906101000a900473ffffffffffffffffffffffffffffffffffffffff16905090565b6000610232610316565b90503373ffffffffffffffffffffffffffffffffffffffff168160000160009054906101000a900473ffffffffffffffffffffffffffffffffffffffff1673ffffffffffffffffffffffffffffffffffffffff167f8be0079c531659141344cd1fd0a4f28419497f9722a3daafe3b4186f6b6457e060405160405180910390a36102c5338261037c90919063ffffffff16565b6102e060006102d261034f565b6103c390919063ffffffff16565b50565b60006102ed610316565b60000160009054906101000a900473ffffffffffffffffffffffffffffffffffffffff16905090565b6000807f8a22373512790c48b83a1fe2efdd2888d4a917bcdc24d0adf63e60f67168046090508091505090565b61034c8161040a565b50565b6000807f24aa1f7b31fd188a8d3ecfb06bc55c806040e59b03bd4396283442fce661789090508091505090565b808260000160006101000a81548173ffffffffffffffffffffffffffffffffffffffff021916908373ffffffffffffffffffffffffffffffffffffffff1602179055505050565b808260000160006101000a81548173ffffffffffffffffffffffffffffffffffffffff021916908373ffffffffffffffffffffffffffffffffffffffff1602179055505050565b6104248161041661034f565b6103c390919063ffffffff16565b50565b600073ffffffffffffffffffffffffffffffffffffffff82169050919050565b600061045282610427565b9050919050565b61046281610447565b82525050565b600060208201905061047d6000830184610459565b92915050565b600080fd5b61049181610447565b811461049c57600080fd5b50565b6000813590506104ae81610488565b92915050565b6000602082840312156104ca576104c9610483565b5b60006104d88482850161049f565b91505092915050565b600082825260208201905092915050565b7f536166654f776e61626c653a2073656e646572206d757374206265206e6f6d6960008201527f6e6565206f776e65720000000000000000000000000000000000000000000000602082015250565b600061054e6029836104e1565b9150610559826104f2565b604082019050919050565b6000602082019050818103600083015261057d81610541565b9050919050565b7f4f776e61626c653a2073656e646572206d757374206265206f776e6572000000600082015250565b60006105ba601d836104e1565b91506105c582610584565b602082019050919050565b600060208201905081810360008301526105e9816105ad565b905091905056fea2646970667358221220c1c7aa8abf1a806a629ea46e7c6370dec44a20398da43c151b87251ddb6bf8fd64736f6c634300080c0033",
  "linkReferences": {},
  "deployedLinkReferences": {}
}