{
  "_format": "hh-sol-artifact-1",
  "contractName": "HabitatRepository",
  "sourceName": "contracts/_library/habitat/external/HabitatRepository.sol",
  "abi": [
    {
      "inputs": [
        {
          "internalType": "address",
          "name": "_owner",
          "type": "address"
        },
        {
          "internalType": "address[]",
          "name": "_addresses",
          "type": "address[]"
        }
      ],
      "stateMutability": "nonpayable",
      "type": "constructor"
    },
    {
      "inputs": [
        {
          "internalType": "address",
          "name": "facet",
          "type": "address"
        },
        {
          "internalType": "bool",
          "name": "value",
          "type": "bool"
        }
      ],
      "name": "edit",
      "outputs": [],
      "stateMutability": "nonpayable",
      "type": "function"
    },
    {
      "inputs": [
        {
          "internalType": "address",
          "name": "facet",
          "type": "address"
        }
      ],
      "name": "isInRepo",
      "outputs": [
        {
          "internalType": "bool",
          "name": "",
          "type": "bool"
        }
      ],
      "stateMutability": "view",
      "type": "function"
    }
  ],
  "bytecode": "0x608060405234801561001057600080fd5b5060405161079c38038061079c833981810160405281019061003291906102d5565b816000806101000a81548173ffffffffffffffffffffffffffffffffffffffff021916908373ffffffffffffffffffffffffffffffffffffffff16021790555060005b815181101561010257600180600084848151811061009657610095610331565b5b602002602001015173ffffffffffffffffffffffffffffffffffffffff1673ffffffffffffffffffffffffffffffffffffffff16815260200190815260200160002060006101000a81548160ff02191690831515021790555080806100fa90610399565b915050610075565b5050506103e2565b6000604051905090565b600080fd5b600080fd5b600073ffffffffffffffffffffffffffffffffffffffff82169050919050565b60006101498261011e565b9050919050565b6101598161013e565b811461016457600080fd5b50565b60008151905061017681610150565b92915050565b600080fd5b6000601f19601f8301169050919050565b7f4e487b7100000000000000000000000000000000000000000000000000000000600052604160045260246000fd5b6101ca82610181565b810181811067ffffffffffffffff821117156101e9576101e8610192565b5b80604052505050565b60006101fc61010a565b905061020882826101c1565b919050565b600067ffffffffffffffff82111561022857610227610192565b5b602082029050602081019050919050565b600080fd5b600061025161024c8461020d565b6101f2565b9050808382526020820190506020840283018581111561027457610273610239565b5b835b8181101561029d57806102898882610167565b845260208401935050602081019050610276565b5050509392505050565b600082601f8301126102bc576102bb61017c565b5b81516102cc84826020860161023e565b91505092915050565b600080604083850312156102ec576102eb610114565b5b60006102fa85828601610167565b925050602083015167ffffffffffffffff81111561031b5761031a610119565b5b610327858286016102a7565b9150509250929050565b7f4e487b7100000000000000000000000000000000000000000000000000000000600052603260045260246000fd5b7f4e487b7100000000000000000000000000000000000000000000000000000000600052601160045260246000fd5b6000819050919050565b60006103a48261038f565b91507fffffffffffffffffffffffffffffffffffffffffffffffffffffffffffffffff8214156103d7576103d6610360565b5b600182019050919050565b6103ab806103f16000396000f3fe608060405234801561001057600080fd5b50600436106100365760003560e01c80631b10b02f1461003b578063575524a71461006b575b600080fd5b61005560048036038101906100509190610229565b610087565b6040516100629190610271565b60405180910390f35b610085600480360381019061008091906102b8565b6100dd565b005b6000600160008373ffffffffffffffffffffffffffffffffffffffff1673ffffffffffffffffffffffffffffffffffffffff16815260200190815260200160002060009054906101000a900460ff169050919050565b3373ffffffffffffffffffffffffffffffffffffffff1660008054906101000a900473ffffffffffffffffffffffffffffffffffffffff1673ffffffffffffffffffffffffffffffffffffffff161461016b576040517f08c379a000000000000000000000000000000000000000000000000000000000815260040161016290610355565b60405180910390fd5b80600160008473ffffffffffffffffffffffffffffffffffffffff1673ffffffffffffffffffffffffffffffffffffffff16815260200190815260200160002060006101000a81548160ff0219169083151502179055505050565b600080fd5b600073ffffffffffffffffffffffffffffffffffffffff82169050919050565b60006101f6826101cb565b9050919050565b610206816101eb565b811461021157600080fd5b50565b600081359050610223816101fd565b92915050565b60006020828403121561023f5761023e6101c6565b5b600061024d84828501610214565b91505092915050565b60008115159050919050565b61026b81610256565b82525050565b60006020820190506102866000830184610262565b92915050565b61029581610256565b81146102a057600080fd5b50565b6000813590506102b28161028c565b92915050565b600080604083850312156102cf576102ce6101c6565b5b60006102dd85828601610214565b92505060206102ee858286016102a3565b9150509250929050565b600082825260208201905092915050565b7f4f6e6c79206f776e65722063616e207772697465207265706f00000000000000600082015250565b600061033f6019836102f8565b915061034a82610309565b602082019050919050565b6000602082019050818103600083015261036e81610332565b905091905056fea2646970667358221220c30cb533412243f1f6a3030b2011e2c8bb80c539874b72e75c1349ab4b22904964736f6c634300080c0033",
  "linkReferences": {},
  "deployedLinkReferences": {}
}