{
  "_format": "hh-sol-artifact-1",
  "contractName": "CounterLens",
  "sourceName": "contracts/_library/habitat/CounterLens.sol",
  "abi": [
    {
      "inputs": [
        {
          "internalType": "address",
          "name": "_owner",
          "type": "address"
        },
        {
          "internalType": "address",
          "name": "_diamondAddress",
          "type": "address"
        }
      ],
      "stateMutability": "nonpayable",
      "type": "constructor"
    },
    {
      "inputs": [
        {
          "internalType": "uint256",
          "name": "amount",
          "type": "uint256"
        }
      ],
      "name": "increment",
      "outputs": [],
      "stateMutability": "nonpayable",
      "type": "function"
    },
    {
      "inputs": [
        {
          "internalType": "enum CounterLens.Function",
          "name": "fn",
          "type": "uint8"
        },
        {
          "internalType": "string",
          "name": "diamondFn",
          "type": "string"
        }
      ],
      "name": "setFunction",
      "outputs": [],
      "stateMutability": "nonpayable",
      "type": "function"
    }
  ],
  "bytecode": "0x60806040523480156200001157600080fd5b5060405162000b8238038062000b82833981810160405281019062000037919062000263565b816000806101000a81548173ffffffffffffffffffffffffffffffffffffffff021916908373ffffffffffffffffffffffffffffffffffffffff16021790555080600160006101000a81548173ffffffffffffffffffffffffffffffffffffffff021916908373ffffffffffffffffffffffffffffffffffffffff1602179055506040518060400160405280601381526020017f736574436f756e7465722875696e74323536290000000000000000000000000081525060026000806001811115620001085762000107620002aa565b5b60018111156200011d576200011c620002aa565b5b815260200190815260200160002090805190602001906200014092919062000149565b5050506200033e565b828054620001579062000308565b90600052602060002090601f0160209004810192826200017b5760008555620001c7565b82601f106200019657805160ff1916838001178555620001c7565b82800160010185558215620001c7579182015b82811115620001c6578251825591602001919060010190620001a9565b5b509050620001d69190620001da565b5090565b5b80821115620001f5576000816000905550600101620001db565b5090565b600080fd5b600073ffffffffffffffffffffffffffffffffffffffff82169050919050565b60006200022b82620001fe565b9050919050565b6200023d816200021e565b81146200024957600080fd5b50565b6000815190506200025d8162000232565b92915050565b600080604083850312156200027d576200027c620001f9565b5b60006200028d858286016200024c565b9250506020620002a0858286016200024c565b9150509250929050565b7f4e487b7100000000000000000000000000000000000000000000000000000000600052602160045260246000fd5b7f4e487b7100000000000000000000000000000000000000000000000000000000600052602260045260246000fd5b600060028204905060018216806200032157607f821691505b60208210811415620003385762000337620002d9565b5b50919050565b610834806200034e6000396000f3fe608060405234801561001057600080fd5b50600436106100365760003560e01c80637cf5dab01461003b578063b1a9b5bf14610057575b600080fd5b6100556004803603810190610050919061038c565b610073565b005b610071600480360381019061006c9190610524565b6101c1565b005b60006002600080600181111561008c5761008b610580565b5b600181111561009e5761009d610580565b5b8152602001908152602001600020826040516024016100bd91906105be565b604051602081830303815290604052906040516100da91906106d9565b60405180910390207bffffffffffffffffffffffffffffffffffffffffffffffffffffffff19166020820180517bffffffffffffffffffffffffffffffffffffffffffffffffffffffff83818316178352505050509050600160009054906101000a900473ffffffffffffffffffffffffffffffffffffffff1673ffffffffffffffffffffffffffffffffffffffff1681604051610178919061076a565b6000604051808303816000865af19150503d80600081146101b5576040519150601f19603f3d011682016040523d82523d6000602084013e6101ba565b606091505b5050505050565b60008054906101000a900473ffffffffffffffffffffffffffffffffffffffff1673ffffffffffffffffffffffffffffffffffffffff163373ffffffffffffffffffffffffffffffffffffffff161461024f576040517f08c379a0000000000000000000000000000000000000000000000000000000008152600401610246906107de565b60405180910390fd5b806002600084600181111561026757610266610580565b5b600181111561027957610278610580565b5b8152602001908152602001600020908051906020019061029a92919061029f565b505050565b8280546102ab90610608565b90600052602060002090601f0160209004810192826102cd5760008555610314565b82601f106102e657805160ff1916838001178555610314565b82800160010185558215610314579182015b828111156103135782518255916020019190600101906102f8565b5b5090506103219190610325565b5090565b5b8082111561033e576000816000905550600101610326565b5090565b6000604051905090565b600080fd5b600080fd5b6000819050919050565b61036981610356565b811461037457600080fd5b50565b60008135905061038681610360565b92915050565b6000602082840312156103a2576103a161034c565b5b60006103b084828501610377565b91505092915050565b600281106103c657600080fd5b50565b6000813590506103d8816103b9565b92915050565b600080fd5b600080fd5b6000601f19601f8301169050919050565b7f4e487b7100000000000000000000000000000000000000000000000000000000600052604160045260246000fd5b610431826103e8565b810181811067ffffffffffffffff821117156104505761044f6103f9565b5b80604052505050565b6000610463610342565b905061046f8282610428565b919050565b600067ffffffffffffffff82111561048f5761048e6103f9565b5b610498826103e8565b9050602081019050919050565b82818337600083830152505050565b60006104c76104c284610474565b610459565b9050828152602081018484840111156104e3576104e26103e3565b5b6104ee8482856104a5565b509392505050565b600082601f83011261050b5761050a6103de565b5b813561051b8482602086016104b4565b91505092915050565b6000806040838503121561053b5761053a61034c565b5b6000610549858286016103c9565b925050602083013567ffffffffffffffff81111561056a57610569610351565b5b610576858286016104f6565b9150509250929050565b7f4e487b7100000000000000000000000000000000000000000000000000000000600052602160045260246000fd5b6105b881610356565b82525050565b60006020820190506105d360008301846105af565b92915050565b7f4e487b7100000000000000000000000000000000000000000000000000000000600052602260045260246000fd5b6000600282049050600182168061062057607f821691505b60208210811415610634576106336105d9565b5b50919050565b600081905092915050565b60008190508160005260206000209050919050565b6000815461066781610608565b610671818661063a565b9450600182166000811461068c576001811461069d576106d0565b60ff198316865281860193506106d0565b6106a685610645565b60005b838110156106c8578154818901526001820191506020810190506106a9565b838801955050505b50505092915050565b60006106e5828461065a565b915081905092915050565b600081519050919050565b600081905092915050565b60005b83811015610724578082015181840152602081019050610709565b83811115610733576000848401525b50505050565b6000610744826106f0565b61074e81856106fb565b935061075e818560208601610706565b80840191505092915050565b60006107768284610739565b915081905092915050565b600082825260208201905092915050565b7f4f6e6c79206f776e65722063616e207365742066756e6374696f6e7300000000600082015250565b60006107c8601c83610781565b91506107d382610792565b602082019050919050565b600060208201905081810360008301526107f7816107bb565b905091905056fea2646970667358221220c15b10dfb996f86101410f6f98099baee0602dd57b7be9a59e87e305f25edc7964736f6c634300080c0033",
  "linkReferences": {},
  "deployedLinkReferences": {}
}