{
  "_format": "hh-sol-artifact-1",
  "contractName": "Installer",
  "sourceName": "contracts/external/Installer.sol",
  "abi": [
    {
      "inputs": [],
      "stateMutability": "nonpayable",
      "type": "constructor"
    },
    {
      "inputs": [
        {
          "internalType": "uint256",
          "name": "",
          "type": "uint256"
        }
      ],
      "name": "cuts",
      "outputs": [
        {
          "internalType": "address",
          "name": "target",
          "type": "address"
        },
        {
          "internalType": "enum IDiamondWritable.FacetCutAction",
          "name": "action",
          "type": "uint8"
        }
      ],
      "stateMutability": "view",
      "type": "function"
    },
    {
      "inputs": [],
      "name": "data",
      "outputs": [
        {
          "internalType": "bytes",
          "name": "",
          "type": "bytes"
        }
      ],
      "stateMutability": "view",
      "type": "function"
    },
    {
      "inputs": [],
      "name": "get",
      "outputs": [
        {
          "components": [
            {
              "internalType": "address",
              "name": "target",
              "type": "address"
            },
            {
              "internalType": "enum IDiamondWritable.FacetCutAction",
              "name": "action",
              "type": "uint8"
            },
            {
              "internalType": "bytes4[]",
              "name": "selectors",
              "type": "bytes4[]"
            }
          ],
          "internalType": "struct IDiamondWritable.FacetCut[]",
          "name": "",
          "type": "tuple[]"
        },
        {
          "internalType": "address",
          "name": "",
          "type": "address"
        },
        {
          "internalType": "bytes",
          "name": "",
          "type": "bytes"
        }
      ],
      "stateMutability": "view",
      "type": "function"
    },
    {
      "inputs": [],
      "name": "model",
      "outputs": [
        {
          "internalType": "address",
          "name": "",
          "type": "address"
        }
      ],
      "stateMutability": "view",
      "type": "function"
    },
    {
      "inputs": [
        {
          "components": [
            {
              "internalType": "address",
              "name": "target",
              "type": "address"
            },
            {
              "internalType": "enum IDiamondWritable.FacetCutAction",
              "name": "action",
              "type": "uint8"
            },
            {
              "internalType": "bytes4[]",
              "name": "selectors",
              "type": "bytes4[]"
            }
          ],
          "internalType": "struct IDiamondWritable.FacetCut[]",
          "name": "_cuts",
          "type": "tuple[]"
        },
        {
          "internalType": "address",
          "name": "_target",
          "type": "address"
        },
        {
          "internalType": "bytes",
          "name": "_data",
          "type": "bytes"
        }
      ],
      "name": "set",
      "outputs": [],
      "stateMutability": "nonpayable",
      "type": "function"
    },
    {
      "inputs": [],
      "name": "target",
      "outputs": [
        {
          "internalType": "address",
          "name": "",
          "type": "address"
        }
      ],
      "stateMutability": "view",
      "type": "function"
    },
    {
      "inputs": [],
      "name": "uninstaller",
      "outputs": [
        {
          "internalType": "address",
          "name": "",
          "type": "address"
        }
      ],
      "stateMutability": "view",
      "type": "function"
    }
  ],
  "bytecode": "0x60a06040523480156200001157600080fd5b5060008067ffffffffffffffff811115620000315762000030620001a8565b5b6040519080825280602002602001820160405280156200006e57816020015b6200005a6200014e565b815260200190600190039081620000505790505b509050600060405162000081906200019a565b604051809103906000f0801580156200009e573d6000803e3d6000fd5b5090508073ffffffffffffffffffffffffffffffffffffffff1660808173ffffffffffffffffffffffffffffffffffffffff168152505060805173ffffffffffffffffffffffffffffffffffffffff1663bff0b451836040518263ffffffff1660e01b8152600401620001129190620004bc565b600060405180830381600087803b1580156200012d57600080fd5b505af115801562000142573d6000803e3d6000fd5b505050505050620004e0565b6040518060600160405280600073ffffffffffffffffffffffffffffffffffffffff168152602001600060028111156200018d576200018c62000248565b5b8152602001606081525090565b6111bf8062001c7a83390190565b7f4e487b7100000000000000000000000000000000000000000000000000000000600052604160045260246000fd5b600081519050919050565b600082825260208201905092915050565b6000819050602082019050919050565b600073ffffffffffffffffffffffffffffffffffffffff82169050919050565b6000620002308262000203565b9050919050565b620002428162000223565b82525050565b7f4e487b7100000000000000000000000000000000000000000000000000000000600052602160045260246000fd5b600381106200028b576200028a62000248565b5b50565b60008190506200029e8262000277565b919050565b6000620002b0826200028e565b9050919050565b620002c281620002a3565b82525050565b600081519050919050565b600082825260208201905092915050565b6000819050602082019050919050565b60007fffffffff0000000000000000000000000000000000000000000000000000000082169050919050565b6200032b81620002f4565b82525050565b60006200033f838362000320565b60208301905092915050565b6000602082019050919050565b60006200036582620002c8565b620003718185620002d3565b93506200037e83620002e4565b8060005b83811015620003b557815162000399888262000331565b9750620003a6836200034b565b92505060018101905062000382565b5085935050505092915050565b6000606083016000830151620003dc600086018262000237565b506020830151620003f16020860182620002b7565b50604083015184820360408601526200040b828262000358565b9150508091505092915050565b6000620004268383620003c2565b905092915050565b6000602082019050919050565b60006200044882620001d7565b620004548185620001e2565b9350836020820285016200046885620001f3565b8060005b85811015620004aa578484038952815162000488858262000418565b945062000495836200042e565b925060208a019950506001810190506200046c565b50829750879550505050505092915050565b60006020820190508181036000830152620004d881846200043b565b905092915050565b6080516117776200050360003960008181610169015261038d01526117776000f3fe608060405234801561001057600080fd5b506004361061007d5760003560e01c806373d4a13a1161005b57806373d4a13a146100dc57806398fc9414146100fa578063b27fb31114610118578063d4b83992146101495761007d565b80630ad9d0521461008257806314c43a78146100a05780636d4ce63c146100bc575b600080fd5b61008a610167565b6040516100979190610bb9565b60405180910390f35b6100ba60048036038101906100b5919061100a565b61018b565b005b6100c461049f565b6040516100d393929190611373565b60405180910390f35b6100e461076d565b6040516100f191906113b8565b60405180910390f35b6101026107fb565b60405161010f9190610bb9565b60405180910390f35b610132600480360381019061012d9190611410565b610821565b60405161014092919061144c565b60405180910390f35b610151610882565b60405161015e9190610bb9565b60405180910390f35b7f000000000000000000000000000000000000000000000000000000000000000081565b600460009054906101000a900460ff16156101db576040517f08c379a00000000000000000000000000000000000000000000000000000000081526004016101d2906114d2565b60405180910390fd5b6101e36109df565b60005b845181101561032f57848181518110610202576102016114f2565b5b6020026020010151915060016040518060600160405280846000015173ffffffffffffffffffffffffffffffffffffffff168152602001846020015160028111156102505761024f6110d0565b5b81526020018460400151815250908060018154018082558091505060019003906000526020600020906002020160009091909190915060008201518160000160006101000a81548173ffffffffffffffffffffffffffffffffffffffff021916908373ffffffffffffffffffffffffffffffffffffffff16021790555060208201518160000160146101000a81548160ff021916908360028111156102f8576102f76110d0565b5b02179055506040820151816001019080519060200190610319929190610a28565b505050808061032790611550565b9150506101e6565b5082600260006101000a81548173ffffffffffffffffffffffffffffffffffffffff021916908373ffffffffffffffffffffffffffffffffffffffff1602179055508160039080519060200190610387929190610ad5565b506103b17f00000000000000000000000000000000000000000000000000000000000000006108a8565b600460016101000a81548173ffffffffffffffffffffffffffffffffffffffff021916908373ffffffffffffffffffffffffffffffffffffffff160217905550600460019054906101000a900473ffffffffffffffffffffffffffffffffffffffff1673ffffffffffffffffffffffffffffffffffffffff1663bff0b451856040518263ffffffff1660e01b815260040161044c9190611599565b600060405180830381600087803b15801561046657600080fd5b505af115801561047a573d6000803e3d6000fd5b505050506001600460006101000a81548160ff02191690831515021790555050505050565b606060006060600060018054905067ffffffffffffffff8111156104c6576104c5610bfe565b5b6040519080825280602002602001820160405280156104ff57816020015b6104ec6109df565b8152602001906001900390816104e45790505b50905060005b81518110156106ae5760405180606001604052806001838154811061052d5761052c6114f2565b5b906000526020600020906002020160000160009054906101000a900473ffffffffffffffffffffffffffffffffffffffff1673ffffffffffffffffffffffffffffffffffffffff1681526020016001838154811061058e5761058d6114f2565b5b906000526020600020906002020160000160149054906101000a900460ff1660028111156105bf576105be6110d0565b5b8152602001600183815481106105d8576105d76114f2565b5b906000526020600020906002020160010180548060200260200160405190810160405280929190818152602001828054801561067557602002820191906000526020600020906000905b82829054906101000a900460e01b7bffffffffffffffffffffffffffffffffffffffffffffffffffffffff1916815260200190600401906020826003010492830192600103820291508084116106225790505b50505050508152508282815181106106905761068f6114f2565b5b602002602001018190525080806106a690611550565b915050610505565b5080600260009054906101000a900473ffffffffffffffffffffffffffffffffffffffff1660038080546106e1906115ea565b80601f016020809104026020016040519081016040528092919081815260200182805461070d906115ea565b801561075a5780601f1061072f5761010080835404028352916020019161075a565b820191906000526020600020905b81548152906001019060200180831161073d57829003601f168201915b5050505050905093509350935050909192565b6003805461077a906115ea565b80601f01602080910402602001604051908101604052809291908181526020018280546107a6906115ea565b80156107f35780601f106107c8576101008083540402835291602001916107f3565b820191906000526020600020905b8154815290600101906020018083116107d657829003601f168201915b505050505081565b600460019054906101000a900473ffffffffffffffffffffffffffffffffffffffff1681565b6001818154811061083157600080fd5b90600052602060002090600202016000915090508060000160009054906101000a900473ffffffffffffffffffffffffffffffffffffffff16908060000160149054906101000a900460ff16905082565b600260009054906101000a900473ffffffffffffffffffffffffffffffffffffffff1681565b60006108bb6108b6836108c2565b610959565b9050919050565b60606040518060400160405280601481526020017f3d602d80600a3d3981f3363d3d373d3d3d363d73000000000000000000000000815250826040518060400160405280600f81526020017f5af43d82803e903d91602b57fd5bf30000000000000000000000000000000000815250604051602001610943939291906116a0565b6040516020818303038152906040529050919050565b600081602001825180826000f092505050600073ffffffffffffffffffffffffffffffffffffffff168173ffffffffffffffffffffffffffffffffffffffff1614156109da576040517f08c379a00000000000000000000000000000000000000000000000000000000081526004016109d190611721565b60405180910390fd5b919050565b6040518060600160405280600073ffffffffffffffffffffffffffffffffffffffff16815260200160006002811115610a1b57610a1a6110d0565b5b8152602001606081525090565b82805482825590600052602060002090600701600890048101928215610ac45791602002820160005b83821115610a9257835183826101000a81548163ffffffff021916908360e01c02179055509260200192600401602081600301049283019260010302610a51565b8015610ac25782816101000a81549063ffffffff0219169055600401602081600301049283019260010302610a92565b505b509050610ad19190610b5b565b5090565b828054610ae1906115ea565b90600052602060002090601f016020900481019282610b035760008555610b4a565b82601f10610b1c57805160ff1916838001178555610b4a565b82800160010185558215610b4a579182015b82811115610b49578251825591602001919060010190610b2e565b5b509050610b579190610b5b565b5090565b5b80821115610b74576000816000905550600101610b5c565b5090565b600073ffffffffffffffffffffffffffffffffffffffff82169050919050565b6000610ba382610b78565b9050919050565b610bb381610b98565b82525050565b6000602082019050610bce6000830184610baa565b92915050565b6000604051905090565b600080fd5b600080fd5b600080fd5b6000601f19601f8301169050919050565b7f4e487b7100000000000000000000000000000000000000000000000000000000600052604160045260246000fd5b610c3682610bed565b810181811067ffffffffffffffff82111715610c5557610c54610bfe565b5b80604052505050565b6000610c68610bd4565b9050610c748282610c2d565b919050565b600067ffffffffffffffff821115610c9457610c93610bfe565b5b602082029050602081019050919050565b600080fd5b600080fd5b600080fd5b610cbd81610b98565b8114610cc857600080fd5b50565b600081359050610cda81610cb4565b92915050565b60038110610ced57600080fd5b50565b600081359050610cff81610ce0565b92915050565b600067ffffffffffffffff821115610d2057610d1f610bfe565b5b602082029050602081019050919050565b60007fffffffff0000000000000000000000000000000000000000000000000000000082169050919050565b610d6681610d31565b8114610d7157600080fd5b50565b600081359050610d8381610d5d565b92915050565b6000610d9c610d9784610d05565b610c5e565b90508083825260208201905060208402830185811115610dbf57610dbe610ca5565b5b835b81811015610de85780610dd48882610d74565b845260208401935050602081019050610dc1565b5050509392505050565b600082601f830112610e0757610e06610be8565b5b8135610e17848260208601610d89565b91505092915050565b600060608284031215610e3657610e35610caa565b5b610e406060610c5e565b90506000610e5084828501610ccb565b6000830152506020610e6484828501610cf0565b602083015250604082013567ffffffffffffffff811115610e8857610e87610caf565b5b610e9484828501610df2565b60408301525092915050565b6000610eb3610eae84610c79565b610c5e565b90508083825260208201905060208402830185811115610ed657610ed5610ca5565b5b835b81811015610f1d57803567ffffffffffffffff811115610efb57610efa610be8565b5b808601610f088982610e20565b85526020850194505050602081019050610ed8565b5050509392505050565b600082601f830112610f3c57610f3b610be8565b5b8135610f4c848260208601610ea0565b91505092915050565b600080fd5b600067ffffffffffffffff821115610f7557610f74610bfe565b5b610f7e82610bed565b9050602081019050919050565b82818337600083830152505050565b6000610fad610fa884610f5a565b610c5e565b905082815260208101848484011115610fc957610fc8610f55565b5b610fd4848285610f8b565b509392505050565b600082601f830112610ff157610ff0610be8565b5b8135611001848260208601610f9a565b91505092915050565b60008060006060848603121561102357611022610bde565b5b600084013567ffffffffffffffff81111561104157611040610be3565b5b61104d86828701610f27565b935050602061105e86828701610ccb565b925050604084013567ffffffffffffffff81111561107f5761107e610be3565b5b61108b86828701610fdc565b9150509250925092565b600081519050919050565b600082825260208201905092915050565b6000819050602082019050919050565b6110ca81610b98565b82525050565b7f4e487b7100000000000000000000000000000000000000000000000000000000600052602160045260246000fd5b600381106111105761110f6110d0565b5b50565b6000819050611121826110ff565b919050565b600061113182611113565b9050919050565b61114181611126565b82525050565b600081519050919050565b600082825260208201905092915050565b6000819050602082019050919050565b61117c81610d31565b82525050565b600061118e8383611173565b60208301905092915050565b6000602082019050919050565b60006111b282611147565b6111bc8185611152565b93506111c783611163565b8060005b838110156111f85781516111df8882611182565b97506111ea8361119a565b9250506001810190506111cb565b5085935050505092915050565b600060608301600083015161121d60008601826110c1565b5060208301516112306020860182611138565b506040830151848203604086015261124882826111a7565b9150508091505092915050565b60006112618383611205565b905092915050565b6000602082019050919050565b600061128182611095565b61128b81856110a0565b93508360208202850161129d856110b1565b8060005b858110156112d957848403895281516112ba8582611255565b94506112c583611269565b925060208a019950506001810190506112a1565b50829750879550505050505092915050565b600081519050919050565b600082825260208201905092915050565b60005b8381101561132557808201518184015260208101905061130a565b83811115611334576000848401525b50505050565b6000611345826112eb565b61134f81856112f6565b935061135f818560208601611307565b61136881610bed565b840191505092915050565b6000606082019050818103600083015261138d8186611276565b905061139c6020830185610baa565b81810360408301526113ae818461133a565b9050949350505050565b600060208201905081810360008301526113d2818461133a565b905092915050565b6000819050919050565b6113ed816113da565b81146113f857600080fd5b50565b60008135905061140a816113e4565b92915050565b60006020828403121561142657611425610bde565b5b6000611434848285016113fb565b91505092915050565b61144681611126565b82525050565b60006040820190506114616000830185610baa565b61146e602083018461143d565b9392505050565b600082825260208201905092915050565b7f557067726164653a20616c726561647920726567697374657265642e00000000600082015250565b60006114bc601c83611475565b91506114c782611486565b602082019050919050565b600060208201905081810360008301526114eb816114af565b9050919050565b7f4e487b7100000000000000000000000000000000000000000000000000000000600052603260045260246000fd5b7f4e487b7100000000000000000000000000000000000000000000000000000000600052601160045260246000fd5b600061155b826113da565b91507fffffffffffffffffffffffffffffffffffffffffffffffffffffffffffffffff82141561158e5761158d611521565b5b600182019050919050565b600060208201905081810360008301526115b38184611276565b905092915050565b7f4e487b7100000000000000000000000000000000000000000000000000000000600052602260045260246000fd5b6000600282049050600182168061160257607f821691505b60208210811415611616576116156115bb565b5b50919050565b600081905092915050565b6000611632826112eb565b61163c818561161c565b935061164c818560208601611307565b80840191505092915050565b60008160601b9050919050565b600061167082611658565b9050919050565b600061168282611665565b9050919050565b61169a61169582610b98565b611677565b82525050565b60006116ac8286611627565b91506116b88285611689565b6014820191506116c88284611627565b9150819050949350505050565b7f466163746f72793a206661696c6564206465706c6f796d656e74000000000000600082015250565b600061170b601a83611475565b9150611716826116d5565b602082019050919050565b6000602082019050818103600083015261173a816116fe565b905091905056fea26469706673582212203be4bc7d0eb73f2a665e752c8b543a629c37df72eec7edea47122575320033a864736f6c634300080c0033608060405234801561001057600080fd5b5061119f806100206000396000f3fe608060405234801561001057600080fd5b50600436106100575760003560e01c80636d4ce63c1461005c57806373d4a13a1461007c578063b27fb3111461009a578063bff0b451146100cb578063d4b83992146100e7575b600080fd5b610064610105565b60405161007393929190610b14565b60405180910390f35b6100846103d3565b6040516100919190610b59565b60405180910390f35b6100b460048036038101906100af9190610bc5565b610461565b6040516100c2929190610c01565b60405180910390f35b6100e560048036038101906100e09190610f5a565b6104c2565b005b6100ef61067f565b6040516100fc9190610fa3565b60405180910390f35b606060006060600060018054905067ffffffffffffffff81111561012c5761012b610c2f565b5b60405190808252806020026020018201604052801561016557816020015b6101526106a5565b81526020019060019003908161014a5790505b50905060005b81518110156103145760405180606001604052806001838154811061019357610192610fbe565b5b906000526020600020906002020160000160009054906101000a900473ffffffffffffffffffffffffffffffffffffffff1673ffffffffffffffffffffffffffffffffffffffff168152602001600183815481106101f4576101f3610fbe565b5b906000526020600020906002020160000160149054906101000a900460ff16600281111561022557610224610825565b5b81526020016001838154811061023e5761023d610fbe565b5b90600052602060002090600202016001018054806020026020016040519081016040528092919081815260200182805480156102db57602002820191906000526020600020906000905b82829054906101000a900460e01b7bffffffffffffffffffffffffffffffffffffffffffffffffffffffff1916815260200190600401906020826003010492830192600103820291508084116102885790505b50505050508152508282815181106102f6576102f5610fbe565b5b6020026020010181905250808061030c9061101c565b91505061016b565b5080600260009054906101000a900473ffffffffffffffffffffffffffffffffffffffff16600380805461034790611094565b80601f016020809104026020016040519081016040528092919081815260200182805461037390611094565b80156103c05780601f10610395576101008083540402835291602001916103c0565b820191906000526020600020905b8154815290600101906020018083116103a357829003601f168201915b5050505050905093509350935050909192565b600380546103e090611094565b80601f016020809104026020016040519081016040528092919081815260200182805461040c90611094565b80156104595780601f1061042e57610100808354040283529160200191610459565b820191906000526020600020905b81548152906001019060200180831161043c57829003601f168201915b505050505081565b6001818154811061047157600080fd5b90600052602060002090600202016000915090508060000160009054906101000a900473ffffffffffffffffffffffffffffffffffffffff16908060000160149054906101000a900460ff16905082565b600460009054906101000a900460ff1615610512576040517f08c379a000000000000000000000000000000000000000000000000000000000815260040161050990611149565b60405180910390fd5b61051a6106a5565b60005b825181101561065f5782818151811061053957610538610fbe565b5b6020026020010151915060016040518060600160405280600073ffffffffffffffffffffffffffffffffffffffff1681526020016002808111156105805761057f610825565b5b81526020018460400151815250908060018154018082558091505060019003906000526020600020906002020160009091909190915060008201518160000160006101000a81548173ffffffffffffffffffffffffffffffffffffffff021916908373ffffffffffffffffffffffffffffffffffffffff16021790555060208201518160000160146101000a81548160ff0219169083600281111561062857610627610825565b5b021790555060408201518160010190805190602001906106499291906106ee565b50505080806106579061101c565b91505061051d565b506001600460006101000a81548160ff0219169083151502179055505050565b600260009054906101000a900473ffffffffffffffffffffffffffffffffffffffff1681565b6040518060600160405280600073ffffffffffffffffffffffffffffffffffffffff168152602001600060028111156106e1576106e0610825565b5b8152602001606081525090565b8280548282559060005260206000209060070160089004810192821561078a5791602002820160005b8382111561075857835183826101000a81548163ffffffff021916908360e01c02179055509260200192600401602081600301049283019260010302610717565b80156107885782816101000a81549063ffffffff0219169055600401602081600301049283019260010302610758565b505b509050610797919061079b565b5090565b5b808211156107b457600081600090555060010161079c565b5090565b600081519050919050565b600082825260208201905092915050565b6000819050602082019050919050565b600073ffffffffffffffffffffffffffffffffffffffff82169050919050565b600061080f826107e4565b9050919050565b61081f81610804565b82525050565b7f4e487b7100000000000000000000000000000000000000000000000000000000600052602160045260246000fd5b6003811061086557610864610825565b5b50565b600081905061087682610854565b919050565b600061088682610868565b9050919050565b6108968161087b565b82525050565b600081519050919050565b600082825260208201905092915050565b6000819050602082019050919050565b60007fffffffff0000000000000000000000000000000000000000000000000000000082169050919050565b6108fd816108c8565b82525050565b600061090f83836108f4565b60208301905092915050565b6000602082019050919050565b60006109338261089c565b61093d81856108a7565b9350610948836108b8565b8060005b838110156109795781516109608882610903565b975061096b8361091b565b92505060018101905061094c565b5085935050505092915050565b600060608301600083015161099e6000860182610816565b5060208301516109b1602086018261088d565b50604083015184820360408601526109c98282610928565b9150508091505092915050565b60006109e28383610986565b905092915050565b6000602082019050919050565b6000610a02826107b8565b610a0c81856107c3565b935083602082028501610a1e856107d4565b8060005b85811015610a5a5784840389528151610a3b85826109d6565b9450610a46836109ea565b925060208a01995050600181019050610a22565b50829750879550505050505092915050565b610a7581610804565b82525050565b600081519050919050565b600082825260208201905092915050565b60005b83811015610ab5578082015181840152602081019050610a9a565b83811115610ac4576000848401525b50505050565b6000601f19601f8301169050919050565b6000610ae682610a7b565b610af08185610a86565b9350610b00818560208601610a97565b610b0981610aca565b840191505092915050565b60006060820190508181036000830152610b2e81866109f7565b9050610b3d6020830185610a6c565b8181036040830152610b4f8184610adb565b9050949350505050565b60006020820190508181036000830152610b738184610adb565b905092915050565b6000604051905090565b600080fd5b600080fd5b6000819050919050565b610ba281610b8f565b8114610bad57600080fd5b50565b600081359050610bbf81610b99565b92915050565b600060208284031215610bdb57610bda610b85565b5b6000610be984828501610bb0565b91505092915050565b610bfb8161087b565b82525050565b6000604082019050610c166000830185610a6c565b610c236020830184610bf2565b9392505050565b600080fd5b7f4e487b7100000000000000000000000000000000000000000000000000000000600052604160045260246000fd5b610c6782610aca565b810181811067ffffffffffffffff82111715610c8657610c85610c2f565b5b80604052505050565b6000610c99610b7b565b9050610ca58282610c5e565b919050565b600067ffffffffffffffff821115610cc557610cc4610c2f565b5b602082029050602081019050919050565b600080fd5b600080fd5b600080fd5b610cee81610804565b8114610cf957600080fd5b50565b600081359050610d0b81610ce5565b92915050565b60038110610d1e57600080fd5b50565b600081359050610d3081610d11565b92915050565b600067ffffffffffffffff821115610d5157610d50610c2f565b5b602082029050602081019050919050565b610d6b816108c8565b8114610d7657600080fd5b50565b600081359050610d8881610d62565b92915050565b6000610da1610d9c84610d36565b610c8f565b90508083825260208201905060208402830185811115610dc457610dc3610cd6565b5b835b81811015610ded5780610dd98882610d79565b845260208401935050602081019050610dc6565b5050509392505050565b600082601f830112610e0c57610e0b610c2a565b5b8135610e1c848260208601610d8e565b91505092915050565b600060608284031215610e3b57610e3a610cdb565b5b610e456060610c8f565b90506000610e5584828501610cfc565b6000830152506020610e6984828501610d21565b602083015250604082013567ffffffffffffffff811115610e8d57610e8c610ce0565b5b610e9984828501610df7565b60408301525092915050565b6000610eb8610eb384610caa565b610c8f565b90508083825260208201905060208402830185811115610edb57610eda610cd6565b5b835b81811015610f2257803567ffffffffffffffff811115610f0057610eff610c2a565b5b808601610f0d8982610e25565b85526020850194505050602081019050610edd565b5050509392505050565b600082601f830112610f4157610f40610c2a565b5b8135610f51848260208601610ea5565b91505092915050565b600060208284031215610f7057610f6f610b85565b5b600082013567ffffffffffffffff811115610f8e57610f8d610b8a565b5b610f9a84828501610f2c565b91505092915050565b6000602082019050610fb86000830184610a6c565b92915050565b7f4e487b7100000000000000000000000000000000000000000000000000000000600052603260045260246000fd5b7f4e487b7100000000000000000000000000000000000000000000000000000000600052601160045260246000fd5b600061102782610b8f565b91507fffffffffffffffffffffffffffffffffffffffffffffffffffffffffffffffff82141561105a57611059610fed565b5b600182019050919050565b7f4e487b7100000000000000000000000000000000000000000000000000000000600052602260045260246000fd5b600060028204905060018216806110ac57607f821691505b602082108114156110c0576110bf611065565b5b50919050565b600082825260208201905092915050565b7f5061636b61676552656d6f76653a20616c726561647920696e697469616c697a60008201527f65642e0000000000000000000000000000000000000000000000000000000000602082015250565b60006111336023836110c6565b915061113e826110d7565b604082019050919050565b6000602082019050818103600083015261116281611126565b905091905056fea26469706673582212205d3f1d58fecc8d8eb334291c51b6bf19cfd151bc365ff06f11374c433de78d9464736f6c634300080c0033",
  "linkReferences": {},
  "deployedLinkReferences": {}
}