{
  "_format": "hh-sol-artifact-1",
  "contractName": "DiamondCutFacet",
  "sourceName": "contracts/_library/habitat/facets/DiamondCutFacet.sol",
  "abi": [
    {
      "anonymous": false,
      "inputs": [
        {
          "components": [
            {
              "internalType": "address",
              "name": "facetAddress",
              "type": "address"
            },
            {
              "internalType": "enum IDiamondCut.FacetCutAction",
              "name": "action",
              "type": "uint8"
            },
            {
              "internalType": "bytes4[]",
              "name": "functionSelectors",
              "type": "bytes4[]"
            }
          ],
          "indexed": false,
          "internalType": "struct IDiamondCut.FacetCut[]",
          "name": "_diamondCut",
          "type": "tuple[]"
        },
        {
          "indexed": false,
          "internalType": "address",
          "name": "_init",
          "type": "address"
        },
        {
          "indexed": false,
          "internalType": "bytes",
          "name": "_calldata",
          "type": "bytes"
        }
      ],
      "name": "DiamondCut",
      "type": "event"
    },
    {
      "inputs": [
        {
          "components": [
            {
              "internalType": "address",
              "name": "facetAddress",
              "type": "address"
            },
            {
              "internalType": "enum IDiamondCut.FacetCutAction",
              "name": "action",
              "type": "uint8"
            },
            {
              "internalType": "bytes4[]",
              "name": "functionSelectors",
              "type": "bytes4[]"
            }
          ],
          "internalType": "struct IDiamondCut.FacetCut[]",
          "name": "_diamondCut",
          "type": "tuple[]"
        },
        {
          "internalType": "address",
          "name": "_init",
          "type": "address"
        },
        {
          "internalType": "bytes",
          "name": "_calldata",
          "type": "bytes"
        }
      ],
      "name": "diamondCut",
      "outputs": [],
      "stateMutability": "nonpayable",
      "type": "function"
    },
    {
      "inputs": [
        {
          "internalType": "address",
          "name": "repo",
          "type": "address"
        }
      ],
      "name": "setRepo",
      "outputs": [],
      "stateMutability": "nonpayable",
      "type": "function"
    }
  ],
  "bytecode": "0x608060405234801561001057600080fd5b50612330806100206000396000f3fe608060405234801561001057600080fd5b50600436106100365760003560e01c80631f931c1c1461003b5780638185169f14610057575b600080fd5b610055600480360381019061005091906112a2565b610073565b005b610071600480360381019061006c9190611337565b6102d1565b005b61007b610324565b60006100856103bf565b905060008160020160009054906101000a900461ffff1661ffff16905060008190506000806007831611156100d157836001016000600384901c81526020019081526020016000205490505b60005b898990508110156101e6576101cb83838c8c858181106100f7576100f6611364565b5b905060200281019061010991906113a2565b600001602081019061011b9190611337565b8d8d8681811061012e5761012d611364565b5b905060200281019061014091906113a2565b602001602081019061015291906113ef565b8e8e8781811061016557610164611364565b5b905060200281019061017791906113a2565b8060400190610186919061141c565b80806020026020016040519081016040528093929190818152602001838360200280828437600081840152601f19601f820116905080830192505050505050506103ec565b809350819450505080806101de906114b8565b9150506100d4565b5082821461020e57818460020160006101000a81548161ffff021916908361ffff1602179055505b60006007831611156102395780846001016000600385901c8152602001908152602001600020819055505b7f8faa70878671ccd212d20771b795c50af8fd3ff6cf27f4bde57e5d4de0aeb67389898989896040516102709594939291906118f1565b60405180910390a16102c68787878080601f016020809104026020016040519081016040528093929190818152602001838380828437600081840152601f19601f82011690508083019250505050505050610eed565b505050505050505050565b60006102db611100565b9050818160000160006101000a81548173ffffffffffffffffffffffffffffffffffffffff021916908373ffffffffffffffffffffffffffffffffffffffff1602179055505050565b61032c6103bf565b60040160009054906101000a900473ffffffffffffffffffffffffffffffffffffffff1673ffffffffffffffffffffffffffffffffffffffff163373ffffffffffffffffffffffffffffffffffffffff16146103bd576040517f08c379a00000000000000000000000000000000000000000000000000000000081526004016103b4906119bd565b60405180910390fd5b565b6000807fc8fcad8db84d3cc18b4c41d551ea0ee66dd599cde068d998e57d5e09332c131c90508091505090565b60008060006103f96103bf565b9050600084511161043f576040517f08c379a000000000000000000000000000000000000000000000000000000000815260040161043690611a4f565b60405180910390fd5b6000600281111561045357610452611559565b5b85600281111561046657610465611559565b5b14156106a65761048e866040518060600160405280602481526020016122876024913961112d565b60005b84518110156106a05760008582815181106104af576104ae611364565b5b602002602001015190506000836000016000837bffffffffffffffffffffffffffffffffffffffffffffffffffffffff19167bffffffffffffffffffffffffffffffffffffffffffffffffffffffff19168152602001908152602001600020549050600073ffffffffffffffffffffffffffffffffffffffff168160601c73ffffffffffffffffffffffffffffffffffffffff1614610583576040517f08c379a000000000000000000000000000000000000000000000000000000000815260040161057a90611ae1565b60405180910390fd5b8a60001b8960601b6bffffffffffffffffffffffff191617846000016000847bffffffffffffffffffffffffffffffffffffffffffffffffffffffff19167bffffffffffffffffffffffffffffffffffffffffffffffffffffffff19168152602001908152602001600020819055506000600560078d16901b905080837bffffffffffffffffffffffffffffffffffffffffffffffffffffffff1916901c817fffffffff0000000000000000000000000000000000000000000000000000000060001b901c198c16179a5060e081141561067c578a85600101600060038f901c8152602001908152602001600020819055506000801b9a505b8b80610687906114b8565b9c50505050508080610698906114b8565b915050610491565b50610edc565b600160028111156106ba576106b9611559565b5b8560028111156106cd576106cc611559565b5b1415610967576106f5866040518060600160405280602881526020016122d36028913961112d565b60005b845181101561096157600085828151811061071657610715611364565b5b602002602001015190506000836000016000837bffffffffffffffffffffffffffffffffffffffffffffffffffffffff19167bffffffffffffffffffffffffffffffffffffffffffffffffffffffff1916815260200190815260200160002054905060008160601c90503073ffffffffffffffffffffffffffffffffffffffff168173ffffffffffffffffffffffffffffffffffffffff1614156107ef576040517f08c379a00000000000000000000000000000000000000000000000000000000081526004016107e690611b73565b60405180910390fd5b8973ffffffffffffffffffffffffffffffffffffffff168173ffffffffffffffffffffffffffffffffffffffff16141561085e576040517f08c379a000000000000000000000000000000000000000000000000000000000815260040161085590611c05565b60405180910390fd5b600073ffffffffffffffffffffffffffffffffffffffff168173ffffffffffffffffffffffffffffffffffffffff1614156108ce576040517f08c379a00000000000000000000000000000000000000000000000000000000081526004016108c590611c97565b60405180910390fd5b8960601b6bffffffffffffffffffffffff19166bffffffffffffffffffffffff60001b831617856000016000857bffffffffffffffffffffffffffffffffffffffffffffffffffffffff19167bffffffffffffffffffffffffffffffffffffffffffffffffffffffff19168152602001908152602001600020819055505050508080610959906114b8565b9150506106f8565b50610edb565b60028081111561097a57610979611559565b5b85600281111561098d5761098c611559565b5b1415610e9f57600073ffffffffffffffffffffffffffffffffffffffff168673ffffffffffffffffffffffffffffffffffffffff1614610a02576040517f08c379a00000000000000000000000000000000000000000000000000000000081526004016109f990611d29565b60405180910390fd5b6000600389901c9050600060078a16905060005b8651811015610e7d576000801b8a1415610a59578280610a3590611d49565b93505083600101600084815260200190815260200160002054995060079150610a68565b8180610a6490611d49565b9250505b6000806000808a8581518110610a8157610a80611364565b5b602002602001015190506000886000016000837bffffffffffffffffffffffffffffffffffffffffffffffffffffffff19167bffffffffffffffffffffffffffffffffffffffffffffffffffffffff19168152602001908152602001600020549050600073ffffffffffffffffffffffffffffffffffffffff168160601c73ffffffffffffffffffffffffffffffffffffffff161415610b56576040517f08c379a0000000000000000000000000000000000000000000000000000000008152600401610b4d90611de5565b60405180910390fd5b3073ffffffffffffffffffffffffffffffffffffffff168160601c73ffffffffffffffffffffffffffffffffffffffff161415610bc8576040517f08c379a0000000000000000000000000000000000000000000000000000000008152600401610bbf90611e77565b60405180910390fd5b600587901b8f901b9450817bffffffffffffffffffffffffffffffffffffffffffffffffffffffff1916857bffffffffffffffffffffffffffffffffffffffffffffffffffffffff191614610ce557886000016000867bffffffffffffffffffffffffffffffffffffffffffffffffffffffff19167bffffffffffffffffffffffffffffffffffffffffffffffffffffffff19168152602001908152602001600020546bffffffffffffffffffffffff19166bffffffffffffffffffffffff60001b821617896000016000877bffffffffffffffffffffffffffffffffffffffffffffffffffffffff19167bffffffffffffffffffffffffffffffffffffffffffffffffffffffff19168152602001908152602001600020819055505b886000016000837bffffffffffffffffffffffffffffffffffffffffffffffffffffffff19167bffffffffffffffffffffffffffffffffffffffffffffffffffffffff191681526020019081526020016000206000905560008160001c61ffff169050600381901c9450600560078216901b9350505050858214610ded57600087600101600084815260200190815260200160002054905081847bffffffffffffffffffffffffffffffffffffffffffffffffffffffff1916901c827fffffffff0000000000000000000000000000000000000000000000000000000060001b901c198216179050808860010160008581526020019081526020016000208190555050610e3e565b80837bffffffffffffffffffffffffffffffffffffffffffffffffffffffff1916901c817fffffffff0000000000000000000000000000000000000000000000000000000060001b901c198e16179c505b6000851415610e6757866001016000878152602001908152602001600020600090556000801b9c505b5050508080610e75906114b8565b915050610a16565b5080600883610e8c9190611e97565b610e969190611ef1565b99505050610eda565b6040517f08c379a0000000000000000000000000000000000000000000000000000000008152600401610ed190611fb9565b60405180910390fd5b5b5b878792509250509550959350505050565b600073ffffffffffffffffffffffffffffffffffffffff168273ffffffffffffffffffffffffffffffffffffffff161415610f6b576000815114610f66576040517f08c379a0000000000000000000000000000000000000000000000000000000008152600401610f5d9061204b565b60405180910390fd5b6110fc565b6000815111610faf576040517f08c379a0000000000000000000000000000000000000000000000000000000008152600401610fa6906120dd565b60405180910390fd5b3073ffffffffffffffffffffffffffffffffffffffff168273ffffffffffffffffffffffffffffffffffffffff161461100557611004826040518060600160405280602881526020016122ab6028913961112d565b5b6000808373ffffffffffffffffffffffffffffffffffffffff168360405161102d9190612177565b600060405180830381855af49150503d8060008114611068576040519150601f19603f3d011682016040523d82523d6000602084013e61106d565b606091505b5091509150816110f9576000815111156110be57806040517f08c379a00000000000000000000000000000000000000000000000000000000081526004016110b591906121d2565b60405180910390fd5b6040517f08c379a00000000000000000000000000000000000000000000000000000000081526004016110f090612266565b60405180910390fd5b50505b5050565b6000807fb4451fe7bdae8a56952c5ccd2e4a9901bb22289710f2142770cf04d9c373edce90508091505090565b6000823b9050600081118290611179576040517f08c379a000000000000000000000000000000000000000000000000000000000815260040161117091906121d2565b60405180910390fd5b50505050565b600080fd5b600080fd5b600080fd5b600080fd5b600080fd5b60008083601f8401126111ae576111ad611189565b5b8235905067ffffffffffffffff8111156111cb576111ca61118e565b5b6020830191508360208202830111156111e7576111e6611193565b5b9250929050565b600073ffffffffffffffffffffffffffffffffffffffff82169050919050565b6000611219826111ee565b9050919050565b6112298161120e565b811461123457600080fd5b50565b60008135905061124681611220565b92915050565b60008083601f84011261126257611261611189565b5b8235905067ffffffffffffffff81111561127f5761127e61118e565b5b60208301915083600182028301111561129b5761129a611193565b5b9250929050565b6000806000806000606086880312156112be576112bd61117f565b5b600086013567ffffffffffffffff8111156112dc576112db611184565b5b6112e888828901611198565b955095505060206112fb88828901611237565b935050604086013567ffffffffffffffff81111561131c5761131b611184565b5b6113288882890161124c565b92509250509295509295909350565b60006020828403121561134d5761134c61117f565b5b600061135b84828501611237565b91505092915050565b7f4e487b7100000000000000000000000000000000000000000000000000000000600052603260045260246000fd5b600080fd5b600080fd5b600080fd5b6000823560016060038336030381126113be576113bd611393565b5b80830191505092915050565b600381106113d757600080fd5b50565b6000813590506113e9816113ca565b92915050565b6000602082840312156114055761140461117f565b5b6000611413848285016113da565b91505092915050565b6000808335600160200384360303811261143957611438611393565b5b80840192508235915067ffffffffffffffff82111561145b5761145a611398565b5b6020830192506020820236038313156114775761147661139d565b5b509250929050565b7f4e487b7100000000000000000000000000000000000000000000000000000000600052601160045260246000fd5b6000819050919050565b60006114c3826114ae565b91507fffffffffffffffffffffffffffffffffffffffffffffffffffffffffffffffff8214156114f6576114f561147f565b5b600182019050919050565b600082825260208201905092915050565b6000819050919050565b600061152b6020840184611237565b905092915050565b61153c8161120e565b82525050565b600061155160208401846113da565b905092915050565b7f4e487b7100000000000000000000000000000000000000000000000000000000600052602160045260246000fd5b6003811061159957611598611559565b5b50565b60008190506115aa82611588565b919050565b60006115ba8261159c565b9050919050565b6115ca816115af565b82525050565b600080fd5b600080fd5b600080fd5b600080833560016020038436030381126115fc576115fb6115da565b5b83810192508235915060208301925067ffffffffffffffff821115611624576116236115d0565b5b60208202360384131561163a576116396115d5565b5b509250929050565b600082825260208201905092915050565b6000819050919050565b60007fffffffff0000000000000000000000000000000000000000000000000000000082169050919050565b6116928161165d565b82525050565b60006116a48383611689565b60208301905092915050565b6116b98161165d565b81146116c457600080fd5b50565b6000813590506116d6816116b0565b92915050565b60006116eb60208401846116c7565b905092915050565b6000602082019050919050565b600061170c8385611642565b935061171782611653565b8060005b858110156117505761172d82846116dc565b6117378882611698565b9750611742836116f3565b92505060018101905061171b565b5085925050509392505050565b600060608301611770600084018461151c565b61177d6000860182611533565b5061178b6020840184611542565b61179860208601826115c1565b506117a660408401846115df565b85830360408701526117b9838284611700565b925050508091505092915050565b60006117d3838361175d565b905092915050565b6000823560016060038336030381126117f7576117f66115da565b5b82810191505092915050565b6000602082019050919050565b600061181c8385611501565b93508360208402850161182e84611512565b8060005b8781101561187257848403895261184982846117db565b61185385826117c7565b945061185e83611803565b925060208a01995050600181019050611832565b50829750879450505050509392505050565b61188d8161120e565b82525050565b600082825260208201905092915050565b82818337600083830152505050565b6000601f19601f8301169050919050565b60006118d08385611893565b93506118dd8385846118a4565b6118e6836118b3565b840190509392505050565b6000606082019050818103600083015261190c818789611810565b905061191b6020830186611884565b818103604083015261192e8184866118c4565b90509695505050505050565b600082825260208201905092915050565b7f4c69624469616d6f6e643a204d75737420626520636f6e7472616374206f776e60008201527f6572000000000000000000000000000000000000000000000000000000000000602082015250565b60006119a760228361193a565b91506119b28261194b565b604082019050919050565b600060208201905081810360008301526119d68161199a565b9050919050565b7f4c69624469616d6f6e644375743a204e6f2073656c6563746f727320696e206660008201527f6163657420746f20637574000000000000000000000000000000000000000000602082015250565b6000611a39602b8361193a565b9150611a44826119dd565b604082019050919050565b60006020820190508181036000830152611a6881611a2c565b9050919050565b7f4c69624469616d6f6e644375743a2043616e2774206164642066756e6374696f60008201527f6e207468617420616c7265616479206578697374730000000000000000000000602082015250565b6000611acb60358361193a565b9150611ad682611a6f565b604082019050919050565b60006020820190508181036000830152611afa81611abe565b9050919050565b7f4c69624469616d6f6e644375743a2043616e2774207265706c61636520696d6d60008201527f757461626c652066756e6374696f6e0000000000000000000000000000000000602082015250565b6000611b5d602f8361193a565b9150611b6882611b01565b604082019050919050565b60006020820190508181036000830152611b8c81611b50565b9050919050565b7f4c69624469616d6f6e644375743a2043616e2774207265706c6163652066756e60008201527f6374696f6e20776974682073616d652066756e6374696f6e0000000000000000602082015250565b6000611bef60388361193a565b9150611bfa82611b93565b604082019050919050565b60006020820190508181036000830152611c1e81611be2565b9050919050565b7f4c69624469616d6f6e644375743a2043616e2774207265706c6163652066756e60008201527f6374696f6e207468617420646f65736e27742065786973740000000000000000602082015250565b6000611c8160388361193a565b9150611c8c82611c25565b604082019050919050565b60006020820190508181036000830152611cb081611c74565b9050919050565b7f4c69624469616d6f6e644375743a2052656d6f7665206661636574206164647260008201527f657373206d757374206265206164647265737328302900000000000000000000602082015250565b6000611d1360368361193a565b9150611d1e82611cb7565b604082019050919050565b60006020820190508181036000830152611d4281611d06565b9050919050565b6000611d54826114ae565b91506000821415611d6857611d6761147f565b5b600182039050919050565b7f4c69624469616d6f6e644375743a2043616e27742072656d6f76652066756e6360008201527f74696f6e207468617420646f65736e2774206578697374000000000000000000602082015250565b6000611dcf60378361193a565b9150611dda82611d73565b604082019050919050565b60006020820190508181036000830152611dfe81611dc2565b9050919050565b7f4c69624469616d6f6e644375743a2043616e27742072656d6f766520696d6d7560008201527f7461626c652066756e6374696f6e000000000000000000000000000000000000602082015250565b6000611e61602e8361193a565b9150611e6c82611e05565b604082019050919050565b60006020820190508181036000830152611e9081611e54565b9050919050565b6000611ea2826114ae565b9150611ead836114ae565b9250817fffffffffffffffffffffffffffffffffffffffffffffffffffffffffffffffff0483118215151615611ee657611ee561147f565b5b828202905092915050565b6000611efc826114ae565b9150611f07836114ae565b9250827fffffffffffffffffffffffffffffffffffffffffffffffffffffffffffffffff03821115611f3c57611f3b61147f565b5b828201905092915050565b7f4c69624469616d6f6e644375743a20496e636f7272656374204661636574437560008201527f74416374696f6e00000000000000000000000000000000000000000000000000602082015250565b6000611fa360278361193a565b9150611fae82611f47565b604082019050919050565b60006020820190508181036000830152611fd281611f96565b9050919050565b7f4c69624469616d6f6e644375743a205f696e697420697320616464726573732860008201527f3029206275745f63616c6c64617461206973206e6f7420656d70747900000000602082015250565b6000612035603c8361193a565b915061204082611fd9565b604082019050919050565b6000602082019050818103600083015261206481612028565b9050919050565b7f4c69624469616d6f6e644375743a205f63616c6c6461746120697320656d707460008201527f7920627574205f696e6974206973206e6f742061646472657373283029000000602082015250565b60006120c7603d8361193a565b91506120d28261206b565b604082019050919050565b600060208201905081810360008301526120f6816120ba565b9050919050565b600081519050919050565b600081905092915050565b60005b83811015612131578082015181840152602081019050612116565b83811115612140576000848401525b50505050565b6000612151826120fd565b61215b8185612108565b935061216b818560208601612113565b80840191505092915050565b60006121838284612146565b915081905092915050565b600081519050919050565b60006121a48261218e565b6121ae818561193a565b93506121be818560208601612113565b6121c7816118b3565b840191505092915050565b600060208201905081810360008301526121ec8184612199565b905092915050565b7f4c69624469616d6f6e644375743a205f696e69742066756e6374696f6e20726560008201527f7665727465640000000000000000000000000000000000000000000000000000602082015250565b600061225060268361193a565b915061225b826121f4565b604082019050919050565b6000602082019050818103600083015261227f81612243565b905091905056fe4c69624469616d6f6e644375743a2041646420666163657420686173206e6f20636f64654c69624469616d6f6e644375743a205f696e6974206164647265737320686173206e6f20636f64654c69624469616d6f6e644375743a205265706c61636520666163657420686173206e6f20636f6465a2646970667358221220327bc15170cbc9eca72c52e2a6a2f6fb1c1a0218e42e90f3d7a3714489e0e6e464736f6c634300080c0033",
  "linkReferences": {},
  "deployedLinkReferences": {}
}