{
  "_format": "hh-sol-artifact-1",
  "contractName": "LocalFacet",
  "sourceName": "contracts/_library/habitat/facets/LocalFacet.sol",
  "abi": [
    {
      "inputs": [
        {
          "internalType": "uint256",
          "name": "rings",
          "type": "uint256"
        }
      ],
      "name": "getCounter",
      "outputs": [
        {
          "internalType": "uint256",
          "name": "",
          "type": "uint256"
        }
      ],
      "stateMutability": "view",
      "type": "function"
    },
    {
      "inputs": [
        {
          "internalType": "uint256",
          "name": "asd",
          "type": "uint256"
        },
        {
          "internalType": "address",
          "name": "addr",
          "type": "address"
        },
        {
          "internalType": "bool",
          "name": "cic",
          "type": "bool"
        }
      ],
      "name": "initCounter",
      "outputs": [],
      "stateMutability": "nonpayable",
      "type": "function"
    }
  ],
  "bytecode": "0x608060405234801561001057600080fd5b50610416806100206000396000f3fe608060405234801561001057600080fd5b50600436106100365760003560e01c8063214aed451461003b5780637d9825c61461006b575b600080fd5b6100556004803603810190610050919061019e565b610087565b60405161006291906101da565b60405180910390f35b6100856004803603810190610080919061028b565b6100ac565b005b600080610092610136565b90508281600001546100a4919061030d565b915050919050565b60006100b6610136565b90508060020160009054906101000a900460ff161561010a576040517f08c379a0000000000000000000000000000000000000000000000000000000008152600401610101906103c0565b60405180910390fd5b818160020160006101000a81548160ff0219169083151502179055506000816000018190555050505050565b6000807fb4026e2cff33ccc8c4677a4cda06ed94a8d1a2a5524e59fbfe9e8cc3f3c31efd90508091505090565b600080fd5b6000819050919050565b61017b81610168565b811461018657600080fd5b50565b60008135905061019881610172565b92915050565b6000602082840312156101b4576101b3610163565b5b60006101c284828501610189565b91505092915050565b6101d481610168565b82525050565b60006020820190506101ef60008301846101cb565b92915050565b600073ffffffffffffffffffffffffffffffffffffffff82169050919050565b6000610220826101f5565b9050919050565b61023081610215565b811461023b57600080fd5b50565b60008135905061024d81610227565b92915050565b60008115159050919050565b61026881610253565b811461027357600080fd5b50565b6000813590506102858161025f565b92915050565b6000806000606084860312156102a4576102a3610163565b5b60006102b286828701610189565b93505060206102c38682870161023e565b92505060406102d486828701610276565b9150509250925092565b7f4e487b7100000000000000000000000000000000000000000000000000000000600052601160045260246000fd5b600061031882610168565b915061032383610168565b9250827fffffffffffffffffffffffffffffffffffffffffffffffffffffffffffffffff03821115610358576103576102de565b5b828201905092915050565b600082825260208201905092915050565b7f416c726561647920696e697469616c697a656400000000000000000000000000600082015250565b60006103aa601383610363565b91506103b582610374565b602082019050919050565b600060208201905081810360008301526103d98161039d565b905091905056fea26469706673582212206748edf4b620e412556f1d6e70fb4ef05c15752ba7c4b3b3cd79220382a9e21264736f6c634300080c0033",
  "linkReferences": {},
  "deployedLinkReferences": {}
}