{
  "_format": "hh-sol-artifact-1",
  "contractName": "Readable",
  "sourceName": "contracts/_library/solidstate/Readable.sol",
  "abi": [
    {
      "inputs": [
        {
          "internalType": "bytes4",
          "name": "selector",
          "type": "bytes4"
        }
      ],
      "name": "facetAddress",
      "outputs": [
        {
          "internalType": "address",
          "name": "facet",
          "type": "address"
        }
      ],
      "stateMutability": "view",
      "type": "function"
    },
    {
      "inputs": [],
      "name": "facetAddresses",
      "outputs": [
        {
          "internalType": "address[]",
          "name": "addresses",
          "type": "address[]"
        }
      ],
      "stateMutability": "view",
      "type": "function"
    },
    {
      "inputs": [
        {
          "internalType": "address",
          "name": "facet",
          "type": "address"
        }
      ],
      "name": "facetFunctionSelectors",
      "outputs": [
        {
          "internalType": "bytes4[]",
          "name": "selectors",
          "type": "bytes4[]"
        }
      ],
      "stateMutability": "view",
      "type": "function"
    },
    {
      "inputs": [],
      "name": "facets",
      "outputs": [
        {
          "components": [
            {
              "internalType": "address",
              "name": "target",
              "type": "address"
            },
            {
              "internalType": "bytes4[]",
              "name": "selectors",
              "type": "bytes4[]"
            }
          ],
          "internalType": "struct IDiamondReadable.Facet[]",
          "name": "diamondFacets",
          "type": "tuple[]"
        }
      ],
      "stateMutability": "view",
      "type": "function"
    },
    {
      "stateMutability": "payable",
      "type": "receive"
    }
  ],
  "bytecode": "0x608060405234801561001057600080fd5b506111b3806100206000396000f3fe6080604052600436106100435760003560e01c806352ef6b2c1461004f5780637a0ed6271461007a578063adfca15e146100a5578063cdffacc6146100e25761004a565b3661004a57005b600080fd5b34801561005b57600080fd5b5061006461011f565b6040516100719190610cc7565b60405180910390f35b34801561008657600080fd5b5061008f610387565b60405161009c9190610ed2565b60405180910390f35b3480156100b157600080fd5b506100cc60048036038101906100c79190610f25565b6108ef565b6040516100d99190610fc1565b60405180910390f35b3480156100ee57600080fd5b506101096004803603810190610104919061100f565b610b13565b604051610116919061104b565b60405180910390f35b6060600061012b610b7a565b90508060010160009054906101000a900461ffff1661ffff1667ffffffffffffffff81111561015d5761015c611066565b5b60405190808252806020026020018201604052801561018b5781602001602082028036833780820191505090505b50915060008060005b8360010160009054906101000a900461ffff1661ffff1682101561037d57600084600201600083815260200190815260200160002054905060005b60088110156103685783806101e3906110ce565b9450508560010160009054906101000a900461ffff1661ffff1684111561020957610368565b6000600582901b83901b90506000876000016000837bffffffffffffffffffffffffffffffffffffffffffffffffffffffff19167bffffffffffffffffffffffffffffffffffffffffffffffffffffffff191681526020019081526020016000205460601c90506000805b888110156102e6578a818151811061028f5761028e611117565b5b602002602001015173ffffffffffffffffffffffffffffffffffffffff168373ffffffffffffffffffffffffffffffffffffffff1614156102d357600191506102e6565b80806102de906110ce565b915050610274565b5080156102f557505050610355565b818a898151811061030957610308611117565b5b602002602001019073ffffffffffffffffffffffffffffffffffffffff16908173ffffffffffffffffffffffffffffffffffffffff1681525050878061034e906110ce565b9850505050505b8080610360906110ce565b9150506101cf565b50508080610375906110ce565b915050610194565b5081845250505090565b60606000610393610b7a565b90508060010160009054906101000a900461ffff1661ffff1667ffffffffffffffff8111156103c5576103c4611066565b5b6040519080825280602002602001820160405280156103fe57816020015b6103eb610ba7565b8152602001906001900390816103e35790505b50915060008160010160009054906101000a900461ffff1661ffff1667ffffffffffffffff81111561043357610432611066565b5b6040519080825280602002602001820160405280156104615781602001602082028036833780820191505090505b50905060008060005b8460010160009054906101000a900461ffff1661ffff1682101561087b57600085600201600083815260200190815260200160002054905060005b60088110156108665783806104b9906110ce565b9450508660010160009054906101000a900461ffff1661ffff168411156104df57610866565b6000600582901b83901b90506000886000016000837bffffffffffffffffffffffffffffffffffffffffffffffffffffffff19167bffffffffffffffffffffffffffffffffffffffffffffffffffffffff191681526020019081526020016000205460601c90506000805b888110156106b7578273ffffffffffffffffffffffffffffffffffffffff168c828151811061057c5761057b611117565b5b60200260200101516000015173ffffffffffffffffffffffffffffffffffffffff1614156106a457838c82815181106105b8576105b7611117565b5b6020026020010151602001518b83815181106105d7576105d6611117565b5b602002602001015160ff16815181106105f3576105f2611117565b5b60200260200101907bffffffffffffffffffffffffffffffffffffffffffffffffffffffff191690817bffffffffffffffffffffffffffffffffffffffffffffffffffffffff19168152505060ff8a828151811061065457610653611117565b5b602002602001015160ff161061066957600080fd5b89818151811061067c5761067b611117565b5b60200260200101805180919061069190611153565b60ff1660ff1681525050600191506106b7565b80806106af906110ce565b91505061054a565b5080156106c657505050610853565b818b89815181106106da576106d9611117565b5b60200260200101516000019073ffffffffffffffffffffffffffffffffffffffff16908173ffffffffffffffffffffffffffffffffffffffff16815250508960010160009054906101000a900461ffff1661ffff1667ffffffffffffffff81111561074857610747611066565b5b6040519080825280602002602001820160405280156107765781602001602082028036833780820191505090505b508b898151811061078a57610789611117565b5b602002602001015160200181905250828b89815181106107ad576107ac611117565b5b6020026020010151602001516000815181106107cc576107cb611117565b5b60200260200101907bffffffffffffffffffffffffffffffffffffffffffffffffffffffff191690817bffffffffffffffffffffffffffffffffffffffffffffffffffffffff191681525050600189898151811061082d5761082c611117565b5b602002602001019060ff16908160ff1681525050878061084c906110ce565b9850505050505b808061085e906110ce565b9150506104a5565b50508080610873906110ce565b91505061046a565b5060005b828110156108e457600084828151811061089c5761089b611117565b5b602002602001015160ff16905060008783815181106108be576108bd611117565b5b6020026020010151602001519050818152505080806108dc906110ce565b91505061087f565b508185525050505090565b606060006108fb610b7a565b90508060010160009054906101000a900461ffff1661ffff1667ffffffffffffffff81111561092d5761092c611066565b5b60405190808252806020026020018201604052801561095b5781602001602082028036833780820191505090505b50915060008060005b8360010160009054906101000a900461ffff1661ffff16821015610b0757600084600201600083815260200190815260200160002054905060005b6008811015610af25783806109b3906110ce565b9450508560010160009054906101000a900461ffff1661ffff168411156109d957610af2565b6000600582901b83901b9050866000016000827bffffffffffffffffffffffffffffffffffffffffffffffffffffffff19167bffffffffffffffffffffffffffffffffffffffffffffffffffffffff191681526020019081526020016000205460601c73ffffffffffffffffffffffffffffffffffffffff168973ffffffffffffffffffffffffffffffffffffffff161415610ade5780888781518110610a8357610a82611117565b5b60200260200101907bffffffffffffffffffffffffffffffffffffffffffffffffffffffff191690817bffffffffffffffffffffffffffffffffffffffffffffffffffffffff1916815250508580610ada906110ce565b9650505b508080610aea906110ce565b91505061099f565b50508080610aff906110ce565b915050610964565b50818452505050919050565b6000610b1d610b7a565b6000016000837bffffffffffffffffffffffffffffffffffffffffffffffffffffffff19167bffffffffffffffffffffffffffffffffffffffffffffffffffffffff191681526020019081526020016000205460601c9050919050565b6000807f177481ac65e4292921c69f62d1cc7f57541261e5d61c8175cf4e36a01c9bfc9390508091505090565b6040518060400160405280600073ffffffffffffffffffffffffffffffffffffffff168152602001606081525090565b600081519050919050565b600082825260208201905092915050565b6000819050602082019050919050565b600073ffffffffffffffffffffffffffffffffffffffff82169050919050565b6000610c2e82610c03565b9050919050565b610c3e81610c23565b82525050565b6000610c508383610c35565b60208301905092915050565b6000602082019050919050565b6000610c7482610bd7565b610c7e8185610be2565b9350610c8983610bf3565b8060005b83811015610cba578151610ca18882610c44565b9750610cac83610c5c565b925050600181019050610c8d565b5085935050505092915050565b60006020820190508181036000830152610ce18184610c69565b905092915050565b600081519050919050565b600082825260208201905092915050565b6000819050602082019050919050565b600081519050919050565b600082825260208201905092915050565b6000819050602082019050919050565b60007fffffffff0000000000000000000000000000000000000000000000000000000082169050919050565b610d7681610d41565b82525050565b6000610d888383610d6d565b60208301905092915050565b6000602082019050919050565b6000610dac82610d15565b610db68185610d20565b9350610dc183610d31565b8060005b83811015610df2578151610dd98882610d7c565b9750610de483610d94565b925050600181019050610dc5565b5085935050505092915050565b6000604083016000830151610e176000860182610c35565b5060208301518482036020860152610e2f8282610da1565b9150508091505092915050565b6000610e488383610dff565b905092915050565b6000602082019050919050565b6000610e6882610ce9565b610e728185610cf4565b935083602082028501610e8485610d05565b8060005b85811015610ec05784840389528151610ea18582610e3c565b9450610eac83610e50565b925060208a01995050600181019050610e88565b50829750879550505050505092915050565b60006020820190508181036000830152610eec8184610e5d565b905092915050565b600080fd5b610f0281610c23565b8114610f0d57600080fd5b50565b600081359050610f1f81610ef9565b92915050565b600060208284031215610f3b57610f3a610ef4565b5b6000610f4984828501610f10565b91505092915050565b600082825260208201905092915050565b6000610f6e82610d15565b610f788185610f52565b9350610f8383610d31565b8060005b83811015610fb4578151610f9b8882610d7c565b9750610fa683610d94565b925050600181019050610f87565b5085935050505092915050565b60006020820190508181036000830152610fdb8184610f63565b905092915050565b610fec81610d41565b8114610ff757600080fd5b50565b60008135905061100981610fe3565b92915050565b60006020828403121561102557611024610ef4565b5b600061103384828501610ffa565b91505092915050565b61104581610c23565b82525050565b6000602082019050611060600083018461103c565b92915050565b7f4e487b7100000000000000000000000000000000000000000000000000000000600052604160045260246000fd5b7f4e487b7100000000000000000000000000000000000000000000000000000000600052601160045260246000fd5b6000819050919050565b60006110d9826110c4565b91507fffffffffffffffffffffffffffffffffffffffffffffffffffffffffffffffff82141561110c5761110b611095565b5b600182019050919050565b7f4e487b7100000000000000000000000000000000000000000000000000000000600052603260045260246000fd5b600060ff82169050919050565b600061115e82611146565b915060ff82141561117257611171611095565b5b60018201905091905056fea2646970667358221220a94ad32d0c547f80c093ae03c835f457b524f178b14305344276ebf37cff64f364736f6c634300080c0033",
  "linkReferences": {},
  "deployedLinkReferences": {}
}