{
  "_format": "hh-sol-artifact-1",
  "contractName": "LibVotingPower",
  "sourceName": "contracts/_library/habitat/libraries/LibVotingPower.sol",
  "abi": [
    {
      "inputs": [],
      "name": "_getMaxAmountOfVotingPower",
      "outputs": [
        {
          "internalType": "uint256",
          "name": "",
          "type": "uint256"
        }
      ],
      "stateMutability": "view",
      "type": "function"
    }
  ],
  "bytecode": "0x60fb610052600b82828239805160001a607314610045577f4e487b7100000000000000000000000000000000000000000000000000000000600052600060045260246000fd5b30600052607381538281f3fe730000000000000000000000000000000000000000301460806040526004361060335760003560e01c8063200cd9cc146038575b600080fd5b603e6052565b6040516049919060ac565b60405180910390f35b600080605b6068565b9050806003015491505090565b6000807f534276485ab019670afde26394d87b7e6a7f0dab7b16287011cc6ad8ed0d94f690508091505090565b6000819050919050565b60a6816095565b82525050565b600060208201905060bf6000830184609f565b9291505056fea264697066735822122042ff27c1691eeb0d212f1553d18a77242af5338a7d832227eb729c338b4419e464736f6c634300080c0033",
  "linkReferences": {},
  "deployedLinkReferences": {}
}