{
  "_format": "hh-sol-artifact-1",
  "contractName": "Xpm",
  "sourceName": "contracts/Xpm.sol",
  "abi": [
    {
      "inputs": [
        {
          "components": [
            {
              "internalType": "address",
              "name": "target",
              "type": "address"
            },
            {
              "internalType": "enum IDiamondWritable.FacetCutAction",
              "name": "action",
              "type": "uint8"
            },
            {
              "internalType": "bytes4[]",
              "name": "selectors",
              "type": "bytes4[]"
            }
          ],
          "internalType": "struct IDiamondWritable.FacetCut[]",
          "name": "cuts",
          "type": "tuple[]"
        },
        {
          "internalType": "address",
          "name": "target",
          "type": "address"
        },
        {
          "internalType": "bytes",
          "name": "data",
          "type": "bytes"
        }
      ],
      "stateMutability": "nonpayable",
      "type": "constructor"
    },
    {
      "anonymous": false,
      "inputs": [
        {
          "indexed": true,
          "internalType": "address",
          "name": "previousOwner",
          "type": "address"
        },
        {
          "indexed": true,
          "internalType": "address",
          "name": "newOwner",
          "type": "address"
        }
      ],
      "name": "OwnershipTransferred",
      "type": "event"
    },
    {
      "stateMutability": "payable",
      "type": "fallback"
    },
    {
      "inputs": [],
      "name": "getFallbackAddress",
      "outputs": [
        {
          "internalType": "address",
          "name": "",
          "type": "address"
        }
      ],
      "stateMutability": "view",
      "type": "function"
    },
    {
      "inputs": [
        {
          "internalType": "address",
          "name": "fallbackAddress",
          "type": "address"
        }
      ],
      "name": "setFallbackAddress",
      "outputs": [],
      "stateMutability": "nonpayable",
      "type": "function"
    },
    {
      "stateMutability": "payable",
      "type": "receive"
    }
  ],
  "bytecode": "0x60806040523480156200001157600080fd5b506040516200744238038062007442833981810160405281019062000037919062001aa0565b60008351905060006001826200004e919062001b73565b9050600060028362000061919062001b73565b905060008167ffffffffffffffff811115620000825762000081620015d9565b5b604051908082528060200260200182016040528015620000bf57816020015b620000ab62001555565b815260200190600190039081620000a15790505b50905060005b848110156200012357878181518110620000e457620000e362001bd0565b5b602002602001015182828151811062000102576200010162001bd0565b5b602002602001018190525080806200011a9062001bff565b915050620000c5565b506000306040516200013590620015a1565b62000141919062001c5e565b604051809103906000f0801580156200015e573d6000803e3d6000fd5b5090506000600367ffffffffffffffff811115620001815762000180620015d9565b5b604051908082528060200260200182016040528015620001b05781602001602082028036833780820191505090505b509050631bdd474460e01b81600081518110620001d257620001d162001bd0565b5b60200260200101907bffffffffffffffffffffffffffffffffffffffffffffffffffffffff191690817bffffffffffffffffffffffffffffffffffffffffffffffffffffffff19168152505063f752d33360e01b816001815181106200023d576200023c62001bd0565b5b60200260200101907bffffffffffffffffffffffffffffffffffffffffffffffffffffffff191690817bffffffffffffffffffffffffffffffffffffffffffffffffffffffff19168152505063ce72d43d60e01b81600281518110620002a857620002a762001bd0565b5b60200260200101907bffffffffffffffffffffffffffffffffffffffffffffffffffffffff191690817bffffffffffffffffffffffffffffffffffffffffffffffffffffffff19168152505060405180606001604052808373ffffffffffffffffffffffffffffffffffffffff1681526020016000600281111562000332576200033162001c7b565b5b81526020018281525083878151811062000351576200035062001bd0565b5b60200260200101819052506000600267ffffffffffffffff8111156200037c576200037b620015d9565b5b604051908082528060200260200182016040528015620003ab5781602001602082028036833780820191505090505b509050632c40805960e01b81600081518110620003cd57620003cc62001bd0565b5b60200260200101907bffffffffffffffffffffffffffffffffffffffffffffffffffffffff191690817bffffffffffffffffffffffffffffffffffffffffffffffffffffffff191681525050639142376560e01b8160018151811062000438576200043762001bd0565b5b60200260200101907bffffffffffffffffffffffffffffffffffffffffffffffffffffffff191690817bffffffffffffffffffffffffffffffffffffffffffffffffffffffff19168152505060405180606001604052803073ffffffffffffffffffffffffffffffffffffffff16815260200160006002811115620004c257620004c162001c7b565b5b815260200182815250848781518110620004e157620004e062001bd0565b5b60200260200101819052506200051e848a8a620005086200058560201b620003c31760201c565b620005b260201b620003f017909392919060201c565b33620005346200084d60201b6200064a1760201c565b60000160006101000a81548173ffffffffffffffffffffffffffffffffffffffff021916908373ffffffffffffffffffffffffffffffffffffffff16021790555050505050505050505050620025de565b6000807f177481ac65e4292921c69f62d1cc7f57541261e5d61c8175cf4e36a01c9bfc9390508091505090565b60008460010160009054906101000a900461ffff1661ffff1690506000819050600080600783161115620005fd57866002016000600384901c81526020019081526020016000205490505b60005b8651811015620007a057600087828151811062000622576200062162001bd0565b5b6020026020010151905060008160200151905060008260400151511162000680576040517f08c379a0000000000000000000000000000000000000000000000000000000008152600401620006779062001d31565b60405180910390fd5b6000600281111562000697576200069662001c7b565b5b816002811115620006ad57620006ac62001c7b565b5b1415620006e057620006d28585848d6200087a60201b6200067717909392919060201c565b809550819650505062000790565b60016002811115620006f757620006f662001c7b565b5b8160028111156200070d576200070c62001c7b565b5b141562000734576200072e828b62000b5560201b620009381790919060201c565b6200078f565b6002808111156200074a576200074962001c7b565b5b81600281111562000760576200075f62001c7b565b5b14156200078e57620007858585848d62000e5060201b62000c1517909392919060201c565b80955081965050505b5b5b5050808060010191505062000600565b50828214620007c957818760010160006101000a81548161ffff021916908361ffff1602179055505b6000600783161115620007f55780876002016000600385901c8152602001908152602001600020819055505b7f8faa70878671ccd212d20771b795c50af8fd3ff6cf27f4bde57e5d4de0aeb6738686866040516200082a9392919062002006565b60405180910390a16200084485856200136960201b60201c565b50505050505050565b6000807f8a22373512790c48b83a1fe2efdd2888d4a917bcdc24d0adf63e60f67168046090508091505090565b6000803073ffffffffffffffffffffffffffffffffffffffff16836000015173ffffffffffffffffffffffffffffffffffffffff161480620008e85750620008e7836000015173ffffffffffffffffffffffffffffffffffffffff166200154260201b620002971760201c565b5b6200092a576040517f08c379a00000000000000000000000000000000000000000000000000000000081526004016200092190620020c7565b60405180910390fd5b60005b83604001515181101562000b455760008460400151828151811062000957576200095662001bd0565b5b602002602001015190506000886000016000837bffffffffffffffffffffffffffffffffffffffffffffffffffffffff19167bffffffffffffffffffffffffffffffffffffffffffffffffffffffff19168152602001908152602001600020549050600073ffffffffffffffffffffffffffffffffffffffff168160601c73ffffffffffffffffffffffffffffffffffffffff161462000a2e576040517f08c379a000000000000000000000000000000000000000000000000000000000815260040162000a25906200215f565b60405180910390fd5b8760001b866000015160601b6bffffffffffffffffffffffff191617896000016000847bffffffffffffffffffffffffffffffffffffffffffffffffffffffff19167bffffffffffffffffffffffffffffffffffffffffffffffffffffffff19168152602001908152602001600020819055506000600560078a16901b905080837bffffffffffffffffffffffffffffffffffffffffffffffffffffffff1916901c817fffffffff0000000000000000000000000000000000000000000000000000000060001b901c19891617975060e081141562000b2c57878a600201600060038c901c8152602001908152602001600020819055506000801b97505b888060010199505050505080806001019150506200092d565b5084849150915094509492505050565b62000b85816000015173ffffffffffffffffffffffffffffffffffffffff166200154260201b620002971760201c565b62000bc7576040517f08c379a000000000000000000000000000000000000000000000000000000000815260040162000bbe90620021f7565b60405180910390fd5b60005b81604001515181101562000e4b5760008260400151828151811062000bf45762000bf362001bd0565b5b602002602001015190506000846000016000837bffffffffffffffffffffffffffffffffffffffffffffffffffffffff19167bffffffffffffffffffffffffffffffffffffffffffffffffffffffff1916815260200190815260200160002054905060008160601c9050600073ffffffffffffffffffffffffffffffffffffffff168173ffffffffffffffffffffffffffffffffffffffff16141562000cd1576040517f08c379a000000000000000000000000000000000000000000000000000000000815260040162000cc89062002269565b60405180910390fd5b3073ffffffffffffffffffffffffffffffffffffffff168173ffffffffffffffffffffffffffffffffffffffff16141562000d43576040517f08c379a000000000000000000000000000000000000000000000000000000000815260040162000d3a9062002301565b60405180910390fd5b846000015173ffffffffffffffffffffffffffffffffffffffff168173ffffffffffffffffffffffffffffffffffffffff16141562000db9576040517f08c379a000000000000000000000000000000000000000000000000000000000815260040162000db09062002399565b60405180910390fd5b846000015160601b6bffffffffffffffffffffffff19166bffffffffffffffffffffffff60001b831617866000016000857bffffffffffffffffffffffffffffffffffffffffffffffffffffffff19167bffffffffffffffffffffffffffffffffffffffffffffffffffffffff1916815260200190815260200160002081905550505050808060010191505062000bca565b505050565b600080600073ffffffffffffffffffffffffffffffffffffffff16836000015173ffffffffffffffffffffffffffffffffffffffff161462000ec9576040517f08c379a000000000000000000000000000000000000000000000000000000000815260040162000ec09062002431565b60405180910390fd5b6000600386901c9050600060078716905060005b8560400151518110156200134e5760008660400151828151811062000f075762000f0662001bd0565b5b6020026020010151905060008a6000016000837bffffffffffffffffffffffffffffffffffffffffffffffffffffffff19167bffffffffffffffffffffffffffffffffffffffffffffffffffffffff19168152602001908152602001600020549050600073ffffffffffffffffffffffffffffffffffffffff168160601c73ffffffffffffffffffffffffffffffffffffffff16141562000fdf576040517f08c379a000000000000000000000000000000000000000000000000000000000815260040162000fd69062002269565b60405180910390fd5b3073ffffffffffffffffffffffffffffffffffffffff168160601c73ffffffffffffffffffffffffffffffffffffffff16141562001054576040517f08c379a00000000000000000000000000000000000000000000000000000000081526004016200104b9062002301565b60405180910390fd5b6000801b8914156200108b578480600190039550508a60020160008681526020019081526020016000205498506007935062001095565b8380600190039450505b6000806000600587901b8c901b9250847bffffffffffffffffffffffffffffffffffffffffffffffffffffffff1916837bffffffffffffffffffffffffffffffffffffffffffffffffffffffff191614620011b8578d6000016000847bffffffffffffffffffffffffffffffffffffffffffffffffffffffff19167bffffffffffffffffffffffffffffffffffffffffffffffffffffffff19168152602001908152602001600020546bffffffffffffffffffffffff19166bffffffffffffffffffffffff60001b8516178e6000016000857bffffffffffffffffffffffffffffffffffffffffffffffffffffffff19167bffffffffffffffffffffffffffffffffffffffffffffffffffffffff19168152602001908152602001600020819055505b8d6000016000867bffffffffffffffffffffffffffffffffffffffffffffffffffffffff19167bffffffffffffffffffffffffffffffffffffffffffffffffffffffff191681526020019081526020016000206000905560008460001c61ffff169050600381901c9250600560078216901b915050878214620012c05760008e600201600084815260200190815260200160002054905081847bffffffffffffffffffffffffffffffffffffffffffffffffffffffff1916901c827fffffffff0000000000000000000000000000000000000000000000000000000060001b901c198216179050808f6002016000858152602001908152602001600020819055505062001311565b80837bffffffffffffffffffffffffffffffffffffffffffffffffffffffff1916901c817fffffffff0000000000000000000000000000000000000000000000000000000060001b901c198d16179b505b60008714156200133b578d6002016000898152602001908152602001600020600090556000801b9b505b5050505050808060010191505062000edd565b5080600383901b179650868693509350505094509492505050565b60008151141515600073ffffffffffffffffffffffffffffffffffffffff168373ffffffffffffffffffffffffffffffffffffffff1614151514620013e5576040517f08c379a0000000000000000000000000000000000000000000000000000000008152600401620013dc90620024c9565b60405180910390fd5b600073ffffffffffffffffffffffffffffffffffffffff168273ffffffffffffffffffffffffffffffffffffffff16146200153e573073ffffffffffffffffffffffffffffffffffffffff168273ffffffffffffffffffffffffffffffffffffffff1614620014bd576200147a8273ffffffffffffffffffffffffffffffffffffffff166200154260201b620002971760201c565b620014bc576040517f08c379a0000000000000000000000000000000000000000000000000000000008152600401620014b39062002561565b60405180910390fd5b5b60008273ffffffffffffffffffffffffffffffffffffffff1682604051620014e69190620025c5565b600060405180830381855af49150503d806000811462001523576040519150601f19603f3d011682016040523d82523d6000602084013e62001528565b606091505b50509050806200153c573d6000803e3d6000fd5b505b5050565b600080823b905060008111915050919050565b6040518060600160405280600073ffffffffffffffffffffffffffffffffffffffff1681526020016000600281111562001594576200159362001c7b565b5b8152602001606081525090565b612f7a80620044c883390190565b6000604051905090565b600080fd5b600080fd5b600080fd5b6000601f19601f8301169050919050565b7f4e487b7100000000000000000000000000000000000000000000000000000000600052604160045260246000fd5b6200161382620015c8565b810181811067ffffffffffffffff82111715620016355762001634620015d9565b5b80604052505050565b60006200164a620015af565b905062001658828262001608565b919050565b600067ffffffffffffffff8211156200167b576200167a620015d9565b5b602082029050602081019050919050565b600080fd5b600080fd5b600080fd5b600073ffffffffffffffffffffffffffffffffffffffff82169050919050565b6000620016c8826200169b565b9050919050565b620016da81620016bb565b8114620016e657600080fd5b50565b600081519050620016fa81620016cf565b92915050565b600381106200170e57600080fd5b50565b600081519050620017228162001700565b92915050565b600067ffffffffffffffff821115620017465762001745620015d9565b5b602082029050602081019050919050565b60007fffffffff0000000000000000000000000000000000000000000000000000000082169050919050565b6200178e8162001757565b81146200179a57600080fd5b50565b600081519050620017ae8162001783565b92915050565b6000620017cb620017c58462001728565b6200163e565b90508083825260208201905060208402830185811115620017f157620017f06200168c565b5b835b818110156200181e57806200180988826200179d565b845260208401935050602081019050620017f3565b5050509392505050565b600082601f83011262001840576200183f620015c3565b5b815162001852848260208601620017b4565b91505092915050565b60006060828403121562001874576200187362001691565b5b6200188060606200163e565b905060006200189284828501620016e9565b6000830152506020620018a88482850162001711565b602083015250604082015167ffffffffffffffff811115620018cf57620018ce62001696565b5b620018dd8482850162001828565b60408301525092915050565b600062001900620018fa846200165d565b6200163e565b905080838252602082019050602084028301858111156200192657620019256200168c565b5b835b818110156200197457805167ffffffffffffffff8111156200194f576200194e620015c3565b5b8086016200195e89826200185b565b8552602085019450505060208101905062001928565b5050509392505050565b600082601f830112620019965762001995620015c3565b5b8151620019a8848260208601620018e9565b91505092915050565b600080fd5b600067ffffffffffffffff821115620019d457620019d3620015d9565b5b620019df82620015c8565b9050602081019050919050565b60005b8381101562001a0c578082015181840152602081019050620019ef565b8381111562001a1c576000848401525b50505050565b600062001a3962001a3384620019b6565b6200163e565b90508281526020810184848401111562001a585762001a57620019b1565b5b62001a65848285620019ec565b509392505050565b600082601f83011262001a855762001a84620015c3565b5b815162001a9784826020860162001a22565b91505092915050565b60008060006060848603121562001abc5762001abb620015b9565b5b600084015167ffffffffffffffff81111562001add5762001adc620015be565b5b62001aeb868287016200197e565b935050602062001afe86828701620016e9565b925050604084015167ffffffffffffffff81111562001b225762001b21620015be565b5b62001b308682870162001a6d565b9150509250925092565b6000819050919050565b7f4e487b7100000000000000000000000000000000000000000000000000000000600052601160045260246000fd5b600062001b808262001b3a565b915062001b8d8362001b3a565b9250827fffffffffffffffffffffffffffffffffffffffffffffffffffffffffffffffff0382111562001bc55762001bc462001b44565b5b828201905092915050565b7f4e487b7100000000000000000000000000000000000000000000000000000000600052603260045260246000fd5b600062001c0c8262001b3a565b91507fffffffffffffffffffffffffffffffffffffffffffffffffffffffffffffffff82141562001c425762001c4162001b44565b5b600182019050919050565b62001c5881620016bb565b82525050565b600060208201905062001c75600083018462001c4d565b92915050565b7f4e487b7100000000000000000000000000000000000000000000000000000000600052602160045260246000fd5b600082825260208201905092915050565b7f4469616d6f6e64426173653a206e6f2073656c6563746f72732073706563696660008201527f6965640000000000000000000000000000000000000000000000000000000000602082015250565b600062001d1960238362001caa565b915062001d268262001cbb565b604082019050919050565b6000602082019050818103600083015262001d4c8162001d0a565b9050919050565b600081519050919050565b600082825260208201905092915050565b6000819050602082019050919050565b62001d8a81620016bb565b82525050565b6003811062001da45762001da362001c7b565b5b50565b600081905062001db78262001d90565b919050565b600062001dc98262001da7565b9050919050565b62001ddb8162001dbc565b82525050565b600081519050919050565b600082825260208201905092915050565b6000819050602082019050919050565b62001e188162001757565b82525050565b600062001e2c838362001e0d565b60208301905092915050565b6000602082019050919050565b600062001e528262001de1565b62001e5e818562001dec565b935062001e6b8362001dfd565b8060005b8381101562001ea257815162001e86888262001e1e565b975062001e938362001e38565b92505060018101905062001e6f565b5085935050505092915050565b600060608301600083015162001ec9600086018262001d7f565b50602083015162001ede602086018262001dd0565b506040830151848203604086015262001ef8828262001e45565b9150508091505092915050565b600062001f13838362001eaf565b905092915050565b6000602082019050919050565b600062001f358262001d53565b62001f41818562001d5e565b93508360208202850162001f558562001d6f565b8060005b8581101562001f97578484038952815162001f75858262001f05565b945062001f828362001f1b565b925060208a0199505060018101905062001f59565b50829750879550505050505092915050565b600081519050919050565b600082825260208201905092915050565b600062001fd28262001fa9565b62001fde818562001fb4565b935062001ff0818560208601620019ec565b62001ffb81620015c8565b840191505092915050565b6000606082019050818103600083015262002022818662001f28565b905062002033602083018562001c4d565b818103604083015262002047818462001fc5565b9050949350505050565b7f4469616d6f6e64426173653a204144442074617267657420686173206e6f206360008201527f6f64650000000000000000000000000000000000000000000000000000000000602082015250565b6000620020af60238362001caa565b9150620020bc8262002051565b604082019050919050565b60006020820190508181036000830152620020e281620020a0565b9050919050565b7f4469616d6f6e64426173653a2073656c6563746f7220616c726561647920616460008201527f6465640000000000000000000000000000000000000000000000000000000000602082015250565b60006200214760238362001caa565b91506200215482620020e9565b604082019050919050565b600060208201905081810360008301526200217a8162002138565b9050919050565b7f4469616d6f6e64426173653a205245504c41434520746172676574206861732060008201527f6e6f20636f646500000000000000000000000000000000000000000000000000602082015250565b6000620021df60278362001caa565b9150620021ec8262002181565b604082019050919050565b600060208201905081810360008301526200221281620021d0565b9050919050565b7f4469616d6f6e64426173653a2073656c6563746f72206e6f7420666f756e6400600082015250565b600062002251601f8362001caa565b91506200225e8262002219565b602082019050919050565b60006020820190508181036000830152620022848162002242565b9050919050565b7f4469616d6f6e64426173653a2073656c6563746f7220697320696d6d7574616260008201527f6c65000000000000000000000000000000000000000000000000000000000000602082015250565b6000620022e960228362001caa565b9150620022f6826200228b565b604082019050919050565b600060208201905081810360008301526200231c81620022da565b9050919050565b7f4469616d6f6e64426173653a205245504c41434520746172676574206973206960008201527f64656e746963616c000000000000000000000000000000000000000000000000602082015250565b60006200238160288362001caa565b91506200238e8262002323565b604082019050919050565b60006020820190508181036000830152620023b48162002372565b9050919050565b7f4469616d6f6e64426173653a2052454d4f564520746172676574206d7573742060008201527f6265207a65726f20616464726573730000000000000000000000000000000000602082015250565b600062002419602f8362001caa565b91506200242682620023bb565b604082019050919050565b600060208201905081810360008301526200244c816200240a565b9050919050565b7f4469616d6f6e64426173653a20696e76616c696420696e697469616c697a617460008201527f696f6e20706172616d6574657273000000000000000000000000000000000000602082015250565b6000620024b1602e8362001caa565b9150620024be8262002453565b604082019050919050565b60006020820190508181036000830152620024e481620024a2565b9050919050565b7f4469616d6f6e64426173653a20696e697469616c697a6174696f6e207461726760008201527f657420686173206e6f20636f6465000000000000000000000000000000000000602082015250565b600062002549602e8362001caa565b91506200255682620024eb565b604082019050919050565b600060208201905081810360008301526200257c816200253a565b9050919050565b600081905092915050565b60006200259b8262001fa9565b620025a7818562002583565b9350620025b9818560208601620019ec565b80840191505092915050565b6000620025d382846200258e565b915081905092915050565b611eda80620025ee6000396000f3fe60806040526004361061002d5760003560e01c80632c408059146100c457806391423765146100ef57610034565b3661003457005b600061003e610118565b905061005f8173ffffffffffffffffffffffffffffffffffffffff16610297565b61009e576040517f08c379a00000000000000000000000000000000000000000000000000000000081526004016100959061135c565b60405180910390fd5b3660008037600080366000845af43d6000803e80600081146100bf573d6000f35b3d6000fd5b3480156100d057600080fd5b506100d96102aa565b6040516100e691906113bd565b60405180910390f35b3480156100fb57600080fd5b5061011660048036038101906101119190611409565b6102dd565b005b60008060007f177481ac65e4292921c69f62d1cc7f57541261e5d61c8175cf4e36a01c9bfc939050809150600082600001600080357fffffffff00000000000000000000000000000000000000000000000000000000167bffffffffffffffffffffffffffffffffffffffffffffffffffffffff19167bffffffffffffffffffffffffffffffffffffffffffffffffffffffff191681526020019081526020016000205460601c9050600073ffffffffffffffffffffffffffffffffffffffff168173ffffffffffffffffffffffffffffffffffffffff16141561028e578260030160009054906101000a900473ffffffffffffffffffffffffffffffffffffffff169050600073ffffffffffffffffffffffffffffffffffffffff168173ffffffffffffffffffffffffffffffffffffffff16141561028d576040517f08c379a0000000000000000000000000000000000000000000000000000000008152600401610284906114a8565b60405180910390fd5b5b80935050505090565b600080823b905060008111915050919050565b60006102b46103c3565b60030160009054906101000a900473ffffffffffffffffffffffffffffffffffffffff16905090565b6102e561064a565b60000160009054906101000a900473ffffffffffffffffffffffffffffffffffffffff1673ffffffffffffffffffffffffffffffffffffffff163373ffffffffffffffffffffffffffffffffffffffff1614610376576040517f08c379a000000000000000000000000000000000000000000000000000000000815260040161036d90611514565b60405180910390fd5b8061037f6103c3565b60030160006101000a81548173ffffffffffffffffffffffffffffffffffffffff021916908373ffffffffffffffffffffffffffffffffffffffff16021790555050565b6000807f177481ac65e4292921c69f62d1cc7f57541261e5d61c8175cf4e36a01c9bfc9390508091505090565b60008460010160009054906101000a900461ffff1661ffff169050600081905060008060078316111561043a57866002016000600384901c81526020019081526020016000205490505b60005b86518110156105a957600087828151811061045b5761045a611534565b5b602002602001015190506000816020015190506000826040015151116104b6576040517f08c379a00000000000000000000000000000000000000000000000000000000081526004016104ad906115d5565b60405180910390fd5b600060028111156104ca576104c96115f5565b5b8160028111156104dd576104dc6115f5565b5b1415610507576104fa8585848d610677909392919063ffffffff16565b809550819650505061059a565b6001600281111561051b5761051a6115f5565b5b81600281111561052e5761052d6115f5565b5b141561054c57610547828b61093890919063ffffffff16565b610599565b60028081111561055f5761055e6115f5565b5b816002811115610572576105716115f5565b5b14156105985761058f8585848d610c15909392919063ffffffff16565b80955081965050505b5b5b5050808060010191505061043d565b508282146105d157818760010160006101000a81548161ffff021916908361ffff1602179055505b60006007831611156105fc5780876002016000600385901c8152602001908152602001600020819055505b7f8faa70878671ccd212d20771b795c50af8fd3ff6cf27f4bde57e5d4de0aeb67386868660405161062f93929190611910565b60405180910390a1610641858561111a565b50505050505050565b6000807f8a22373512790c48b83a1fe2efdd2888d4a917bcdc24d0adf63e60f67168046090508091505090565b6000803073ffffffffffffffffffffffffffffffffffffffff16836000015173ffffffffffffffffffffffffffffffffffffffff1614806106d757506106d6836000015173ffffffffffffffffffffffffffffffffffffffff16610297565b5b610716576040517f08c379a000000000000000000000000000000000000000000000000000000000815260040161070d906119c7565b60405180910390fd5b60005b8360400151518110156109285760008460400151828151811061073f5761073e611534565b5b602002602001015190506000886000016000837bffffffffffffffffffffffffffffffffffffffffffffffffffffffff19167bffffffffffffffffffffffffffffffffffffffffffffffffffffffff19168152602001908152602001600020549050600073ffffffffffffffffffffffffffffffffffffffff168160601c73ffffffffffffffffffffffffffffffffffffffff1614610813576040517f08c379a000000000000000000000000000000000000000000000000000000000815260040161080a90611a59565b60405180910390fd5b8760001b866000015160601b6bffffffffffffffffffffffff191617896000016000847bffffffffffffffffffffffffffffffffffffffffffffffffffffffff19167bffffffffffffffffffffffffffffffffffffffffffffffffffffffff19168152602001908152602001600020819055506000600560078a16901b905080837bffffffffffffffffffffffffffffffffffffffffffffffffffffffff1916901c817fffffffff0000000000000000000000000000000000000000000000000000000060001b901c19891617975060e081141561091057878a600201600060038c901c8152602001908152602001600020819055506000801b97505b88806001019950505050508080600101915050610719565b5084849150915094509492505050565b61095b816000015173ffffffffffffffffffffffffffffffffffffffff16610297565b61099a576040517f08c379a000000000000000000000000000000000000000000000000000000000815260040161099190611aeb565b60405180910390fd5b60005b816040015151811015610c10576000826040015182815181106109c3576109c2611534565b5b602002602001015190506000846000016000837bffffffffffffffffffffffffffffffffffffffffffffffffffffffff19167bffffffffffffffffffffffffffffffffffffffffffffffffffffffff1916815260200190815260200160002054905060008160601c9050600073ffffffffffffffffffffffffffffffffffffffff168173ffffffffffffffffffffffffffffffffffffffff161415610a9d576040517f08c379a0000000000000000000000000000000000000000000000000000000008152600401610a9490611b57565b60405180910390fd5b3073ffffffffffffffffffffffffffffffffffffffff168173ffffffffffffffffffffffffffffffffffffffff161415610b0c576040517f08c379a0000000000000000000000000000000000000000000000000000000008152600401610b0390611be9565b60405180910390fd5b846000015173ffffffffffffffffffffffffffffffffffffffff168173ffffffffffffffffffffffffffffffffffffffff161415610b7f576040517f08c379a0000000000000000000000000000000000000000000000000000000008152600401610b7690611c7b565b60405180910390fd5b846000015160601b6bffffffffffffffffffffffff19166bffffffffffffffffffffffff60001b831617866000016000857bffffffffffffffffffffffffffffffffffffffffffffffffffffffff19167bffffffffffffffffffffffffffffffffffffffffffffffffffffffff1916815260200190815260200160002081905550505050808060010191505061099d565b505050565b600080600073ffffffffffffffffffffffffffffffffffffffff16836000015173ffffffffffffffffffffffffffffffffffffffff1614610c8b576040517f08c379a0000000000000000000000000000000000000000000000000000000008152600401610c8290611d0d565b60405180910390fd5b6000600386901c9050600060078716905060005b8560400151518110156110ff57600086604001518281518110610cc557610cc4611534565b5b6020026020010151905060008a6000016000837bffffffffffffffffffffffffffffffffffffffffffffffffffffffff19167bffffffffffffffffffffffffffffffffffffffffffffffffffffffff19168152602001908152602001600020549050600073ffffffffffffffffffffffffffffffffffffffff168160601c73ffffffffffffffffffffffffffffffffffffffff161415610d9a576040517f08c379a0000000000000000000000000000000000000000000000000000000008152600401610d9190611b57565b60405180910390fd5b3073ffffffffffffffffffffffffffffffffffffffff168160601c73ffffffffffffffffffffffffffffffffffffffff161415610e0c576040517f08c379a0000000000000000000000000000000000000000000000000000000008152600401610e0390611be9565b60405180910390fd5b6000801b891415610e41578480600190039550508a600201600086815260200190815260200160002054985060079350610e4b565b8380600190039450505b6000806000600587901b8c901b9250847bffffffffffffffffffffffffffffffffffffffffffffffffffffffff1916837bffffffffffffffffffffffffffffffffffffffffffffffffffffffff191614610f6d578d6000016000847bffffffffffffffffffffffffffffffffffffffffffffffffffffffff19167bffffffffffffffffffffffffffffffffffffffffffffffffffffffff19168152602001908152602001600020546bffffffffffffffffffffffff19166bffffffffffffffffffffffff60001b8516178e6000016000857bffffffffffffffffffffffffffffffffffffffffffffffffffffffff19167bffffffffffffffffffffffffffffffffffffffffffffffffffffffff19168152602001908152602001600020819055505b8d6000016000867bffffffffffffffffffffffffffffffffffffffffffffffffffffffff19167bffffffffffffffffffffffffffffffffffffffffffffffffffffffff191681526020019081526020016000206000905560008460001c61ffff169050600381901c9250600560078216901b9150508782146110735760008e600201600084815260200190815260200160002054905081847bffffffffffffffffffffffffffffffffffffffffffffffffffffffff1916901c827fffffffff0000000000000000000000000000000000000000000000000000000060001b901c198216179050808f600201600085815260200190815260200160002081905550506110c4565b80837bffffffffffffffffffffffffffffffffffffffffffffffffffffffff1916901c817fffffffff0000000000000000000000000000000000000000000000000000000060001b901c198d16179b505b60008714156110ed578d6002016000898152602001908152602001600020600090556000801b9b505b50505050508080600101915050610c9f565b5080600383901b179650868693509350505094509492505050565b60008151141515600073ffffffffffffffffffffffffffffffffffffffff168373ffffffffffffffffffffffffffffffffffffffff1614151514611193576040517f08c379a000000000000000000000000000000000000000000000000000000000815260040161118a90611d9f565b60405180910390fd5b600073ffffffffffffffffffffffffffffffffffffffff168273ffffffffffffffffffffffffffffffffffffffff16146112d5573073ffffffffffffffffffffffffffffffffffffffff168273ffffffffffffffffffffffffffffffffffffffff1614611259576112198273ffffffffffffffffffffffffffffffffffffffff16610297565b611258576040517f08c379a000000000000000000000000000000000000000000000000000000000815260040161124f90611e31565b60405180910390fd5b5b60008273ffffffffffffffffffffffffffffffffffffffff16826040516112809190611e8d565b600060405180830381855af49150503d80600081146112bb576040519150601f19603f3d011682016040523d82523d6000602084013e6112c0565b606091505b50509050806112d3573d6000803e3d6000fd5b505b5050565b600082825260208201905092915050565b7f50726f78793a20696d706c656d656e746174696f6e206d75737420626520636f60008201527f6e74726163740000000000000000000000000000000000000000000000000000602082015250565b60006113466026836112d9565b9150611351826112ea565b604082019050919050565b6000602082019050818103600083015261137581611339565b9050919050565b600073ffffffffffffffffffffffffffffffffffffffff82169050919050565b60006113a78261137c565b9050919050565b6113b78161139c565b82525050565b60006020820190506113d260008301846113ae565b92915050565b600080fd5b6113e68161139c565b81146113f157600080fd5b50565b600081359050611403816113dd565b92915050565b60006020828403121561141f5761141e6113d8565b5b600061142d848285016113f4565b91505092915050565b7f4469616d6f6e64426173653a206e6f20666163657420666f756e6420666f722060008201527f66756e6374696f6e207369676e61747572650000000000000000000000000000602082015250565b60006114926032836112d9565b915061149d82611436565b604082019050919050565b600060208201905081810360008301526114c181611485565b9050919050565b7f4f776e61626c653a2073656e646572206d757374206265206f776e6572000000600082015250565b60006114fe601d836112d9565b9150611509826114c8565b602082019050919050565b6000602082019050818103600083015261152d816114f1565b9050919050565b7f4e487b7100000000000000000000000000000000000000000000000000000000600052603260045260246000fd5b7f4469616d6f6e64426173653a206e6f2073656c6563746f72732073706563696660008201527f6965640000000000000000000000000000000000000000000000000000000000602082015250565b60006115bf6023836112d9565b91506115ca82611563565b604082019050919050565b600060208201905081810360008301526115ee816115b2565b9050919050565b7f4e487b7100000000000000000000000000000000000000000000000000000000600052602160045260246000fd5b600081519050919050565b600082825260208201905092915050565b6000819050602082019050919050565b6116598161139c565b82525050565b600381106116705761166f6115f5565b5b50565b60008190506116818261165f565b919050565b600061169182611673565b9050919050565b6116a181611686565b82525050565b600081519050919050565b600082825260208201905092915050565b6000819050602082019050919050565b60007fffffffff0000000000000000000000000000000000000000000000000000000082169050919050565b611708816116d3565b82525050565b600061171a83836116ff565b60208301905092915050565b6000602082019050919050565b600061173e826116a7565b61174881856116b2565b9350611753836116c3565b8060005b8381101561178457815161176b888261170e565b975061177683611726565b925050600181019050611757565b5085935050505092915050565b60006060830160008301516117a96000860182611650565b5060208301516117bc6020860182611698565b50604083015184820360408601526117d48282611733565b9150508091505092915050565b60006117ed8383611791565b905092915050565b6000602082019050919050565b600061180d82611624565b611817818561162f565b93508360208202850161182985611640565b8060005b85811015611865578484038952815161184685826117e1565b9450611851836117f5565b925060208a0199505060018101905061182d565b50829750879550505050505092915050565b600081519050919050565b600082825260208201905092915050565b60005b838110156118b1578082015181840152602081019050611896565b838111156118c0576000848401525b50505050565b6000601f19601f8301169050919050565b60006118e282611877565b6118ec8185611882565b93506118fc818560208601611893565b611905816118c6565b840191505092915050565b6000606082019050818103600083015261192a8186611802565b905061193960208301856113ae565b818103604083015261194b81846118d7565b9050949350505050565b7f4469616d6f6e64426173653a204144442074617267657420686173206e6f206360008201527f6f64650000000000000000000000000000000000000000000000000000000000602082015250565b60006119b16023836112d9565b91506119bc82611955565b604082019050919050565b600060208201905081810360008301526119e0816119a4565b9050919050565b7f4469616d6f6e64426173653a2073656c6563746f7220616c726561647920616460008201527f6465640000000000000000000000000000000000000000000000000000000000602082015250565b6000611a436023836112d9565b9150611a4e826119e7565b604082019050919050565b60006020820190508181036000830152611a7281611a36565b9050919050565b7f4469616d6f6e64426173653a205245504c41434520746172676574206861732060008201527f6e6f20636f646500000000000000000000000000000000000000000000000000602082015250565b6000611ad56027836112d9565b9150611ae082611a79565b604082019050919050565b60006020820190508181036000830152611b0481611ac8565b9050919050565b7f4469616d6f6e64426173653a2073656c6563746f72206e6f7420666f756e6400600082015250565b6000611b41601f836112d9565b9150611b4c82611b0b565b602082019050919050565b60006020820190508181036000830152611b7081611b34565b9050919050565b7f4469616d6f6e64426173653a2073656c6563746f7220697320696d6d7574616260008201527f6c65000000000000000000000000000000000000000000000000000000000000602082015250565b6000611bd36022836112d9565b9150611bde82611b77565b604082019050919050565b60006020820190508181036000830152611c0281611bc6565b9050919050565b7f4469616d6f6e64426173653a205245504c41434520746172676574206973206960008201527f64656e746963616c000000000000000000000000000000000000000000000000602082015250565b6000611c656028836112d9565b9150611c7082611c09565b604082019050919050565b60006020820190508181036000830152611c9481611c58565b9050919050565b7f4469616d6f6e64426173653a2052454d4f564520746172676574206d7573742060008201527f6265207a65726f20616464726573730000000000000000000000000000000000602082015250565b6000611cf7602f836112d9565b9150611d0282611c9b565b604082019050919050565b60006020820190508181036000830152611d2681611cea565b9050919050565b7f4469616d6f6e64426173653a20696e76616c696420696e697469616c697a617460008201527f696f6e20706172616d6574657273000000000000000000000000000000000000602082015250565b6000611d89602e836112d9565b9150611d9482611d2d565b604082019050919050565b60006020820190508181036000830152611db881611d7c565b9050919050565b7f4469616d6f6e64426173653a20696e697469616c697a6174696f6e207461726760008201527f657420686173206e6f20636f6465000000000000000000000000000000000000602082015250565b6000611e1b602e836112d9565b9150611e2682611dbf565b604082019050919050565b60006020820190508181036000830152611e4a81611e0e565b9050919050565b600081905092915050565b6000611e6782611877565b611e718185611e51565b9350611e81818560208601611893565b80840191505092915050565b6000611e998284611e5c565b91508190509291505056fea26469706673582212201bd14adca5635f11b306e90fafd8dea090b10776ed24528119d851d5b1c4c89664736f6c634300080c003360a06040523480156200001157600080fd5b5060405162002f7a38038062002f7a8339818101604052810190620000379190620000dc565b8073ffffffffffffffffffffffffffffffffffffffff1660808173ffffffffffffffffffffffffffffffffffffffff1681525050506200010e565b600080fd5b600073ffffffffffffffffffffffffffffffffffffffff82169050919050565b6000620000a48262000077565b9050919050565b620000b68162000097565b8114620000c257600080fd5b50565b600081519050620000d681620000ab565b92915050565b600060208284031215620000f557620000f462000072565b5b60006200010584828501620000c5565b91505092915050565b608051612e26620001546000396000818161015e0152818161023e015281816102e50152818161045201528181610531015281816107a201526108770152612e266000f3fe608060405234801561001057600080fd5b506004361061004c5760003560e01c80631bdd474414610051578063ce72d43d1461006d578063f752d33314610089578063fb346cbc146100a5575b600080fd5b61006b60048036038101906100669190611bcf565b6100c3565b005b61008760048036038101906100829190611c2b565b6103b7565b005b6100a3600480360381019061009e9190611cae565b61068b565b005b6100ad610875565b6040516100ba9190611d2c565b60405180910390f35b6100cb610899565b60000160009054906101000a900473ffffffffffffffffffffffffffffffffffffffff1673ffffffffffffffffffffffffffffffffffffffff163373ffffffffffffffffffffffffffffffffffffffff161461015c576040517f08c379a000000000000000000000000000000000000000000000000000000000815260040161015390611da4565b60405180910390fd5b7f000000000000000000000000000000000000000000000000000000000000000073ffffffffffffffffffffffffffffffffffffffff166350670f348383306040518463ffffffff1660e01b81526004016101b993929190611e3b565b602060405180830381865afa1580156101d6573d6000803e3d6000fd5b505050506040513d601f19601f820116820180604052508101906101fa9190611eb1565b1561023a576040517f08c379a000000000000000000000000000000000000000000000000000000000815260040161023190611f2a565b60405180910390fd5b60007f000000000000000000000000000000000000000000000000000000000000000073ffffffffffffffffffffffffffffffffffffffff16633f82973d84846040518363ffffffff1660e01b8152600401610297929190611f4a565b602060405180830381865afa1580156102b4573d6000803e3d6000fd5b505050506040513d601f19601f820116820180604052508101906102d89190611f8f565b90506102e3816108c6565b7f000000000000000000000000000000000000000000000000000000000000000073ffffffffffffffffffffffffffffffffffffffff1663c356592d8484306040518463ffffffff1660e01b815260040161034093929190611e3b565b600060405180830381600087803b15801561035a57600080fd5b505af115801561036e573d6000803e3d6000fd5b505050507f8519d227b5b1c401d12ad798414337a2eae3edd4fc21159fdc928498297e841a8383836000306040516103aa959493929190611fbc565b60405180910390a1505050565b6103bf610899565b60000160009054906101000a900473ffffffffffffffffffffffffffffffffffffffff1673ffffffffffffffffffffffffffffffffffffffff163373ffffffffffffffffffffffffffffffffffffffff1614610450576040517f08c379a000000000000000000000000000000000000000000000000000000000815260040161044790611da4565b60405180910390fd5b7f000000000000000000000000000000000000000000000000000000000000000073ffffffffffffffffffffffffffffffffffffffff166350670f348585306040518463ffffffff1660e01b81526004016104ad93929190611e3b565b602060405180830381865afa1580156104ca573d6000803e3d6000fd5b505050506040513d601f19601f820116820180604052508101906104ee9190611eb1565b61052d576040517f08c379a000000000000000000000000000000000000000000000000000000000815260040161052490612062565b60405180910390fd5b60007f000000000000000000000000000000000000000000000000000000000000000073ffffffffffffffffffffffffffffffffffffffff16633f82973d86866040518363ffffffff1660e01b815260040161058a929190611f4a565b602060405180830381865afa1580156105a7573d6000803e3d6000fd5b505050506040513d601f19601f820116820180604052508101906105cb9190611f8f565b90508273ffffffffffffffffffffffffffffffffffffffff168173ffffffffffffffffffffffffffffffffffffffff161461063b576040517f08c379a0000000000000000000000000000000000000000000000000000000008152600401610632906120f4565b60405180910390fd5b6106458383610956565b7f8519d227b5b1c401d12ad798414337a2eae3edd4fc21159fdc928498297e841a858585853060405161067c959493929190611fbc565b60405180910390a15050505050565b610693610899565b60000160009054906101000a900473ffffffffffffffffffffffffffffffffffffffff1673ffffffffffffffffffffffffffffffffffffffff163373ffffffffffffffffffffffffffffffffffffffff1614610724576040517f08c379a000000000000000000000000000000000000000000000000000000000815260040161071b90611da4565b60405180910390fd5b60008173ffffffffffffffffffffffffffffffffffffffff166398fc94146040518163ffffffff1660e01b8152600401602060405180830381865afa158015610771573d6000803e3d6000fd5b505050506040513d601f19601f820116820180604052508101906107959190611f8f565b90506107a0816108c6565b7f000000000000000000000000000000000000000000000000000000000000000073ffffffffffffffffffffffffffffffffffffffff1663076049b58585306040518463ffffffff1660e01b81526004016107fd93929190611e3b565b600060405180830381600087803b15801561081757600080fd5b505af115801561082b573d6000803e3d6000fd5b505050507f8519d227b5b1c401d12ad798414337a2eae3edd4fc21159fdc928498297e841a848460008530604051610867959493929190611fbc565b60405180910390a150505050565b7f000000000000000000000000000000000000000000000000000000000000000081565b6000807f8a22373512790c48b83a1fe2efdd2888d4a917bcdc24d0adf63e60f67168046090508091505090565b60008060008373ffffffffffffffffffffffffffffffffffffffff16636d4ce63c6040518163ffffffff1660e01b8152600401600060405180830381865afa158015610916573d6000803e3d6000fd5b505050506040513d6000823e3d601f19601f8201168201806040525081019061093f9190612465565b925092509250610950838383610af8565b50505050565b60008173ffffffffffffffffffffffffffffffffffffffff166398fc94146040518163ffffffff1660e01b8152600401602060405180830381865afa1580156109a3573d6000803e3d6000fd5b505050506040513d601f19601f820116820180604052508101906109c79190611f8f565b905060008060008373ffffffffffffffffffffffffffffffffffffffff16636d4ce63c6040518163ffffffff1660e01b8152600401600060405180830381865afa158015610a19573d6000803e3d6000fd5b505050506040513d6000823e3d601f19601f82011682018060405250810190610a429190612465565b925092509250610a53838383610af8565b60008060008873ffffffffffffffffffffffffffffffffffffffff16636d4ce63c6040518163ffffffff1660e01b8152600401600060405180830381865afa158015610aa3573d6000803e3d6000fd5b505050506040513d6000823e3d601f19601f82011682018060405250810190610acc9190612465565b925092509250610aed83600060405180602001604052806000815250610af8565b505050505050505050565b610b16838383610b06610b1b565b610b48909392919063ffffffff16565b505050565b6000807f177481ac65e4292921c69f62d1cc7f57541261e5d61c8175cf4e36a01c9bfc9390508091505090565b60008460010160009054906101000a900461ffff1661ffff1690506000819050600080600783161115610b9257866002016000600384901c81526020019081526020016000205490505b60005b8651811015610d01576000878281518110610bb357610bb26124f0565b5b60200260200101519050600081602001519050600082604001515111610c0e576040517f08c379a0000000000000000000000000000000000000000000000000000000008152600401610c0590612591565b60405180910390fd5b60006002811115610c2257610c216125b1565b5b816002811115610c3557610c346125b1565b5b1415610c5f57610c528585848d610da2909392919063ffffffff16565b8095508196505050610cf2565b60016002811115610c7357610c726125b1565b5b816002811115610c8657610c856125b1565b5b1415610ca457610c9f828b61106390919063ffffffff16565b610cf1565b600280811115610cb757610cb66125b1565b5b816002811115610cca57610cc96125b1565b5b1415610cf057610ce78585848d611340909392919063ffffffff16565b80955081965050505b5b5b50508080600101915050610b95565b50828214610d2957818760010160006101000a81548161ffff021916908361ffff1602179055505b6000600783161115610d545780876002016000600385901c8152602001908152602001600020819055505b7f8faa70878671ccd212d20771b795c50af8fd3ff6cf27f4bde57e5d4de0aeb673868686604051610d879392919061285c565b60405180910390a1610d998585611845565b50505050505050565b6000803073ffffffffffffffffffffffffffffffffffffffff16836000015173ffffffffffffffffffffffffffffffffffffffff161480610e025750610e01836000015173ffffffffffffffffffffffffffffffffffffffff16611a04565b5b610e41576040517f08c379a0000000000000000000000000000000000000000000000000000000008152600401610e3890612913565b60405180910390fd5b60005b83604001515181101561105357600084604001518281518110610e6a57610e696124f0565b5b602002602001015190506000886000016000837bffffffffffffffffffffffffffffffffffffffffffffffffffffffff19167bffffffffffffffffffffffffffffffffffffffffffffffffffffffff19168152602001908152602001600020549050600073ffffffffffffffffffffffffffffffffffffffff168160601c73ffffffffffffffffffffffffffffffffffffffff1614610f3e576040517f08c379a0000000000000000000000000000000000000000000000000000000008152600401610f35906129a5565b60405180910390fd5b8760001b866000015160601b6bffffffffffffffffffffffff191617896000016000847bffffffffffffffffffffffffffffffffffffffffffffffffffffffff19167bffffffffffffffffffffffffffffffffffffffffffffffffffffffff19168152602001908152602001600020819055506000600560078a16901b905080837bffffffffffffffffffffffffffffffffffffffffffffffffffffffff1916901c817fffffffff0000000000000000000000000000000000000000000000000000000060001b901c19891617975060e081141561103b57878a600201600060038c901c8152602001908152602001600020819055506000801b97505b88806001019950505050508080600101915050610e44565b5084849150915094509492505050565b611086816000015173ffffffffffffffffffffffffffffffffffffffff16611a04565b6110c5576040517f08c379a00000000000000000000000000000000000000000000000000000000081526004016110bc90612a37565b60405180910390fd5b60005b81604001515181101561133b576000826040015182815181106110ee576110ed6124f0565b5b602002602001015190506000846000016000837bffffffffffffffffffffffffffffffffffffffffffffffffffffffff19167bffffffffffffffffffffffffffffffffffffffffffffffffffffffff1916815260200190815260200160002054905060008160601c9050600073ffffffffffffffffffffffffffffffffffffffff168173ffffffffffffffffffffffffffffffffffffffff1614156111c8576040517f08c379a00000000000000000000000000000000000000000000000000000000081526004016111bf90612aa3565b60405180910390fd5b3073ffffffffffffffffffffffffffffffffffffffff168173ffffffffffffffffffffffffffffffffffffffff161415611237576040517f08c379a000000000000000000000000000000000000000000000000000000000815260040161122e90612b35565b60405180910390fd5b846000015173ffffffffffffffffffffffffffffffffffffffff168173ffffffffffffffffffffffffffffffffffffffff1614156112aa576040517f08c379a00000000000000000000000000000000000000000000000000000000081526004016112a190612bc7565b60405180910390fd5b846000015160601b6bffffffffffffffffffffffff19166bffffffffffffffffffffffff60001b831617866000016000857bffffffffffffffffffffffffffffffffffffffffffffffffffffffff19167bffffffffffffffffffffffffffffffffffffffffffffffffffffffff191681526020019081526020016000208190555050505080806001019150506110c8565b505050565b600080600073ffffffffffffffffffffffffffffffffffffffff16836000015173ffffffffffffffffffffffffffffffffffffffff16146113b6576040517f08c379a00000000000000000000000000000000000000000000000000000000081526004016113ad90612c59565b60405180910390fd5b6000600386901c9050600060078716905060005b85604001515181101561182a576000866040015182815181106113f0576113ef6124f0565b5b6020026020010151905060008a6000016000837bffffffffffffffffffffffffffffffffffffffffffffffffffffffff19167bffffffffffffffffffffffffffffffffffffffffffffffffffffffff19168152602001908152602001600020549050600073ffffffffffffffffffffffffffffffffffffffff168160601c73ffffffffffffffffffffffffffffffffffffffff1614156114c5576040517f08c379a00000000000000000000000000000000000000000000000000000000081526004016114bc90612aa3565b60405180910390fd5b3073ffffffffffffffffffffffffffffffffffffffff168160601c73ffffffffffffffffffffffffffffffffffffffff161415611537576040517f08c379a000000000000000000000000000000000000000000000000000000000815260040161152e90612b35565b60405180910390fd5b6000801b89141561156c578480600190039550508a600201600086815260200190815260200160002054985060079350611576565b8380600190039450505b6000806000600587901b8c901b9250847bffffffffffffffffffffffffffffffffffffffffffffffffffffffff1916837bffffffffffffffffffffffffffffffffffffffffffffffffffffffff191614611698578d6000016000847bffffffffffffffffffffffffffffffffffffffffffffffffffffffff19167bffffffffffffffffffffffffffffffffffffffffffffffffffffffff19168152602001908152602001600020546bffffffffffffffffffffffff19166bffffffffffffffffffffffff60001b8516178e6000016000857bffffffffffffffffffffffffffffffffffffffffffffffffffffffff19167bffffffffffffffffffffffffffffffffffffffffffffffffffffffff19168152602001908152602001600020819055505b8d6000016000867bffffffffffffffffffffffffffffffffffffffffffffffffffffffff19167bffffffffffffffffffffffffffffffffffffffffffffffffffffffff191681526020019081526020016000206000905560008460001c61ffff169050600381901c9250600560078216901b91505087821461179e5760008e600201600084815260200190815260200160002054905081847bffffffffffffffffffffffffffffffffffffffffffffffffffffffff1916901c827fffffffff0000000000000000000000000000000000000000000000000000000060001b901c198216179050808f600201600085815260200190815260200160002081905550506117ef565b80837bffffffffffffffffffffffffffffffffffffffffffffffffffffffff1916901c817fffffffff0000000000000000000000000000000000000000000000000000000060001b901c198d16179b505b6000871415611818578d6002016000898152602001908152602001600020600090556000801b9b505b505050505080806001019150506113ca565b5080600383901b179650868693509350505094509492505050565b60008151141515600073ffffffffffffffffffffffffffffffffffffffff168373ffffffffffffffffffffffffffffffffffffffff16141515146118be576040517f08c379a00000000000000000000000000000000000000000000000000000000081526004016118b590612ceb565b60405180910390fd5b600073ffffffffffffffffffffffffffffffffffffffff168273ffffffffffffffffffffffffffffffffffffffff1614611a00573073ffffffffffffffffffffffffffffffffffffffff168273ffffffffffffffffffffffffffffffffffffffff1614611984576119448273ffffffffffffffffffffffffffffffffffffffff16611a04565b611983576040517f08c379a000000000000000000000000000000000000000000000000000000000815260040161197a90612d7d565b60405180910390fd5b5b60008273ffffffffffffffffffffffffffffffffffffffff16826040516119ab9190612dd9565b600060405180830381855af49150503d80600081146119e6576040519150601f19603f3d011682016040523d82523d6000602084013e6119eb565b606091505b50509050806119fe573d6000803e3d6000fd5b505b5050565b600080823b905060008111915050919050565b6000604051905090565b600080fd5b600080fd5b600073ffffffffffffffffffffffffffffffffffffffff82169050919050565b6000611a5682611a2b565b9050919050565b611a6681611a4b565b8114611a7157600080fd5b50565b600081359050611a8381611a5d565b92915050565b600080fd5b600080fd5b6000601f19601f8301169050919050565b7f4e487b7100000000000000000000000000000000000000000000000000000000600052604160045260246000fd5b611adc82611a93565b810181811067ffffffffffffffff82111715611afb57611afa611aa4565b5b80604052505050565b6000611b0e611a17565b9050611b1a8282611ad3565b919050565b600067ffffffffffffffff821115611b3a57611b39611aa4565b5b611b4382611a93565b9050602081019050919050565b82818337600083830152505050565b6000611b72611b6d84611b1f565b611b04565b905082815260208101848484011115611b8e57611b8d611a8e565b5b611b99848285611b50565b509392505050565b600082601f830112611bb657611bb5611a89565b5b8135611bc6848260208601611b5f565b91505092915050565b60008060408385031215611be657611be5611a21565b5b6000611bf485828601611a74565b925050602083013567ffffffffffffffff811115611c1557611c14611a26565b5b611c2185828601611ba1565b9150509250929050565b60008060008060808587031215611c4557611c44611a21565b5b6000611c5387828801611a74565b945050602085013567ffffffffffffffff811115611c7457611c73611a26565b5b611c8087828801611ba1565b9350506040611c9187828801611a74565b9250506060611ca287828801611a74565b91505092959194509250565b600080600060608486031215611cc757611cc6611a21565b5b6000611cd586828701611a74565b935050602084013567ffffffffffffffff811115611cf657611cf5611a26565b5b611d0286828701611ba1565b9250506040611d1386828701611a74565b9150509250925092565b611d2681611a4b565b82525050565b6000602082019050611d416000830184611d1d565b92915050565b600082825260208201905092915050565b7f4f776e61626c653a2073656e646572206d757374206265206f776e6572000000600082015250565b6000611d8e601d83611d47565b9150611d9982611d58565b602082019050919050565b60006020820190508181036000830152611dbd81611d81565b9050919050565b600081519050919050565b60005b83811015611ded578082015181840152602081019050611dd2565b83811115611dfc576000848401525b50505050565b6000611e0d82611dc4565b611e178185611d47565b9350611e27818560208601611dcf565b611e3081611a93565b840191505092915050565b6000606082019050611e506000830186611d1d565b8181036020830152611e628185611e02565b9050611e716040830184611d1d565b949350505050565b60008115159050919050565b611e8e81611e79565b8114611e9957600080fd5b50565b600081519050611eab81611e85565b92915050565b600060208284031215611ec757611ec6611a21565b5b6000611ed584828501611e9c565b91505092915050565b7f3078706d3a20416c726561647920696e7374616c6c6564210000000000000000600082015250565b6000611f14601883611d47565b9150611f1f82611ede565b602082019050919050565b60006020820190508181036000830152611f4381611f07565b9050919050565b6000604082019050611f5f6000830185611d1d565b8181036020830152611f718184611e02565b90509392505050565b600081519050611f8981611a5d565b92915050565b600060208284031215611fa557611fa4611a21565b5b6000611fb384828501611f7a565b91505092915050565b600060a082019050611fd16000830188611d1d565b8181036020830152611fe38187611e02565b9050611ff26040830186611d1d565b611fff6060830185611d1d565b61200c6080830184611d1d565b9695505050505050565b7f3078706d3a204e6f7420696e7374616c6c656421000000000000000000000000600082015250565b600061204c601483611d47565b915061205782612016565b602082019050919050565b6000602082019050818103600083015261207b8161203f565b9050919050565b7f5061636b6167654d616e616765723a206e657720706b6720646f6573206e6f7460008201527f206d61746368206c61746573742e000000000000000000000000000000000000602082015250565b60006120de602e83611d47565b91506120e982612082565b604082019050919050565b6000602082019050818103600083015261210d816120d1565b9050919050565b600067ffffffffffffffff82111561212f5761212e611aa4565b5b602082029050602081019050919050565b600080fd5b600080fd5b600080fd5b6003811061215c57600080fd5b50565b60008151905061216e8161214f565b92915050565b600067ffffffffffffffff82111561218f5761218e611aa4565b5b602082029050602081019050919050565b60007fffffffff0000000000000000000000000000000000000000000000000000000082169050919050565b6121d5816121a0565b81146121e057600080fd5b50565b6000815190506121f2816121cc565b92915050565b600061220b61220684612174565b611b04565b9050808382526020820190506020840283018581111561222e5761222d612140565b5b835b81811015612257578061224388826121e3565b845260208401935050602081019050612230565b5050509392505050565b600082601f83011261227657612275611a89565b5b81516122868482602086016121f8565b91505092915050565b6000606082840312156122a5576122a4612145565b5b6122af6060611b04565b905060006122bf84828501611f7a565b60008301525060206122d38482850161215f565b602083015250604082015167ffffffffffffffff8111156122f7576122f661214a565b5b61230384828501612261565b60408301525092915050565b600061232261231d84612114565b611b04565b9050808382526020820190506020840283018581111561234557612344612140565b5b835b8181101561238c57805167ffffffffffffffff81111561236a57612369611a89565b5b808601612377898261228f565b85526020850194505050602081019050612347565b5050509392505050565b600082601f8301126123ab576123aa611a89565b5b81516123bb84826020860161230f565b91505092915050565b600067ffffffffffffffff8211156123df576123de611aa4565b5b6123e882611a93565b9050602081019050919050565b6000612408612403846123c4565b611b04565b90508281526020810184848401111561242457612423611a8e565b5b61242f848285611dcf565b509392505050565b600082601f83011261244c5761244b611a89565b5b815161245c8482602086016123f5565b91505092915050565b60008060006060848603121561247e5761247d611a21565b5b600084015167ffffffffffffffff81111561249c5761249b611a26565b5b6124a886828701612396565b93505060206124b986828701611f7a565b925050604084015167ffffffffffffffff8111156124da576124d9611a26565b5b6124e686828701612437565b9150509250925092565b7f4e487b7100000000000000000000000000000000000000000000000000000000600052603260045260246000fd5b7f4469616d6f6e64426173653a206e6f2073656c6563746f72732073706563696660008201527f6965640000000000000000000000000000000000000000000000000000000000602082015250565b600061257b602383611d47565b91506125868261251f565b604082019050919050565b600060208201905081810360008301526125aa8161256e565b9050919050565b7f4e487b7100000000000000000000000000000000000000000000000000000000600052602160045260246000fd5b600081519050919050565b600082825260208201905092915050565b6000819050602082019050919050565b61261581611a4b565b82525050565b6003811061262c5761262b6125b1565b5b50565b600081905061263d8261261b565b919050565b600061264d8261262f565b9050919050565b61265d81612642565b82525050565b600081519050919050565b600082825260208201905092915050565b6000819050602082019050919050565b612698816121a0565b82525050565b60006126aa838361268f565b60208301905092915050565b6000602082019050919050565b60006126ce82612663565b6126d8818561266e565b93506126e38361267f565b8060005b838110156127145781516126fb888261269e565b9750612706836126b6565b9250506001810190506126e7565b5085935050505092915050565b6000606083016000830151612739600086018261260c565b50602083015161274c6020860182612654565b506040830151848203604086015261276482826126c3565b9150508091505092915050565b600061277d8383612721565b905092915050565b6000602082019050919050565b600061279d826125e0565b6127a781856125eb565b9350836020820285016127b9856125fc565b8060005b858110156127f557848403895281516127d68582612771565b94506127e183612785565b925060208a019950506001810190506127bd565b50829750879550505050505092915050565b600081519050919050565b600082825260208201905092915050565b600061282e82612807565b6128388185612812565b9350612848818560208601611dcf565b61285181611a93565b840191505092915050565b600060608201905081810360008301526128768186612792565b90506128856020830185611d1d565b81810360408301526128978184612823565b9050949350505050565b7f4469616d6f6e64426173653a204144442074617267657420686173206e6f206360008201527f6f64650000000000000000000000000000000000000000000000000000000000602082015250565b60006128fd602383611d47565b9150612908826128a1565b604082019050919050565b6000602082019050818103600083015261292c816128f0565b9050919050565b7f4469616d6f6e64426173653a2073656c6563746f7220616c726561647920616460008201527f6465640000000000000000000000000000000000000000000000000000000000602082015250565b600061298f602383611d47565b915061299a82612933565b604082019050919050565b600060208201905081810360008301526129be81612982565b9050919050565b7f4469616d6f6e64426173653a205245504c41434520746172676574206861732060008201527f6e6f20636f646500000000000000000000000000000000000000000000000000602082015250565b6000612a21602783611d47565b9150612a2c826129c5565b604082019050919050565b60006020820190508181036000830152612a5081612a14565b9050919050565b7f4469616d6f6e64426173653a2073656c6563746f72206e6f7420666f756e6400600082015250565b6000612a8d601f83611d47565b9150612a9882612a57565b602082019050919050565b60006020820190508181036000830152612abc81612a80565b9050919050565b7f4469616d6f6e64426173653a2073656c6563746f7220697320696d6d7574616260008201527f6c65000000000000000000000000000000000000000000000000000000000000602082015250565b6000612b1f602283611d47565b9150612b2a82612ac3565b604082019050919050565b60006020820190508181036000830152612b4e81612b12565b9050919050565b7f4469616d6f6e64426173653a205245504c41434520746172676574206973206960008201527f64656e746963616c000000000000000000000000000000000000000000000000602082015250565b6000612bb1602883611d47565b9150612bbc82612b55565b604082019050919050565b60006020820190508181036000830152612be081612ba4565b9050919050565b7f4469616d6f6e64426173653a2052454d4f564520746172676574206d7573742060008201527f6265207a65726f20616464726573730000000000000000000000000000000000602082015250565b6000612c43602f83611d47565b9150612c4e82612be7565b604082019050919050565b60006020820190508181036000830152612c7281612c36565b9050919050565b7f4469616d6f6e64426173653a20696e76616c696420696e697469616c697a617460008201527f696f6e20706172616d6574657273000000000000000000000000000000000000602082015250565b6000612cd5602e83611d47565b9150612ce082612c79565b604082019050919050565b60006020820190508181036000830152612d0481612cc8565b9050919050565b7f4469616d6f6e64426173653a20696e697469616c697a6174696f6e207461726760008201527f657420686173206e6f20636f6465000000000000000000000000000000000000602082015250565b6000612d67602e83611d47565b9150612d7282612d0b565b604082019050919050565b60006020820190508181036000830152612d9681612d5a565b9050919050565b600081905092915050565b6000612db382612807565b612dbd8185612d9d565b9350612dcd818560208601611dcf565b80840191505092915050565b6000612de58284612da8565b91508190509291505056fea2646970667358221220246c0f8602f618d42a35e254c68e62df325f3958a24d69e540ac1290afd67cd064736f6c634300080c0033",
  "linkReferences": {},
  "deployedLinkReferences": {}
}