{
  "_format": "hh-sol-artifact-1",
  "contractName": "TreasuryExecutionFacet",
  "sourceName": "contracts/_library/habitat/facets/treasury/TreasuryExecutionFacet.sol",
  "abi": [
    {
      "anonymous": false,
      "inputs": [
        {
          "indexed": true,
          "internalType": "uint256",
          "name": "proposalId",
          "type": "uint256"
        },
        {
          "indexed": true,
          "internalType": "address",
          "name": "destination",
          "type": "address"
        },
        {
          "indexed": true,
          "internalType": "uint256",
          "name": "value",
          "type": "uint256"
        },
        {
          "indexed": false,
          "internalType": "bytes",
          "name": "callData",
          "type": "bytes"
        }
      ],
      "name": "ProposalExecuted",
      "type": "event"
    },
    {
      "inputs": [],
      "name": "createSubTreasuryType0",
      "outputs": [],
      "stateMutability": "nonpayable",
      "type": "function"
    },
    {
      "inputs": [],
      "name": "createSubTreasuryType1",
      "outputs": [],
      "stateMutability": "nonpayable",
      "type": "function"
    },
    {
      "inputs": [
        {
          "internalType": "uint256",
          "name": "proposalId",
          "type": "uint256"
        }
      ],
      "name": "executeProposal",
      "outputs": [
        {
          "internalType": "bool",
          "name": "result",
          "type": "bool"
        }
      ],
      "stateMutability": "nonpayable",
      "type": "function"
    }
  ],
  "bytecode": "0x608060405234801561001057600080fd5b50610662806100206000396000f3fe608060405234801561001057600080fd5b50600436106100415760003560e01c80630d61b51914610046578063494a17c314610076578063ceac7b8d14610080575b600080fd5b610060600480360381019061005b9190610430565b61008a565b60405161006d9190610478565b60405180910390f35b61007e61025e565b005b610088610260565b005b60008061009683610262565b90508060000160009054906101000a900460ff1680156100c557508060030160009054906101000a900460ff16155b610104576040517f08c379a00000000000000000000000000000000000000000000000000000000081526004016100fb906104f0565b60405180910390fd5b60018160030160006101000a81548160ff02191690831515021790555060008160000160019054906101000a900473ffffffffffffffffffffffffffffffffffffffff16905060008260010154905060008360020180546101649061053f565b80601f01602080910402602001604051908101604052809291908181526020018280546101909061053f565b80156101dd5780601f106101b2576101008083540402835291602001916101dd565b820191906000526020600020905b8154815290600101906020018083116101c057829003601f168201915b5050505050905060008082516020840185875af194506101fc8661028c565b61020586610304565b818373ffffffffffffffffffffffffffffffffffffffff16877fab5090353dd4532563db1c79e21e03079ff7bec5b8ba65fdc18df70ef7d1d2628460405161024d919061060a565b60405180910390a450505050919050565b565b565b60008061026d610341565b9050806004016000848152602001908152602001600020915050919050565b600061029782610262565b90508060000160006101000a81549060ff02191690558060000160016101000a81549073ffffffffffffffffffffffffffffffffffffffff021916905580600101600090558060020160006102ec9190610398565b8060030160006101000a81549060ff02191690555050565b600061030f8261036e565b90508060000160006101000a81549060ff02191690558060020160009055806003016000905580600401600090555050565b6000807fd5211e15e362f5251dbdeabddfd30aa19c1d7433b35372348d9978301f444fb690508091505090565b600080610379610341565b9050806005016000848152602001908152602001600020915050919050565b5080546103a49061053f565b6000825580601f106103b657506103d5565b601f0160209004906000526020600020908101906103d491906103d8565b5b50565b5b808211156103f15760008160009055506001016103d9565b5090565b600080fd5b6000819050919050565b61040d816103fa565b811461041857600080fd5b50565b60008135905061042a81610404565b92915050565b600060208284031215610446576104456103f5565b5b60006104548482850161041b565b91505092915050565b60008115159050919050565b6104728161045d565b82525050565b600060208201905061048d6000830184610469565b92915050565b600082825260208201905092915050565b7f50726f706f73616c20646f6573206e6f742061636365707465642e0000000000600082015250565b60006104da601b83610493565b91506104e5826104a4565b602082019050919050565b60006020820190508181036000830152610509816104cd565b9050919050565b7f4e487b7100000000000000000000000000000000000000000000000000000000600052602260045260246000fd5b6000600282049050600182168061055757607f821691505b6020821081141561056b5761056a610510565b5b50919050565b600081519050919050565b600082825260208201905092915050565b60005b838110156105ab578082015181840152602081019050610590565b838111156105ba576000848401525b50505050565b6000601f19601f8301169050919050565b60006105dc82610571565b6105e6818561057c565b93506105f681856020860161058d565b6105ff816105c0565b840191505092915050565b6000602082019050818103600083015261062481846105d1565b90509291505056fea2646970667358221220270a3d461221a030bd3c7d1f18163b5ce086ddf80713644bf7aeba97a1bd958864736f6c634300080c0033",
  "linkReferences": {},
  "deployedLinkReferences": {}
}