{
  "_format": "hh-sol-artifact-1",
  "contractName": "Git",
  "sourceName": "contracts/logic/Git.sol",
  "abi": [
    {
      "inputs": [
        {
          "components": [
            {
              "internalType": "address",
              "name": "target",
              "type": "address"
            },
            {
              "internalType": "enum IDiamondWritable.FacetCutAction",
              "name": "action",
              "type": "uint8"
            },
            {
              "internalType": "bytes4[]",
              "name": "selectors",
              "type": "bytes4[]"
            }
          ],
          "internalType": "struct IDiamondWritable.FacetCut[]",
          "name": "_cuts",
          "type": "tuple[]"
        }
      ],
      "stateMutability": "nonpayable",
      "type": "constructor"
    },
    {
      "anonymous": false,
      "inputs": [
        {
          "indexed": false,
          "internalType": "address",
          "name": "owner",
          "type": "address"
        },
        {
          "indexed": false,
          "internalType": "string",
          "name": "name",
          "type": "string"
        },
        {
          "indexed": false,
          "internalType": "address",
          "name": "upgrade",
          "type": "address"
        }
      ],
      "name": "Committed",
      "type": "event"
    },
    {
      "inputs": [
        {
          "internalType": "string",
          "name": "name",
          "type": "string"
        },
        {
          "components": [
            {
              "internalType": "address",
              "name": "target",
              "type": "address"
            },
            {
              "internalType": "enum IDiamondWritable.FacetCutAction",
              "name": "action",
              "type": "uint8"
            },
            {
              "internalType": "bytes4[]",
              "name": "selectors",
              "type": "bytes4[]"
            }
          ],
          "internalType": "struct IDiamondWritable.FacetCut[]",
          "name": "cuts",
          "type": "tuple[]"
        },
        {
          "internalType": "address",
          "name": "target",
          "type": "address"
        },
        {
          "internalType": "bytes",
          "name": "data",
          "type": "bytes"
        }
      ],
      "name": "commit",
      "outputs": [
        {
          "internalType": "address",
          "name": "",
          "type": "address"
        }
      ],
      "stateMutability": "nonpayable",
      "type": "function"
    },
    {
      "inputs": [
        {
          "internalType": "address",
          "name": "account",
          "type": "address"
        },
        {
          "internalType": "string",
          "name": "repo",
          "type": "string"
        },
        {
          "internalType": "address",
          "name": "user",
          "type": "address"
        }
      ],
      "name": "isSubscriber",
      "outputs": [
        {
          "internalType": "bool",
          "name": "",
          "type": "bool"
        }
      ],
      "stateMutability": "view",
      "type": "function"
    },
    {
      "inputs": [
        {
          "internalType": "address",
          "name": "owner",
          "type": "address"
        },
        {
          "internalType": "string",
          "name": "name",
          "type": "string"
        }
      ],
      "name": "latest",
      "outputs": [
        {
          "internalType": "address",
          "name": "",
          "type": "address"
        }
      ],
      "stateMutability": "view",
      "type": "function"
    },
    {
      "inputs": [],
      "name": "model",
      "outputs": [
        {
          "internalType": "address",
          "name": "",
          "type": "address"
        }
      ],
      "stateMutability": "view",
      "type": "function"
    },
    {
      "inputs": [
        {
          "internalType": "address",
          "name": "account",
          "type": "address"
        },
        {
          "internalType": "string",
          "name": "repo",
          "type": "string"
        },
        {
          "internalType": "address",
          "name": "user",
          "type": "address"
        }
      ],
      "name": "subscribe",
      "outputs": [],
      "stateMutability": "nonpayable",
      "type": "function"
    },
    {
      "inputs": [
        {
          "internalType": "address",
          "name": "account",
          "type": "address"
        },
        {
          "internalType": "string",
          "name": "repo",
          "type": "string"
        },
        {
          "internalType": "address",
          "name": "user",
          "type": "address"
        }
      ],
      "name": "unsubscribe",
      "outputs": [],
      "stateMutability": "nonpayable",
      "type": "function"
    }
  ],
  "bytecode": "0x60a06040523480156200001157600080fd5b5060405162004f9538038062004f95833981810160405281019062000037919062000527565b6000604051620000479062000117565b604051809103906000f08015801562000064573d6000803e3d6000fd5b5090508073ffffffffffffffffffffffffffffffffffffffff1660808173ffffffffffffffffffffffffffffffffffffffff168152505060805173ffffffffffffffffffffffffffffffffffffffff166314c43a788360006040518363ffffffff1660e01b8152600401620000db92919062000849565b600060405180830381600087803b158015620000f657600080fd5b505af11580156200010b573d6000803e3d6000fd5b50505050505062000892565b612e39806200215c83390190565b6000604051905090565b600080fd5b600080fd5b600080fd5b6000601f19601f8301169050919050565b7f4e487b7100000000000000000000000000000000000000000000000000000000600052604160045260246000fd5b62000189826200013e565b810181811067ffffffffffffffff82111715620001ab57620001aa6200014f565b5b80604052505050565b6000620001c062000125565b9050620001ce82826200017e565b919050565b600067ffffffffffffffff821115620001f157620001f06200014f565b5b602082029050602081019050919050565b600080fd5b600080fd5b600080fd5b600073ffffffffffffffffffffffffffffffffffffffff82169050919050565b60006200023e8262000211565b9050919050565b620002508162000231565b81146200025c57600080fd5b50565b600081519050620002708162000245565b92915050565b600381106200028457600080fd5b50565b600081519050620002988162000276565b92915050565b600067ffffffffffffffff821115620002bc57620002bb6200014f565b5b602082029050602081019050919050565b60007fffffffff0000000000000000000000000000000000000000000000000000000082169050919050565b6200030481620002cd565b81146200031057600080fd5b50565b6000815190506200032481620002f9565b92915050565b6000620003416200033b846200029e565b620001b4565b9050808382526020820190506020840283018581111562000367576200036662000202565b5b835b818110156200039457806200037f888262000313565b84526020840193505060208101905062000369565b5050509392505050565b600082601f830112620003b657620003b562000139565b5b8151620003c88482602086016200032a565b91505092915050565b600060608284031215620003ea57620003e962000207565b5b620003f66060620001b4565b9050600062000408848285016200025f565b60008301525060206200041e8482850162000287565b602083015250604082015167ffffffffffffffff8111156200044557620004446200020c565b5b62000453848285016200039e565b60408301525092915050565b6000620004766200047084620001d3565b620001b4565b905080838252602082019050602084028301858111156200049c576200049b62000202565b5b835b81811015620004ea57805167ffffffffffffffff811115620004c557620004c462000139565b5b808601620004d48982620003d1565b855260208501945050506020810190506200049e565b5050509392505050565b600082601f8301126200050c576200050b62000139565b5b81516200051e8482602086016200045f565b91505092915050565b60006020828403121562000540576200053f6200012f565b5b600082015167ffffffffffffffff81111562000561576200056062000134565b5b6200056f84828501620004f4565b91505092915050565b600081519050919050565b600082825260208201905092915050565b6000819050602082019050919050565b620005af8162000231565b82525050565b7f4e487b7100000000000000000000000000000000000000000000000000000000600052602160045260246000fd5b60038110620005f857620005f7620005b5565b5b50565b60008190506200060b82620005e4565b919050565b60006200061d82620005fb565b9050919050565b6200062f8162000610565b82525050565b600081519050919050565b600082825260208201905092915050565b6000819050602082019050919050565b6200066c81620002cd565b82525050565b600062000680838362000661565b60208301905092915050565b6000602082019050919050565b6000620006a68262000635565b620006b2818562000640565b9350620006bf8362000651565b8060005b83811015620006f6578151620006da888262000672565b9750620006e7836200068c565b925050600181019050620006c3565b5085935050505092915050565b60006060830160008301516200071d6000860182620005a4565b50602083015162000732602086018262000624565b50604083015184820360408601526200074c828262000699565b9150508091505092915050565b600062000767838362000703565b905092915050565b6000602082019050919050565b6000620007898262000578565b62000795818562000583565b935083602082028501620007a98562000594565b8060005b85811015620007eb5784840389528151620007c9858262000759565b9450620007d6836200076f565b925060208a01995050600181019050620007ad565b50829750879550505050505092915050565b620008088162000231565b82525050565b600082825260208201905092915050565b50565b6000620008316000836200080e565b91506200083e826200081f565b600082019050919050565b600060608201905081810360008301526200086581856200077c565b9050620008766020830184620007fd565b8181036040830152620008898162000822565b90509392505050565b6080516118a7620008b560003960008181610172015261026f01526118a76000f3fe608060405234801561001057600080fd5b50600436106100625760003560e01c8063076049b5146100675780630ad9d052146100835780633f82973d146100a157806350670f34146100d1578063c356592d14610101578063e245f0f31461011d575b600080fd5b610081600480360381019061007c9190610c9e565b61014d565b005b61008b610170565b6040516100989190610d1c565b60405180910390f35b6100bb60048036038101906100b69190610d37565b610194565b6040516100c89190610d1c565b60405180910390f35b6100eb60048036038101906100e69190610c9e565b6101ba565b6040516100f89190610dae565b60405180910390f35b61011b60048036038101906101169190610c9e565b6101e3565b005b61013760048036038101906101329190610ed5565b610206565b6040516101449190610d1c565b60405180910390f35b61016b83838361015b610373565b6103a0909392919063ffffffff16565b505050565b7f000000000000000000000000000000000000000000000000000000000000000081565b60006101b283836101a3610373565b61043b9092919063ffffffff16565b905092915050565b60006101da8484846101ca610373565b610525909392919063ffffffff16565b90509392505050565b6102018383836101f1610373565b6105ab909392919063ffffffff16565b505050565b6000808888905011801561021d5750600086869050115b61025c576040517f08c379a000000000000000000000000000000000000000000000000000000000815260040161025390610ffb565b60405180910390fd5b6000610266610373565b905060006102937f000000000000000000000000000000000000000000000000000000000000000061062d565b90508073ffffffffffffffffffffffffffffffffffffffff166314c43a7889898989896040518663ffffffff1660e01b81526004016102d6959493929190611401565b600060405180830381600087803b1580156102f057600080fd5b505af1158015610304573d6000803e3d6000fd5b50505050610363338b8b8080601f016020809104026020016040519081016040528093929190818152602001838380828437600081840152601f19601f820116905080830192505050505050508385610647909392919063ffffffff16565b8092505050979650505050505050565b6000807f72250f949843c1ce243042bd5154e9a1e4c1453d05e12b6b8373712c6a11f7ef90508091505090565b60008460000160008573ffffffffffffffffffffffffffffffffffffffff1673ffffffffffffffffffffffffffffffffffffffff168152602001908152602001600020600001836040516103f491906114c4565b9081526020016040518091039020600201905061041a828261070490919063ffffffff16565b1561043457610432828261073490919063ffffffff16565b505b5050505050565b6000808460000160008573ffffffffffffffffffffffffffffffffffffffff1673ffffffffffffffffffffffffffffffffffffffff1681526020019081526020016000206000018360405161049091906114c4565b9081526020016040518091039020600001905060006104ae82610764565b116104ee576040517f08c379a00000000000000000000000000000000000000000000000000000000081526004016104e59061154d565b60405180910390fd5b600060016104fb83610764565b61050591906115a6565b905061051a818361077990919063ffffffff16565b925050509392505050565b6000808560000160008673ffffffffffffffffffffffffffffffffffffffff1673ffffffffffffffffffffffffffffffffffffffff1681526020019081526020016000206000018460405161057a91906114c4565b908152602001604051809103902060020190506105a0838261070490919063ffffffff16565b915050949350505050565b60008460000160008573ffffffffffffffffffffffffffffffffffffffff1673ffffffffffffffffffffffffffffffffffffffff168152602001908152602001600020600001836040516105ff91906114c4565b90815260200160405180910390206002019050610625828261079390919063ffffffff16565b505050505050565b600061064061063b836107c3565b61085a565b9050919050565b60008460000160008573ffffffffffffffffffffffffffffffffffffffff1673ffffffffffffffffffffffffffffffffffffffff1681526020019081526020016000206000018360405161069b91906114c4565b908152602001604051809103902060000190506106c1828261079390919063ffffffff16565b507f27be63282d77c2a76e8fd77f4a10f6c470b23b30e5cfe9f6955ff7c63666a67e8484846040516106f593929190611613565b60405180910390a15050505050565b600061072c836000018373ffffffffffffffffffffffffffffffffffffffff1660001b6108e0565b905092915050565b600061075c836000018373ffffffffffffffffffffffffffffffffffffffff1660001b610903565b905092915050565b6000610772826000016109f1565b9050919050565b60006107888360000183610a02565b60001c905092915050565b60006107bb836000018373ffffffffffffffffffffffffffffffffffffffff1660001b610a76565b905092915050565b60606040518060400160405280601481526020017f3d602d80600a3d3981f3363d3d373d3d3d363d73000000000000000000000000815250826040518060400160405280600f81526020017f5af43d82803e903d91602b57fd5bf30000000000000000000000000000000000815250604051602001610844939291906116e0565b6040516020818303038152906040529050919050565b600081602001825180826000f092505050600073ffffffffffffffffffffffffffffffffffffffff168173ffffffffffffffffffffffffffffffffffffffff1614156108db576040517f08c379a00000000000000000000000000000000000000000000000000000000081526004016108d290611761565b60405180910390fd5b919050565b600080836001016000848152602001908152602001600020541415905092915050565b600080836001016000848152602001908152602001600020549050600081146109e55760008460000160018660000180549050038154811061094857610947611781565b5b906000526020600020015490508085600001600184038154811061096f5761096e611781565b5b9060005260206000200181905550818560010160008381526020019081526020016000208190555050836000018054806109ac576109ab6117b0565b5b600190038181906000526020600020016000905590558360010160008481526020019081526020016000206000905560019150506109eb565b60009150505b92915050565b600081600001805490509050919050565b600081836000018054905011610a4d576040517f08c379a0000000000000000000000000000000000000000000000000000000008152600401610a4490611851565b60405180910390fd5b826000018281548110610a6357610a62611781565b5b9060005260206000200154905092915050565b6000610a8283836108e0565b610adb578260000182908060018154018082558091505060019003906000526020600020016000909190919091505582600001805490508360010160008481526020019081526020016000208190555060019050610ae0565b600090505b92915050565b6000604051905090565b600080fd5b600080fd5b600073ffffffffffffffffffffffffffffffffffffffff82169050919050565b6000610b2582610afa565b9050919050565b610b3581610b1a565b8114610b4057600080fd5b50565b600081359050610b5281610b2c565b92915050565b600080fd5b600080fd5b6000601f19601f8301169050919050565b7f4e487b7100000000000000000000000000000000000000000000000000000000600052604160045260246000fd5b610bab82610b62565b810181811067ffffffffffffffff82111715610bca57610bc9610b73565b5b80604052505050565b6000610bdd610ae6565b9050610be98282610ba2565b919050565b600067ffffffffffffffff821115610c0957610c08610b73565b5b610c1282610b62565b9050602081019050919050565b82818337600083830152505050565b6000610c41610c3c84610bee565b610bd3565b905082815260208101848484011115610c5d57610c5c610b5d565b5b610c68848285610c1f565b509392505050565b600082601f830112610c8557610c84610b58565b5b8135610c95848260208601610c2e565b91505092915050565b600080600060608486031215610cb757610cb6610af0565b5b6000610cc586828701610b43565b935050602084013567ffffffffffffffff811115610ce657610ce5610af5565b5b610cf286828701610c70565b9250506040610d0386828701610b43565b9150509250925092565b610d1681610b1a565b82525050565b6000602082019050610d316000830184610d0d565b92915050565b60008060408385031215610d4e57610d4d610af0565b5b6000610d5c85828601610b43565b925050602083013567ffffffffffffffff811115610d7d57610d7c610af5565b5b610d8985828601610c70565b9150509250929050565b60008115159050919050565b610da881610d93565b82525050565b6000602082019050610dc36000830184610d9f565b92915050565b600080fd5b600080fd5b60008083601f840112610de957610de8610b58565b5b8235905067ffffffffffffffff811115610e0657610e05610dc9565b5b602083019150836001820283011115610e2257610e21610dce565b5b9250929050565b60008083601f840112610e3f57610e3e610b58565b5b8235905067ffffffffffffffff811115610e5c57610e5b610dc9565b5b602083019150836020820283011115610e7857610e77610dce565b5b9250929050565b60008083601f840112610e9557610e94610b58565b5b8235905067ffffffffffffffff811115610eb257610eb1610dc9565b5b602083019150836001820283011115610ece57610ecd610dce565b5b9250929050565b60008060008060008060006080888a031215610ef457610ef3610af0565b5b600088013567ffffffffffffffff811115610f1257610f11610af5565b5b610f1e8a828b01610dd3565b9750975050602088013567ffffffffffffffff811115610f4157610f40610af5565b5b610f4d8a828b01610e29565b95509550506040610f608a828b01610b43565b935050606088013567ffffffffffffffff811115610f8157610f80610af5565b5b610f8d8a828b01610e7f565b925092505092959891949750929550565b600082825260208201905092915050565b7f4769743a20696e707574207265717569726564206669656c6473000000000000600082015250565b6000610fe5601a83610f9e565b9150610ff082610faf565b602082019050919050565b6000602082019050818103600083015261101481610fd8565b9050919050565b600082825260208201905092915050565b6000819050919050565b60006110456020840184610b43565b905092915050565b61105681610b1a565b82525050565b6003811061106957600080fd5b50565b60008135905061107b8161105c565b92915050565b6000611090602084018461106c565b905092915050565b7f4e487b7100000000000000000000000000000000000000000000000000000000600052602160045260246000fd5b600381106110d8576110d7611098565b5b50565b60008190506110e9826110c7565b919050565b60006110f9826110db565b9050919050565b611109816110ee565b82525050565b600080fd5b600080fd5b600080fd5b6000808335600160200384360303811261113b5761113a611119565b5b83810192508235915060208301925067ffffffffffffffff8211156111635761116261110f565b5b60208202360384131561117957611178611114565b5b509250929050565b600082825260208201905092915050565b6000819050919050565b60007fffffffff0000000000000000000000000000000000000000000000000000000082169050919050565b6111d18161119c565b82525050565b60006111e383836111c8565b60208301905092915050565b6111f88161119c565b811461120357600080fd5b50565b600081359050611215816111ef565b92915050565b600061122a6020840184611206565b905092915050565b6000602082019050919050565b600061124b8385611181565b935061125682611192565b8060005b8581101561128f5761126c828461121b565b61127688826111d7565b975061128183611232565b92505060018101905061125a565b5085925050509392505050565b6000606083016112af6000840184611036565b6112bc600086018261104d565b506112ca6020840184611081565b6112d76020860182611100565b506112e5604084018461111e565b85830360408701526112f883828461123f565b925050508091505092915050565b6000611312838361129c565b905092915050565b60008235600160600383360303811261133657611335611119565b5b82810191505092915050565b6000602082019050919050565b600061135b838561101b565b93508360208402850161136d8461102c565b8060005b878110156113b1578484038952611388828461131a565b6113928582611306565b945061139d83611342565b925060208a01995050600181019050611371565b50829750879450505050509392505050565b600082825260208201905092915050565b60006113e083856113c3565b93506113ed838584610c1f565b6113f683610b62565b840190509392505050565b6000606082019050818103600083015261141c81878961134f565b905061142b6020830186610d0d565b818103604083015261143e8184866113d4565b90509695505050505050565b600081519050919050565b600081905092915050565b60005b8381101561147e578082015181840152602081019050611463565b8381111561148d576000848401525b50505050565b600061149e8261144a565b6114a88185611455565b93506114b8818560208601611460565b80840191505092915050565b60006114d08284611493565b915081905092915050565b7f47697453746f726167653a206e6f20757067726164657320617661696c61626c60008201527f652e000000000000000000000000000000000000000000000000000000000000602082015250565b6000611537602283610f9e565b9150611542826114db565b604082019050919050565b600060208201905081810360008301526115668161152a565b9050919050565b6000819050919050565b7f4e487b7100000000000000000000000000000000000000000000000000000000600052601160045260246000fd5b60006115b18261156d565b91506115bc8361156d565b9250828210156115cf576115ce611577565b5b828203905092915050565b60006115e58261144a565b6115ef8185610f9e565b93506115ff818560208601611460565b61160881610b62565b840191505092915050565b60006060820190506116286000830186610d0d565b818103602083015261163a81856115da565b90506116496040830184610d0d565b949350505050565b600081519050919050565b600081905092915050565b600061167282611651565b61167c818561165c565b935061168c818560208601611460565b80840191505092915050565b60008160601b9050919050565b60006116b082611698565b9050919050565b60006116c2826116a5565b9050919050565b6116da6116d582610b1a565b6116b7565b82525050565b60006116ec8286611667565b91506116f882856116c9565b6014820191506117088284611667565b9150819050949350505050565b7f466163746f72793a206661696c6564206465706c6f796d656e74000000000000600082015250565b600061174b601a83610f9e565b915061175682611715565b602082019050919050565b6000602082019050818103600083015261177a8161173e565b9050919050565b7f4e487b7100000000000000000000000000000000000000000000000000000000600052603260045260246000fd5b7f4e487b7100000000000000000000000000000000000000000000000000000000600052603160045260246000fd5b7f456e756d657261626c655365743a20696e646578206f7574206f6620626f756e60008201527f6473000000000000000000000000000000000000000000000000000000000000602082015250565b600061183b602283610f9e565b9150611846826117df565b604082019050919050565b6000602082019050818103600083015261186a8161182e565b905091905056fea2646970667358221220adf3188af69d7fbdf06265acf18cf08962a83da1e09d6047f995568a98acdb7564736f6c634300080c003360a06040523480156200001157600080fd5b5060008067ffffffffffffffff811115620000315762000030620001a8565b5b6040519080825280602002602001820160405280156200006e57816020015b6200005a6200014e565b815260200190600190039081620000505790505b509050600060405162000081906200019a565b604051809103906000f0801580156200009e573d6000803e3d6000fd5b5090508073ffffffffffffffffffffffffffffffffffffffff1660808173ffffffffffffffffffffffffffffffffffffffff168152505060805173ffffffffffffffffffffffffffffffffffffffff1663bff0b451836040518263ffffffff1660e01b8152600401620001129190620004bc565b600060405180830381600087803b1580156200012d57600080fd5b505af115801562000142573d6000803e3d6000fd5b505050505050620004e0565b6040518060600160405280600073ffffffffffffffffffffffffffffffffffffffff168152602001600060028111156200018d576200018c62000248565b5b8152602001606081525090565b6111bf8062001c7a83390190565b7f4e487b7100000000000000000000000000000000000000000000000000000000600052604160045260246000fd5b600081519050919050565b600082825260208201905092915050565b6000819050602082019050919050565b600073ffffffffffffffffffffffffffffffffffffffff82169050919050565b6000620002308262000203565b9050919050565b620002428162000223565b82525050565b7f4e487b7100000000000000000000000000000000000000000000000000000000600052602160045260246000fd5b600381106200028b576200028a62000248565b5b50565b60008190506200029e8262000277565b919050565b6000620002b0826200028e565b9050919050565b620002c281620002a3565b82525050565b600081519050919050565b600082825260208201905092915050565b6000819050602082019050919050565b60007fffffffff0000000000000000000000000000000000000000000000000000000082169050919050565b6200032b81620002f4565b82525050565b60006200033f838362000320565b60208301905092915050565b6000602082019050919050565b60006200036582620002c8565b620003718185620002d3565b93506200037e83620002e4565b8060005b83811015620003b557815162000399888262000331565b9750620003a6836200034b565b92505060018101905062000382565b5085935050505092915050565b6000606083016000830151620003dc600086018262000237565b506020830151620003f16020860182620002b7565b50604083015184820360408601526200040b828262000358565b9150508091505092915050565b6000620004268383620003c2565b905092915050565b6000602082019050919050565b60006200044882620001d7565b620004548185620001e2565b9350836020820285016200046885620001f3565b8060005b85811015620004aa578484038952815162000488858262000418565b945062000495836200042e565b925060208a019950506001810190506200046c565b50829750879550505050505092915050565b60006020820190508181036000830152620004d881846200043b565b905092915050565b6080516117776200050360003960008181610169015261038d01526117776000f3fe608060405234801561001057600080fd5b506004361061007d5760003560e01c806373d4a13a1161005b57806373d4a13a146100dc57806398fc9414146100fa578063b27fb31114610118578063d4b83992146101495761007d565b80630ad9d0521461008257806314c43a78146100a05780636d4ce63c146100bc575b600080fd5b61008a610167565b6040516100979190610bb9565b60405180910390f35b6100ba60048036038101906100b5919061100a565b61018b565b005b6100c461049f565b6040516100d393929190611373565b60405180910390f35b6100e461076d565b6040516100f191906113b8565b60405180910390f35b6101026107fb565b60405161010f9190610bb9565b60405180910390f35b610132600480360381019061012d9190611410565b610821565b60405161014092919061144c565b60405180910390f35b610151610882565b60405161015e9190610bb9565b60405180910390f35b7f000000000000000000000000000000000000000000000000000000000000000081565b600460009054906101000a900460ff16156101db576040517f08c379a00000000000000000000000000000000000000000000000000000000081526004016101d2906114d2565b60405180910390fd5b6101e36109df565b60005b845181101561032f57848181518110610202576102016114f2565b5b6020026020010151915060016040518060600160405280846000015173ffffffffffffffffffffffffffffffffffffffff168152602001846020015160028111156102505761024f6110d0565b5b81526020018460400151815250908060018154018082558091505060019003906000526020600020906002020160009091909190915060008201518160000160006101000a81548173ffffffffffffffffffffffffffffffffffffffff021916908373ffffffffffffffffffffffffffffffffffffffff16021790555060208201518160000160146101000a81548160ff021916908360028111156102f8576102f76110d0565b5b02179055506040820151816001019080519060200190610319929190610a28565b505050808061032790611550565b9150506101e6565b5082600260006101000a81548173ffffffffffffffffffffffffffffffffffffffff021916908373ffffffffffffffffffffffffffffffffffffffff1602179055508160039080519060200190610387929190610ad5565b506103b17f00000000000000000000000000000000000000000000000000000000000000006108a8565b600460016101000a81548173ffffffffffffffffffffffffffffffffffffffff021916908373ffffffffffffffffffffffffffffffffffffffff160217905550600460019054906101000a900473ffffffffffffffffffffffffffffffffffffffff1673ffffffffffffffffffffffffffffffffffffffff1663bff0b451856040518263ffffffff1660e01b815260040161044c9190611599565b600060405180830381600087803b15801561046657600080fd5b505af115801561047a573d6000803e3d6000fd5b505050506001600460006101000a81548160ff02191690831515021790555050505050565b606060006060600060018054905067ffffffffffffffff8111156104c6576104c5610bfe565b5b6040519080825280602002602001820160405280156104ff57816020015b6104ec6109df565b8152602001906001900390816104e45790505b50905060005b81518110156106ae5760405180606001604052806001838154811061052d5761052c6114f2565b5b906000526020600020906002020160000160009054906101000a900473ffffffffffffffffffffffffffffffffffffffff1673ffffffffffffffffffffffffffffffffffffffff1681526020016001838154811061058e5761058d6114f2565b5b906000526020600020906002020160000160149054906101000a900460ff1660028111156105bf576105be6110d0565b5b8152602001600183815481106105d8576105d76114f2565b5b906000526020600020906002020160010180548060200260200160405190810160405280929190818152602001828054801561067557602002820191906000526020600020906000905b82829054906101000a900460e01b7bffffffffffffffffffffffffffffffffffffffffffffffffffffffff1916815260200190600401906020826003010492830192600103820291508084116106225790505b50505050508152508282815181106106905761068f6114f2565b5b602002602001018190525080806106a690611550565b915050610505565b5080600260009054906101000a900473ffffffffffffffffffffffffffffffffffffffff1660038080546106e1906115ea565b80601f016020809104026020016040519081016040528092919081815260200182805461070d906115ea565b801561075a5780601f1061072f5761010080835404028352916020019161075a565b820191906000526020600020905b81548152906001019060200180831161073d57829003601f168201915b5050505050905093509350935050909192565b6003805461077a906115ea565b80601f01602080910402602001604051908101604052809291908181526020018280546107a6906115ea565b80156107f35780601f106107c8576101008083540402835291602001916107f3565b820191906000526020600020905b8154815290600101906020018083116107d657829003601f168201915b505050505081565b600460019054906101000a900473ffffffffffffffffffffffffffffffffffffffff1681565b6001818154811061083157600080fd5b90600052602060002090600202016000915090508060000160009054906101000a900473ffffffffffffffffffffffffffffffffffffffff16908060000160149054906101000a900460ff16905082565b600260009054906101000a900473ffffffffffffffffffffffffffffffffffffffff1681565b60006108bb6108b6836108c2565b610959565b9050919050565b60606040518060400160405280601481526020017f3d602d80600a3d3981f3363d3d373d3d3d363d73000000000000000000000000815250826040518060400160405280600f81526020017f5af43d82803e903d91602b57fd5bf30000000000000000000000000000000000815250604051602001610943939291906116a0565b6040516020818303038152906040529050919050565b600081602001825180826000f092505050600073ffffffffffffffffffffffffffffffffffffffff168173ffffffffffffffffffffffffffffffffffffffff1614156109da576040517f08c379a00000000000000000000000000000000000000000000000000000000081526004016109d190611721565b60405180910390fd5b919050565b6040518060600160405280600073ffffffffffffffffffffffffffffffffffffffff16815260200160006002811115610a1b57610a1a6110d0565b5b8152602001606081525090565b82805482825590600052602060002090600701600890048101928215610ac45791602002820160005b83821115610a9257835183826101000a81548163ffffffff021916908360e01c02179055509260200192600401602081600301049283019260010302610a51565b8015610ac25782816101000a81549063ffffffff0219169055600401602081600301049283019260010302610a92565b505b509050610ad19190610b5b565b5090565b828054610ae1906115ea565b90600052602060002090601f016020900481019282610b035760008555610b4a565b82601f10610b1c57805160ff1916838001178555610b4a565b82800160010185558215610b4a579182015b82811115610b49578251825591602001919060010190610b2e565b5b509050610b579190610b5b565b5090565b5b80821115610b74576000816000905550600101610b5c565b5090565b600073ffffffffffffffffffffffffffffffffffffffff82169050919050565b6000610ba382610b78565b9050919050565b610bb381610b98565b82525050565b6000602082019050610bce6000830184610baa565b92915050565b6000604051905090565b600080fd5b600080fd5b600080fd5b6000601f19601f8301169050919050565b7f4e487b7100000000000000000000000000000000000000000000000000000000600052604160045260246000fd5b610c3682610bed565b810181811067ffffffffffffffff82111715610c5557610c54610bfe565b5b80604052505050565b6000610c68610bd4565b9050610c748282610c2d565b919050565b600067ffffffffffffffff821115610c9457610c93610bfe565b5b602082029050602081019050919050565b600080fd5b600080fd5b600080fd5b610cbd81610b98565b8114610cc857600080fd5b50565b600081359050610cda81610cb4565b92915050565b60038110610ced57600080fd5b50565b600081359050610cff81610ce0565b92915050565b600067ffffffffffffffff821115610d2057610d1f610bfe565b5b602082029050602081019050919050565b60007fffffffff0000000000000000000000000000000000000000000000000000000082169050919050565b610d6681610d31565b8114610d7157600080fd5b50565b600081359050610d8381610d5d565b92915050565b6000610d9c610d9784610d05565b610c5e565b90508083825260208201905060208402830185811115610dbf57610dbe610ca5565b5b835b81811015610de85780610dd48882610d74565b845260208401935050602081019050610dc1565b5050509392505050565b600082601f830112610e0757610e06610be8565b5b8135610e17848260208601610d89565b91505092915050565b600060608284031215610e3657610e35610caa565b5b610e406060610c5e565b90506000610e5084828501610ccb565b6000830152506020610e6484828501610cf0565b602083015250604082013567ffffffffffffffff811115610e8857610e87610caf565b5b610e9484828501610df2565b60408301525092915050565b6000610eb3610eae84610c79565b610c5e565b90508083825260208201905060208402830185811115610ed657610ed5610ca5565b5b835b81811015610f1d57803567ffffffffffffffff811115610efb57610efa610be8565b5b808601610f088982610e20565b85526020850194505050602081019050610ed8565b5050509392505050565b600082601f830112610f3c57610f3b610be8565b5b8135610f4c848260208601610ea0565b91505092915050565b600080fd5b600067ffffffffffffffff821115610f7557610f74610bfe565b5b610f7e82610bed565b9050602081019050919050565b82818337600083830152505050565b6000610fad610fa884610f5a565b610c5e565b905082815260208101848484011115610fc957610fc8610f55565b5b610fd4848285610f8b565b509392505050565b600082601f830112610ff157610ff0610be8565b5b8135611001848260208601610f9a565b91505092915050565b60008060006060848603121561102357611022610bde565b5b600084013567ffffffffffffffff81111561104157611040610be3565b5b61104d86828701610f27565b935050602061105e86828701610ccb565b925050604084013567ffffffffffffffff81111561107f5761107e610be3565b5b61108b86828701610fdc565b9150509250925092565b600081519050919050565b600082825260208201905092915050565b6000819050602082019050919050565b6110ca81610b98565b82525050565b7f4e487b7100000000000000000000000000000000000000000000000000000000600052602160045260246000fd5b600381106111105761110f6110d0565b5b50565b6000819050611121826110ff565b919050565b600061113182611113565b9050919050565b61114181611126565b82525050565b600081519050919050565b600082825260208201905092915050565b6000819050602082019050919050565b61117c81610d31565b82525050565b600061118e8383611173565b60208301905092915050565b6000602082019050919050565b60006111b282611147565b6111bc8185611152565b93506111c783611163565b8060005b838110156111f85781516111df8882611182565b97506111ea8361119a565b9250506001810190506111cb565b5085935050505092915050565b600060608301600083015161121d60008601826110c1565b5060208301516112306020860182611138565b506040830151848203604086015261124882826111a7565b9150508091505092915050565b60006112618383611205565b905092915050565b6000602082019050919050565b600061128182611095565b61128b81856110a0565b93508360208202850161129d856110b1565b8060005b858110156112d957848403895281516112ba8582611255565b94506112c583611269565b925060208a019950506001810190506112a1565b50829750879550505050505092915050565b600081519050919050565b600082825260208201905092915050565b60005b8381101561132557808201518184015260208101905061130a565b83811115611334576000848401525b50505050565b6000611345826112eb565b61134f81856112f6565b935061135f818560208601611307565b61136881610bed565b840191505092915050565b6000606082019050818103600083015261138d8186611276565b905061139c6020830185610baa565b81810360408301526113ae818461133a565b9050949350505050565b600060208201905081810360008301526113d2818461133a565b905092915050565b6000819050919050565b6113ed816113da565b81146113f857600080fd5b50565b60008135905061140a816113e4565b92915050565b60006020828403121561142657611425610bde565b5b6000611434848285016113fb565b91505092915050565b61144681611126565b82525050565b60006040820190506114616000830185610baa565b61146e602083018461143d565b9392505050565b600082825260208201905092915050565b7f557067726164653a20616c726561647920726567697374657265642e00000000600082015250565b60006114bc601c83611475565b91506114c782611486565b602082019050919050565b600060208201905081810360008301526114eb816114af565b9050919050565b7f4e487b7100000000000000000000000000000000000000000000000000000000600052603260045260246000fd5b7f4e487b7100000000000000000000000000000000000000000000000000000000600052601160045260246000fd5b600061155b826113da565b91507fffffffffffffffffffffffffffffffffffffffffffffffffffffffffffffffff82141561158e5761158d611521565b5b600182019050919050565b600060208201905081810360008301526115b38184611276565b905092915050565b7f4e487b7100000000000000000000000000000000000000000000000000000000600052602260045260246000fd5b6000600282049050600182168061160257607f821691505b60208210811415611616576116156115bb565b5b50919050565b600081905092915050565b6000611632826112eb565b61163c818561161c565b935061164c818560208601611307565b80840191505092915050565b60008160601b9050919050565b600061167082611658565b9050919050565b600061168282611665565b9050919050565b61169a61169582610b98565b611677565b82525050565b60006116ac8286611627565b91506116b88285611689565b6014820191506116c88284611627565b9150819050949350505050565b7f466163746f72793a206661696c6564206465706c6f796d656e74000000000000600082015250565b600061170b601a83611475565b9150611716826116d5565b602082019050919050565b6000602082019050818103600083015261173a816116fe565b905091905056fea26469706673582212203be4bc7d0eb73f2a665e752c8b543a629c37df72eec7edea47122575320033a864736f6c634300080c0033608060405234801561001057600080fd5b5061119f806100206000396000f3fe608060405234801561001057600080fd5b50600436106100575760003560e01c80636d4ce63c1461005c57806373d4a13a1461007c578063b27fb3111461009a578063bff0b451146100cb578063d4b83992146100e7575b600080fd5b610064610105565b60405161007393929190610b14565b60405180910390f35b6100846103d3565b6040516100919190610b59565b60405180910390f35b6100b460048036038101906100af9190610bc5565b610461565b6040516100c2929190610c01565b60405180910390f35b6100e560048036038101906100e09190610f5a565b6104c2565b005b6100ef61067f565b6040516100fc9190610fa3565b60405180910390f35b606060006060600060018054905067ffffffffffffffff81111561012c5761012b610c2f565b5b60405190808252806020026020018201604052801561016557816020015b6101526106a5565b81526020019060019003908161014a5790505b50905060005b81518110156103145760405180606001604052806001838154811061019357610192610fbe565b5b906000526020600020906002020160000160009054906101000a900473ffffffffffffffffffffffffffffffffffffffff1673ffffffffffffffffffffffffffffffffffffffff168152602001600183815481106101f4576101f3610fbe565b5b906000526020600020906002020160000160149054906101000a900460ff16600281111561022557610224610825565b5b81526020016001838154811061023e5761023d610fbe565b5b90600052602060002090600202016001018054806020026020016040519081016040528092919081815260200182805480156102db57602002820191906000526020600020906000905b82829054906101000a900460e01b7bffffffffffffffffffffffffffffffffffffffffffffffffffffffff1916815260200190600401906020826003010492830192600103820291508084116102885790505b50505050508152508282815181106102f6576102f5610fbe565b5b6020026020010181905250808061030c9061101c565b91505061016b565b5080600260009054906101000a900473ffffffffffffffffffffffffffffffffffffffff16600380805461034790611094565b80601f016020809104026020016040519081016040528092919081815260200182805461037390611094565b80156103c05780601f10610395576101008083540402835291602001916103c0565b820191906000526020600020905b8154815290600101906020018083116103a357829003601f168201915b5050505050905093509350935050909192565b600380546103e090611094565b80601f016020809104026020016040519081016040528092919081815260200182805461040c90611094565b80156104595780601f1061042e57610100808354040283529160200191610459565b820191906000526020600020905b81548152906001019060200180831161043c57829003601f168201915b505050505081565b6001818154811061047157600080fd5b90600052602060002090600202016000915090508060000160009054906101000a900473ffffffffffffffffffffffffffffffffffffffff16908060000160149054906101000a900460ff16905082565b600460009054906101000a900460ff1615610512576040517f08c379a000000000000000000000000000000000000000000000000000000000815260040161050990611149565b60405180910390fd5b61051a6106a5565b60005b825181101561065f5782818151811061053957610538610fbe565b5b6020026020010151915060016040518060600160405280600073ffffffffffffffffffffffffffffffffffffffff1681526020016002808111156105805761057f610825565b5b81526020018460400151815250908060018154018082558091505060019003906000526020600020906002020160009091909190915060008201518160000160006101000a81548173ffffffffffffffffffffffffffffffffffffffff021916908373ffffffffffffffffffffffffffffffffffffffff16021790555060208201518160000160146101000a81548160ff0219169083600281111561062857610627610825565b5b021790555060408201518160010190805190602001906106499291906106ee565b50505080806106579061101c565b91505061051d565b506001600460006101000a81548160ff0219169083151502179055505050565b600260009054906101000a900473ffffffffffffffffffffffffffffffffffffffff1681565b6040518060600160405280600073ffffffffffffffffffffffffffffffffffffffff168152602001600060028111156106e1576106e0610825565b5b8152602001606081525090565b8280548282559060005260206000209060070160089004810192821561078a5791602002820160005b8382111561075857835183826101000a81548163ffffffff021916908360e01c02179055509260200192600401602081600301049283019260010302610717565b80156107885782816101000a81549063ffffffff0219169055600401602081600301049283019260010302610758565b505b509050610797919061079b565b5090565b5b808211156107b457600081600090555060010161079c565b5090565b600081519050919050565b600082825260208201905092915050565b6000819050602082019050919050565b600073ffffffffffffffffffffffffffffffffffffffff82169050919050565b600061080f826107e4565b9050919050565b61081f81610804565b82525050565b7f4e487b7100000000000000000000000000000000000000000000000000000000600052602160045260246000fd5b6003811061086557610864610825565b5b50565b600081905061087682610854565b919050565b600061088682610868565b9050919050565b6108968161087b565b82525050565b600081519050919050565b600082825260208201905092915050565b6000819050602082019050919050565b60007fffffffff0000000000000000000000000000000000000000000000000000000082169050919050565b6108fd816108c8565b82525050565b600061090f83836108f4565b60208301905092915050565b6000602082019050919050565b60006109338261089c565b61093d81856108a7565b9350610948836108b8565b8060005b838110156109795781516109608882610903565b975061096b8361091b565b92505060018101905061094c565b5085935050505092915050565b600060608301600083015161099e6000860182610816565b5060208301516109b1602086018261088d565b50604083015184820360408601526109c98282610928565b9150508091505092915050565b60006109e28383610986565b905092915050565b6000602082019050919050565b6000610a02826107b8565b610a0c81856107c3565b935083602082028501610a1e856107d4565b8060005b85811015610a5a5784840389528151610a3b85826109d6565b9450610a46836109ea565b925060208a01995050600181019050610a22565b50829750879550505050505092915050565b610a7581610804565b82525050565b600081519050919050565b600082825260208201905092915050565b60005b83811015610ab5578082015181840152602081019050610a9a565b83811115610ac4576000848401525b50505050565b6000601f19601f8301169050919050565b6000610ae682610a7b565b610af08185610a86565b9350610b00818560208601610a97565b610b0981610aca565b840191505092915050565b60006060820190508181036000830152610b2e81866109f7565b9050610b3d6020830185610a6c565b8181036040830152610b4f8184610adb565b9050949350505050565b60006020820190508181036000830152610b738184610adb565b905092915050565b6000604051905090565b600080fd5b600080fd5b6000819050919050565b610ba281610b8f565b8114610bad57600080fd5b50565b600081359050610bbf81610b99565b92915050565b600060208284031215610bdb57610bda610b85565b5b6000610be984828501610bb0565b91505092915050565b610bfb8161087b565b82525050565b6000604082019050610c166000830185610a6c565b610c236020830184610bf2565b9392505050565b600080fd5b7f4e487b7100000000000000000000000000000000000000000000000000000000600052604160045260246000fd5b610c6782610aca565b810181811067ffffffffffffffff82111715610c8657610c85610c2f565b5b80604052505050565b6000610c99610b7b565b9050610ca58282610c5e565b919050565b600067ffffffffffffffff821115610cc557610cc4610c2f565b5b602082029050602081019050919050565b600080fd5b600080fd5b600080fd5b610cee81610804565b8114610cf957600080fd5b50565b600081359050610d0b81610ce5565b92915050565b60038110610d1e57600080fd5b50565b600081359050610d3081610d11565b92915050565b600067ffffffffffffffff821115610d5157610d50610c2f565b5b602082029050602081019050919050565b610d6b816108c8565b8114610d7657600080fd5b50565b600081359050610d8881610d62565b92915050565b6000610da1610d9c84610d36565b610c8f565b90508083825260208201905060208402830185811115610dc457610dc3610cd6565b5b835b81811015610ded5780610dd98882610d79565b845260208401935050602081019050610dc6565b5050509392505050565b600082601f830112610e0c57610e0b610c2a565b5b8135610e1c848260208601610d8e565b91505092915050565b600060608284031215610e3b57610e3a610cdb565b5b610e456060610c8f565b90506000610e5584828501610cfc565b6000830152506020610e6984828501610d21565b602083015250604082013567ffffffffffffffff811115610e8d57610e8c610ce0565b5b610e9984828501610df7565b60408301525092915050565b6000610eb8610eb384610caa565b610c8f565b90508083825260208201905060208402830185811115610edb57610eda610cd6565b5b835b81811015610f2257803567ffffffffffffffff811115610f0057610eff610c2a565b5b808601610f0d8982610e25565b85526020850194505050602081019050610edd565b5050509392505050565b600082601f830112610f4157610f40610c2a565b5b8135610f51848260208601610ea5565b91505092915050565b600060208284031215610f7057610f6f610b85565b5b600082013567ffffffffffffffff811115610f8e57610f8d610b8a565b5b610f9a84828501610f2c565b91505092915050565b6000602082019050610fb86000830184610a6c565b92915050565b7f4e487b7100000000000000000000000000000000000000000000000000000000600052603260045260246000fd5b7f4e487b7100000000000000000000000000000000000000000000000000000000600052601160045260246000fd5b600061102782610b8f565b91507fffffffffffffffffffffffffffffffffffffffffffffffffffffffffffffffff82141561105a57611059610fed565b5b600182019050919050565b7f4e487b7100000000000000000000000000000000000000000000000000000000600052602260045260246000fd5b600060028204905060018216806110ac57607f821691505b602082108114156110c0576110bf611065565b5b50919050565b600082825260208201905092915050565b7f5061636b61676552656d6f76653a20616c726561647920696e697469616c697a60008201527f65642e0000000000000000000000000000000000000000000000000000000000602082015250565b60006111336023836110c6565b915061113e826110d7565b604082019050919050565b6000602082019050818103600083015261116281611126565b905091905056fea26469706673582212205d3f1d58fecc8d8eb334291c51b6bf19cfd151bc365ff06f11374c433de78d9464736f6c634300080c0033",
  "linkReferences": {},
  "deployedLinkReferences": {}
}