{
  "_format": "hh-sol-artifact-1",
  "contractName": "StakeContract",
  "sourceName": "contracts/_library/habitat/external/StakeContract.sol",
  "abi": [
    {
      "inputs": [
        {
          "internalType": "address",
          "name": "_votingPower",
          "type": "address"
        },
        {
          "internalType": "uint256",
          "name": "_precision",
          "type": "uint256"
        },
        {
          "internalType": "address[]",
          "name": "_governanceTokens",
          "type": "address[]"
        },
        {
          "internalType": "uint256[]",
          "name": "coefficients",
          "type": "uint256[]"
        }
      ],
      "stateMutability": "nonpayable",
      "type": "constructor"
    },
    {
      "inputs": [
        {
          "internalType": "address",
          "name": "holder",
          "type": "address"
        },
        {
          "internalType": "address",
          "name": "_governanceToken",
          "type": "address"
        }
      ],
      "name": "getStakedBalanceOfGovernanceToken",
      "outputs": [
        {
          "internalType": "uint256",
          "name": "balance",
          "type": "uint256"
        }
      ],
      "stateMutability": "view",
      "type": "function"
    },
    {
      "inputs": [
        {
          "internalType": "address",
          "name": "_governanceToken",
          "type": "address"
        },
        {
          "internalType": "uint256",
          "name": "_amount",
          "type": "uint256"
        }
      ],
      "name": "stake",
      "outputs": [],
      "stateMutability": "nonpayable",
      "type": "function"
    },
    {
      "inputs": [
        {
          "internalType": "address[]",
          "name": "_governanceTokens",
          "type": "address[]"
        },
        {
          "internalType": "uint256[]",
          "name": "_amounts",
          "type": "uint256[]"
        }
      ],
      "name": "stakeMultiple",
      "outputs": [],
      "stateMutability": "nonpayable",
      "type": "function"
    },
    {
      "inputs": [
        {
          "internalType": "address",
          "name": "_governanceToken",
          "type": "address"
        },
        {
          "internalType": "uint256",
          "name": "_amount",
          "type": "uint256"
        }
      ],
      "name": "unstake",
      "outputs": [],
      "stateMutability": "nonpayable",
      "type": "function"
    },
    {
      "inputs": [
        {
          "internalType": "address[]",
          "name": "_governanceTokens",
          "type": "address[]"
        },
        {
          "internalType": "uint256[]",
          "name": "_amounts",
          "type": "uint256[]"
        }
      ],
      "name": "unstakeMultiple",
      "outputs": [],
      "stateMutability": "nonpayable",
      "type": "function"
    }
  ],
  "bytecode": "0x60806040523480156200001157600080fd5b5060405162001c4438038062001c448339818101604052810190620000379190620004ab565b600073ffffffffffffffffffffffffffffffffffffffff168473ffffffffffffffffffffffffffffffffffffffff1614156200007257600080fd5b8051825114620000b9576040517f08c379a0000000000000000000000000000000000000000000000000000000008152600401620000b090620005bc565b60405180910390fd5b82600181905550836000806101000a81548173ffffffffffffffffffffffffffffffffffffffff021916908373ffffffffffffffffffffffffffffffffffffffff16021790555060005b8251811015620001a157818181518110620001235762000122620005de565b5b602002602001015160026000858481518110620001455762000144620005de565b5b602002602001015173ffffffffffffffffffffffffffffffffffffffff1673ffffffffffffffffffffffffffffffffffffffff16815260200190815260200160002081905550808062000198906200063c565b91505062000103565b50505050506200068a565b6000604051905090565b600080fd5b600080fd5b600073ffffffffffffffffffffffffffffffffffffffff82169050919050565b6000620001ed82620001c0565b9050919050565b620001ff81620001e0565b81146200020b57600080fd5b50565b6000815190506200021f81620001f4565b92915050565b6000819050919050565b6200023a8162000225565b81146200024657600080fd5b50565b6000815190506200025a816200022f565b92915050565b600080fd5b6000601f19601f8301169050919050565b7f4e487b7100000000000000000000000000000000000000000000000000000000600052604160045260246000fd5b620002b08262000265565b810181811067ffffffffffffffff82111715620002d257620002d162000276565b5b80604052505050565b6000620002e7620001ac565b9050620002f58282620002a5565b919050565b600067ffffffffffffffff82111562000318576200031762000276565b5b602082029050602081019050919050565b600080fd5b6000620003456200033f84620002fa565b620002db565b905080838252602082019050602084028301858111156200036b576200036a62000329565b5b835b818110156200039857806200038388826200020e565b8452602084019350506020810190506200036d565b5050509392505050565b600082601f830112620003ba57620003b962000260565b5b8151620003cc8482602086016200032e565b91505092915050565b600067ffffffffffffffff821115620003f357620003f262000276565b5b602082029050602081019050919050565b60006200041b6200041584620003d5565b620002db565b9050808382526020820190506020840283018581111562000441576200044062000329565b5b835b818110156200046e578062000459888262000249565b84526020840193505060208101905062000443565b5050509392505050565b600082601f83011262000490576200048f62000260565b5b8151620004a284826020860162000404565b91505092915050565b60008060008060808587031215620004c857620004c7620001b6565b5b6000620004d8878288016200020e565b9450506020620004eb8782880162000249565b935050604085015167ffffffffffffffff8111156200050f576200050e620001bb565b5b6200051d87828801620003a2565b925050606085015167ffffffffffffffff811115620005415762000540620001bb565b5b6200054f8782880162000478565b91505092959194509250565b600082825260208201905092915050565b7f446966666572656e7420617272617973206c656e677468000000000000000000600082015250565b6000620005a46017836200055b565b9150620005b1826200056c565b602082019050919050565b60006020820190508181036000830152620005d78162000595565b9050919050565b7f4e487b7100000000000000000000000000000000000000000000000000000000600052603260045260246000fd5b7f4e487b7100000000000000000000000000000000000000000000000000000000600052601160045260246000fd5b6000620006498262000225565b91507fffffffffffffffffffffffffffffffffffffffffffffffffffffffffffffffff8214156200067f576200067e6200060d565b5b600182019050919050565b6115aa806200069a6000396000f3fe608060405234801561001057600080fd5b50600436106100575760003560e01c80630b15040d1461005c578063adc9772e14610078578063c2a672e014610094578063c5779d98146100b0578063eef48dde146100e0575b600080fd5b61007660048036038101906100719190610d91565b6100fc565b005b610092600480360381019061008d9190610e09565b6101a2565b005b6100ae60048036038101906100a99190610e09565b61042c565b005b6100ca60048036038101906100c59190610e49565b61069d565b6040516100d79190610e98565b60405180910390f35b6100fa60048036038101906100f59190610d91565b610724565b005b8051825114610140576040517f08c379a000000000000000000000000000000000000000000000000000000000815260040161013790610f10565b60405180910390fd5b60005b825181101561019d5761018a83828151811061016257610161610f30565b5b602002602001015183838151811061017d5761017c610f30565b5b602002602001015161042c565b808061019590610f8e565b915050610143565b505050565b6000600260008473ffffffffffffffffffffffffffffffffffffffff1673ffffffffffffffffffffffffffffffffffffffff1681526020019081526020016000205411610224576040517f08c379a000000000000000000000000000000000000000000000000000000000815260040161021b90611049565b60405180910390fd5b8173ffffffffffffffffffffffffffffffffffffffff166323b872dd3330846040518463ffffffff1660e01b815260040161026193929190611078565b6020604051808303816000875af1158015610280573d6000803e3d6000fd5b505050506040513d601f19601f820116820180604052508101906102a491906110e7565b5080600360003373ffffffffffffffffffffffffffffffffffffffff1673ffffffffffffffffffffffffffffffffffffffff16815260200190815260200160002060008473ffffffffffffffffffffffffffffffffffffffff1673ffffffffffffffffffffffffffffffffffffffff16815260200190815260200160002060008282546103319190611114565b925050819055506000600260008473ffffffffffffffffffffffffffffffffffffffff1673ffffffffffffffffffffffffffffffffffffffff1681526020019081526020016000205490506000600154828461038d919061116a565b61039791906111f3565b905060008054906101000a900473ffffffffffffffffffffffffffffffffffffffff1673ffffffffffffffffffffffffffffffffffffffff1663dc7d5d2533836040518363ffffffff1660e01b81526004016103f4929190611224565b600060405180830381600087803b15801561040e57600080fd5b505af1158015610422573d6000803e3d6000fd5b5050505050505050565b80600360003373ffffffffffffffffffffffffffffffffffffffff1673ffffffffffffffffffffffffffffffffffffffff16815260200190815260200160002060008473ffffffffffffffffffffffffffffffffffffffff1673ffffffffffffffffffffffffffffffffffffffff1681526020019081526020016000205410156104eb576040517f08c379a00000000000000000000000000000000000000000000000000000000081526004016104e290611299565b60405180910390fd5b6000600260008473ffffffffffffffffffffffffffffffffffffffff1673ffffffffffffffffffffffffffffffffffffffff16815260200190815260200160002054905060006001548284610540919061116a565b61054a91906111f3565b905060008054906101000a900473ffffffffffffffffffffffffffffffffffffffff1673ffffffffffffffffffffffffffffffffffffffff16631c6d156c33836040518363ffffffff1660e01b81526004016105a7929190611224565b600060405180830381600087803b1580156105c157600080fd5b505af11580156105d5573d6000803e3d6000fd5b5050505082600360003373ffffffffffffffffffffffffffffffffffffffff1673ffffffffffffffffffffffffffffffffffffffff16815260200190815260200160002060008673ffffffffffffffffffffffffffffffffffffffff1673ffffffffffffffffffffffffffffffffffffffff168152602001908152602001600020600082825461066591906112b9565b9250508190555061069733848673ffffffffffffffffffffffffffffffffffffffff166107ca9092919063ffffffff16565b50505050565b6000600360008473ffffffffffffffffffffffffffffffffffffffff1673ffffffffffffffffffffffffffffffffffffffff16815260200190815260200160002060008373ffffffffffffffffffffffffffffffffffffffff1673ffffffffffffffffffffffffffffffffffffffff16815260200190815260200160002054905092915050565b8051825114610768576040517f08c379a000000000000000000000000000000000000000000000000000000000815260040161075f90610f10565b60405180910390fd5b60005b82518110156107c5576107b283828151811061078a57610789610f30565b5b60200260200101518383815181106107a5576107a4610f30565b5b60200260200101516101a2565b80806107bd90610f8e565b91505061076b565b505050565b61084b8363a9059cbb60e01b84846040516024016107e9929190611224565b604051602081830303815290604052907bffffffffffffffffffffffffffffffffffffffffffffffffffffffff19166020820180517bffffffffffffffffffffffffffffffffffffffffffffffffffffffff8381831617835250505050610850565b505050565b60006108b2826040518060400160405280602081526020017f5361666545524332303a206c6f772d6c6576656c2063616c6c206661696c65648152508573ffffffffffffffffffffffffffffffffffffffff166109179092919063ffffffff16565b905060008151111561091257808060200190518101906108d291906110e7565b610911576040517f08c379a00000000000000000000000000000000000000000000000000000000081526004016109089061135f565b60405180910390fd5b5b505050565b6060610926848460008561092f565b90509392505050565b606082471015610974576040517f08c379a000000000000000000000000000000000000000000000000000000000815260040161096b906113f1565b60405180910390fd5b61097d85610a43565b6109bc576040517f08c379a00000000000000000000000000000000000000000000000000000000081526004016109b39061145d565b60405180910390fd5b6000808673ffffffffffffffffffffffffffffffffffffffff1685876040516109e591906114f7565b60006040518083038185875af1925050503d8060008114610a22576040519150601f19603f3d011682016040523d82523d6000602084013e610a27565b606091505b5091509150610a37828286610a66565b92505050949350505050565b6000808273ffffffffffffffffffffffffffffffffffffffff163b119050919050565b60608315610a7657829050610ac6565b600083511115610a895782518084602001fd5b816040517f08c379a0000000000000000000000000000000000000000000000000000000008152600401610abd9190611552565b60405180910390fd5b9392505050565b6000604051905090565b600080fd5b600080fd5b600080fd5b6000601f19601f8301169050919050565b7f4e487b7100000000000000000000000000000000000000000000000000000000600052604160045260246000fd5b610b2f82610ae6565b810181811067ffffffffffffffff82111715610b4e57610b4d610af7565b5b80604052505050565b6000610b61610acd565b9050610b6d8282610b26565b919050565b600067ffffffffffffffff821115610b8d57610b8c610af7565b5b602082029050602081019050919050565b600080fd5b600073ffffffffffffffffffffffffffffffffffffffff82169050919050565b6000610bce82610ba3565b9050919050565b610bde81610bc3565b8114610be957600080fd5b50565b600081359050610bfb81610bd5565b92915050565b6000610c14610c0f84610b72565b610b57565b90508083825260208201905060208402830185811115610c3757610c36610b9e565b5b835b81811015610c605780610c4c8882610bec565b845260208401935050602081019050610c39565b5050509392505050565b600082601f830112610c7f57610c7e610ae1565b5b8135610c8f848260208601610c01565b91505092915050565b600067ffffffffffffffff821115610cb357610cb2610af7565b5b602082029050602081019050919050565b6000819050919050565b610cd781610cc4565b8114610ce257600080fd5b50565b600081359050610cf481610cce565b92915050565b6000610d0d610d0884610c98565b610b57565b90508083825260208201905060208402830185811115610d3057610d2f610b9e565b5b835b81811015610d595780610d458882610ce5565b845260208401935050602081019050610d32565b5050509392505050565b600082601f830112610d7857610d77610ae1565b5b8135610d88848260208601610cfa565b91505092915050565b60008060408385031215610da857610da7610ad7565b5b600083013567ffffffffffffffff811115610dc657610dc5610adc565b5b610dd285828601610c6a565b925050602083013567ffffffffffffffff811115610df357610df2610adc565b5b610dff85828601610d63565b9150509250929050565b60008060408385031215610e2057610e1f610ad7565b5b6000610e2e85828601610bec565b9250506020610e3f85828601610ce5565b9150509250929050565b60008060408385031215610e6057610e5f610ad7565b5b6000610e6e85828601610bec565b9250506020610e7f85828601610bec565b9150509250929050565b610e9281610cc4565b82525050565b6000602082019050610ead6000830184610e89565b92915050565b600082825260208201905092915050565b7f446966666572656e74206172726179206c656e67746800000000000000000000600082015250565b6000610efa601683610eb3565b9150610f0582610ec4565b602082019050919050565b60006020820190508181036000830152610f2981610eed565b9050919050565b7f4e487b7100000000000000000000000000000000000000000000000000000000600052603260045260246000fd5b7f4e487b7100000000000000000000000000000000000000000000000000000000600052601160045260246000fd5b6000610f9982610cc4565b91507fffffffffffffffffffffffffffffffffffffffffffffffffffffffffffffffff821415610fcc57610fcb610f5f565b5b600182019050919050565b7f546f6b656e206973206e6f74206163636570746564206173206120676f76657260008201527f6e616e6365206f6e652e00000000000000000000000000000000000000000000602082015250565b6000611033602a83610eb3565b915061103e82610fd7565b604082019050919050565b6000602082019050818103600083015261106281611026565b9050919050565b61107281610bc3565b82525050565b600060608201905061108d6000830186611069565b61109a6020830185611069565b6110a76040830184610e89565b949350505050565b60008115159050919050565b6110c4816110af565b81146110cf57600080fd5b50565b6000815190506110e1816110bb565b92915050565b6000602082840312156110fd576110fc610ad7565b5b600061110b848285016110d2565b91505092915050565b600061111f82610cc4565b915061112a83610cc4565b9250827fffffffffffffffffffffffffffffffffffffffffffffffffffffffffffffffff0382111561115f5761115e610f5f565b5b828201905092915050565b600061117582610cc4565b915061118083610cc4565b9250817fffffffffffffffffffffffffffffffffffffffffffffffffffffffffffffffff04831182151516156111b9576111b8610f5f565b5b828202905092915050565b7f4e487b7100000000000000000000000000000000000000000000000000000000600052601260045260246000fd5b60006111fe82610cc4565b915061120983610cc4565b925082611219576112186111c4565b5b828204905092915050565b60006040820190506112396000830185611069565b6112466020830184610e89565b9392505050565b7f547279696e6720746f20756e7374616b65206d6f7265207468616e2068617665600082015250565b6000611283602083610eb3565b915061128e8261124d565b602082019050919050565b600060208201905081810360008301526112b281611276565b9050919050565b60006112c482610cc4565b91506112cf83610cc4565b9250828210156112e2576112e1610f5f565b5b828203905092915050565b7f5361666545524332303a204552433230206f7065726174696f6e20646964206e60008201527f6f74207375636365656400000000000000000000000000000000000000000000602082015250565b6000611349602a83610eb3565b9150611354826112ed565b604082019050919050565b600060208201905081810360008301526113788161133c565b9050919050565b7f416464726573733a20696e73756666696369656e742062616c616e636520666f60008201527f722063616c6c0000000000000000000000000000000000000000000000000000602082015250565b60006113db602683610eb3565b91506113e68261137f565b604082019050919050565b6000602082019050818103600083015261140a816113ce565b9050919050565b7f416464726573733a2063616c6c20746f206e6f6e2d636f6e7472616374000000600082015250565b6000611447601d83610eb3565b915061145282611411565b602082019050919050565b600060208201905081810360008301526114768161143a565b9050919050565b600081519050919050565b600081905092915050565b60005b838110156114b1578082015181840152602081019050611496565b838111156114c0576000848401525b50505050565b60006114d18261147d565b6114db8185611488565b93506114eb818560208601611493565b80840191505092915050565b600061150382846114c6565b915081905092915050565b600081519050919050565b60006115248261150e565b61152e8185610eb3565b935061153e818560208601611493565b61154781610ae6565b840191505092915050565b6000602082019050818103600083015261156c8184611519565b90509291505056fea2646970667358221220a10f87194fa96441b1086b508648a42b09f8eb4e27b528ace4ceba0ef0ae733864736f6c634300080c0033",
  "linkReferences": {},
  "deployedLinkReferences": {}
}