{
  "_format": "hh-sol-artifact-1",
  "contractName": "Upgrade",
  "sourceName": "contracts/external/Upgrade.sol",
  "abi": [
    {
      "inputs": [
        {
          "internalType": "uint256",
          "name": "",
          "type": "uint256"
        }
      ],
      "name": "cuts",
      "outputs": [
        {
          "internalType": "address",
          "name": "target",
          "type": "address"
        },
        {
          "internalType": "enum IDiamondWritable.FacetCutAction",
          "name": "action",
          "type": "uint8"
        }
      ],
      "stateMutability": "view",
      "type": "function"
    },
    {
      "inputs": [],
      "name": "data",
      "outputs": [
        {
          "internalType": "bytes",
          "name": "",
          "type": "bytes"
        }
      ],
      "stateMutability": "view",
      "type": "function"
    },
    {
      "inputs": [],
      "name": "get",
      "outputs": [
        {
          "components": [
            {
              "internalType": "address",
              "name": "target",
              "type": "address"
            },
            {
              "internalType": "enum IDiamondWritable.FacetCutAction",
              "name": "action",
              "type": "uint8"
            },
            {
              "internalType": "bytes4[]",
              "name": "selectors",
              "type": "bytes4[]"
            }
          ],
          "internalType": "struct IDiamondWritable.FacetCut[]",
          "name": "",
          "type": "tuple[]"
        },
        {
          "internalType": "address",
          "name": "",
          "type": "address"
        },
        {
          "internalType": "bytes",
          "name": "",
          "type": "bytes"
        }
      ],
      "stateMutability": "view",
      "type": "function"
    },
    {
      "inputs": [],
      "name": "target",
      "outputs": [
        {
          "internalType": "address",
          "name": "",
          "type": "address"
        }
      ],
      "stateMutability": "view",
      "type": "function"
    }
  ],
  "bytecode": "0x608060405234801561001057600080fd5b50610af5806100206000396000f3fe608060405234801561001057600080fd5b506004361061004c5760003560e01c80636d4ce63c1461005157806373d4a13a14610071578063b27fb3111461008f578063d4b83992146100c0575b600080fd5b6100596100de565b60405161006893929190610866565b60405180910390f35b6100796103ac565b60405161008691906108ab565b60405180910390f35b6100a960048036038101906100a49190610908565b61043a565b6040516100b7929190610944565b60405180910390f35b6100c861049b565b6040516100d5919061096d565b60405180910390f35b606060006060600060018054905067ffffffffffffffff81111561010557610104610988565b5b60405190808252806020026020018201604052801561013e57816020015b61012b6104c1565b8152602001906001900390816101235790505b50905060005b81518110156102ed5760405180606001604052806001838154811061016c5761016b6109b7565b5b906000526020600020906002020160000160009054906101000a900473ffffffffffffffffffffffffffffffffffffffff1673ffffffffffffffffffffffffffffffffffffffff168152602001600183815481106101cd576101cc6109b7565b5b906000526020600020906002020160000160149054906101000a900460ff1660028111156101fe576101fd610577565b5b815260200160018381548110610217576102166109b7565b5b90600052602060002090600202016001018054806020026020016040519081016040528092919081815260200182805480156102b457602002820191906000526020600020906000905b82829054906101000a900460e01b7bffffffffffffffffffffffffffffffffffffffffffffffffffffffff1916815260200190600401906020826003010492830192600103820291508084116102615790505b50505050508152508282815181106102cf576102ce6109b7565b5b602002602001018190525080806102e590610a15565b915050610144565b5080600260009054906101000a900473ffffffffffffffffffffffffffffffffffffffff16600380805461032090610a8d565b80601f016020809104026020016040519081016040528092919081815260200182805461034c90610a8d565b80156103995780601f1061036e57610100808354040283529160200191610399565b820191906000526020600020905b81548152906001019060200180831161037c57829003601f168201915b5050505050905093509350935050909192565b600380546103b990610a8d565b80601f01602080910402602001604051908101604052809291908181526020018280546103e590610a8d565b80156104325780601f1061040757610100808354040283529160200191610432565b820191906000526020600020905b81548152906001019060200180831161041557829003601f168201915b505050505081565b6001818154811061044a57600080fd5b90600052602060002090600202016000915090508060000160009054906101000a900473ffffffffffffffffffffffffffffffffffffffff16908060000160149054906101000a900460ff16905082565b600260009054906101000a900473ffffffffffffffffffffffffffffffffffffffff1681565b6040518060600160405280600073ffffffffffffffffffffffffffffffffffffffff168152602001600060028111156104fd576104fc610577565b5b8152602001606081525090565b600081519050919050565b600082825260208201905092915050565b6000819050602082019050919050565b600073ffffffffffffffffffffffffffffffffffffffff82169050919050565b600061056182610536565b9050919050565b61057181610556565b82525050565b7f4e487b7100000000000000000000000000000000000000000000000000000000600052602160045260246000fd5b600381106105b7576105b6610577565b5b50565b60008190506105c8826105a6565b919050565b60006105d8826105ba565b9050919050565b6105e8816105cd565b82525050565b600081519050919050565b600082825260208201905092915050565b6000819050602082019050919050565b60007fffffffff0000000000000000000000000000000000000000000000000000000082169050919050565b61064f8161061a565b82525050565b60006106618383610646565b60208301905092915050565b6000602082019050919050565b6000610685826105ee565b61068f81856105f9565b935061069a8361060a565b8060005b838110156106cb5781516106b28882610655565b97506106bd8361066d565b92505060018101905061069e565b5085935050505092915050565b60006060830160008301516106f06000860182610568565b50602083015161070360208601826105df565b506040830151848203604086015261071b828261067a565b9150508091505092915050565b600061073483836106d8565b905092915050565b6000602082019050919050565b60006107548261050a565b61075e8185610515565b93508360208202850161077085610526565b8060005b858110156107ac578484038952815161078d8582610728565b94506107988361073c565b925060208a01995050600181019050610774565b50829750879550505050505092915050565b6107c781610556565b82525050565b600081519050919050565b600082825260208201905092915050565b60005b838110156108075780820151818401526020810190506107ec565b83811115610816576000848401525b50505050565b6000601f19601f8301169050919050565b6000610838826107cd565b61084281856107d8565b93506108528185602086016107e9565b61085b8161081c565b840191505092915050565b600060608201905081810360008301526108808186610749565b905061088f60208301856107be565b81810360408301526108a1818461082d565b9050949350505050565b600060208201905081810360008301526108c5818461082d565b905092915050565b600080fd5b6000819050919050565b6108e5816108d2565b81146108f057600080fd5b50565b600081359050610902816108dc565b92915050565b60006020828403121561091e5761091d6108cd565b5b600061092c848285016108f3565b91505092915050565b61093e816105cd565b82525050565b600060408201905061095960008301856107be565b6109666020830184610935565b9392505050565b600060208201905061098260008301846107be565b92915050565b7f4e487b7100000000000000000000000000000000000000000000000000000000600052604160045260246000fd5b7f4e487b7100000000000000000000000000000000000000000000000000000000600052603260045260246000fd5b7f4e487b7100000000000000000000000000000000000000000000000000000000600052601160045260246000fd5b6000610a20826108d2565b91507fffffffffffffffffffffffffffffffffffffffffffffffffffffffffffffffff821415610a5357610a526109e6565b5b600182019050919050565b7f4e487b7100000000000000000000000000000000000000000000000000000000600052602260045260246000fd5b60006002820490506001821680610aa557607f821691505b60208210811415610ab957610ab8610a5e565b5b5091905056fea26469706673582212205736fe5df8da6a76bc547b15734fac3f23fdbf17c1ce7cbbb026f1a37ac8b9e364736f6c634300080c0033",
  "linkReferences": {},
  "deployedLinkReferences": {}
}