{
  "_format": "hh-sol-artifact-1",
  "contractName": "DiamondFactory",
  "sourceName": "contracts/logic/DiamondFactory.sol",
  "abi": [
    {
      "anonymous": false,
      "inputs": [
        {
          "indexed": false,
          "internalType": "address",
          "name": "diamond",
          "type": "address"
        },
        {
          "indexed": false,
          "internalType": "address",
          "name": "owner",
          "type": "address"
        }
      ],
      "name": "Registered",
      "type": "event"
    },
    {
      "inputs": [
        {
          "components": [
            {
              "internalType": "address",
              "name": "target",
              "type": "address"
            },
            {
              "internalType": "enum IDiamondWritable.FacetCutAction",
              "name": "action",
              "type": "uint8"
            },
            {
              "internalType": "bytes4[]",
              "name": "selectors",
              "type": "bytes4[]"
            }
          ],
          "internalType": "struct IDiamondWritable.FacetCut[]",
          "name": "cuts",
          "type": "tuple[]"
        },
        {
          "internalType": "address",
          "name": "target",
          "type": "address"
        },
        {
          "internalType": "bytes",
          "name": "data",
          "type": "bytes"
        }
      ],
      "name": "createDiamond",
      "outputs": [
        {
          "internalType": "address",
          "name": "",
          "type": "address"
        }
      ],
      "stateMutability": "nonpayable",
      "type": "function"
    }
  ],
  "bytecode": "0x608060405234801561001057600080fd5b5061447f806100206000396000f3fe60806040523480156200001157600080fd5b50600436106200002e5760003560e01c80638512a5731462000033575b600080fd5b6200005160048036038101906200004b919062000243565b62000069565b604051620000609190620002f8565b60405180910390f35b6000803387878787876040516200008090620000f9565b620000919695949392919062000770565b604051809103906000f080158015620000ae573d6000803e3d6000fd5b5090507f0a31ee9d46a828884b81003c8498156ea6aa15b9b54bdd0ef0b533d9eba57e558133604051620000e4929190620007cf565b60405180910390a18091505095945050505050565b613c4d80620007fd83390190565b600080fd5b600080fd5b600080fd5b600080fd5b600080fd5b60008083601f84011262000139576200013862000111565b5b8235905067ffffffffffffffff81111562000159576200015862000116565b5b6020830191508360208202830111156200017857620001776200011b565b5b9250929050565b600073ffffffffffffffffffffffffffffffffffffffff82169050919050565b6000620001ac826200017f565b9050919050565b620001be816200019f565b8114620001ca57600080fd5b50565b600081359050620001de81620001b3565b92915050565b60008083601f840112620001fd57620001fc62000111565b5b8235905067ffffffffffffffff8111156200021d576200021c62000116565b5b6020830191508360018202830111156200023c576200023b6200011b565b5b9250929050565b60008060008060006060868803121562000262576200026162000107565b5b600086013567ffffffffffffffff8111156200028357620002826200010c565b5b620002918882890162000120565b95509550506020620002a688828901620001cd565b935050604086013567ffffffffffffffff811115620002ca57620002c96200010c565b5b620002d888828901620001e4565b92509250509295509295909350565b620002f2816200019f565b82525050565b60006020820190506200030f6000830184620002e7565b92915050565b600082825260208201905092915050565b6000819050919050565b6000620003416020840184620001cd565b905092915050565b62000354816200019f565b82525050565b600381106200036857600080fd5b50565b6000813590506200037c816200035a565b92915050565b60006200039360208401846200036b565b905092915050565b7f4e487b7100000000000000000000000000000000000000000000000000000000600052602160045260246000fd5b60038110620003de57620003dd6200039b565b5b50565b6000819050620003f182620003ca565b919050565b60006200040382620003e1565b9050919050565b6200041581620003f6565b82525050565b600080fd5b600080fd5b600080fd5b600080833560016020038436030381126200044a576200044962000425565b5b83810192508235915060208301925067ffffffffffffffff8211156200047557620004746200041b565b5b6020820236038413156200048e576200048d62000420565b5b509250929050565b600082825260208201905092915050565b6000819050919050565b60007fffffffff0000000000000000000000000000000000000000000000000000000082169050919050565b620004e881620004b1565b82525050565b6000620004fc8383620004dd565b60208301905092915050565b6200051381620004b1565b81146200051f57600080fd5b50565b600081359050620005338162000508565b92915050565b60006200054a602084018462000522565b905092915050565b6000602082019050919050565b60006200056d838562000496565b93506200057a82620004a7565b8060005b85811015620005bb5762000593828462000539565b6200059f8882620004ee565b9750620005ac8362000552565b9250506001810190506200057e565b5085925050509392505050565b600060608301620005dd600084018462000330565b620005ec600086018262000349565b50620005fc602084018462000382565b6200060b60208601826200040a565b506200061b60408401846200042a565b8583036040870152620006308382846200055f565b925050508091505092915050565b60006200064c8383620005c8565b905092915050565b60008235600160600383360303811262000673576200067262000425565b5b82810191505092915050565b6000602082019050919050565b60006200069a838562000315565b935083602084028501620006ae8462000326565b8060005b87811015620006fa578484038952620006cc828462000654565b620006d885826200063e565b9450620006e5836200067f565b925060208a01995050600181019050620006b2565b50829750879450505050509392505050565b600082825260208201905092915050565b82818337600083830152505050565b6000601f19601f8301169050919050565b60006200074b83856200070c565b93506200075a8385846200071d565b62000765836200072c565b840190509392505050565b6000608082019050620007876000830189620002e7565b81810360208301526200079c8187896200068c565b9050620007ad6040830186620002e7565b8181036060830152620007c28184866200073d565b9050979650505050505050565b6000604082019050620007e66000830185620002e7565b620007f56020830184620002e7565b939250505056fe60806040523480156200001157600080fd5b5060405162003c4d38038062003c4d83398181016040528101906200003791906200158b565b6200006983838362000053620000ca60201b6200022d1760201c565b620000f760201b6200025a17909392919060201c565b836200007f6200039260201b620004b41760201c565b60000160006101000a81548173ffffffffffffffffffffffffffffffffffffffff021916908373ffffffffffffffffffffffffffffffffffffffff1602179055505050505062001fde565b6000807f177481ac65e4292921c69f62d1cc7f57541261e5d61c8175cf4e36a01c9bfc9390508091505090565b60008460010160009054906101000a900461ffff1661ffff16905060008190506000806007831611156200014257866002016000600384901c81526020019081526020016000205490505b60005b8651811015620002e55760008782815181106200016757620001666200163b565b5b60200260200101519050600081602001519050600082604001515111620001c5576040517f08c379a0000000000000000000000000000000000000000000000000000000008152600401620001bc90620016f1565b60405180910390fd5b60006002811115620001dc57620001db62001713565b5b816002811115620001f257620001f162001713565b5b14156200022557620002178585848d620003bf60201b620004e117909392919060201c565b8095508196505050620002d5565b600160028111156200023c576200023b62001713565b5b81600281111562000252576200025162001713565b5b1415620002795762000273828b6200069a60201b620007a21790919060201c565b620002d4565b6002808111156200028f576200028e62001713565b5b816002811115620002a557620002a462001713565b5b1415620002d357620002ca8585848d6200099560201b62000a7f17909392919060201c565b80955081965050505b5b5b5050808060010191505062000145565b508282146200030e57818760010160006101000a81548161ffff021916908361ffff1602179055505b60006007831611156200033a5780876002016000600385901c8152602001908152602001600020819055505b7f8faa70878671ccd212d20771b795c50af8fd3ff6cf27f4bde57e5d4de0aeb6738686866040516200036f9392919062001a06565b60405180910390a162000389858562000eae60201b60201c565b50505050505050565b6000807f8a22373512790c48b83a1fe2efdd2888d4a917bcdc24d0adf63e60f67168046090508091505090565b6000803073ffffffffffffffffffffffffffffffffffffffff16836000015173ffffffffffffffffffffffffffffffffffffffff1614806200042d57506200042c836000015173ffffffffffffffffffffffffffffffffffffffff166200108760201b6200021a1760201c565b5b6200046f576040517f08c379a0000000000000000000000000000000000000000000000000000000008152600401620004669062001ac7565b60405180910390fd5b60005b8360400151518110156200068a576000846040015182815181106200049c576200049b6200163b565b5b602002602001015190506000886000016000837bffffffffffffffffffffffffffffffffffffffffffffffffffffffff19167bffffffffffffffffffffffffffffffffffffffffffffffffffffffff19168152602001908152602001600020549050600073ffffffffffffffffffffffffffffffffffffffff168160601c73ffffffffffffffffffffffffffffffffffffffff161462000573576040517f08c379a00000000000000000000000000000000000000000000000000000000081526004016200056a9062001b5f565b60405180910390fd5b8760001b866000015160601b6bffffffffffffffffffffffff191617896000016000847bffffffffffffffffffffffffffffffffffffffffffffffffffffffff19167bffffffffffffffffffffffffffffffffffffffffffffffffffffffff19168152602001908152602001600020819055506000600560078a16901b905080837bffffffffffffffffffffffffffffffffffffffffffffffffffffffff1916901c817fffffffff0000000000000000000000000000000000000000000000000000000060001b901c19891617975060e08114156200067157878a600201600060038c901c8152602001908152602001600020819055506000801b97505b8880600101995050505050808060010191505062000472565b5084849150915094509492505050565b620006ca816000015173ffffffffffffffffffffffffffffffffffffffff166200108760201b6200021a1760201c565b6200070c576040517f08c379a0000000000000000000000000000000000000000000000000000000008152600401620007039062001bf7565b60405180910390fd5b60005b81604001515181101562000990576000826040015182815181106200073957620007386200163b565b5b602002602001015190506000846000016000837bffffffffffffffffffffffffffffffffffffffffffffffffffffffff19167bffffffffffffffffffffffffffffffffffffffffffffffffffffffff1916815260200190815260200160002054905060008160601c9050600073ffffffffffffffffffffffffffffffffffffffff168173ffffffffffffffffffffffffffffffffffffffff16141562000816576040517f08c379a00000000000000000000000000000000000000000000000000000000081526004016200080d9062001c69565b60405180910390fd5b3073ffffffffffffffffffffffffffffffffffffffff168173ffffffffffffffffffffffffffffffffffffffff16141562000888576040517f08c379a00000000000000000000000000000000000000000000000000000000081526004016200087f9062001d01565b60405180910390fd5b846000015173ffffffffffffffffffffffffffffffffffffffff168173ffffffffffffffffffffffffffffffffffffffff161415620008fe576040517f08c379a0000000000000000000000000000000000000000000000000000000008152600401620008f59062001d99565b60405180910390fd5b846000015160601b6bffffffffffffffffffffffff19166bffffffffffffffffffffffff60001b831617866000016000857bffffffffffffffffffffffffffffffffffffffffffffffffffffffff19167bffffffffffffffffffffffffffffffffffffffffffffffffffffffff191681526020019081526020016000208190555050505080806001019150506200070f565b505050565b600080600073ffffffffffffffffffffffffffffffffffffffff16836000015173ffffffffffffffffffffffffffffffffffffffff161462000a0e576040517f08c379a000000000000000000000000000000000000000000000000000000000815260040162000a059062001e31565b60405180910390fd5b6000600386901c9050600060078716905060005b85604001515181101562000e935760008660400151828151811062000a4c5762000a4b6200163b565b5b6020026020010151905060008a6000016000837bffffffffffffffffffffffffffffffffffffffffffffffffffffffff19167bffffffffffffffffffffffffffffffffffffffffffffffffffffffff19168152602001908152602001600020549050600073ffffffffffffffffffffffffffffffffffffffff168160601c73ffffffffffffffffffffffffffffffffffffffff16141562000b24576040517f08c379a000000000000000000000000000000000000000000000000000000000815260040162000b1b9062001c69565b60405180910390fd5b3073ffffffffffffffffffffffffffffffffffffffff168160601c73ffffffffffffffffffffffffffffffffffffffff16141562000b99576040517f08c379a000000000000000000000000000000000000000000000000000000000815260040162000b909062001d01565b60405180910390fd5b6000801b89141562000bd0578480600190039550508a60020160008681526020019081526020016000205498506007935062000bda565b8380600190039450505b6000806000600587901b8c901b9250847bffffffffffffffffffffffffffffffffffffffffffffffffffffffff1916837bffffffffffffffffffffffffffffffffffffffffffffffffffffffff19161462000cfd578d6000016000847bffffffffffffffffffffffffffffffffffffffffffffffffffffffff19167bffffffffffffffffffffffffffffffffffffffffffffffffffffffff19168152602001908152602001600020546bffffffffffffffffffffffff19166bffffffffffffffffffffffff60001b8516178e6000016000857bffffffffffffffffffffffffffffffffffffffffffffffffffffffff19167bffffffffffffffffffffffffffffffffffffffffffffffffffffffff19168152602001908152602001600020819055505b8d6000016000867bffffffffffffffffffffffffffffffffffffffffffffffffffffffff19167bffffffffffffffffffffffffffffffffffffffffffffffffffffffff191681526020019081526020016000206000905560008460001c61ffff169050600381901c9250600560078216901b91505087821462000e055760008e600201600084815260200190815260200160002054905081847bffffffffffffffffffffffffffffffffffffffffffffffffffffffff1916901c827fffffffff0000000000000000000000000000000000000000000000000000000060001b901c198216179050808f6002016000858152602001908152602001600020819055505062000e56565b80837bffffffffffffffffffffffffffffffffffffffffffffffffffffffff1916901c817fffffffff0000000000000000000000000000000000000000000000000000000060001b901c198d16179b505b600087141562000e80578d6002016000898152602001908152602001600020600090556000801b9b505b5050505050808060010191505062000a22565b5080600383901b179650868693509350505094509492505050565b60008151141515600073ffffffffffffffffffffffffffffffffffffffff168373ffffffffffffffffffffffffffffffffffffffff161415151462000f2a576040517f08c379a000000000000000000000000000000000000000000000000000000000815260040162000f219062001ec9565b60405180910390fd5b600073ffffffffffffffffffffffffffffffffffffffff168273ffffffffffffffffffffffffffffffffffffffff161462001083573073ffffffffffffffffffffffffffffffffffffffff168273ffffffffffffffffffffffffffffffffffffffff1614620010025762000fbf8273ffffffffffffffffffffffffffffffffffffffff166200108760201b6200021a1760201c565b62001001576040517f08c379a000000000000000000000000000000000000000000000000000000000815260040162000ff89062001f61565b60405180910390fd5b5b60008273ffffffffffffffffffffffffffffffffffffffff16826040516200102b919062001fc5565b600060405180830381855af49150503d806000811462001068576040519150601f19603f3d011682016040523d82523d6000602084013e6200106d565b606091505b505090508062001081573d6000803e3d6000fd5b505b5050565b600080823b905060008111915050919050565b6000604051905090565b600080fd5b600080fd5b600073ffffffffffffffffffffffffffffffffffffffff82169050919050565b6000620010db82620010ae565b9050919050565b620010ed81620010ce565b8114620010f957600080fd5b50565b6000815190506200110d81620010e2565b92915050565b600080fd5b6000601f19601f8301169050919050565b7f4e487b7100000000000000000000000000000000000000000000000000000000600052604160045260246000fd5b620011638262001118565b810181811067ffffffffffffffff8211171562001185576200118462001129565b5b80604052505050565b60006200119a6200109a565b9050620011a8828262001158565b919050565b600067ffffffffffffffff821115620011cb57620011ca62001129565b5b602082029050602081019050919050565b600080fd5b600080fd5b600080fd5b60038110620011f957600080fd5b50565b6000815190506200120d81620011eb565b92915050565b600067ffffffffffffffff82111562001231576200123062001129565b5b602082029050602081019050919050565b60007fffffffff0000000000000000000000000000000000000000000000000000000082169050919050565b620012798162001242565b81146200128557600080fd5b50565b60008151905062001299816200126e565b92915050565b6000620012b6620012b08462001213565b6200118e565b90508083825260208201905060208402830185811115620012dc57620012db620011dc565b5b835b81811015620013095780620012f4888262001288565b845260208401935050602081019050620012de565b5050509392505050565b600082601f8301126200132b576200132a62001113565b5b81516200133d8482602086016200129f565b91505092915050565b6000606082840312156200135f576200135e620011e1565b5b6200136b60606200118e565b905060006200137d84828501620010fc565b60008301525060206200139384828501620011fc565b602083015250604082015167ffffffffffffffff811115620013ba57620013b9620011e6565b5b620013c88482850162001313565b60408301525092915050565b6000620013eb620013e584620011ad565b6200118e565b90508083825260208201905060208402830185811115620014115762001410620011dc565b5b835b818110156200145f57805167ffffffffffffffff8111156200143a576200143962001113565b5b80860162001449898262001346565b8552602085019450505060208101905062001413565b5050509392505050565b600082601f83011262001481576200148062001113565b5b815162001493848260208601620013d4565b91505092915050565b600080fd5b600067ffffffffffffffff821115620014bf57620014be62001129565b5b620014ca8262001118565b9050602081019050919050565b60005b83811015620014f7578082015181840152602081019050620014da565b8381111562001507576000848401525b50505050565b6000620015246200151e84620014a1565b6200118e565b9050828152602081018484840111156200154357620015426200149c565b5b62001550848285620014d7565b509392505050565b600082601f83011262001570576200156f62001113565b5b8151620015828482602086016200150d565b91505092915050565b60008060008060808587031215620015a857620015a7620010a4565b5b6000620015b887828801620010fc565b945050602085015167ffffffffffffffff811115620015dc57620015db620010a9565b5b620015ea8782880162001469565b9350506040620015fd87828801620010fc565b925050606085015167ffffffffffffffff811115620016215762001620620010a9565b5b6200162f8782880162001558565b91505092959194509250565b7f4e487b7100000000000000000000000000000000000000000000000000000000600052603260045260246000fd5b600082825260208201905092915050565b7f4469616d6f6e64426173653a206e6f2073656c6563746f72732073706563696660008201527f6965640000000000000000000000000000000000000000000000000000000000602082015250565b6000620016d96023836200166a565b9150620016e6826200167b565b604082019050919050565b600060208201905081810360008301526200170c81620016ca565b9050919050565b7f4e487b7100000000000000000000000000000000000000000000000000000000600052602160045260246000fd5b600081519050919050565b600082825260208201905092915050565b6000819050602082019050919050565b6200177981620010ce565b82525050565b6003811062001793576200179262001713565b5b50565b6000819050620017a6826200177f565b919050565b6000620017b88262001796565b9050919050565b620017ca81620017ab565b82525050565b600081519050919050565b600082825260208201905092915050565b6000819050602082019050919050565b620018078162001242565b82525050565b60006200181b8383620017fc565b60208301905092915050565b6000602082019050919050565b60006200184182620017d0565b6200184d8185620017db565b93506200185a83620017ec565b8060005b83811015620018915781516200187588826200180d565b9750620018828362001827565b9250506001810190506200185e565b5085935050505092915050565b6000606083016000830151620018b860008601826200176e565b506020830151620018cd6020860182620017bf565b5060408301518482036040860152620018e7828262001834565b9150508091505092915050565b60006200190283836200189e565b905092915050565b6000602082019050919050565b6000620019248262001742565b6200193081856200174d565b93508360208202850162001944856200175e565b8060005b85811015620019865784840389528151620019648582620018f4565b945062001971836200190a565b925060208a0199505060018101905062001948565b50829750879550505050505092915050565b620019a381620010ce565b82525050565b600081519050919050565b600082825260208201905092915050565b6000620019d282620019a9565b620019de8185620019b4565b9350620019f0818560208601620014d7565b620019fb8162001118565b840191505092915050565b6000606082019050818103600083015262001a22818662001917565b905062001a33602083018562001998565b818103604083015262001a478184620019c5565b9050949350505050565b7f4469616d6f6e64426173653a204144442074617267657420686173206e6f206360008201527f6f64650000000000000000000000000000000000000000000000000000000000602082015250565b600062001aaf6023836200166a565b915062001abc8262001a51565b604082019050919050565b6000602082019050818103600083015262001ae28162001aa0565b9050919050565b7f4469616d6f6e64426173653a2073656c6563746f7220616c726561647920616460008201527f6465640000000000000000000000000000000000000000000000000000000000602082015250565b600062001b476023836200166a565b915062001b548262001ae9565b604082019050919050565b6000602082019050818103600083015262001b7a8162001b38565b9050919050565b7f4469616d6f6e64426173653a205245504c41434520746172676574206861732060008201527f6e6f20636f646500000000000000000000000000000000000000000000000000602082015250565b600062001bdf6027836200166a565b915062001bec8262001b81565b604082019050919050565b6000602082019050818103600083015262001c128162001bd0565b9050919050565b7f4469616d6f6e64426173653a2073656c6563746f72206e6f7420666f756e6400600082015250565b600062001c51601f836200166a565b915062001c5e8262001c19565b602082019050919050565b6000602082019050818103600083015262001c848162001c42565b9050919050565b7f4469616d6f6e64426173653a2073656c6563746f7220697320696d6d7574616260008201527f6c65000000000000000000000000000000000000000000000000000000000000602082015250565b600062001ce96022836200166a565b915062001cf68262001c8b565b604082019050919050565b6000602082019050818103600083015262001d1c8162001cda565b9050919050565b7f4469616d6f6e64426173653a205245504c41434520746172676574206973206960008201527f64656e746963616c000000000000000000000000000000000000000000000000602082015250565b600062001d816028836200166a565b915062001d8e8262001d23565b604082019050919050565b6000602082019050818103600083015262001db48162001d72565b9050919050565b7f4469616d6f6e64426173653a2052454d4f564520746172676574206d7573742060008201527f6265207a65726f20616464726573730000000000000000000000000000000000602082015250565b600062001e19602f836200166a565b915062001e268262001dbb565b604082019050919050565b6000602082019050818103600083015262001e4c8162001e0a565b9050919050565b7f4469616d6f6e64426173653a20696e76616c696420696e697469616c697a617460008201527f696f6e20706172616d6574657273000000000000000000000000000000000000602082015250565b600062001eb1602e836200166a565b915062001ebe8262001e53565b604082019050919050565b6000602082019050818103600083015262001ee48162001ea2565b9050919050565b7f4469616d6f6e64426173653a20696e697469616c697a6174696f6e207461726760008201527f657420686173206e6f20636f6465000000000000000000000000000000000000602082015250565b600062001f49602e836200166a565b915062001f568262001eeb565b604082019050919050565b6000602082019050818103600083015262001f7c8162001f3a565b9050919050565b600081905092915050565b600062001f9b82620019a9565b62001fa7818562001f83565b935062001fb9818560208601620014d7565b80840191505092915050565b600062001fd3828462001f8e565b915081905092915050565b611c5f8062001fee6000396000f3fe60806040523661000b57005b600061001561009b565b90506100368173ffffffffffffffffffffffffffffffffffffffff1661021a565b610075576040517f08c379a000000000000000000000000000000000000000000000000000000000815260040161006c906111c6565b60405180910390fd5b3660008037600080366000845af43d6000803e8060008114610096573d6000f35b3d6000fd5b60008060007f177481ac65e4292921c69f62d1cc7f57541261e5d61c8175cf4e36a01c9bfc939050809150600082600001600080357fffffffff00000000000000000000000000000000000000000000000000000000167bffffffffffffffffffffffffffffffffffffffffffffffffffffffff19167bffffffffffffffffffffffffffffffffffffffffffffffffffffffff191681526020019081526020016000205460601c9050600073ffffffffffffffffffffffffffffffffffffffff168173ffffffffffffffffffffffffffffffffffffffff161415610211578260030160009054906101000a900473ffffffffffffffffffffffffffffffffffffffff169050600073ffffffffffffffffffffffffffffffffffffffff168173ffffffffffffffffffffffffffffffffffffffff161415610210576040517f08c379a000000000000000000000000000000000000000000000000000000000815260040161020790611258565b60405180910390fd5b5b80935050505090565b600080823b905060008111915050919050565b6000807f177481ac65e4292921c69f62d1cc7f57541261e5d61c8175cf4e36a01c9bfc9390508091505090565b60008460010160009054906101000a900461ffff1661ffff16905060008190506000806007831611156102a457866002016000600384901c81526020019081526020016000205490505b60005b86518110156104135760008782815181106102c5576102c4611278565b5b60200260200101519050600081602001519050600082604001515111610320576040517f08c379a000000000000000000000000000000000000000000000000000000000815260040161031790611319565b60405180910390fd5b6000600281111561033457610333611339565b5b81600281111561034757610346611339565b5b1415610371576103648585848d6104e1909392919063ffffffff16565b8095508196505050610404565b6001600281111561038557610384611339565b5b81600281111561039857610397611339565b5b14156103b6576103b1828b6107a290919063ffffffff16565b610403565b6002808111156103c9576103c8611339565b5b8160028111156103dc576103db611339565b5b1415610402576103f98585848d610a7f909392919063ffffffff16565b80955081965050505b5b5b505080806001019150506102a7565b5082821461043b57818760010160006101000a81548161ffff021916908361ffff1602179055505b60006007831611156104665780876002016000600385901c8152602001908152602001600020819055505b7f8faa70878671ccd212d20771b795c50af8fd3ff6cf27f4bde57e5d4de0aeb67386868660405161049993929190611695565b60405180910390a16104ab8585610f84565b50505050505050565b6000807f8a22373512790c48b83a1fe2efdd2888d4a917bcdc24d0adf63e60f67168046090508091505090565b6000803073ffffffffffffffffffffffffffffffffffffffff16836000015173ffffffffffffffffffffffffffffffffffffffff1614806105415750610540836000015173ffffffffffffffffffffffffffffffffffffffff1661021a565b5b610580576040517f08c379a00000000000000000000000000000000000000000000000000000000081526004016105779061174c565b60405180910390fd5b60005b836040015151811015610792576000846040015182815181106105a9576105a8611278565b5b602002602001015190506000886000016000837bffffffffffffffffffffffffffffffffffffffffffffffffffffffff19167bffffffffffffffffffffffffffffffffffffffffffffffffffffffff19168152602001908152602001600020549050600073ffffffffffffffffffffffffffffffffffffffff168160601c73ffffffffffffffffffffffffffffffffffffffff161461067d576040517f08c379a0000000000000000000000000000000000000000000000000000000008152600401610674906117de565b60405180910390fd5b8760001b866000015160601b6bffffffffffffffffffffffff191617896000016000847bffffffffffffffffffffffffffffffffffffffffffffffffffffffff19167bffffffffffffffffffffffffffffffffffffffffffffffffffffffff19168152602001908152602001600020819055506000600560078a16901b905080837bffffffffffffffffffffffffffffffffffffffffffffffffffffffff1916901c817fffffffff0000000000000000000000000000000000000000000000000000000060001b901c19891617975060e081141561077a57878a600201600060038c901c8152602001908152602001600020819055506000801b97505b88806001019950505050508080600101915050610583565b5084849150915094509492505050565b6107c5816000015173ffffffffffffffffffffffffffffffffffffffff1661021a565b610804576040517f08c379a00000000000000000000000000000000000000000000000000000000081526004016107fb90611870565b60405180910390fd5b60005b816040015151811015610a7a5760008260400151828151811061082d5761082c611278565b5b602002602001015190506000846000016000837bffffffffffffffffffffffffffffffffffffffffffffffffffffffff19167bffffffffffffffffffffffffffffffffffffffffffffffffffffffff1916815260200190815260200160002054905060008160601c9050600073ffffffffffffffffffffffffffffffffffffffff168173ffffffffffffffffffffffffffffffffffffffff161415610907576040517f08c379a00000000000000000000000000000000000000000000000000000000081526004016108fe906118dc565b60405180910390fd5b3073ffffffffffffffffffffffffffffffffffffffff168173ffffffffffffffffffffffffffffffffffffffff161415610976576040517f08c379a000000000000000000000000000000000000000000000000000000000815260040161096d9061196e565b60405180910390fd5b846000015173ffffffffffffffffffffffffffffffffffffffff168173ffffffffffffffffffffffffffffffffffffffff1614156109e9576040517f08c379a00000000000000000000000000000000000000000000000000000000081526004016109e090611a00565b60405180910390fd5b846000015160601b6bffffffffffffffffffffffff19166bffffffffffffffffffffffff60001b831617866000016000857bffffffffffffffffffffffffffffffffffffffffffffffffffffffff19167bffffffffffffffffffffffffffffffffffffffffffffffffffffffff19168152602001908152602001600020819055505050508080600101915050610807565b505050565b600080600073ffffffffffffffffffffffffffffffffffffffff16836000015173ffffffffffffffffffffffffffffffffffffffff1614610af5576040517f08c379a0000000000000000000000000000000000000000000000000000000008152600401610aec90611a92565b60405180910390fd5b6000600386901c9050600060078716905060005b856040015151811015610f6957600086604001518281518110610b2f57610b2e611278565b5b6020026020010151905060008a6000016000837bffffffffffffffffffffffffffffffffffffffffffffffffffffffff19167bffffffffffffffffffffffffffffffffffffffffffffffffffffffff19168152602001908152602001600020549050600073ffffffffffffffffffffffffffffffffffffffff168160601c73ffffffffffffffffffffffffffffffffffffffff161415610c04576040517f08c379a0000000000000000000000000000000000000000000000000000000008152600401610bfb906118dc565b60405180910390fd5b3073ffffffffffffffffffffffffffffffffffffffff168160601c73ffffffffffffffffffffffffffffffffffffffff161415610c76576040517f08c379a0000000000000000000000000000000000000000000000000000000008152600401610c6d9061196e565b60405180910390fd5b6000801b891415610cab578480600190039550508a600201600086815260200190815260200160002054985060079350610cb5565b8380600190039450505b6000806000600587901b8c901b9250847bffffffffffffffffffffffffffffffffffffffffffffffffffffffff1916837bffffffffffffffffffffffffffffffffffffffffffffffffffffffff191614610dd7578d6000016000847bffffffffffffffffffffffffffffffffffffffffffffffffffffffff19167bffffffffffffffffffffffffffffffffffffffffffffffffffffffff19168152602001908152602001600020546bffffffffffffffffffffffff19166bffffffffffffffffffffffff60001b8516178e6000016000857bffffffffffffffffffffffffffffffffffffffffffffffffffffffff19167bffffffffffffffffffffffffffffffffffffffffffffffffffffffff19168152602001908152602001600020819055505b8d6000016000867bffffffffffffffffffffffffffffffffffffffffffffffffffffffff19167bffffffffffffffffffffffffffffffffffffffffffffffffffffffff191681526020019081526020016000206000905560008460001c61ffff169050600381901c9250600560078216901b915050878214610edd5760008e600201600084815260200190815260200160002054905081847bffffffffffffffffffffffffffffffffffffffffffffffffffffffff1916901c827fffffffff0000000000000000000000000000000000000000000000000000000060001b901c198216179050808f60020160008581526020019081526020016000208190555050610f2e565b80837bffffffffffffffffffffffffffffffffffffffffffffffffffffffff1916901c817fffffffff0000000000000000000000000000000000000000000000000000000060001b901c198d16179b505b6000871415610f57578d6002016000898152602001908152602001600020600090556000801b9b505b50505050508080600101915050610b09565b5080600383901b179650868693509350505094509492505050565b60008151141515600073ffffffffffffffffffffffffffffffffffffffff168373ffffffffffffffffffffffffffffffffffffffff1614151514610ffd576040517f08c379a0000000000000000000000000000000000000000000000000000000008152600401610ff490611b24565b60405180910390fd5b600073ffffffffffffffffffffffffffffffffffffffff168273ffffffffffffffffffffffffffffffffffffffff161461113f573073ffffffffffffffffffffffffffffffffffffffff168273ffffffffffffffffffffffffffffffffffffffff16146110c3576110838273ffffffffffffffffffffffffffffffffffffffff1661021a565b6110c2576040517f08c379a00000000000000000000000000000000000000000000000000000000081526004016110b990611bb6565b60405180910390fd5b5b60008273ffffffffffffffffffffffffffffffffffffffff16826040516110ea9190611c12565b600060405180830381855af49150503d8060008114611125576040519150601f19603f3d011682016040523d82523d6000602084013e61112a565b606091505b505090508061113d573d6000803e3d6000fd5b505b5050565b600082825260208201905092915050565b7f50726f78793a20696d706c656d656e746174696f6e206d75737420626520636f60008201527f6e74726163740000000000000000000000000000000000000000000000000000602082015250565b60006111b0602683611143565b91506111bb82611154565b604082019050919050565b600060208201905081810360008301526111df816111a3565b9050919050565b7f4469616d6f6e64426173653a206e6f20666163657420666f756e6420666f722060008201527f66756e6374696f6e207369676e61747572650000000000000000000000000000602082015250565b6000611242603283611143565b915061124d826111e6565b604082019050919050565b6000602082019050818103600083015261127181611235565b9050919050565b7f4e487b7100000000000000000000000000000000000000000000000000000000600052603260045260246000fd5b7f4469616d6f6e64426173653a206e6f2073656c6563746f72732073706563696660008201527f6965640000000000000000000000000000000000000000000000000000000000602082015250565b6000611303602383611143565b915061130e826112a7565b604082019050919050565b60006020820190508181036000830152611332816112f6565b9050919050565b7f4e487b7100000000000000000000000000000000000000000000000000000000600052602160045260246000fd5b600081519050919050565b600082825260208201905092915050565b6000819050602082019050919050565b600073ffffffffffffffffffffffffffffffffffffffff82169050919050565b60006113bf82611394565b9050919050565b6113cf816113b4565b82525050565b600381106113e6576113e5611339565b5b50565b60008190506113f7826113d5565b919050565b6000611407826113e9565b9050919050565b611417816113fc565b82525050565b600081519050919050565b600082825260208201905092915050565b6000819050602082019050919050565b60007fffffffff0000000000000000000000000000000000000000000000000000000082169050919050565b61147e81611449565b82525050565b60006114908383611475565b60208301905092915050565b6000602082019050919050565b60006114b48261141d565b6114be8185611428565b93506114c983611439565b8060005b838110156114fa5781516114e18882611484565b97506114ec8361149c565b9250506001810190506114cd565b5085935050505092915050565b600060608301600083015161151f60008601826113c6565b506020830151611532602086018261140e565b506040830151848203604086015261154a82826114a9565b9150508091505092915050565b60006115638383611507565b905092915050565b6000602082019050919050565b600061158382611368565b61158d8185611373565b93508360208202850161159f85611384565b8060005b858110156115db57848403895281516115bc8582611557565b94506115c78361156b565b925060208a019950506001810190506115a3565b50829750879550505050505092915050565b6115f6816113b4565b82525050565b600081519050919050565b600082825260208201905092915050565b60005b8381101561163657808201518184015260208101905061161b565b83811115611645576000848401525b50505050565b6000601f19601f8301169050919050565b6000611667826115fc565b6116718185611607565b9350611681818560208601611618565b61168a8161164b565b840191505092915050565b600060608201905081810360008301526116af8186611578565b90506116be60208301856115ed565b81810360408301526116d0818461165c565b9050949350505050565b7f4469616d6f6e64426173653a204144442074617267657420686173206e6f206360008201527f6f64650000000000000000000000000000000000000000000000000000000000602082015250565b6000611736602383611143565b9150611741826116da565b604082019050919050565b6000602082019050818103600083015261176581611729565b9050919050565b7f4469616d6f6e64426173653a2073656c6563746f7220616c726561647920616460008201527f6465640000000000000000000000000000000000000000000000000000000000602082015250565b60006117c8602383611143565b91506117d38261176c565b604082019050919050565b600060208201905081810360008301526117f7816117bb565b9050919050565b7f4469616d6f6e64426173653a205245504c41434520746172676574206861732060008201527f6e6f20636f646500000000000000000000000000000000000000000000000000602082015250565b600061185a602783611143565b9150611865826117fe565b604082019050919050565b600060208201905081810360008301526118898161184d565b9050919050565b7f4469616d6f6e64426173653a2073656c6563746f72206e6f7420666f756e6400600082015250565b60006118c6601f83611143565b91506118d182611890565b602082019050919050565b600060208201905081810360008301526118f5816118b9565b9050919050565b7f4469616d6f6e64426173653a2073656c6563746f7220697320696d6d7574616260008201527f6c65000000000000000000000000000000000000000000000000000000000000602082015250565b6000611958602283611143565b9150611963826118fc565b604082019050919050565b600060208201905081810360008301526119878161194b565b9050919050565b7f4469616d6f6e64426173653a205245504c41434520746172676574206973206960008201527f64656e746963616c000000000000000000000000000000000000000000000000602082015250565b60006119ea602883611143565b91506119f58261198e565b604082019050919050565b60006020820190508181036000830152611a19816119dd565b9050919050565b7f4469616d6f6e64426173653a2052454d4f564520746172676574206d7573742060008201527f6265207a65726f20616464726573730000000000000000000000000000000000602082015250565b6000611a7c602f83611143565b9150611a8782611a20565b604082019050919050565b60006020820190508181036000830152611aab81611a6f565b9050919050565b7f4469616d6f6e64426173653a20696e76616c696420696e697469616c697a617460008201527f696f6e20706172616d6574657273000000000000000000000000000000000000602082015250565b6000611b0e602e83611143565b9150611b1982611ab2565b604082019050919050565b60006020820190508181036000830152611b3d81611b01565b9050919050565b7f4469616d6f6e64426173653a20696e697469616c697a6174696f6e207461726760008201527f657420686173206e6f20636f6465000000000000000000000000000000000000602082015250565b6000611ba0602e83611143565b9150611bab82611b44565b604082019050919050565b60006020820190508181036000830152611bcf81611b93565b9050919050565b600081905092915050565b6000611bec826115fc565b611bf68185611bd6565b9350611c06818560208601611618565b80840191505092915050565b6000611c1e8284611be1565b91508190509291505056fea2646970667358221220f387a8300315ac7370953e3ebcb94b04c9ffadde96b5e075b679a5505f856a4b64736f6c634300080c0033a264697066735822122045004d8d1fda0c3e5a59c5281f4d5d767f07d37d553fcf8ce6b7818fef86b33864736f6c634300080c0033",
  "linkReferences": {},
  "deployedLinkReferences": {}
}