{
  "_format": "hh-sol-artifact-1",
  "contractName": "TokenInit",
  "sourceName": "contracts/_library/0xpm/governance/init/TokenInit.sol",
  "abi": [
    {
      "anonymous": false,
      "inputs": [
        {
          "indexed": true,
          "internalType": "address",
          "name": "owner",
          "type": "address"
        },
        {
          "indexed": true,
          "internalType": "address",
          "name": "spender",
          "type": "address"
        },
        {
          "indexed": false,
          "internalType": "uint256",
          "name": "value",
          "type": "uint256"
        }
      ],
      "name": "Approval",
      "type": "event"
    },
    {
      "anonymous": false,
      "inputs": [
        {
          "indexed": true,
          "internalType": "address",
          "name": "from",
          "type": "address"
        },
        {
          "indexed": true,
          "internalType": "address",
          "name": "to",
          "type": "address"
        },
        {
          "indexed": false,
          "internalType": "uint256",
          "name": "value",
          "type": "uint256"
        }
      ],
      "name": "Transfer",
      "type": "event"
    },
    {
      "inputs": [
        {
          "internalType": "uint256",
          "name": "",
          "type": "uint256"
        }
      ],
      "name": "amounts",
      "outputs": [
        {
          "internalType": "uint256",
          "name": "",
          "type": "uint256"
        }
      ],
      "stateMutability": "view",
      "type": "function"
    },
    {
      "inputs": [],
      "name": "decimals",
      "outputs": [
        {
          "internalType": "uint8",
          "name": "",
          "type": "uint8"
        }
      ],
      "stateMutability": "view",
      "type": "function"
    },
    {
      "inputs": [],
      "name": "init",
      "outputs": [],
      "stateMutability": "nonpayable",
      "type": "function"
    },
    {
      "inputs": [],
      "name": "name",
      "outputs": [
        {
          "internalType": "string",
          "name": "",
          "type": "string"
        }
      ],
      "stateMutability": "view",
      "type": "function"
    },
    {
      "inputs": [
        {
          "internalType": "string",
          "name": "_name",
          "type": "string"
        },
        {
          "internalType": "string",
          "name": "_symbol",
          "type": "string"
        },
        {
          "internalType": "uint8",
          "name": "_decimals",
          "type": "uint8"
        },
        {
          "internalType": "address[]",
          "name": "_recipients",
          "type": "address[]"
        },
        {
          "internalType": "uint256[]",
          "name": "_amounts",
          "type": "uint256[]"
        }
      ],
      "name": "proxify",
      "outputs": [
        {
          "internalType": "address",
          "name": "",
          "type": "address"
        }
      ],
      "stateMutability": "nonpayable",
      "type": "function"
    },
    {
      "inputs": [
        {
          "internalType": "uint256",
          "name": "",
          "type": "uint256"
        }
      ],
      "name": "recipients",
      "outputs": [
        {
          "internalType": "address",
          "name": "",
          "type": "address"
        }
      ],
      "stateMutability": "view",
      "type": "function"
    },
    {
      "inputs": [
        {
          "internalType": "string",
          "name": "_name",
          "type": "string"
        },
        {
          "internalType": "string",
          "name": "_symbol",
          "type": "string"
        },
        {
          "internalType": "uint8",
          "name": "_decimals",
          "type": "uint8"
        },
        {
          "internalType": "address[]",
          "name": "_recipients",
          "type": "address[]"
        },
        {
          "internalType": "uint256[]",
          "name": "_amounts",
          "type": "uint256[]"
        }
      ],
      "name": "set",
      "outputs": [],
      "stateMutability": "nonpayable",
      "type": "function"
    },
    {
      "inputs": [],
      "name": "symbol",
      "outputs": [
        {
          "internalType": "string",
          "name": "",
          "type": "string"
        }
      ],
      "stateMutability": "view",
      "type": "function"
    }
  ],
  "bytecode": "0x608060405234801561001057600080fd5b506116ec806100206000396000f3fe608060405234801561001057600080fd5b50600436106100885760003560e01c806395d89b411161005b57806395d89b4114610129578063d1bc76a114610147578063e1c7392a14610177578063ee95ef601461018157610088565b806306fdde031461008d578063313ce567146100ab578063407e7301146100c957806345f0a44f146100f9575b600080fd5b61009561019d565b6040516100a29190610be6565b60405180910390f35b6100b361022b565b6040516100c09190610c24565b60405180910390f35b6100e360048036038101906100de9190610fd3565b61023e565b6040516100f091906110cd565b60405180910390f35b610113600480360381019061010e91906110e8565b6102cc565b6040516101209190611124565b60405180910390f35b6101316102f0565b60405161013e9190610be6565b60405180910390f35b610161600480360381019061015c91906110e8565b61037e565b60405161016e91906110cd565b60405180910390f35b61017f6103bd565b005b61019b60048036038101906101969190610fd3565b6105b2565b005b600080546101aa9061116e565b80601f01602080910402602001604051908101604052809291908181526020018280546101d69061116e565b80156102235780601f106101f857610100808354040283529160200191610223565b820191906000526020600020905b81548152906001019060200180831161020657829003601f168201915b505050505081565b600260009054906101000a900460ff1681565b60008061024a3061067c565b90508073ffffffffffffffffffffffffffffffffffffffff1663ee95ef6088888888886040518663ffffffff1660e01b815260040161028d95949392919061131c565b600060405180830381600087803b1580156102a757600080fd5b505af11580156102bb573d6000803e3d6000fd5b505050508091505095945050505050565b600481815481106102dc57600080fd5b906000526020600020016000915090505481565b600180546102fd9061116e565b80601f01602080910402602001604051908101604052809291908181526020018280546103299061116e565b80156103765780601f1061034b57610100808354040283529160200191610376565b820191906000526020600020905b81548152906001019060200180831161035957829003601f168201915b505050505081565b6003818154811061038e57600080fd5b906000526020600020016000915054906101000a900473ffffffffffffffffffffffffffffffffffffffff1681565b60006103c7610696565b9050610466600080546103d99061116e565b80601f01602080910402602001604051908101604052809291908181526020018280546104059061116e565b80156104525780601f1061042757610100808354040283529160200191610452565b820191906000526020600020905b81548152906001019060200180831161043557829003601f168201915b5050505050826106c390919063ffffffff16565b610503600180546104769061116e565b80601f01602080910402602001604051908101604052809291908181526020018280546104a29061116e565b80156104ef5780601f106104c4576101008083540402835291602001916104ef565b820191906000526020600020905b8154815290600101906020018083116104d257829003601f168201915b5050505050826106e090919063ffffffff16565b610525600260009054906101000a900460ff16826106fd90919063ffffffff16565b60005b6003805490508110156105ae5761059b6003828154811061054c5761054b61138b565b5b9060005260206000200160009054906101000a900473ffffffffffffffffffffffffffffffffffffffff166004838154811061058b5761058a61138b565b5b906000526020600020015461071e565b80806105a6906113e9565b915050610528565b5050565b600480549050600380549050146105fe576040517f08c379a00000000000000000000000000000000000000000000000000000000081526004016105f5906114a4565b60405180910390fd5b84600090805190602001906106149291906109d3565b50836001908051906020019061062b9291906109d3565b5082600260006101000a81548160ff021916908360ff160217905550816003908051906020019061065d929190610a59565b508060049080519060200190610674929190610ae3565b505050505050565b600061068f61068a83610884565b61091b565b9050919050565b6000807f2967a798b92539a1b9eefe4d8eb931f96b68d27665e276f1bee2d5db7f74304790508091505090565b808260000190805190602001906106db9291906109d3565b505050565b808260010190805190602001906106f89291906109d3565b505050565b808260020160006101000a81548160ff021916908360ff1602179055505050565b600073ffffffffffffffffffffffffffffffffffffffff168273ffffffffffffffffffffffffffffffffffffffff16141561078e576040517f08c379a000000000000000000000000000000000000000000000000000000000815260040161078590611510565b60405180910390fd5b61079a600083836109a1565b60006107a46109a6565b9050818160020160008282546107ba9190611530565b92505081905550818160000160008573ffffffffffffffffffffffffffffffffffffffff1673ffffffffffffffffffffffffffffffffffffffff16815260200190815260200160002060008282546108129190611530565b925050819055508273ffffffffffffffffffffffffffffffffffffffff16600073ffffffffffffffffffffffffffffffffffffffff167fddf252ad1be2c89b69c2b068fc378daa952ba7f163c4a11628f55a4df523b3ef846040516108779190611124565b60405180910390a3505050565b60606040518060400160405280601481526020017f3d602d80600a3d3981f3363d3d373d3d3d363d73000000000000000000000000815250826040518060400160405280600f81526020017f5af43d82803e903d91602b57fd5bf3000000000000000000000000000000000081525060405160200161090593929190611615565b6040516020818303038152906040529050919050565b600081602001825180826000f092505050600073ffffffffffffffffffffffffffffffffffffffff168173ffffffffffffffffffffffffffffffffffffffff16141561099c576040517f08c379a000000000000000000000000000000000000000000000000000000000815260040161099390611696565b60405180910390fd5b919050565b505050565b6000807fc991b2e918acaba8e5721668ed0b1982684e5a8692a621bcd2d7ef326bb015b490508091505090565b8280546109df9061116e565b90600052602060002090601f016020900481019282610a015760008555610a48565b82601f10610a1a57805160ff1916838001178555610a48565b82800160010185558215610a48579182015b82811115610a47578251825591602001919060010190610a2c565b5b509050610a559190610b30565b5090565b828054828255906000526020600020908101928215610ad2579160200282015b82811115610ad15782518260006101000a81548173ffffffffffffffffffffffffffffffffffffffff021916908373ffffffffffffffffffffffffffffffffffffffff16021790555091602001919060010190610a79565b5b509050610adf9190610b30565b5090565b828054828255906000526020600020908101928215610b1f579160200282015b82811115610b1e578251825591602001919060010190610b03565b5b509050610b2c9190610b30565b5090565b5b80821115610b49576000816000905550600101610b31565b5090565b600081519050919050565b600082825260208201905092915050565b60005b83811015610b87578082015181840152602081019050610b6c565b83811115610b96576000848401525b50505050565b6000601f19601f8301169050919050565b6000610bb882610b4d565b610bc28185610b58565b9350610bd2818560208601610b69565b610bdb81610b9c565b840191505092915050565b60006020820190508181036000830152610c008184610bad565b905092915050565b600060ff82169050919050565b610c1e81610c08565b82525050565b6000602082019050610c396000830184610c15565b92915050565b6000604051905090565b600080fd5b600080fd5b600080fd5b600080fd5b7f4e487b7100000000000000000000000000000000000000000000000000000000600052604160045260246000fd5b610c9582610b9c565b810181811067ffffffffffffffff82111715610cb457610cb3610c5d565b5b80604052505050565b6000610cc7610c3f565b9050610cd38282610c8c565b919050565b600067ffffffffffffffff821115610cf357610cf2610c5d565b5b610cfc82610b9c565b9050602081019050919050565b82818337600083830152505050565b6000610d2b610d2684610cd8565b610cbd565b905082815260208101848484011115610d4757610d46610c58565b5b610d52848285610d09565b509392505050565b600082601f830112610d6f57610d6e610c53565b5b8135610d7f848260208601610d18565b91505092915050565b610d9181610c08565b8114610d9c57600080fd5b50565b600081359050610dae81610d88565b92915050565b600067ffffffffffffffff821115610dcf57610dce610c5d565b5b602082029050602081019050919050565b600080fd5b600073ffffffffffffffffffffffffffffffffffffffff82169050919050565b6000610e1082610de5565b9050919050565b610e2081610e05565b8114610e2b57600080fd5b50565b600081359050610e3d81610e17565b92915050565b6000610e56610e5184610db4565b610cbd565b90508083825260208201905060208402830185811115610e7957610e78610de0565b5b835b81811015610ea25780610e8e8882610e2e565b845260208401935050602081019050610e7b565b5050509392505050565b600082601f830112610ec157610ec0610c53565b5b8135610ed1848260208601610e43565b91505092915050565b600067ffffffffffffffff821115610ef557610ef4610c5d565b5b602082029050602081019050919050565b6000819050919050565b610f1981610f06565b8114610f2457600080fd5b50565b600081359050610f3681610f10565b92915050565b6000610f4f610f4a84610eda565b610cbd565b90508083825260208201905060208402830185811115610f7257610f71610de0565b5b835b81811015610f9b5780610f878882610f27565b845260208401935050602081019050610f74565b5050509392505050565b600082601f830112610fba57610fb9610c53565b5b8135610fca848260208601610f3c565b91505092915050565b600080600080600060a08688031215610fef57610fee610c49565b5b600086013567ffffffffffffffff81111561100d5761100c610c4e565b5b61101988828901610d5a565b955050602086013567ffffffffffffffff81111561103a57611039610c4e565b5b61104688828901610d5a565b945050604061105788828901610d9f565b935050606086013567ffffffffffffffff81111561107857611077610c4e565b5b61108488828901610eac565b925050608086013567ffffffffffffffff8111156110a5576110a4610c4e565b5b6110b188828901610fa5565b9150509295509295909350565b6110c781610e05565b82525050565b60006020820190506110e260008301846110be565b92915050565b6000602082840312156110fe576110fd610c49565b5b600061110c84828501610f27565b91505092915050565b61111e81610f06565b82525050565b60006020820190506111396000830184611115565b92915050565b7f4e487b7100000000000000000000000000000000000000000000000000000000600052602260045260246000fd5b6000600282049050600182168061118657607f821691505b6020821081141561119a5761119961113f565b5b50919050565b600081519050919050565b600082825260208201905092915050565b6000819050602082019050919050565b6111d581610e05565b82525050565b60006111e783836111cc565b60208301905092915050565b6000602082019050919050565b600061120b826111a0565b61121581856111ab565b9350611220836111bc565b8060005b8381101561125157815161123888826111db565b9750611243836111f3565b925050600181019050611224565b5085935050505092915050565b600081519050919050565b600082825260208201905092915050565b6000819050602082019050919050565b61129381610f06565b82525050565b60006112a5838361128a565b60208301905092915050565b6000602082019050919050565b60006112c98261125e565b6112d38185611269565b93506112de8361127a565b8060005b8381101561130f5781516112f68882611299565b9750611301836112b1565b9250506001810190506112e2565b5085935050505092915050565b600060a08201905081810360008301526113368188610bad565b9050818103602083015261134a8187610bad565b90506113596040830186610c15565b818103606083015261136b8185611200565b9050818103608083015261137f81846112be565b90509695505050505050565b7f4e487b7100000000000000000000000000000000000000000000000000000000600052603260045260246000fd5b7f4e487b7100000000000000000000000000000000000000000000000000000000600052601160045260246000fd5b60006113f482610f06565b91507fffffffffffffffffffffffffffffffffffffffffffffffffffffffffffffffff821415611427576114266113ba565b5b600182019050919050565b7f546f6b656e496e69743a206561636820726563697069656e742073686f756c6460008201527f2062652061737369676e656420616e20616d6f756e7400000000000000000000602082015250565b600061148e603683610b58565b915061149982611432565b604082019050919050565b600060208201905081810360008301526114bd81611481565b9050919050565b7f45524332303a206d696e7420746f20746865207a65726f206164647265737300600082015250565b60006114fa601f83610b58565b9150611505826114c4565b602082019050919050565b60006020820190508181036000830152611529816114ed565b9050919050565b600061153b82610f06565b915061154683610f06565b9250827fffffffffffffffffffffffffffffffffffffffffffffffffffffffffffffffff0382111561157b5761157a6113ba565b5b828201905092915050565b600081519050919050565b600081905092915050565b60006115a782611586565b6115b18185611591565b93506115c1818560208601610b69565b80840191505092915050565b60008160601b9050919050565b60006115e5826115cd565b9050919050565b60006115f7826115da565b9050919050565b61160f61160a82610e05565b6115ec565b82525050565b6000611621828661159c565b915061162d82856115fe565b60148201915061163d828461159c565b9150819050949350505050565b7f466163746f72793a206661696c6564206465706c6f796d656e74000000000000600082015250565b6000611680601a83610b58565b915061168b8261164a565b602082019050919050565b600060208201905081810360008301526116af81611673565b905091905056fea264697066735822122036c96acde96430829a189fd89db5757d010d7418e4fcc124a66e9e41a0d663fd64736f6c634300080c0033",
  "linkReferences": {},
  "deployedLinkReferences": {}
}