{
  "_format": "hh-sol-artifact-1",
  "contractName": "Governance",
  "sourceName": "contracts/_library/0xpm/governance/logic/Governance.sol",
  "abi": [
    {
      "anonymous": false,
      "inputs": [
        {
          "indexed": false,
          "internalType": "uint256",
          "name": "_proposalId",
          "type": "uint256"
        },
        {
          "indexed": false,
          "internalType": "bytes",
          "name": "_error",
          "type": "bytes"
        }
      ],
      "name": "ProposalExecutionFailed",
      "type": "event"
    },
    {
      "anonymous": false,
      "inputs": [
        {
          "indexed": false,
          "internalType": "uint256",
          "name": "_proposalId",
          "type": "uint256"
        },
        {
          "indexed": false,
          "internalType": "bool",
          "name": "_passed",
          "type": "bool"
        }
      ],
      "name": "ProposalExecutionSuccessful",
      "type": "event"
    },
    {
      "anonymous": false,
      "inputs": [
        {
          "indexed": false,
          "internalType": "address",
          "name": "_proposer",
          "type": "address"
        },
        {
          "indexed": false,
          "internalType": "address",
          "name": "_proposalContract",
          "type": "address"
        },
        {
          "indexed": false,
          "internalType": "uint256",
          "name": "_deadline",
          "type": "uint256"
        }
      ],
      "name": "Propose",
      "type": "event"
    },
    {
      "anonymous": false,
      "inputs": [
        {
          "indexed": true,
          "internalType": "uint256",
          "name": "_proposalId",
          "type": "uint256"
        },
        {
          "indexed": true,
          "internalType": "address",
          "name": "_voter",
          "type": "address"
        },
        {
          "indexed": false,
          "internalType": "uint256",
          "name": "_votes",
          "type": "uint256"
        },
        {
          "indexed": false,
          "internalType": "bool",
          "name": "_support",
          "type": "bool"
        }
      ],
      "name": "UnVote",
      "type": "event"
    },
    {
      "anonymous": false,
      "inputs": [
        {
          "indexed": true,
          "internalType": "uint256",
          "name": "_proposalId",
          "type": "uint256"
        },
        {
          "indexed": true,
          "internalType": "address",
          "name": "_voter",
          "type": "address"
        },
        {
          "indexed": false,
          "internalType": "uint256",
          "name": "_votes",
          "type": "uint256"
        },
        {
          "indexed": false,
          "internalType": "bool",
          "name": "_support",
          "type": "bool"
        }
      ],
      "name": "Vote",
      "type": "event"
    },
    {
      "inputs": [
        {
          "internalType": "uint256",
          "name": "_proposalId",
          "type": "uint256"
        }
      ],
      "name": "executeProposal",
      "outputs": [],
      "stateMutability": "nonpayable",
      "type": "function"
    },
    {
      "inputs": [
        {
          "internalType": "uint256",
          "name": "_proposalId",
          "type": "uint256"
        }
      ],
      "name": "proposal",
      "outputs": [
        {
          "components": [
            {
              "internalType": "address",
              "name": "proposalContract",
              "type": "address"
            },
            {
              "internalType": "address",
              "name": "proposer",
              "type": "address"
            },
            {
              "internalType": "uint64",
              "name": "deadline",
              "type": "uint64"
            },
            {
              "internalType": "uint96",
              "name": "againstVotes",
              "type": "uint96"
            },
            {
              "internalType": "uint96",
              "name": "forVotes",
              "type": "uint96"
            },
            {
              "internalType": "enum Governance.ProposalStatus",
              "name": "status",
              "type": "uint8"
            }
          ],
          "internalType": "struct Governance.RetrievedProposal",
          "name": "retrievedProposal",
          "type": "tuple"
        }
      ],
      "stateMutability": "view",
      "type": "function"
    },
    {
      "inputs": [],
      "name": "proposalCount",
      "outputs": [
        {
          "internalType": "uint256",
          "name": "",
          "type": "uint256"
        }
      ],
      "stateMutability": "view",
      "type": "function"
    },
    {
      "inputs": [
        {
          "internalType": "uint256",
          "name": "_proposalId",
          "type": "uint256"
        }
      ],
      "name": "proposalStatus",
      "outputs": [
        {
          "internalType": "enum Governance.ProposalStatus",
          "name": "status",
          "type": "uint8"
        }
      ],
      "stateMutability": "view",
      "type": "function"
    },
    {
      "inputs": [
        {
          "internalType": "address",
          "name": "_proposalContract",
          "type": "address"
        },
        {
          "internalType": "uint256",
          "name": "_deadline",
          "type": "uint256"
        }
      ],
      "name": "propose",
      "outputs": [
        {
          "internalType": "uint256",
          "name": "proposalId",
          "type": "uint256"
        }
      ],
      "stateMutability": "nonpayable",
      "type": "function"
    },
    {
      "inputs": [
        {
          "internalType": "uint256",
          "name": "_proposalId",
          "type": "uint256"
        }
      ],
      "name": "unvote",
      "outputs": [],
      "stateMutability": "nonpayable",
      "type": "function"
    },
    {
      "inputs": [
        {
          "internalType": "uint256",
          "name": "_proposalId",
          "type": "uint256"
        },
        {
          "internalType": "bool",
          "name": "_support",
          "type": "bool"
        }
      ],
      "name": "vote",
      "outputs": [],
      "stateMutability": "nonpayable",
      "type": "function"
    },
    {
      "stateMutability": "payable",
      "type": "receive"
    }
  ],
  "bytecode": "0x608060405234801561001057600080fd5b506146a8806100206000396000f3fe6080604052600436106100745760003560e01c8063589de5df1161004e578063589de5df1461010f57806374c260cf1461014c578063c9d27afe14610189578063da35c664146101b25761007b565b80630d61b5191461008057806330326c17146100a957806351ec4285146100e65761007b565b3661007b57005b600080fd5b34801561008c57600080fd5b506100a760048036038101906100a29190612cde565b6101dd565b005b3480156100b557600080fd5b506100d060048036038101906100cb9190612cde565b6107fc565b6040516100dd9190612e88565b60405180910390f35b3480156100f257600080fd5b5061010d60048036038101906101089190612cde565b610963565b005b34801561011b57600080fd5b5061013660048036038101906101319190612ecf565b610fba565b6040516101439190612f1e565b60405180910390f35b34801561015857600080fd5b50610173600480360381019061016e9190612cde565b6114c6565b6040516101809190612f48565b60405180910390f35b34801561019557600080fd5b506101b060048036038101906101ab9190612f9b565b611643565b005b3480156101be57600080fd5b506101c7611b6d565b6040516101d49190612f1e565b60405180910390f35b60006101e7611b99565b905060006101f3611bc6565b90506000816001016000858152602001908152602001600020905060008160030160009054906101000a900473ffffffffffffffffffffffffffffffffffffffff169050600073ffffffffffffffffffffffffffffffffffffffff168173ffffffffffffffffffffffffffffffffffffffff1614156102a7576040517f08c379a000000000000000000000000000000000000000000000000000000000815260040161029e9061305e565b60405180910390fd5b8160030160179054906101000a900467ffffffffffffffff1667ffffffffffffffff16421161030b576040517f08c379a0000000000000000000000000000000000000000000000000000000008152600401610302906130ca565b60405180910390fd5b600115158260030160149054906101000a900460ff1615151415610364576040517f08c379a000000000000000000000000000000000000000000000000000000000815260040161035b9061315c565b60405180910390fd5b60018260030160146101000a81548160ff02191690831515021790555060008460020154905060008360040160009054906101000a90046bffffffffffffffffffffffff166bffffffffffffffffffffffff169050600084600401600c9054906101000a90046bffffffffffffffffffffffff166bffffffffffffffffffffffff1690506000818311801561041b57508660000160019054906101000a900460ff1660ff16886002015461041891906131da565b83115b905060008660000160008773ffffffffffffffffffffffffffffffffffffffff1673ffffffffffffffffffffffffffffffffffffffff16815260200190815260200160002060000160009054906101000a90046bffffffffffffffffffffffff166bffffffffffffffffffffffff169050811561075d5760008760010160009054906101000a900473ffffffffffffffffffffffffffffffffffffffff1690506000813b905060008111156106ad5760006104d58d611bf3565b905080156105fe5760008b60000160049054906101000a900460ff1660ff16896104ff91906131da565b90508085111561050d578094505b60008c60000160029054906101000a900460ff1660ff169050808661053291906131da565b6bffffffffffffffffffffffff168e6002016000828254610553919061320b565b92505081905550808661056691906131da565b8e60000160008d73ffffffffffffffffffffffffffffffffffffffff1673ffffffffffffffffffffffffffffffffffffffff16815260200190815260200160002060008282546105b6919061320b565b925050819055507f989b5c18710bf76d31c802ce40e50b6ab61dd73dedbe4b2bf6808d35a517d2d18f60016040516105ef929190613270565b60405180910390a150506106a7565b60018a60030160156101000a81548160ff02191690831515021790555060008a60030160146101000a81548160ff0219169083151502179055507f0418cb6608187ab509202d493686813fe6cad355c4250c11655e139d9b96d2138d6040518060400160405280601381526020017f44656c656761746563616c6c206661696c65640000000000000000000000000081525060405161069e929190613332565b60405180910390a15b50610756565b60018960030160156101000a81548160ff02191690831515021790555060008960030160146101000a81548160ff0219169083151502179055507f0418cb6608187ab509202d493686813fe6cad355c4250c11655e139d9b96d2138c6040518060400160405280601b81526020017f50726f706f73616c20636f6e74726163742073697a652069732030000000000081525060405161074d929190613332565b60405180910390a15b50506107f0565b808960000160008873ffffffffffffffffffffffffffffffffffffffff1673ffffffffffffffffffffffffffffffffffffffff16815260200190815260200160002060008282546107ae9190613362565b925050819055507f989b5c18710bf76d31c802ce40e50b6ab61dd73dedbe4b2bf6808d35a517d2d18a60006040516107e7929190613270565b60405180910390a15b50505050505050505050565b610804612bfa565b600061080e611bc6565b9050600081600101600085815260200190815260200160002090506040518060c001604052808260010160009054906101000a900473ffffffffffffffffffffffffffffffffffffffff1673ffffffffffffffffffffffffffffffffffffffff1681526020018260030160009054906101000a900473ffffffffffffffffffffffffffffffffffffffff1673ffffffffffffffffffffffffffffffffffffffff1681526020018260030160179054906101000a900467ffffffffffffffff1667ffffffffffffffff16815260200182600401600c9054906101000a90046bffffffffffffffffffffffff166bffffffffffffffffffffffff1681526020018260040160009054906101000a90046bffffffffffffffffffffffff166bffffffffffffffffffffffff168152602001610945866114c6565b600681111561095757610956612d96565b5b81525092505050919050565b600061096d611b99565b90506000610979611bc6565b90508060000160099054906101000a900462ffffff1662ffffff1683106109d5576040517f08c379a00000000000000000000000000000000000000000000000000000000081526004016109cc90613408565b60405180910390fd5b600081600101600085815260200190815260200160002090508060030160179054906101000a900467ffffffffffffffff1667ffffffffffffffff164210610a52576040517f08c379a0000000000000000000000000000000000000000000000000000000008152600401610a4990613474565b60405180910390fd5b3373ffffffffffffffffffffffffffffffffffffffff168160030160009054906101000a900473ffffffffffffffffffffffffffffffffffffffff1673ffffffffffffffffffffffffffffffffffffffff161415610ae5576040517f08c379a0000000000000000000000000000000000000000000000000000000008152600401610adc90613506565b60405180910390fd5b60008160000160003373ffffffffffffffffffffffffffffffffffffffff1673ffffffffffffffffffffffffffffffffffffffff16815260200190815260200160002060000160009054906101000a90046bffffffffffffffffffffffff166bffffffffffffffffffffffff16905060008260000160003373ffffffffffffffffffffffffffffffffffffffff1673ffffffffffffffffffffffffffffffffffffffff168152602001908152602001600020600001600c9054906101000a900460ff16905060008211610bed576040517f08c379a0000000000000000000000000000000000000000000000000000000008152600401610be490613572565b60405180910390fd5b8015610c5157818360040160008282829054906101000a90046bffffffffffffffffffffffff16610c1e9190613592565b92506101000a8154816bffffffffffffffffffffffff02191690836bffffffffffffffffffffffff160217905550610cab565b8183600401600c8282829054906101000a90046bffffffffffffffffffffffff16610c7c9190613592565b92506101000a8154816bffffffffffffffffffffffff02191690836bffffffffffffffffffffffff1602179055505b8260000160003373ffffffffffffffffffffffffffffffffffffffff1673ffffffffffffffffffffffffffffffffffffffff168152602001908152602001600020600080820160006101000a8154906bffffffffffffffffffffffff021916905560008201600c6101000a81549060ff0219169055505060008460020160003373ffffffffffffffffffffffffffffffffffffffff1673ffffffffffffffffffffffffffffffffffffffff168152602001908152602001600020905060008180549050905060005b81811015610dd75788838281548110610d8f57610d8e6135c6565b5b90600052602060002090600a91828204019190066003029054906101000a900462ffffff1662ffffff161415610dc457610dd7565b8080610dcf906135f5565b915050610d73565b6000600183610de69190613362565b9050818114610e6c57838181548110610e0257610e016135c6565b5b90600052602060002090600a91828204019190066003029054906101000a900462ffffff16848381548110610e3a57610e396135c6565b5b90600052602060002090600a91828204019190066003026101000a81548162ffffff021916908362ffffff1602179055505b83805480610e7d57610e7c61363e565b5b60019003818190600052602060002090600a91828204019190066003026101000a81549062ffffff021916905590553373ffffffffffffffffffffffffffffffffffffffff168a7f9f1f3135d5625fc2500de56ba019d8c41fa224483192466e055e44447121c8208888604051610ef5929190613270565b60405180910390a360008860000160039054906101000a900460ff1660ff1690508087610f2291906131da565b6bffffffffffffffffffffffff168a6002016000828254610f439190613362565b925050819055508087610f5691906131da565b8a60000160003373ffffffffffffffffffffffffffffffffffffffff1673ffffffffffffffffffffffffffffffffffffffff1681526020019081526020016000206000828254610fa69190613362565b925050819055505050505050505050505050565b6000610fdb8373ffffffffffffffffffffffffffffffffffffffff16611c4b565b61101a576040517f08c379a0000000000000000000000000000000000000000000000000000000008152600401611011906136b9565b60405180910390fd5b6000611024611b99565b90506000611030611bc6565b9050610e108160000160079054906101000a900461ffff160261ffff1642018411611090576040517f08c379a00000000000000000000000000000000000000000000000000000000081526004016110879061374b565b60405180910390fd5b610e108160000160059054906101000a900461ffff160261ffff16420184106110ee576040517f08c379a00000000000000000000000000000000000000000000000000000000081526004016110e5906137dd565b60405180910390fd5b60008260000160003373ffffffffffffffffffffffffffffffffffffffff1673ffffffffffffffffffffffffffffffffffffffff1681526020019081526020016000205490506000836002015490508260000160009054906101000a900460ff1660ff168161115d91906131da565b82101561119f576040517f08c379a00000000000000000000000000000000000000000000000000000000081526004016111969061386f565b60405180910390fd5b82600001600981819054906101000a900462ffffff16809291906111c29061389e565b91906101000a81548162ffffff021916908362ffffff16021790555062ffffff16945060008360010160008781526020019081526020016000209050338160030160006101000a81548173ffffffffffffffffffffffffffffffffffffffff021916908373ffffffffffffffffffffffffffffffffffffffff160217905550878160010160006101000a81548173ffffffffffffffffffffffffffffffffffffffff021916908373ffffffffffffffffffffffffffffffffffffffff160217905550868160030160176101000a81548167ffffffffffffffff021916908367ffffffffffffffff1602179055507f7635f1d87b47fba9f2b09e56eb4be75cca030e0cb179c1602ac9261d39a8f5c13389896040516112e2939291906138d9565b60405180910390a1828160040160006101000a8154816bffffffffffffffffffffffff02191690836bffffffffffffffffffffffff1602179055506040518060400160405280846bffffffffffffffffffffffff168152602001600115158152508160000160003373ffffffffffffffffffffffffffffffffffffffff1673ffffffffffffffffffffffffffffffffffffffff16815260200190815260200160002060008201518160000160006101000a8154816bffffffffffffffffffffffff02191690836bffffffffffffffffffffffff160217905550602082015181600001600c6101000a81548160ff0219169083151502179055509050508360020160003373ffffffffffffffffffffffffffffffffffffffff1673ffffffffffffffffffffffffffffffffffffffff1681526020019081526020016000208690806001815401808255809150506001900390600052602060002090600a91828204019190066003029091909190916101000a81548162ffffff021916908362ffffff1602179055503373ffffffffffffffffffffffffffffffffffffffff16867f833b8bad1ff76b718af5adb72da0547533a1fb1ff56639c0b2597d636830b0a78560016040516114b3929190613270565b60405180910390a3505050505092915050565b6000806114d1611b99565b905060006114dd611bc6565b90506000816001016000868152602001908152602001600020905060008160030160179054906101000a900467ffffffffffffffff1667ffffffffffffffff1690506000811415611531576000945061163a565b804210156115425760049450611639565b8160030160159054906101000a900460ff16156115625760039450611638565b60008260040160009054906101000a90046bffffffffffffffffffffffff166bffffffffffffffffffffffff169050600083600401600c9054906101000a90046bffffffffffffffffffffffff166bffffffffffffffffffffffff16821180156115ee57508460000160019054906101000a900460ff1660ff1686600201546115eb91906131da565b82115b90508360030160149054906101000a900460ff1615611620578015611616576005965061161b565b600696505b611635565b801561162f5760019650611634565b600296505b5b50505b5b5b50505050919050565b600061164d611b99565b90506000611659611bc6565b90508060000160099054906101000a900462ffffff1662ffffff1684106116b5576040517f08c379a00000000000000000000000000000000000000000000000000000000081526004016116ac90613408565b60405180910390fd5b600081600101600086815260200190815260200160002090508060030160179054906101000a900467ffffffffffffffff1667ffffffffffffffff164210611732576040517f08c379a000000000000000000000000000000000000000000000000000000000815260040161172990613474565b60405180910390fd5b60008160000160003373ffffffffffffffffffffffffffffffffffffffff1673ffffffffffffffffffffffffffffffffffffffff16815260200190815260200160002060000160009054906101000a90046bffffffffffffffffffffffff166bffffffffffffffffffffffff16146117df576040517f08c379a00000000000000000000000000000000000000000000000000000000081526004016117d69061395c565b60405180910390fd5b60008360000160003373ffffffffffffffffffffffffffffffffffffffff1673ffffffffffffffffffffffffffffffffffffffff168152602001908152602001600020549050841561188957808260040160008282829054906101000a90046bffffffffffffffffffffffff16611856919061397c565b92506101000a8154816bffffffffffffffffffffffff02191690836bffffffffffffffffffffffff1602179055506118e3565b8082600401600c8282829054906101000a90046bffffffffffffffffffffffff166118b4919061397c565b92506101000a8154816bffffffffffffffffffffffff02191690836bffffffffffffffffffffffff1602179055505b6040518060400160405280826bffffffffffffffffffffffff1681526020018615158152508260000160003373ffffffffffffffffffffffffffffffffffffffff1673ffffffffffffffffffffffffffffffffffffffff16815260200190815260200160002060008201518160000160006101000a8154816bffffffffffffffffffffffff02191690836bffffffffffffffffffffffff160217905550602082015181600001600c6101000a81548160ff0219169083151502179055509050508260020160003373ffffffffffffffffffffffffffffffffffffffff1673ffffffffffffffffffffffffffffffffffffffff1681526020019081526020016000208690806001815401808255809150506001900390600052602060002090600a91828204019190066003029091909190916101000a81548162ffffff021916908362ffffff1602179055503373ffffffffffffffffffffffffffffffffffffffff16867f833b8bad1ff76b718af5adb72da0547533a1fb1ff56639c0b2597d636830b0a78388604051611a77929190613270565b60405180910390a360008360000160049054906101000a900460ff1660ff168560020154611aa591906131da565b905080821115611ab3578091505b60008460000160039054906101000a900460ff1660ff1690508083611ad891906131da565b6bffffffffffffffffffffffff16866002016000828254611af9919061320b565b925050819055508083611b0c91906131da565b8660000160003373ffffffffffffffffffffffffffffffffffffffff1673ffffffffffffffffffffffffffffffffffffffff1681526020019081526020016000206000828254611b5c919061320b565b925050819055505050505050505050565b600080611b78611bc6565b90508060000160099054906101000a900462ffffff1662ffffff1691505090565b6000807fc991b2e918acaba8e5721668ed0b1982684e5a8692a621bcd2d7ef326bb015b490508091505090565b6000807f7ec622d03b694ae6b0196fc374a70e8ee59ba23a9e0ba0ac77836e38c49ff3c190508091505090565b600080611bfe611bc6565b600101600084815260200190815260200160002060010160009054906101000a900473ffffffffffffffffffffffffffffffffffffffff169050611c4181611c5e565b6001915050919050565b600080823b905060008111915050919050565b60008060008373ffffffffffffffffffffffffffffffffffffffff16636d4ce63c6040518163ffffffff1660e01b8152600401600060405180830381865afa158015611cae573d6000803e3d6000fd5b505050506040513d6000823e3d601f19601f82011682018060405250810190611cd79190613da9565b925092509250611ce8838383611cee565b50505050565b611d0c838383611cfc611d11565b611d3e909392919063ffffffff16565b505050565b6000807f177481ac65e4292921c69f62d1cc7f57541261e5d61c8175cf4e36a01c9bfc9390508091505090565b60008460010160009054906101000a900461ffff1661ffff1690506000819050600080600783161115611d8857866002016000600384901c81526020019081526020016000205490505b60005b8651811015611ef7576000878281518110611da957611da86135c6565b5b60200260200101519050600081602001519050600082604001515111611e04576040517f08c379a0000000000000000000000000000000000000000000000000000000008152600401611dfb90613ea6565b60405180910390fd5b60006002811115611e1857611e17612d96565b5b816002811115611e2b57611e2a612d96565b5b1415611e5557611e488585848d611f98909392919063ffffffff16565b8095508196505050611ee8565b60016002811115611e6957611e68612d96565b5b816002811115611e7c57611e7b612d96565b5b1415611e9a57611e95828b61225990919063ffffffff16565b611ee7565b600280811115611ead57611eac612d96565b5b816002811115611ec057611ebf612d96565b5b1415611ee657611edd8585848d612536909392919063ffffffff16565b80955081965050505b5b5b50508080600101915050611d8b565b50828214611f1f57818760010160006101000a81548161ffff021916908361ffff1602179055505b6000600783161115611f4a5780876002016000600385901c8152602001908152602001600020819055505b7f8faa70878671ccd212d20771b795c50af8fd3ff6cf27f4bde57e5d4de0aeb673868686604051611f7d939291906140de565b60405180910390a1611f8f8585612a3b565b50505050505050565b6000803073ffffffffffffffffffffffffffffffffffffffff16836000015173ffffffffffffffffffffffffffffffffffffffff161480611ff85750611ff7836000015173ffffffffffffffffffffffffffffffffffffffff16611c4b565b5b612037576040517f08c379a000000000000000000000000000000000000000000000000000000000815260040161202e90614195565b60405180910390fd5b60005b836040015151811015612249576000846040015182815181106120605761205f6135c6565b5b602002602001015190506000886000016000837bffffffffffffffffffffffffffffffffffffffffffffffffffffffff19167bffffffffffffffffffffffffffffffffffffffffffffffffffffffff19168152602001908152602001600020549050600073ffffffffffffffffffffffffffffffffffffffff168160601c73ffffffffffffffffffffffffffffffffffffffff1614612134576040517f08c379a000000000000000000000000000000000000000000000000000000000815260040161212b90614227565b60405180910390fd5b8760001b866000015160601b6bffffffffffffffffffffffff191617896000016000847bffffffffffffffffffffffffffffffffffffffffffffffffffffffff19167bffffffffffffffffffffffffffffffffffffffffffffffffffffffff19168152602001908152602001600020819055506000600560078a16901b905080837bffffffffffffffffffffffffffffffffffffffffffffffffffffffff1916901c817fffffffff0000000000000000000000000000000000000000000000000000000060001b901c19891617975060e081141561223157878a600201600060038c901c8152602001908152602001600020819055506000801b97505b8880600101995050505050808060010191505061203a565b5084849150915094509492505050565b61227c816000015173ffffffffffffffffffffffffffffffffffffffff16611c4b565b6122bb576040517f08c379a00000000000000000000000000000000000000000000000000000000081526004016122b2906142b9565b60405180910390fd5b60005b816040015151811015612531576000826040015182815181106122e4576122e36135c6565b5b602002602001015190506000846000016000837bffffffffffffffffffffffffffffffffffffffffffffffffffffffff19167bffffffffffffffffffffffffffffffffffffffffffffffffffffffff1916815260200190815260200160002054905060008160601c9050600073ffffffffffffffffffffffffffffffffffffffff168173ffffffffffffffffffffffffffffffffffffffff1614156123be576040517f08c379a00000000000000000000000000000000000000000000000000000000081526004016123b590614325565b60405180910390fd5b3073ffffffffffffffffffffffffffffffffffffffff168173ffffffffffffffffffffffffffffffffffffffff16141561242d576040517f08c379a0000000000000000000000000000000000000000000000000000000008152600401612424906143b7565b60405180910390fd5b846000015173ffffffffffffffffffffffffffffffffffffffff168173ffffffffffffffffffffffffffffffffffffffff1614156124a0576040517f08c379a000000000000000000000000000000000000000000000000000000000815260040161249790614449565b60405180910390fd5b846000015160601b6bffffffffffffffffffffffff19166bffffffffffffffffffffffff60001b831617866000016000857bffffffffffffffffffffffffffffffffffffffffffffffffffffffff19167bffffffffffffffffffffffffffffffffffffffffffffffffffffffff191681526020019081526020016000208190555050505080806001019150506122be565b505050565b600080600073ffffffffffffffffffffffffffffffffffffffff16836000015173ffffffffffffffffffffffffffffffffffffffff16146125ac576040517f08c379a00000000000000000000000000000000000000000000000000000000081526004016125a3906144db565b60405180910390fd5b6000600386901c9050600060078716905060005b856040015151811015612a20576000866040015182815181106125e6576125e56135c6565b5b6020026020010151905060008a6000016000837bffffffffffffffffffffffffffffffffffffffffffffffffffffffff19167bffffffffffffffffffffffffffffffffffffffffffffffffffffffff19168152602001908152602001600020549050600073ffffffffffffffffffffffffffffffffffffffff168160601c73ffffffffffffffffffffffffffffffffffffffff1614156126bb576040517f08c379a00000000000000000000000000000000000000000000000000000000081526004016126b290614325565b60405180910390fd5b3073ffffffffffffffffffffffffffffffffffffffff168160601c73ffffffffffffffffffffffffffffffffffffffff16141561272d576040517f08c379a0000000000000000000000000000000000000000000000000000000008152600401612724906143b7565b60405180910390fd5b6000801b891415612762578480600190039550508a60020160008681526020019081526020016000205498506007935061276c565b8380600190039450505b6000806000600587901b8c901b9250847bffffffffffffffffffffffffffffffffffffffffffffffffffffffff1916837bffffffffffffffffffffffffffffffffffffffffffffffffffffffff19161461288e578d6000016000847bffffffffffffffffffffffffffffffffffffffffffffffffffffffff19167bffffffffffffffffffffffffffffffffffffffffffffffffffffffff19168152602001908152602001600020546bffffffffffffffffffffffff19166bffffffffffffffffffffffff60001b8516178e6000016000857bffffffffffffffffffffffffffffffffffffffffffffffffffffffff19167bffffffffffffffffffffffffffffffffffffffffffffffffffffffff19168152602001908152602001600020819055505b8d6000016000867bffffffffffffffffffffffffffffffffffffffffffffffffffffffff19167bffffffffffffffffffffffffffffffffffffffffffffffffffffffff191681526020019081526020016000206000905560008460001c61ffff169050600381901c9250600560078216901b9150508782146129945760008e600201600084815260200190815260200160002054905081847bffffffffffffffffffffffffffffffffffffffffffffffffffffffff1916901c827fffffffff0000000000000000000000000000000000000000000000000000000060001b901c198216179050808f600201600085815260200190815260200160002081905550506129e5565b80837bffffffffffffffffffffffffffffffffffffffffffffffffffffffff1916901c817fffffffff0000000000000000000000000000000000000000000000000000000060001b901c198d16179b505b6000871415612a0e578d6002016000898152602001908152602001600020600090556000801b9b505b505050505080806001019150506125c0565b5080600383901b179650868693509350505094509492505050565b60008151141515600073ffffffffffffffffffffffffffffffffffffffff168373ffffffffffffffffffffffffffffffffffffffff1614151514612ab4576040517f08c379a0000000000000000000000000000000000000000000000000000000008152600401612aab9061456d565b60405180910390fd5b600073ffffffffffffffffffffffffffffffffffffffff168273ffffffffffffffffffffffffffffffffffffffff1614612bf6573073ffffffffffffffffffffffffffffffffffffffff168273ffffffffffffffffffffffffffffffffffffffff1614612b7a57612b3a8273ffffffffffffffffffffffffffffffffffffffff16611c4b565b612b79576040517f08c379a0000000000000000000000000000000000000000000000000000000008152600401612b70906145ff565b60405180910390fd5b5b60008273ffffffffffffffffffffffffffffffffffffffff1682604051612ba1919061465b565b600060405180830381855af49150503d8060008114612bdc576040519150601f19603f3d011682016040523d82523d6000602084013e612be1565b606091505b5050905080612bf4573d6000803e3d6000fd5b505b5050565b6040518060c00160405280600073ffffffffffffffffffffffffffffffffffffffff168152602001600073ffffffffffffffffffffffffffffffffffffffff168152602001600067ffffffffffffffff16815260200160006bffffffffffffffffffffffff16815260200160006bffffffffffffffffffffffff16815260200160006006811115612c8e57612c8d612d96565b5b81525090565b6000604051905090565b600080fd5b600080fd5b6000819050919050565b612cbb81612ca8565b8114612cc657600080fd5b50565b600081359050612cd881612cb2565b92915050565b600060208284031215612cf457612cf3612c9e565b5b6000612d0284828501612cc9565b91505092915050565b600073ffffffffffffffffffffffffffffffffffffffff82169050919050565b6000612d3682612d0b565b9050919050565b612d4681612d2b565b82525050565b600067ffffffffffffffff82169050919050565b612d6981612d4c565b82525050565b60006bffffffffffffffffffffffff82169050919050565b612d9081612d6f565b82525050565b7f4e487b7100000000000000000000000000000000000000000000000000000000600052602160045260246000fd5b60078110612dd657612dd5612d96565b5b50565b6000819050612de782612dc5565b919050565b6000612df782612dd9565b9050919050565b612e0781612dec565b82525050565b60c082016000820151612e236000850182612d3d565b506020820151612e366020850182612d3d565b506040820151612e496040850182612d60565b506060820151612e5c6060850182612d87565b506080820151612e6f6080850182612d87565b5060a0820151612e8260a0850182612dfe565b50505050565b600060c082019050612e9d6000830184612e0d565b92915050565b612eac81612d2b565b8114612eb757600080fd5b50565b600081359050612ec981612ea3565b92915050565b60008060408385031215612ee657612ee5612c9e565b5b6000612ef485828601612eba565b9250506020612f0585828601612cc9565b9150509250929050565b612f1881612ca8565b82525050565b6000602082019050612f336000830184612f0f565b92915050565b612f4281612dec565b82525050565b6000602082019050612f5d6000830184612f39565b92915050565b60008115159050919050565b612f7881612f63565b8114612f8357600080fd5b50565b600081359050612f9581612f6f565b92915050565b60008060408385031215612fb257612fb1612c9e565b5b6000612fc085828601612cc9565b9250506020612fd185828601612f86565b9150509250929050565b600082825260208201905092915050565b7f476f7665726e616e63653a2050726f706f73616c20646f6573206e6f7420657860008201527f6973740000000000000000000000000000000000000000000000000000000000602082015250565b6000613048602383612fdb565b915061305382612fec565b604082019050919050565b600060208201905081810360008301526130778161303b565b9050919050565b7f476f7665726e616e63653a20566f74696e6720686173206e6f7420656e646564600082015250565b60006130b4602083612fdb565b91506130bf8261307e565b602082019050919050565b600060208201905081810360008301526130e3816130a7565b9050919050565b7f476f7665726e616e63653a2050726f706f73616c2068617320616c726561647960008201527f206265656e206578656375746564000000000000000000000000000000000000602082015250565b6000613146602e83612fdb565b9150613151826130ea565b604082019050919050565b6000602082019050818103600083015261317581613139565b9050919050565b7f4e487b7100000000000000000000000000000000000000000000000000000000600052601260045260246000fd5b7f4e487b7100000000000000000000000000000000000000000000000000000000600052601160045260246000fd5b60006131e582612ca8565b91506131f083612ca8565b925082613200576131ff61317c565b5b828204905092915050565b600061321682612ca8565b915061322183612ca8565b9250827fffffffffffffffffffffffffffffffffffffffffffffffffffffffffffffffff03821115613256576132556131ab565b5b828201905092915050565b61326a81612f63565b82525050565b60006040820190506132856000830185612f0f565b6132926020830184613261565b9392505050565b600081519050919050565b600082825260208201905092915050565b60005b838110156132d35780820151818401526020810190506132b8565b838111156132e2576000848401525b50505050565b6000601f19601f8301169050919050565b600061330482613299565b61330e81856132a4565b935061331e8185602086016132b5565b613327816132e8565b840191505092915050565b60006040820190506133476000830185612f0f565b818103602083015261335981846132f9565b90509392505050565b600061336d82612ca8565b915061337883612ca8565b92508282101561338b5761338a6131ab565b5b828203905092915050565b7f476f7665726e616e63653a205f70726f706f73616c496420646f6573206e6f7460008201527f2065786973740000000000000000000000000000000000000000000000000000602082015250565b60006133f2602683612fdb565b91506133fd82613396565b604082019050919050565b60006020820190508181036000830152613421816133e5565b9050919050565b7f476f7665726e616e63653a20566f74696e6720656e6465640000000000000000600082015250565b600061345e601883612fdb565b915061346982613428565b602082019050919050565b6000602082019050818103600083015261348d81613451565b9050919050565b7f476f7665726e616e63653a2043616e6e6f7420756e766f746520796f7572206f60008201527f776e2070726f706f73616c000000000000000000000000000000000000000000602082015250565b60006134f0602b83612fdb565b91506134fb82613494565b604082019050919050565b6000602082019050818103600083015261351f816134e3565b9050919050565b7f476f7665726e616e63653a20446964206e6f7420766f74650000000000000000600082015250565b600061355c601883612fdb565b915061356782613526565b602082019050919050565b6000602082019050818103600083015261358b8161354f565b9050919050565b600061359d82612d6f565b91506135a883612d6f565b9250828210156135bb576135ba6131ab565b5b828203905092915050565b7f4e487b7100000000000000000000000000000000000000000000000000000000600052603260045260246000fd5b600061360082612ca8565b91507fffffffffffffffffffffffffffffffffffffffffffffffffffffffffffffffff821415613633576136326131ab565b5b600182019050919050565b7f4e487b7100000000000000000000000000000000000000000000000000000000600052603160045260246000fd5b7f50726f706f73656420636f6e747261637420686173206e6f20636f6465000000600082015250565b60006136a3601d83612fdb565b91506136ae8261366d565b602082019050919050565b600060208201905081810360008301526136d281613696565b9050919050565b7f476f7665726e616e63653a20566f74696e67206475726174696f6e206d75737460008201527f206265206c6f6e67657200000000000000000000000000000000000000000000602082015250565b6000613735602a83612fdb565b9150613740826136d9565b604082019050919050565b6000602082019050818103600083015261376481613728565b9050919050565b7f476f7665726e616e63653a20566f74696e672074696d65206d7573742062652060008201527f73686f7274657200000000000000000000000000000000000000000000000000602082015250565b60006137c7602783612fdb565b91506137d28261376b565b604082019050919050565b600060208201905081810360008301526137f6816137ba565b9050919050565b7f476f7665726e616e63653a2042616c616e6365206c657373207468616e20707260008201527f6f706f736572207468726573686f6c6400000000000000000000000000000000602082015250565b6000613859603083612fdb565b9150613864826137fd565b604082019050919050565b600060208201905081810360008301526138888161384c565b9050919050565b600062ffffff82169050919050565b60006138a98261388f565b915062ffffff8214156138bf576138be6131ab565b5b600182019050919050565b6138d381612d2b565b82525050565b60006060820190506138ee60008301866138ca565b6138fb60208301856138ca565b6139086040830184612f0f565b949350505050565b7f476f7665726e616e63653a20416c726561647920766f74656400000000000000600082015250565b6000613946601983612fdb565b915061395182613910565b602082019050919050565b6000602082019050818103600083015261397581613939565b9050919050565b600061398782612d6f565b915061399283612d6f565b9250826bffffffffffffffffffffffff038211156139b3576139b26131ab565b5b828201905092915050565b600080fd5b7f4e487b7100000000000000000000000000000000000000000000000000000000600052604160045260246000fd5b6139fb826132e8565b810181811067ffffffffffffffff82111715613a1a57613a196139c3565b5b80604052505050565b6000613a2d612c94565b9050613a3982826139f2565b919050565b600067ffffffffffffffff821115613a5957613a586139c3565b5b602082029050602081019050919050565b600080fd5b600080fd5b600080fd5b600081519050613a8881612ea3565b92915050565b60038110613a9b57600080fd5b50565b600081519050613aad81613a8e565b92915050565b600067ffffffffffffffff821115613ace57613acd6139c3565b5b602082029050602081019050919050565b60007fffffffff0000000000000000000000000000000000000000000000000000000082169050919050565b613b1481613adf565b8114613b1f57600080fd5b50565b600081519050613b3181613b0b565b92915050565b6000613b4a613b4584613ab3565b613a23565b90508083825260208201905060208402830185811115613b6d57613b6c613a6a565b5b835b81811015613b965780613b828882613b22565b845260208401935050602081019050613b6f565b5050509392505050565b600082601f830112613bb557613bb46139be565b5b8151613bc5848260208601613b37565b91505092915050565b600060608284031215613be457613be3613a6f565b5b613bee6060613a23565b90506000613bfe84828501613a79565b6000830152506020613c1284828501613a9e565b602083015250604082015167ffffffffffffffff811115613c3657613c35613a74565b5b613c4284828501613ba0565b60408301525092915050565b6000613c61613c5c84613a3e565b613a23565b90508083825260208201905060208402830185811115613c8457613c83613a6a565b5b835b81811015613ccb57805167ffffffffffffffff811115613ca957613ca86139be565b5b808601613cb68982613bce565b85526020850194505050602081019050613c86565b5050509392505050565b600082601f830112613cea57613ce96139be565b5b8151613cfa848260208601613c4e565b91505092915050565b600080fd5b600067ffffffffffffffff821115613d2357613d226139c3565b5b613d2c826132e8565b9050602081019050919050565b6000613d4c613d4784613d08565b613a23565b905082815260208101848484011115613d6857613d67613d03565b5b613d738482856132b5565b509392505050565b600082601f830112613d9057613d8f6139be565b5b8151613da0848260208601613d39565b91505092915050565b600080600060608486031215613dc257613dc1612c9e565b5b600084015167ffffffffffffffff811115613de057613ddf612ca3565b5b613dec86828701613cd5565b9350506020613dfd86828701613a79565b925050604084015167ffffffffffffffff811115613e1e57613e1d612ca3565b5b613e2a86828701613d7b565b9150509250925092565b7f4469616d6f6e64426173653a206e6f2073656c6563746f72732073706563696660008201527f6965640000000000000000000000000000000000000000000000000000000000602082015250565b6000613e90602383612fdb565b9150613e9b82613e34565b604082019050919050565b60006020820190508181036000830152613ebf81613e83565b9050919050565b600081519050919050565b600082825260208201905092915050565b6000819050602082019050919050565b60038110613f0357613f02612d96565b5b50565b6000819050613f1482613ef2565b919050565b6000613f2482613f06565b9050919050565b613f3481613f19565b82525050565b600081519050919050565b600082825260208201905092915050565b6000819050602082019050919050565b613f6f81613adf565b82525050565b6000613f818383613f66565b60208301905092915050565b6000602082019050919050565b6000613fa582613f3a565b613faf8185613f45565b9350613fba83613f56565b8060005b83811015613feb578151613fd28882613f75565b9750613fdd83613f8d565b925050600181019050613fbe565b5085935050505092915050565b60006060830160008301516140106000860182612d3d565b5060208301516140236020860182613f2b565b506040830151848203604086015261403b8282613f9a565b9150508091505092915050565b60006140548383613ff8565b905092915050565b6000602082019050919050565b600061407482613ec6565b61407e8185613ed1565b93508360208202850161409085613ee2565b8060005b858110156140cc57848403895281516140ad8582614048565b94506140b88361405c565b925060208a01995050600181019050614094565b50829750879550505050505092915050565b600060608201905081810360008301526140f88186614069565b905061410760208301856138ca565b818103604083015261411981846132f9565b9050949350505050565b7f4469616d6f6e64426173653a204144442074617267657420686173206e6f206360008201527f6f64650000000000000000000000000000000000000000000000000000000000602082015250565b600061417f602383612fdb565b915061418a82614123565b604082019050919050565b600060208201905081810360008301526141ae81614172565b9050919050565b7f4469616d6f6e64426173653a2073656c6563746f7220616c726561647920616460008201527f6465640000000000000000000000000000000000000000000000000000000000602082015250565b6000614211602383612fdb565b915061421c826141b5565b604082019050919050565b6000602082019050818103600083015261424081614204565b9050919050565b7f4469616d6f6e64426173653a205245504c41434520746172676574206861732060008201527f6e6f20636f646500000000000000000000000000000000000000000000000000602082015250565b60006142a3602783612fdb565b91506142ae82614247565b604082019050919050565b600060208201905081810360008301526142d281614296565b9050919050565b7f4469616d6f6e64426173653a2073656c6563746f72206e6f7420666f756e6400600082015250565b600061430f601f83612fdb565b915061431a826142d9565b602082019050919050565b6000602082019050818103600083015261433e81614302565b9050919050565b7f4469616d6f6e64426173653a2073656c6563746f7220697320696d6d7574616260008201527f6c65000000000000000000000000000000000000000000000000000000000000602082015250565b60006143a1602283612fdb565b91506143ac82614345565b604082019050919050565b600060208201905081810360008301526143d081614394565b9050919050565b7f4469616d6f6e64426173653a205245504c41434520746172676574206973206960008201527f64656e746963616c000000000000000000000000000000000000000000000000602082015250565b6000614433602883612fdb565b915061443e826143d7565b604082019050919050565b6000602082019050818103600083015261446281614426565b9050919050565b7f4469616d6f6e64426173653a2052454d4f564520746172676574206d7573742060008201527f6265207a65726f20616464726573730000000000000000000000000000000000602082015250565b60006144c5602f83612fdb565b91506144d082614469565b604082019050919050565b600060208201905081810360008301526144f4816144b8565b9050919050565b7f4469616d6f6e64426173653a20696e76616c696420696e697469616c697a617460008201527f696f6e20706172616d6574657273000000000000000000000000000000000000602082015250565b6000614557602e83612fdb565b9150614562826144fb565b604082019050919050565b600060208201905081810360008301526145868161454a565b9050919050565b7f4469616d6f6e64426173653a20696e697469616c697a6174696f6e207461726760008201527f657420686173206e6f20636f6465000000000000000000000000000000000000602082015250565b60006145e9602e83612fdb565b91506145f48261458d565b604082019050919050565b60006020820190508181036000830152614618816145dc565b9050919050565b600081905092915050565b600061463582613299565b61463f818561461f565b935061464f8185602086016132b5565b80840191505092915050565b6000614667828461462a565b91508190509291505056fea2646970667358221220201668c0433fde78f3103c8d90355130ae468a5bce1a7be637c7f60d3a87813664736f6c634300080c0033",
  "linkReferences": {},
  "deployedLinkReferences": {}
}