{
  "_format": "hh-sol-artifact-1",
  "contractName": "TreasuryVotingPowerFacet",
  "sourceName": "contracts/_library/habitat/facets/treasury/TreasuryVotingPowerFacet.sol",
  "abi": [
    {
      "inputs": [],
      "name": "getMinimumQuorum",
      "outputs": [
        {
          "internalType": "uint256",
          "name": "",
          "type": "uint256"
        }
      ],
      "stateMutability": "view",
      "type": "function"
    },
    {
      "inputs": [
        {
          "internalType": "address",
          "name": "holder",
          "type": "address"
        }
      ],
      "name": "isEnoughVotingPower",
      "outputs": [
        {
          "internalType": "bool",
          "name": "",
          "type": "bool"
        }
      ],
      "stateMutability": "view",
      "type": "function"
    },
    {
      "inputs": [
        {
          "internalType": "uint256",
          "name": "amountOfVotes",
          "type": "uint256"
        }
      ],
      "name": "isProposalThresholdReached",
      "outputs": [
        {
          "internalType": "bool",
          "name": "",
          "type": "bool"
        }
      ],
      "stateMutability": "view",
      "type": "function"
    },
    {
      "inputs": [],
      "name": "isQourum",
      "outputs": [
        {
          "internalType": "bool",
          "name": "",
          "type": "bool"
        }
      ],
      "stateMutability": "view",
      "type": "function"
    },
    {
      "inputs": [],
      "name": "minimumQuorumNumerator",
      "outputs": [
        {
          "internalType": "uint64",
          "name": "",
          "type": "uint64"
        }
      ],
      "stateMutability": "view",
      "type": "function"
    },
    {
      "inputs": [],
      "name": "thresholdForInitiatorNumerator",
      "outputs": [
        {
          "internalType": "uint64",
          "name": "",
          "type": "uint64"
        }
      ],
      "stateMutability": "view",
      "type": "function"
    },
    {
      "inputs": [],
      "name": "thresholdForProposalNumerator",
      "outputs": [
        {
          "internalType": "uint64",
          "name": "",
          "type": "uint64"
        }
      ],
      "stateMutability": "view",
      "type": "function"
    },
    {
      "inputs": [],
      "name": "treasuryDenominator",
      "outputs": [
        {
          "internalType": "uint64",
          "name": "",
          "type": "uint64"
        }
      ],
      "stateMutability": "view",
      "type": "function"
    }
  ],
  "bytecode": "0x608060405234801561001057600080fd5b50610943806100206000396000f3fe608060405234801561001057600080fd5b50600436106100885760003560e01c80636f3b88bc1161005b5780636f3b88bc146101175780637e31963214610135578063bd03cd2d14610153578063cf50c2301461017157610088565b8063228f7c7a1461008d57806334090175146100ab5780633d4b1857146100c9578063461318b1146100f9575b600080fd5b6100956101a1565b6040516100a29190610674565b60405180910390f35b6100b36101cd565b6040516100c09190610674565b60405180910390f35b6100e360048036038101906100de91906106ca565b6101f9565b6040516100f09190610712565b60405180910390f35b61010161020b565b60405161010e919061073c565b60405180910390f35b61011f61021a565b60405161012c9190610674565b60405180910390f35b61013d610246565b60405161014a9190610674565b60405180910390f35b61015b610272565b6040516101689190610712565b60405180910390f35b61018b600480360381019061018691906107b5565b610281565b6040516101989190610712565b60405180910390f35b6000806101ac610293565b90508060000160189054906101000a900467ffffffffffffffff1691505090565b6000806101d8610293565b90508060000160109054906101000a900467ffffffffffffffff1691505090565b6000610204826102aa565b9050919050565b600061021561032a565b905090565b600080610225610293565b90508060000160089054906101000a900467ffffffffffffffff1691505090565b600080610251610293565b90508060000160009054906101000a900467ffffffffffffffff1691505090565b600061027c61040a565b905090565b600061028c826104fa565b9050919050565b60008061029e610588565b90508060010191505090565b6000806102b5610293565b905060006102c16105b5565b90508160000160189054906101000a900467ffffffffffffffff1667ffffffffffffffff16818360000160089054906101000a900467ffffffffffffffff1667ffffffffffffffff166103149190610811565b61031e919061089a565b84101592505050919050565b600080610335610293565b9050600073__$ff217afc1007a043e503c20835d8f6c058$__63200cd9cc6040518163ffffffff1660e01b8152600401602060405180830381865af4158015610382573d6000803e3d6000fd5b505050506040513d601f19601f820116820180604052508101906103a691906108e0565b90508160000160189054906101000a900467ffffffffffffffff1667ffffffffffffffff16818360000160009054906101000a900467ffffffffffffffff1667ffffffffffffffff166103f99190610811565b610403919061089a565b9250505090565b600080610415610293565b9050600073__$ff217afc1007a043e503c20835d8f6c058$__63200cd9cc6040518163ffffffff1660e01b8152600401602060405180830381865af4158015610462573d6000803e3d6000fd5b505050506040513d601f19601f8201168201806040525081019061048691906108e0565b905060006104926105b5565b9050808360000160189054906101000a900467ffffffffffffffff1667ffffffffffffffff16838560000160009054906101000a900467ffffffffffffffff1667ffffffffffffffff166104e69190610811565b6104f0919061089a565b1115935050505090565b600080610505610293565b90506000610512846105cd565b9050600061051e6105b5565b90508260000160189054906101000a900467ffffffffffffffff1667ffffffffffffffff16818460000160109054906101000a900467ffffffffffffffff1667ffffffffffffffff166105719190610811565b61057b919061089a565b8210159350505050919050565b6000807fd5211e15e362f5251dbdeabddfd30aa19c1d7433b35372348d9978301f444fb690508091505090565b6000806105c0610624565b9050806002015491505090565b6000806105d8610624565b90508060010160008473ffffffffffffffffffffffffffffffffffffffff1673ffffffffffffffffffffffffffffffffffffffff16815260200190815260200160002054915050919050565b6000807f534276485ab019670afde26394d87b7e6a7f0dab7b16287011cc6ad8ed0d94f690508091505090565b600067ffffffffffffffff82169050919050565b61066e81610651565b82525050565b60006020820190506106896000830184610665565b92915050565b600080fd5b6000819050919050565b6106a781610694565b81146106b257600080fd5b50565b6000813590506106c48161069e565b92915050565b6000602082840312156106e0576106df61068f565b5b60006106ee848285016106b5565b91505092915050565b60008115159050919050565b61070c816106f7565b82525050565b60006020820190506107276000830184610703565b92915050565b61073681610694565b82525050565b6000602082019050610751600083018461072d565b92915050565b600073ffffffffffffffffffffffffffffffffffffffff82169050919050565b600061078282610757565b9050919050565b61079281610777565b811461079d57600080fd5b50565b6000813590506107af81610789565b92915050565b6000602082840312156107cb576107ca61068f565b5b60006107d9848285016107a0565b91505092915050565b7f4e487b7100000000000000000000000000000000000000000000000000000000600052601160045260246000fd5b600061081c82610694565b915061082783610694565b9250817fffffffffffffffffffffffffffffffffffffffffffffffffffffffffffffffff04831182151516156108605761085f6107e2565b5b828202905092915050565b7f4e487b7100000000000000000000000000000000000000000000000000000000600052601260045260246000fd5b60006108a582610694565b91506108b083610694565b9250826108c0576108bf61086b565b5b828204905092915050565b6000815190506108da8161069e565b92915050565b6000602082840312156108f6576108f561068f565b5b6000610904848285016108cb565b9150509291505056fea26469706673582212200944444d053d5b2fd35679f62774928ba1bbc04fe9e0a9d1eeaaf0c9bfdd3eeb64736f6c634300080c0033",
  "linkReferences": {
    "contracts/_library/habitat/libraries/LibVotingPower.sol": {
      "LibVotingPower": [
        {
          "length": 20,
          "start": 859
        },
        {
          "length": 20,
          "start": 1083
        }
      ]
    }
  },
  "deployedLinkReferences": {
    "contracts/_library/habitat/libraries/LibVotingPower.sol": {
      "LibVotingPower": [
        {
          "length": 20,
          "start": 827
        },
        {
          "length": 20,
          "start": 1051
        }
      ]
    }
  }
}