{
  "_format": "hh-sol-artifact-1",
  "contractName": "TreasuryVotingFacet",
  "sourceName": "contracts/_library/habitat/facets/treasury/TreasuryVotingFacet.sol",
  "abi": [
    {
      "anonymous": false,
      "inputs": [
        {
          "indexed": true,
          "internalType": "uint256",
          "name": "proposalId",
          "type": "uint256"
        },
        {
          "indexed": true,
          "internalType": "address",
          "name": "destination",
          "type": "address"
        },
        {
          "indexed": true,
          "internalType": "uint256",
          "name": "value",
          "type": "uint256"
        },
        {
          "indexed": false,
          "internalType": "bytes",
          "name": "callData",
          "type": "bytes"
        }
      ],
      "name": "TreasuryProposalAccepted",
      "type": "event"
    },
    {
      "anonymous": false,
      "inputs": [
        {
          "indexed": true,
          "internalType": "uint256",
          "name": "proposalId",
          "type": "uint256"
        },
        {
          "indexed": true,
          "internalType": "uint256",
          "name": "deadlineTimestamp",
          "type": "uint256"
        }
      ],
      "name": "TreasuryProposalCreated",
      "type": "event"
    },
    {
      "anonymous": false,
      "inputs": [
        {
          "indexed": true,
          "internalType": "uint256",
          "name": "proposalId",
          "type": "uint256"
        },
        {
          "indexed": true,
          "internalType": "address",
          "name": "destination",
          "type": "address"
        },
        {
          "indexed": true,
          "internalType": "uint256",
          "name": "value",
          "type": "uint256"
        },
        {
          "indexed": false,
          "internalType": "bytes",
          "name": "callData",
          "type": "bytes"
        }
      ],
      "name": "TreasuryProposalRejected",
      "type": "event"
    },
    {
      "inputs": [
        {
          "internalType": "uint256",
          "name": "proposalId",
          "type": "uint256"
        }
      ],
      "name": "acceptOrRejectProposal",
      "outputs": [],
      "stateMutability": "nonpayable",
      "type": "function"
    },
    {
      "inputs": [
        {
          "internalType": "uint256[]",
          "name": "proposalIds",
          "type": "uint256[]"
        }
      ],
      "name": "acceptOrRejectSeveralProposals",
      "outputs": [],
      "stateMutability": "nonpayable",
      "type": "function"
    },
    {
      "inputs": [
        {
          "internalType": "address[]",
          "name": "destinations",
          "type": "address[]"
        },
        {
          "internalType": "uint256[]",
          "name": "values",
          "type": "uint256[]"
        },
        {
          "internalType": "bytes[]",
          "name": "callDatas",
          "type": "bytes[]"
        },
        {
          "internalType": "uint128[]",
          "name": "deadlineTimestamps",
          "type": "uint128[]"
        }
      ],
      "name": "createSeveralTreasuryProposals",
      "outputs": [
        {
          "internalType": "uint256[]",
          "name": "",
          "type": "uint256[]"
        }
      ],
      "stateMutability": "nonpayable",
      "type": "function"
    },
    {
      "inputs": [
        {
          "internalType": "address",
          "name": "destination",
          "type": "address"
        },
        {
          "internalType": "uint256",
          "name": "value",
          "type": "uint256"
        },
        {
          "internalType": "bytes",
          "name": "callData",
          "type": "bytes"
        },
        {
          "internalType": "uint128",
          "name": "deadlineTimestamp",
          "type": "uint128"
        }
      ],
      "name": "createTreasuryProposal",
      "outputs": [
        {
          "internalType": "uint256",
          "name": "",
          "type": "uint256"
        }
      ],
      "stateMutability": "nonpayable",
      "type": "function"
    },
    {
      "inputs": [],
      "name": "initTreasuryVoting",
      "outputs": [],
      "stateMutability": "nonpayable",
      "type": "function"
    },
    {
      "inputs": [
        {
          "internalType": "uint256",
          "name": "proposalId",
          "type": "uint256"
        },
        {
          "internalType": "bool",
          "name": "vote",
          "type": "bool"
        }
      ],
      "name": "voteForOneTreasuryProposal",
      "outputs": [],
      "stateMutability": "nonpayable",
      "type": "function"
    },
    {
      "inputs": [
        {
          "internalType": "uint256[]",
          "name": "proposalsIds",
          "type": "uint256[]"
        },
        {
          "internalType": "bool[]",
          "name": "votes",
          "type": "bool[]"
        }
      ],
      "name": "voteForSeveralTreasuryProposals",
      "outputs": [],
      "stateMutability": "nonpayable",
      "type": "function"
    }
  ],
  "bytecode": "0x608060405234801561001057600080fd5b5061247f806100206000396000f3fe608060405234801561001057600080fd5b506004361061007d5760003560e01c806373414cc91161005b57806373414cc9146100d857806383f95b4e146101085780639814bbb814610124578063a8530b32146101405761007d565b806358b2f4a3146100825780635c5f6b67146100b257806372048c80146100bc575b600080fd5b61009c600480360381019061009791906115dd565b61015c565b6040516100a9919061178e565b60405180910390f35b6100ba6102fb565b005b6100d660048036038101906100d19190611806565b61041b565b005b6100f260048036038101906100ed91906119af565b6104d5565b6040516100ff9190611a46565b60405180910390f35b610122600480360381019061011d9190611a61565b61076d565b005b61013e60048036038101906101399190611ac6565b610b24565b005b61015a60048036038101906101559190611b06565b610cc0565b005b60606000898990509050808888905014801561017a57508086869050145b801561018857508084849050145b6101c7576040517f08c379a00000000000000000000000000000000000000000000000000000000081526004016101be90611bb0565b60405180910390fd5b60008167ffffffffffffffff8111156101e3576101e2611bd0565b5b6040519080825280602002602001820160405280156102115781602001602082028036833780820191505090505b50905060005b81518110156102e9576102b78c8c8381811061023657610235611bff565b5b905060200201602081019061024b9190611c2e565b8b8b8481811061025e5761025d611bff565b5b905060200201358a8a8581811061027857610277611bff565b5b905060200281019061028a9190611c6a565b8a8a8781811061029d5761029c611bff565b5b90506020020160208101906102b29190611ccd565b6104d5565b8282815181106102ca576102c9611bff565b5b60200260200101818152505080806102e190611d29565b915050610217565b50809250505098975050505050505050565b6000610305610d08565b90506040518060800160405280606467ffffffffffffffff168152602001600567ffffffffffffffff168152602001600967ffffffffffffffff1681526020016103e867ffffffffffffffff168152508160010160008201518160000160006101000a81548167ffffffffffffffff021916908367ffffffffffffffff16021790555060208201518160000160086101000a81548167ffffffffffffffff021916908367ffffffffffffffff16021790555060408201518160000160106101000a81548167ffffffffffffffff021916908367ffffffffffffffff16021790555060608201518160000160186101000a81548167ffffffffffffffff021916908367ffffffffffffffff16021790555090505050565b818190508484905014610463576040517f08c379a000000000000000000000000000000000000000000000000000000000815260040161045a90611bb0565b60405180910390fd5b60005b848490508110156104ce576104bb85858381811061048757610486611bff565b5b905060200201358484848181106104a1576104a0611bff565b5b90506020020160208101906104b69190611d72565b610b24565b80806104c690611d29565b915050610466565b5050505050565b60006104df610d35565b61051e576040517f08c379a000000000000000000000000000000000000000000000000000000000815260040161051590611deb565b60405180910390fd5b61052733610e25565b610566576040517f08c379a000000000000000000000000000000000000000000000000000000000815260040161055d90611e7d565b60405180910390fd5b6000610570610eb3565b9050600061057d82610fd5565b9050878160000160016101000a81548173ffffffffffffffffffffffffffffffffffffffff021916908373ffffffffffffffffffffffffffffffffffffffff16021790555086816001018190555060006105d683610fff565b905060018160000160006101000a81548160ff02191690831515021790555060006105ff611029565b905060006fffffffffffffffffffffffffffffffff16866fffffffffffffffffffffffffffffffff1614806106625750804261063b9190611e9d565b6fffffffffffffffffffffffffffffffff16866fffffffffffffffffffffffffffffffff16115b156106925742816fffffffffffffffffffffffffffffffff166106859190611ee3565b82600201819055506106ae565b856fffffffffffffffffffffffffffffffff1682600201819055505b60018260010160003373ffffffffffffffffffffffffffffffffffffffff1673ffffffffffffffffffffffffffffffffffffffff16815260200190815260200160002060006101000a81548160ff0219169083151502179055506107113361105d565b8260030160008282546107249190611ee3565b925050819055508160020154847f6b4b73e0b077383072cfc884c2068f6aeac3e2bb538a7b0b0055c5f9a49d40ee60405160405180910390a38394505050505095945050505050565b600061077882610fff565b9050600061078583610fd5565b90508060000160009054906101000a900460ff16156107d9576040517f08c379a00000000000000000000000000000000000000000000000000000000081526004016107d090611f85565b60405180910390fd5b8160000160009054906101000a900460ff1661082a576040517f08c379a000000000000000000000000000000000000000000000000000000000815260040161082190611ff1565b60405180910390fd5b8160040154826003015411156109c25761084782600301546110b4565b1561090f5760008260000160006101000a81548160ff02191690831515021790555060018160000160006101000a81548160ff02191690831515021790555061088f83611134565b80600101548160000160019054906101000a900473ffffffffffffffffffffffffffffffffffffffff1673ffffffffffffffffffffffffffffffffffffffff16847f518c2f37a2b5245988c48330e04bc1ecd65c4f22f02060b7d7f544b788400eb8846002016040516109029190612118565b60405180910390a46109bd565b428260020154116109b55761092383611134565b61092c836112e7565b80600101548160000160019054906101000a900473ffffffffffffffffffffffffffffffffffffffff1673ffffffffffffffffffffffffffffffffffffffff16847f722e44c052fa4cc3379c633d227f3024de1885091fd2f0df331b1e927e2c09328460020160405161099f9190612118565b60405180910390a46109b083611324565b6109bc565b5050610b21565b5b610b1e565b6109cf82600401546110b4565b15610a6f576109dd836112e7565b6109e683611134565b80600101548160000160019054906101000a900473ffffffffffffffffffffffffffffffffffffffff1673ffffffffffffffffffffffffffffffffffffffff16847f722e44c052fa4cc3379c633d227f3024de1885091fd2f0df331b1e927e2c093284600201604051610a599190612118565b60405180910390a4610a6a83611324565b610b1d565b42826002015411610b1557610a83836112e7565b610a8c83611134565b80600101548160000160019054906101000a900473ffffffffffffffffffffffffffffffffffffffff1673ffffffffffffffffffffffffffffffffffffffff16847f722e44c052fa4cc3379c633d227f3024de1885091fd2f0df331b1e927e2c093284600201604051610aff9190612118565b60405180910390a4610b1083611324565b610b1c565b5050610b21565b5b5b50505b50565b6000610b2f83610fff565b90508060000160009054906101000a900460ff16610b82576040517f08c379a0000000000000000000000000000000000000000000000000000000008152600401610b7990612186565b60405180910390fd5b8060010160003373ffffffffffffffffffffffffffffffffffffffff1673ffffffffffffffffffffffffffffffffffffffff16815260200190815260200160002060009054906101000a900460ff1615610c11576040517f08c379a0000000000000000000000000000000000000000000000000000000008152600401610c08906121f2565b60405180910390fd5b6000610c1c3361105d565b905060018260010160003373ffffffffffffffffffffffffffffffffffffffff1673ffffffffffffffffffffffffffffffffffffffff16815260200190815260200160002060006101000a81548160ff0219169083151502179055508215610c9e5780826003016000828254610c929190611ee3565b92505081905550610cba565b80826004016000828254610cb29190611ee3565b925050819055505b50505050565b60005b82829050811015610d0357610cf0838383818110610ce457610ce3611bff565b5b9050602002013561076d565b8080610cfb90611d29565b915050610cc3565b505050565b6000807fd5211e15e362f5251dbdeabddfd30aa19c1d7433b35372348d9978301f444fb690508091505090565b600080610d4061139c565b9050600073__$ff217afc1007a043e503c20835d8f6c058$__63200cd9cc6040518163ffffffff1660e01b8152600401602060405180830381865af4158015610d8d573d6000803e3d6000fd5b505050506040513d601f19601f82011682018060405250810190610db19190612227565b90506000610dbd6113b3565b9050808360000160189054906101000a900467ffffffffffffffff1667ffffffffffffffff16838560000160009054906101000a900467ffffffffffffffff1667ffffffffffffffff16610e119190612254565b610e1b91906122dd565b1115935050505090565b600080610e3061139c565b90506000610e3d8461105d565b90506000610e496113b3565b90508260000160189054906101000a900467ffffffffffffffff1667ffffffffffffffff16818460000160109054906101000a900467ffffffffffffffff1667ffffffffffffffff16610e9c9190612254565b610ea691906122dd565b8210159350505050919050565b600080610ebe610d08565b905060c8816003018054905010610f0a576040517f08c379a0000000000000000000000000000000000000000000000000000000008152600401610f019061235a565b60405180910390fd5b60018160020160109054906101000a90046fffffffffffffffffffffffffffffffff16610f379190611e9d565b8160020160106101000a8154816fffffffffffffffffffffffffffffffff02191690836fffffffffffffffffffffffffffffffff1602179055508060020160109054906101000a90046fffffffffffffffffffffffffffffffff166fffffffffffffffffffffffffffffffff169150806003018290806001815401808255809150506001900390600052602060002001600090919091909150555090565b600080610fe0610d08565b9050806004016000848152602001908152602001600020915050919050565b60008061100a610d08565b9050806005016000848152602001908152602001600020915050919050565b600080611034610d08565b90508060020160009054906101000a90046fffffffffffffffffffffffffffffffff1691505090565b6000806110686113cb565b90508060010160008473ffffffffffffffffffffffffffffffffffffffff1673ffffffffffffffffffffffffffffffffffffffff16815260200190815260200160002054915050919050565b6000806110bf61139c565b905060006110cb6113b3565b90508160000160189054906101000a900467ffffffffffffffff1667ffffffffffffffff16818360000160089054906101000a900467ffffffffffffffff1667ffffffffffffffff1661111e9190612254565b61112891906122dd565b84101592505050919050565b600061113e6113f8565b90506000818054905011611187576040517f08c379a000000000000000000000000000000000000000000000000000000000815260040161117e906123c6565b60405180910390fd5b81816001838054905061119a91906123e6565b815481106111ab576111aa611bff565b5b906000526020600020015414156111e857808054806111cd576111cc61241a565b5b600190038181906000526020600020016000905590556112e3565b600080600090505b828054905081101561123857838382815481106112105761120f611bff565b5b90600052602060002001541415611225578091505b808061123090611d29565b9150506111f0565b50816001838054905061124b91906123e6565b8154811061125c5761125b611bff565b5b906000526020600020015482828154811061127a57611279611bff565b5b906000526020600020018190555082826001848054905061129b91906123e6565b815481106112ac576112ab611bff565b5b9060005260206000200181905550818054806112cb576112ca61241a565b5b60019003818190600052602060002001600090559055505b5050565b60006112f282610fff565b90508060000160006101000a81549060ff02191690558060020160009055806003016000905580600401600090555050565b600061132f82610fd5565b90508060000160006101000a81549060ff02191690558060000160016101000a81549073ffffffffffffffffffffffffffffffffffffffff02191690558060010160009055806002016000611384919061140f565b8060030160006101000a81549060ff02191690555050565b6000806113a7610d08565b90508060010191505090565b6000806113be6113cb565b9050806002015491505090565b6000807f534276485ab019670afde26394d87b7e6a7f0dab7b16287011cc6ad8ed0d94f690508091505090565b600080611403610d08565b90508060030191505090565b50805461141b90612040565b6000825580601f1061142d575061144c565b601f01602090049060005260206000209081019061144b919061144f565b5b50565b5b80821115611468576000816000905550600101611450565b5090565b600080fd5b600080fd5b600080fd5b600080fd5b600080fd5b60008083601f84011261149b5761149a611476565b5b8235905067ffffffffffffffff8111156114b8576114b761147b565b5b6020830191508360208202830111156114d4576114d3611480565b5b9250929050565b60008083601f8401126114f1576114f0611476565b5b8235905067ffffffffffffffff81111561150e5761150d61147b565b5b60208301915083602082028301111561152a57611529611480565b5b9250929050565b60008083601f84011261154757611546611476565b5b8235905067ffffffffffffffff8111156115645761156361147b565b5b6020830191508360208202830111156115805761157f611480565b5b9250929050565b60008083601f84011261159d5761159c611476565b5b8235905067ffffffffffffffff8111156115ba576115b961147b565b5b6020830191508360208202830111156115d6576115d5611480565b5b9250929050565b6000806000806000806000806080898b0312156115fd576115fc61146c565b5b600089013567ffffffffffffffff81111561161b5761161a611471565b5b6116278b828c01611485565b9850985050602089013567ffffffffffffffff81111561164a57611649611471565b5b6116568b828c016114db565b9650965050604089013567ffffffffffffffff81111561167957611678611471565b5b6116858b828c01611531565b9450945050606089013567ffffffffffffffff8111156116a8576116a7611471565b5b6116b48b828c01611587565b92509250509295985092959890939650565b600081519050919050565b600082825260208201905092915050565b6000819050602082019050919050565b6000819050919050565b611705816116f2565b82525050565b600061171783836116fc565b60208301905092915050565b6000602082019050919050565b600061173b826116c6565b61174581856116d1565b9350611750836116e2565b8060005b83811015611781578151611768888261170b565b975061177383611723565b925050600181019050611754565b5085935050505092915050565b600060208201905081810360008301526117a88184611730565b905092915050565b60008083601f8401126117c6576117c5611476565b5b8235905067ffffffffffffffff8111156117e3576117e261147b565b5b6020830191508360208202830111156117ff576117fe611480565b5b9250929050565b600080600080604085870312156118205761181f61146c565b5b600085013567ffffffffffffffff81111561183e5761183d611471565b5b61184a878288016114db565b9450945050602085013567ffffffffffffffff81111561186d5761186c611471565b5b611879878288016117b0565b925092505092959194509250565b600073ffffffffffffffffffffffffffffffffffffffff82169050919050565b60006118b282611887565b9050919050565b6118c2816118a7565b81146118cd57600080fd5b50565b6000813590506118df816118b9565b92915050565b6118ee816116f2565b81146118f957600080fd5b50565b60008135905061190b816118e5565b92915050565b60008083601f84011261192757611926611476565b5b8235905067ffffffffffffffff8111156119445761194361147b565b5b6020830191508360018202830111156119605761195f611480565b5b9250929050565b60006fffffffffffffffffffffffffffffffff82169050919050565b61198c81611967565b811461199757600080fd5b50565b6000813590506119a981611983565b92915050565b6000806000806000608086880312156119cb576119ca61146c565b5b60006119d9888289016118d0565b95505060206119ea888289016118fc565b945050604086013567ffffffffffffffff811115611a0b57611a0a611471565b5b611a1788828901611911565b93509350506060611a2a8882890161199a565b9150509295509295909350565b611a40816116f2565b82525050565b6000602082019050611a5b6000830184611a37565b92915050565b600060208284031215611a7757611a7661146c565b5b6000611a85848285016118fc565b91505092915050565b60008115159050919050565b611aa381611a8e565b8114611aae57600080fd5b50565b600081359050611ac081611a9a565b92915050565b60008060408385031215611add57611adc61146c565b5b6000611aeb858286016118fc565b9250506020611afc85828601611ab1565b9150509250929050565b60008060208385031215611b1d57611b1c61146c565b5b600083013567ffffffffffffffff811115611b3b57611b3a611471565b5b611b47858286016114db565b92509250509250929050565b600082825260208201905092915050565b7f446966666572656e74206172726179206c656e67746800000000000000000000600082015250565b6000611b9a601683611b53565b9150611ba582611b64565b602082019050919050565b60006020820190508181036000830152611bc981611b8d565b9050919050565b7f4e487b7100000000000000000000000000000000000000000000000000000000600052604160045260246000fd5b7f4e487b7100000000000000000000000000000000000000000000000000000000600052603260045260246000fd5b600060208284031215611c4457611c4361146c565b5b6000611c52848285016118d0565b91505092915050565b600080fd5b600080fd5b600080fd5b60008083356001602003843603038112611c8757611c86611c5b565b5b80840192508235915067ffffffffffffffff821115611ca957611ca8611c60565b5b602083019250600182023603831315611cc557611cc4611c65565b5b509250929050565b600060208284031215611ce357611ce261146c565b5b6000611cf18482850161199a565b91505092915050565b7f4e487b7100000000000000000000000000000000000000000000000000000000600052601160045260246000fd5b6000611d34826116f2565b91507fffffffffffffffffffffffffffffffffffffffffffffffffffffffffffffffff821415611d6757611d66611cfa565b5b600182019050919050565b600060208284031215611d8857611d8761146c565b5b6000611d9684828501611ab1565b91505092915050565b7f5468657265206973206e6f2071756f72756d207965742e000000000000000000600082015250565b6000611dd5601783611b53565b9150611de082611d9f565b602082019050919050565b60006020820190508181036000830152611e0481611dc8565b9050919050565b7f4e6f7420656e6f75676820766f74696e6720706f77657220746f20637265617460008201527f652070726f706f73616c2e000000000000000000000000000000000000000000602082015250565b6000611e67602b83611b53565b9150611e7282611e0b565b604082019050919050565b60006020820190508181036000830152611e9681611e5a565b9050919050565b6000611ea882611967565b9150611eb383611967565b9250826fffffffffffffffffffffffffffffffff03821115611ed857611ed7611cfa565b5b828201905092915050565b6000611eee826116f2565b9150611ef9836116f2565b9250827fffffffffffffffffffffffffffffffffffffffffffffffffffffffffffffffff03821115611f2e57611f2d611cfa565b5b828201905092915050565b7f50726f706f73616c20697320616c726561647920616363657074656400000000600082015250565b6000611f6f601c83611b53565b9150611f7a82611f39565b602082019050919050565b60006020820190508181036000830152611f9e81611f62565b9050919050565b7f4e6f20766f74696e672e00000000000000000000000000000000000000000000600082015250565b6000611fdb600a83611b53565b9150611fe682611fa5565b602082019050919050565b6000602082019050818103600083015261200a81611fce565b9050919050565b7f4e487b7100000000000000000000000000000000000000000000000000000000600052602260045260246000fd5b6000600282049050600182168061205857607f821691505b6020821081141561206c5761206b612011565b5b50919050565b600082825260208201905092915050565b60008190508160005260206000209050919050565b600081546120a581612040565b6120af8186612072565b945060018216600081146120ca57600181146120dc5761210f565b60ff198316865260208601935061210f565b6120e585612083565b60005b83811015612107578154818901526001820191506020810190506120e8565b808801955050505b50505092915050565b600060208201905081810360008301526121328184612098565b905092915050565b7f4e6f20766f74696e6720726e2e00000000000000000000000000000000000000600082015250565b6000612170600d83611b53565b915061217b8261213a565b602082019050919050565b6000602082019050818103600083015261219f81612163565b9050919050565b7f416c726561647920766f7465642e000000000000000000000000000000000000600082015250565b60006121dc600e83611b53565b91506121e7826121a6565b602082019050919050565b6000602082019050818103600083015261220b816121cf565b9050919050565b600081519050612221816118e5565b92915050565b60006020828403121561223d5761223c61146c565b5b600061224b84828501612212565b91505092915050565b600061225f826116f2565b915061226a836116f2565b9250817fffffffffffffffffffffffffffffffffffffffffffffffffffffffffffffffff04831182151516156122a3576122a2611cfa565b5b828202905092915050565b7f4e487b7100000000000000000000000000000000000000000000000000000000600052601260045260246000fd5b60006122e8826116f2565b91506122f3836116f2565b925082612303576123026122ae565b5b828204905092915050565b7f4e6f206d6f72652070726f706f73616c7320706c730000000000000000000000600082015250565b6000612344601583611b53565b915061234f8261230e565b602082019050919050565b6000602082019050818103600083015261237381612337565b9050919050565b7f4e6f206163746976652070726f706f73616c732e000000000000000000000000600082015250565b60006123b0601483611b53565b91506123bb8261237a565b602082019050919050565b600060208201905081810360008301526123df816123a3565b9050919050565b60006123f1826116f2565b91506123fc836116f2565b92508282101561240f5761240e611cfa565b5b828203905092915050565b7f4e487b7100000000000000000000000000000000000000000000000000000000600052603160045260246000fdfea26469706673582212209ff9f792a44c10c9fe06441c71adeb231430895f069696d5f0601e3052848d3764736f6c634300080c0033",
  "linkReferences": {
    "contracts/_library/habitat/libraries/LibVotingPower.sol": {
      "LibVotingPower": [
        {
          "length": 20,
          "start": 3430
        }
      ]
    }
  },
  "deployedLinkReferences": {
    "contracts/_library/habitat/libraries/LibVotingPower.sol": {
      "LibVotingPower": [
        {
          "length": 20,
          "start": 3398
        }
      ]
    }
  }
}