{
  "_format": "hh-sol-artifact-1",
  "contractName": "TreasuryDefaultCallbackHandlerFacet",
  "sourceName": "contracts/_library/habitat/facets/treasury/TreasuryDefaultCallbackHandlerFacet.sol",
  "abi": [
    {
      "inputs": [
        {
          "internalType": "address",
          "name": "",
          "type": "address"
        },
        {
          "internalType": "address",
          "name": "",
          "type": "address"
        },
        {
          "internalType": "uint256[]",
          "name": "",
          "type": "uint256[]"
        },
        {
          "internalType": "uint256[]",
          "name": "",
          "type": "uint256[]"
        },
        {
          "internalType": "bytes",
          "name": "",
          "type": "bytes"
        }
      ],
      "name": "onERC1155BatchReceived",
      "outputs": [
        {
          "internalType": "bytes4",
          "name": "",
          "type": "bytes4"
        }
      ],
      "stateMutability": "pure",
      "type": "function"
    },
    {
      "inputs": [
        {
          "internalType": "address",
          "name": "",
          "type": "address"
        },
        {
          "internalType": "address",
          "name": "",
          "type": "address"
        },
        {
          "internalType": "uint256",
          "name": "",
          "type": "uint256"
        },
        {
          "internalType": "uint256",
          "name": "",
          "type": "uint256"
        },
        {
          "internalType": "bytes",
          "name": "",
          "type": "bytes"
        }
      ],
      "name": "onERC1155Received",
      "outputs": [
        {
          "internalType": "bytes4",
          "name": "",
          "type": "bytes4"
        }
      ],
      "stateMutability": "pure",
      "type": "function"
    },
    {
      "inputs": [
        {
          "internalType": "address",
          "name": "",
          "type": "address"
        },
        {
          "internalType": "address",
          "name": "",
          "type": "address"
        },
        {
          "internalType": "uint256",
          "name": "",
          "type": "uint256"
        },
        {
          "internalType": "bytes",
          "name": "",
          "type": "bytes"
        }
      ],
      "name": "onERC721Received",
      "outputs": [
        {
          "internalType": "bytes4",
          "name": "",
          "type": "bytes4"
        }
      ],
      "stateMutability": "pure",
      "type": "function"
    },
    {
      "inputs": [
        {
          "internalType": "address",
          "name": "",
          "type": "address"
        },
        {
          "internalType": "address",
          "name": "",
          "type": "address"
        },
        {
          "internalType": "address",
          "name": "",
          "type": "address"
        },
        {
          "internalType": "uint256",
          "name": "",
          "type": "uint256"
        },
        {
          "internalType": "bytes",
          "name": "",
          "type": "bytes"
        },
        {
          "internalType": "bytes",
          "name": "",
          "type": "bytes"
        }
      ],
      "name": "tokensReceived",
      "outputs": [],
      "stateMutability": "pure",
      "type": "function"
    }
  ],
  "bytecode": "0x608060405234801561001057600080fd5b506105fb806100206000396000f3fe608060405234801561001057600080fd5b506004361061004b5760003560e01c806223de2914610050578063150b7a021461006c578063bc197c811461009c578063f23a6e61146100cc575b600080fd5b61006a6004803603810190610065919061024c565b6100fc565b005b6100866004803603810190610081919061031b565b610106565b60405161009391906103de565b60405180910390f35b6100b660048036038101906100b1919061044f565b61011b565b6040516100c391906103de565b60405180910390f35b6100e660048036038101906100e1919061052b565b610133565b6040516100f391906103de565b60405180910390f35b5050505050505050565b600063150b7a0260e01b905095945050505050565b600063bc197c8160e01b905098975050505050505050565b600063f23a6e6160e01b90509695505050505050565b600080fd5b600080fd5b600073ffffffffffffffffffffffffffffffffffffffff82169050919050565b600061017e82610153565b9050919050565b61018e81610173565b811461019957600080fd5b50565b6000813590506101ab81610185565b92915050565b6000819050919050565b6101c4816101b1565b81146101cf57600080fd5b50565b6000813590506101e1816101bb565b92915050565b600080fd5b600080fd5b600080fd5b60008083601f84011261020c5761020b6101e7565b5b8235905067ffffffffffffffff811115610229576102286101ec565b5b602083019150836001820283011115610245576102446101f1565b5b9250929050565b60008060008060008060008060c0898b03121561026c5761026b610149565b5b600061027a8b828c0161019c565b985050602061028b8b828c0161019c565b975050604061029c8b828c0161019c565b96505060606102ad8b828c016101d2565b955050608089013567ffffffffffffffff8111156102ce576102cd61014e565b5b6102da8b828c016101f6565b945094505060a089013567ffffffffffffffff8111156102fd576102fc61014e565b5b6103098b828c016101f6565b92509250509295985092959890939650565b60008060008060006080868803121561033757610336610149565b5b60006103458882890161019c565b95505060206103568882890161019c565b9450506040610367888289016101d2565b935050606086013567ffffffffffffffff8111156103885761038761014e565b5b610394888289016101f6565b92509250509295509295909350565b60007fffffffff0000000000000000000000000000000000000000000000000000000082169050919050565b6103d8816103a3565b82525050565b60006020820190506103f360008301846103cf565b92915050565b60008083601f84011261040f5761040e6101e7565b5b8235905067ffffffffffffffff81111561042c5761042b6101ec565b5b602083019150836020820283011115610448576104476101f1565b5b9250929050565b60008060008060008060008060a0898b03121561046f5761046e610149565b5b600061047d8b828c0161019c565b985050602061048e8b828c0161019c565b975050604089013567ffffffffffffffff8111156104af576104ae61014e565b5b6104bb8b828c016103f9565b9650965050606089013567ffffffffffffffff8111156104de576104dd61014e565b5b6104ea8b828c016103f9565b9450945050608089013567ffffffffffffffff81111561050d5761050c61014e565b5b6105198b828c016101f6565b92509250509295985092959890939650565b60008060008060008060a0878903121561054857610547610149565b5b600061055689828a0161019c565b965050602061056789828a0161019c565b955050604061057889828a016101d2565b945050606061058989828a016101d2565b935050608087013567ffffffffffffffff8111156105aa576105a961014e565b5b6105b689828a016101f6565b9250925050929550929550929556fea264697066735822122056f723f322146d0568b8e3bc485a7cdaa10d7b6d839a268e9f79f01af82bdd2d64736f6c634300080c0033",
  "linkReferences": {},
  "deployedLinkReferences": {}
}