{
  "_format": "hh-sol-artifact-1",
  "contractName": "Uninstaller",
  "sourceName": "contracts/external/Uninstaller.sol",
  "abi": [
    {
      "inputs": [
        {
          "internalType": "uint256",
          "name": "",
          "type": "uint256"
        }
      ],
      "name": "cuts",
      "outputs": [
        {
          "internalType": "address",
          "name": "target",
          "type": "address"
        },
        {
          "internalType": "enum IDiamondWritable.FacetCutAction",
          "name": "action",
          "type": "uint8"
        }
      ],
      "stateMutability": "view",
      "type": "function"
    },
    {
      "inputs": [],
      "name": "data",
      "outputs": [
        {
          "internalType": "bytes",
          "name": "",
          "type": "bytes"
        }
      ],
      "stateMutability": "view",
      "type": "function"
    },
    {
      "inputs": [],
      "name": "get",
      "outputs": [
        {
          "components": [
            {
              "internalType": "address",
              "name": "target",
              "type": "address"
            },
            {
              "internalType": "enum IDiamondWritable.FacetCutAction",
              "name": "action",
              "type": "uint8"
            },
            {
              "internalType": "bytes4[]",
              "name": "selectors",
              "type": "bytes4[]"
            }
          ],
          "internalType": "struct IDiamondWritable.FacetCut[]",
          "name": "",
          "type": "tuple[]"
        },
        {
          "internalType": "address",
          "name": "",
          "type": "address"
        },
        {
          "internalType": "bytes",
          "name": "",
          "type": "bytes"
        }
      ],
      "stateMutability": "view",
      "type": "function"
    },
    {
      "inputs": [
        {
          "components": [
            {
              "internalType": "address",
              "name": "target",
              "type": "address"
            },
            {
              "internalType": "enum IDiamondWritable.FacetCutAction",
              "name": "action",
              "type": "uint8"
            },
            {
              "internalType": "bytes4[]",
              "name": "selectors",
              "type": "bytes4[]"
            }
          ],
          "internalType": "struct IDiamondWritable.FacetCut[]",
          "name": "_cuts",
          "type": "tuple[]"
        }
      ],
      "name": "set",
      "outputs": [],
      "stateMutability": "nonpayable",
      "type": "function"
    },
    {
      "inputs": [],
      "name": "target",
      "outputs": [
        {
          "internalType": "address",
          "name": "",
          "type": "address"
        }
      ],
      "stateMutability": "view",
      "type": "function"
    }
  ],
  "bytecode": "0x608060405234801561001057600080fd5b5061119f806100206000396000f3fe608060405234801561001057600080fd5b50600436106100575760003560e01c80636d4ce63c1461005c57806373d4a13a1461007c578063b27fb3111461009a578063bff0b451146100cb578063d4b83992146100e7575b600080fd5b610064610105565b60405161007393929190610b14565b60405180910390f35b6100846103d3565b6040516100919190610b59565b60405180910390f35b6100b460048036038101906100af9190610bc5565b610461565b6040516100c2929190610c01565b60405180910390f35b6100e560048036038101906100e09190610f5a565b6104c2565b005b6100ef61067f565b6040516100fc9190610fa3565b60405180910390f35b606060006060600060018054905067ffffffffffffffff81111561012c5761012b610c2f565b5b60405190808252806020026020018201604052801561016557816020015b6101526106a5565b81526020019060019003908161014a5790505b50905060005b81518110156103145760405180606001604052806001838154811061019357610192610fbe565b5b906000526020600020906002020160000160009054906101000a900473ffffffffffffffffffffffffffffffffffffffff1673ffffffffffffffffffffffffffffffffffffffff168152602001600183815481106101f4576101f3610fbe565b5b906000526020600020906002020160000160149054906101000a900460ff16600281111561022557610224610825565b5b81526020016001838154811061023e5761023d610fbe565b5b90600052602060002090600202016001018054806020026020016040519081016040528092919081815260200182805480156102db57602002820191906000526020600020906000905b82829054906101000a900460e01b7bffffffffffffffffffffffffffffffffffffffffffffffffffffffff1916815260200190600401906020826003010492830192600103820291508084116102885790505b50505050508152508282815181106102f6576102f5610fbe565b5b6020026020010181905250808061030c9061101c565b91505061016b565b5080600260009054906101000a900473ffffffffffffffffffffffffffffffffffffffff16600380805461034790611094565b80601f016020809104026020016040519081016040528092919081815260200182805461037390611094565b80156103c05780601f10610395576101008083540402835291602001916103c0565b820191906000526020600020905b8154815290600101906020018083116103a357829003601f168201915b5050505050905093509350935050909192565b600380546103e090611094565b80601f016020809104026020016040519081016040528092919081815260200182805461040c90611094565b80156104595780601f1061042e57610100808354040283529160200191610459565b820191906000526020600020905b81548152906001019060200180831161043c57829003601f168201915b505050505081565b6001818154811061047157600080fd5b90600052602060002090600202016000915090508060000160009054906101000a900473ffffffffffffffffffffffffffffffffffffffff16908060000160149054906101000a900460ff16905082565b600460009054906101000a900460ff1615610512576040517f08c379a000000000000000000000000000000000000000000000000000000000815260040161050990611149565b60405180910390fd5b61051a6106a5565b60005b825181101561065f5782818151811061053957610538610fbe565b5b6020026020010151915060016040518060600160405280600073ffffffffffffffffffffffffffffffffffffffff1681526020016002808111156105805761057f610825565b5b81526020018460400151815250908060018154018082558091505060019003906000526020600020906002020160009091909190915060008201518160000160006101000a81548173ffffffffffffffffffffffffffffffffffffffff021916908373ffffffffffffffffffffffffffffffffffffffff16021790555060208201518160000160146101000a81548160ff0219169083600281111561062857610627610825565b5b021790555060408201518160010190805190602001906106499291906106ee565b50505080806106579061101c565b91505061051d565b506001600460006101000a81548160ff0219169083151502179055505050565b600260009054906101000a900473ffffffffffffffffffffffffffffffffffffffff1681565b6040518060600160405280600073ffffffffffffffffffffffffffffffffffffffff168152602001600060028111156106e1576106e0610825565b5b8152602001606081525090565b8280548282559060005260206000209060070160089004810192821561078a5791602002820160005b8382111561075857835183826101000a81548163ffffffff021916908360e01c02179055509260200192600401602081600301049283019260010302610717565b80156107885782816101000a81549063ffffffff0219169055600401602081600301049283019260010302610758565b505b509050610797919061079b565b5090565b5b808211156107b457600081600090555060010161079c565b5090565b600081519050919050565b600082825260208201905092915050565b6000819050602082019050919050565b600073ffffffffffffffffffffffffffffffffffffffff82169050919050565b600061080f826107e4565b9050919050565b61081f81610804565b82525050565b7f4e487b7100000000000000000000000000000000000000000000000000000000600052602160045260246000fd5b6003811061086557610864610825565b5b50565b600081905061087682610854565b919050565b600061088682610868565b9050919050565b6108968161087b565b82525050565b600081519050919050565b600082825260208201905092915050565b6000819050602082019050919050565b60007fffffffff0000000000000000000000000000000000000000000000000000000082169050919050565b6108fd816108c8565b82525050565b600061090f83836108f4565b60208301905092915050565b6000602082019050919050565b60006109338261089c565b61093d81856108a7565b9350610948836108b8565b8060005b838110156109795781516109608882610903565b975061096b8361091b565b92505060018101905061094c565b5085935050505092915050565b600060608301600083015161099e6000860182610816565b5060208301516109b1602086018261088d565b50604083015184820360408601526109c98282610928565b9150508091505092915050565b60006109e28383610986565b905092915050565b6000602082019050919050565b6000610a02826107b8565b610a0c81856107c3565b935083602082028501610a1e856107d4565b8060005b85811015610a5a5784840389528151610a3b85826109d6565b9450610a46836109ea565b925060208a01995050600181019050610a22565b50829750879550505050505092915050565b610a7581610804565b82525050565b600081519050919050565b600082825260208201905092915050565b60005b83811015610ab5578082015181840152602081019050610a9a565b83811115610ac4576000848401525b50505050565b6000601f19601f8301169050919050565b6000610ae682610a7b565b610af08185610a86565b9350610b00818560208601610a97565b610b0981610aca565b840191505092915050565b60006060820190508181036000830152610b2e81866109f7565b9050610b3d6020830185610a6c565b8181036040830152610b4f8184610adb565b9050949350505050565b60006020820190508181036000830152610b738184610adb565b905092915050565b6000604051905090565b600080fd5b600080fd5b6000819050919050565b610ba281610b8f565b8114610bad57600080fd5b50565b600081359050610bbf81610b99565b92915050565b600060208284031215610bdb57610bda610b85565b5b6000610be984828501610bb0565b91505092915050565b610bfb8161087b565b82525050565b6000604082019050610c166000830185610a6c565b610c236020830184610bf2565b9392505050565b600080fd5b7f4e487b7100000000000000000000000000000000000000000000000000000000600052604160045260246000fd5b610c6782610aca565b810181811067ffffffffffffffff82111715610c8657610c85610c2f565b5b80604052505050565b6000610c99610b7b565b9050610ca58282610c5e565b919050565b600067ffffffffffffffff821115610cc557610cc4610c2f565b5b602082029050602081019050919050565b600080fd5b600080fd5b600080fd5b610cee81610804565b8114610cf957600080fd5b50565b600081359050610d0b81610ce5565b92915050565b60038110610d1e57600080fd5b50565b600081359050610d3081610d11565b92915050565b600067ffffffffffffffff821115610d5157610d50610c2f565b5b602082029050602081019050919050565b610d6b816108c8565b8114610d7657600080fd5b50565b600081359050610d8881610d62565b92915050565b6000610da1610d9c84610d36565b610c8f565b90508083825260208201905060208402830185811115610dc457610dc3610cd6565b5b835b81811015610ded5780610dd98882610d79565b845260208401935050602081019050610dc6565b5050509392505050565b600082601f830112610e0c57610e0b610c2a565b5b8135610e1c848260208601610d8e565b91505092915050565b600060608284031215610e3b57610e3a610cdb565b5b610e456060610c8f565b90506000610e5584828501610cfc565b6000830152506020610e6984828501610d21565b602083015250604082013567ffffffffffffffff811115610e8d57610e8c610ce0565b5b610e9984828501610df7565b60408301525092915050565b6000610eb8610eb384610caa565b610c8f565b90508083825260208201905060208402830185811115610edb57610eda610cd6565b5b835b81811015610f2257803567ffffffffffffffff811115610f0057610eff610c2a565b5b808601610f0d8982610e25565b85526020850194505050602081019050610edd565b5050509392505050565b600082601f830112610f4157610f40610c2a565b5b8135610f51848260208601610ea5565b91505092915050565b600060208284031215610f7057610f6f610b85565b5b600082013567ffffffffffffffff811115610f8e57610f8d610b8a565b5b610f9a84828501610f2c565b91505092915050565b6000602082019050610fb86000830184610a6c565b92915050565b7f4e487b7100000000000000000000000000000000000000000000000000000000600052603260045260246000fd5b7f4e487b7100000000000000000000000000000000000000000000000000000000600052601160045260246000fd5b600061102782610b8f565b91507fffffffffffffffffffffffffffffffffffffffffffffffffffffffffffffffff82141561105a57611059610fed565b5b600182019050919050565b7f4e487b7100000000000000000000000000000000000000000000000000000000600052602260045260246000fd5b600060028204905060018216806110ac57607f821691505b602082108114156110c0576110bf611065565b5b50919050565b600082825260208201905092915050565b7f5061636b61676552656d6f76653a20616c726561647920696e697469616c697a60008201527f65642e0000000000000000000000000000000000000000000000000000000000602082015250565b60006111336023836110c6565b915061113e826110d7565b604082019050919050565b6000602082019050818103600083015261116281611126565b905091905056fea26469706673582212205d3f1d58fecc8d8eb334291c51b6bf19cfd151bc365ff06f11374c433de78d9464736f6c634300080c0033",
  "linkReferences": {},
  "deployedLinkReferences": {}
}