{
  "_format": "hh-sol-artifact-1",
  "contractName": "MyToken",
  "sourceName": "contracts/_library/habitat/facets/MyToken.sol",
  "abi": [
    {
      "anonymous": false,
      "inputs": [
        {
          "indexed": true,
          "internalType": "address",
          "name": "owner",
          "type": "address"
        },
        {
          "indexed": true,
          "internalType": "address",
          "name": "spender",
          "type": "address"
        },
        {
          "indexed": false,
          "internalType": "uint256",
          "name": "value",
          "type": "uint256"
        }
      ],
      "name": "Approval",
      "type": "event"
    },
    {
      "anonymous": false,
      "inputs": [
        {
          "indexed": true,
          "internalType": "address",
          "name": "from",
          "type": "address"
        },
        {
          "indexed": true,
          "internalType": "address",
          "name": "to",
          "type": "address"
        },
        {
          "indexed": false,
          "internalType": "uint256",
          "name": "value",
          "type": "uint256"
        }
      ],
      "name": "Transfer",
      "type": "event"
    },
    {
      "inputs": [
        {
          "internalType": "address",
          "name": "holder",
          "type": "address"
        },
        {
          "internalType": "address",
          "name": "spender",
          "type": "address"
        }
      ],
      "name": "allowance",
      "outputs": [
        {
          "internalType": "uint256",
          "name": "",
          "type": "uint256"
        }
      ],
      "stateMutability": "view",
      "type": "function"
    },
    {
      "inputs": [
        {
          "internalType": "address",
          "name": "spender",
          "type": "address"
        },
        {
          "internalType": "uint256",
          "name": "amount",
          "type": "uint256"
        }
      ],
      "name": "approve",
      "outputs": [
        {
          "internalType": "bool",
          "name": "",
          "type": "bool"
        }
      ],
      "stateMutability": "nonpayable",
      "type": "function"
    },
    {
      "inputs": [
        {
          "internalType": "address",
          "name": "account",
          "type": "address"
        }
      ],
      "name": "balanceOf",
      "outputs": [
        {
          "internalType": "uint256",
          "name": "",
          "type": "uint256"
        }
      ],
      "stateMutability": "view",
      "type": "function"
    },
    {
      "inputs": [],
      "name": "decimals",
      "outputs": [
        {
          "internalType": "uint8",
          "name": "",
          "type": "uint8"
        }
      ],
      "stateMutability": "view",
      "type": "function"
    },
    {
      "inputs": [
        {
          "internalType": "address",
          "name": "spender",
          "type": "address"
        },
        {
          "internalType": "uint256",
          "name": "amount",
          "type": "uint256"
        }
      ],
      "name": "decreaseAllowance",
      "outputs": [
        {
          "internalType": "bool",
          "name": "",
          "type": "bool"
        }
      ],
      "stateMutability": "nonpayable",
      "type": "function"
    },
    {
      "inputs": [
        {
          "internalType": "address",
          "name": "spender",
          "type": "address"
        },
        {
          "internalType": "uint256",
          "name": "amount",
          "type": "uint256"
        }
      ],
      "name": "increaseAllowance",
      "outputs": [
        {
          "internalType": "bool",
          "name": "",
          "type": "bool"
        }
      ],
      "stateMutability": "nonpayable",
      "type": "function"
    },
    {
      "inputs": [
        {
          "internalType": "string",
          "name": "name",
          "type": "string"
        },
        {
          "internalType": "string",
          "name": "symbol",
          "type": "string"
        },
        {
          "internalType": "uint8",
          "name": "decimals",
          "type": "uint8"
        },
        {
          "internalType": "address",
          "name": "luckyGuy",
          "type": "address"
        }
      ],
      "name": "initMyToken",
      "outputs": [],
      "stateMutability": "nonpayable",
      "type": "function"
    },
    {
      "inputs": [],
      "name": "name",
      "outputs": [
        {
          "internalType": "string",
          "name": "",
          "type": "string"
        }
      ],
      "stateMutability": "view",
      "type": "function"
    },
    {
      "inputs": [],
      "name": "symbol",
      "outputs": [
        {
          "internalType": "string",
          "name": "",
          "type": "string"
        }
      ],
      "stateMutability": "view",
      "type": "function"
    },
    {
      "inputs": [],
      "name": "totalSupply",
      "outputs": [
        {
          "internalType": "uint256",
          "name": "",
          "type": "uint256"
        }
      ],
      "stateMutability": "view",
      "type": "function"
    },
    {
      "inputs": [
        {
          "internalType": "address",
          "name": "recipient",
          "type": "address"
        },
        {
          "internalType": "uint256",
          "name": "amount",
          "type": "uint256"
        }
      ],
      "name": "transfer",
      "outputs": [
        {
          "internalType": "bool",
          "name": "",
          "type": "bool"
        }
      ],
      "stateMutability": "nonpayable",
      "type": "function"
    },
    {
      "inputs": [
        {
          "internalType": "address",
          "name": "holder",
          "type": "address"
        },
        {
          "internalType": "address",
          "name": "recipient",
          "type": "address"
        },
        {
          "internalType": "uint256",
          "name": "amount",
          "type": "uint256"
        }
      ],
      "name": "transferFrom",
      "outputs": [
        {
          "internalType": "bool",
          "name": "",
          "type": "bool"
        }
      ],
      "stateMutability": "nonpayable",
      "type": "function"
    }
  ],
  "bytecode": "0x608060405234801561001057600080fd5b50611bc8806100206000396000f3fe608060405234801561001057600080fd5b50600436106100b45760003560e01c806370a082311161007157806370a08231146101a357806395d89b41146101d3578063a457c2d7146101f1578063a9059cbb14610221578063bb76a79f14610251578063dd62ed3e1461026d576100b4565b806306fdde03146100b9578063095ea7b3146100d757806318160ddd1461010757806323b872dd14610125578063313ce567146101555780633950935114610173575b600080fd5b6100c161029d565b6040516100ce91906111b5565b60405180910390f35b6100f160048036038101906100ec9190611275565b6102ac565b6040516100fe91906112d0565b60405180910390f35b61010f6102c1565b60405161011c91906112fa565b60405180910390f35b61013f600480360381019061013a9190611315565b6102d0565b60405161014c91906112d0565b60405180910390f35b61015d6102e6565b60405161016a9190611384565b60405180910390f35b61018d60048036038101906101889190611275565b6102f5565b60405161019a91906112d0565b60405180910390f35b6101bd60048036038101906101b8919061139f565b610425565b6040516101ca91906112fa565b60405180910390f35b6101db610437565b6040516101e891906111b5565b60405180910390f35b61020b60048036038101906102069190611275565b610446565b60405161021891906112d0565b60405180910390f35b61023b60048036038101906102369190611275565b610574565b60405161024891906112d0565b60405180910390f35b61026b6004803603810190610266919061145d565b610589565b005b61028760048036038101906102829190611504565b6106e7565b60405161029491906112fa565b60405180910390f35b60606102a76106fb565b905090565b60006102b9338484610796565b905092915050565b60006102cb610971565b905090565b60006102dd848484610984565b90509392505050565b60006102f06109fc565b905090565b600080610300610a1c565b60010160003373ffffffffffffffffffffffffffffffffffffffff1673ffffffffffffffffffffffffffffffffffffffff168152602001908152602001600020905060008160008673ffffffffffffffffffffffffffffffffffffffff1673ffffffffffffffffffffffffffffffffffffffff1681526020019081526020016000205490508084820110156103ca576040517f08c379a00000000000000000000000000000000000000000000000000000000081526004016103c1906115b6565b60405180910390fd5b61041833868684018560008a73ffffffffffffffffffffffffffffffffffffffff1673ffffffffffffffffffffffffffffffffffffffff168152602001908152602001600020819055610796565b5060019250505092915050565b600061043082610a49565b9050919050565b6060610441610a9b565b905090565b600080610451610a1c565b60010160003373ffffffffffffffffffffffffffffffffffffffff1673ffffffffffffffffffffffffffffffffffffffff168152602001908152602001600020905060008160008673ffffffffffffffffffffffffffffffffffffffff1673ffffffffffffffffffffffffffffffffffffffff16815260200190815260200160002054905080841115610519576040517f08c379a000000000000000000000000000000000000000000000000000000000815260040161051090611648565b60405180910390fd5b61056733868684038560008a73ffffffffffffffffffffffffffffffffffffffff1673ffffffffffffffffffffffffffffffffffffffff168152602001908152602001600020819055610796565b5060019250505092915050565b6000610581338484610b36565b905092915050565b6000610593610dc9565b9050600061059f610df6565b90508060000160009054906101000a900460ff16156105f3576040517f08c379a00000000000000000000000000000000000000000000000000000000081526004016105ea906116b4565b60405180910390fd5b60018160000160006101000a81548160ff02191690831515021790555061066788888080601f016020809104026020016040519081016040528093929190818152602001838380828437600081840152601f19601f8201169050808301925050505050505083610e2390919063ffffffff16565b6106be86868080601f016020809104026020016040519081016040528093929190818152602001838380828437600081840152601f19601f8201169050808301925050505050505083610e4090919063ffffffff16565b6106d18483610e5d90919063ffffffff16565b6106dd836103e8610e7e565b5050505050505050565b60006106f38383610fe4565b905092915050565b6060610705610dc9565b600001805461071390611703565b80601f016020809104026020016040519081016040528092919081815260200182805461073f90611703565b801561078c5780601f106107615761010080835404028352916020019161078c565b820191906000526020600020905b81548152906001019060200180831161076f57829003601f168201915b5050505050905090565b60008073ffffffffffffffffffffffffffffffffffffffff168473ffffffffffffffffffffffffffffffffffffffff161415610807576040517f08c379a00000000000000000000000000000000000000000000000000000000081526004016107fe906117a7565b60405180910390fd5b600073ffffffffffffffffffffffffffffffffffffffff168373ffffffffffffffffffffffffffffffffffffffff161415610877576040517f08c379a000000000000000000000000000000000000000000000000000000000815260040161086e90611839565b60405180910390fd5b81610880610a1c565b60010160008673ffffffffffffffffffffffffffffffffffffffff1673ffffffffffffffffffffffffffffffffffffffff16815260200190815260200160002060008573ffffffffffffffffffffffffffffffffffffffff1673ffffffffffffffffffffffffffffffffffffffff168152602001908152602001600020819055508273ffffffffffffffffffffffffffffffffffffffff168473ffffffffffffffffffffffffffffffffffffffff167f8c5be1e5ebec7d5bd14f71427d1e84f3dd0314c0f7b2291e5b200ac8c7c3b9258460405161095e91906112fa565b60405180910390a3600190509392505050565b600061097b610a1c565b60020154905090565b6000806109918533610fe4565b9050828110156109d6576040517f08c379a00000000000000000000000000000000000000000000000000000000081526004016109cd906118cb565b60405180910390fd5b6109e38533858403610796565b506109ef858585610b36565b5060019150509392505050565b6000610a06610dc9565b60020160009054906101000a900460ff16905090565b6000807fc991b2e918acaba8e5721668ed0b1982684e5a8692a621bcd2d7ef326bb015b490508091505090565b6000610a53610a1c565b60000160008373ffffffffffffffffffffffffffffffffffffffff1673ffffffffffffffffffffffffffffffffffffffff168152602001908152602001600020549050919050565b6060610aa5610dc9565b6001018054610ab390611703565b80601f0160208091040260200160405190810160405280929190818152602001828054610adf90611703565b8015610b2c5780601f10610b0157610100808354040283529160200191610b2c565b820191906000526020600020905b815481529060010190602001808311610b0f57829003601f168201915b5050505050905090565b60008073ffffffffffffffffffffffffffffffffffffffff168473ffffffffffffffffffffffffffffffffffffffff161415610ba7576040517f08c379a0000000000000000000000000000000000000000000000000000000008152600401610b9e9061195d565b60405180910390fd5b600073ffffffffffffffffffffffffffffffffffffffff168373ffffffffffffffffffffffffffffffffffffffff161415610c17576040517f08c379a0000000000000000000000000000000000000000000000000000000008152600401610c0e906119ef565b60405180910390fd5b610c22848484611074565b6000610c2c610a1c565b905060008160000160008773ffffffffffffffffffffffffffffffffffffffff1673ffffffffffffffffffffffffffffffffffffffff16815260200190815260200160002054905083811015610cb7576040517f08c379a0000000000000000000000000000000000000000000000000000000008152600401610cae90611a81565b60405180910390fd5b8381038260000160008873ffffffffffffffffffffffffffffffffffffffff1673ffffffffffffffffffffffffffffffffffffffff16815260200190815260200160002081905550838260000160008773ffffffffffffffffffffffffffffffffffffffff1673ffffffffffffffffffffffffffffffffffffffff1681526020019081526020016000206000828254610d509190611ad0565b925050819055508473ffffffffffffffffffffffffffffffffffffffff168673ffffffffffffffffffffffffffffffffffffffff167fddf252ad1be2c89b69c2b068fc378daa952ba7f163c4a11628f55a4df523b3ef86604051610db491906112fa565b60405180910390a36001925050509392505050565b6000807f2967a798b92539a1b9eefe4d8eb931f96b68d27665e276f1bee2d5db7f74304790508091505090565b6000807f199284878a0599c3b89b8bd0c3c2f408fd83fda7425fa8e6cc1b701fdb68666b90508091505090565b80826000019080519060200190610e3b929190611079565b505050565b80826001019080519060200190610e58929190611079565b505050565b808260020160006101000a81548160ff021916908360ff1602179055505050565b600073ffffffffffffffffffffffffffffffffffffffff168273ffffffffffffffffffffffffffffffffffffffff161415610eee576040517f08c379a0000000000000000000000000000000000000000000000000000000008152600401610ee590611b72565b60405180910390fd5b610efa60008383611074565b6000610f04610a1c565b905081816002016000828254610f1a9190611ad0565b92505081905550818160000160008573ffffffffffffffffffffffffffffffffffffffff1673ffffffffffffffffffffffffffffffffffffffff1681526020019081526020016000206000828254610f729190611ad0565b925050819055508273ffffffffffffffffffffffffffffffffffffffff16600073ffffffffffffffffffffffffffffffffffffffff167fddf252ad1be2c89b69c2b068fc378daa952ba7f163c4a11628f55a4df523b3ef84604051610fd791906112fa565b60405180910390a3505050565b6000610fee610a1c565b60010160008473ffffffffffffffffffffffffffffffffffffffff1673ffffffffffffffffffffffffffffffffffffffff16815260200190815260200160002060008373ffffffffffffffffffffffffffffffffffffffff1673ffffffffffffffffffffffffffffffffffffffff16815260200190815260200160002054905092915050565b505050565b82805461108590611703565b90600052602060002090601f0160209004810192826110a757600085556110ee565b82601f106110c057805160ff19168380011785556110ee565b828001600101855582156110ee579182015b828111156110ed5782518255916020019190600101906110d2565b5b5090506110fb91906110ff565b5090565b5b80821115611118576000816000905550600101611100565b5090565b600081519050919050565b600082825260208201905092915050565b60005b8381101561115657808201518184015260208101905061113b565b83811115611165576000848401525b50505050565b6000601f19601f8301169050919050565b60006111878261111c565b6111918185611127565b93506111a1818560208601611138565b6111aa8161116b565b840191505092915050565b600060208201905081810360008301526111cf818461117c565b905092915050565b600080fd5b600080fd5b600073ffffffffffffffffffffffffffffffffffffffff82169050919050565b600061120c826111e1565b9050919050565b61121c81611201565b811461122757600080fd5b50565b60008135905061123981611213565b92915050565b6000819050919050565b6112528161123f565b811461125d57600080fd5b50565b60008135905061126f81611249565b92915050565b6000806040838503121561128c5761128b6111d7565b5b600061129a8582860161122a565b92505060206112ab85828601611260565b9150509250929050565b60008115159050919050565b6112ca816112b5565b82525050565b60006020820190506112e560008301846112c1565b92915050565b6112f48161123f565b82525050565b600060208201905061130f60008301846112eb565b92915050565b60008060006060848603121561132e5761132d6111d7565b5b600061133c8682870161122a565b935050602061134d8682870161122a565b925050604061135e86828701611260565b9150509250925092565b600060ff82169050919050565b61137e81611368565b82525050565b60006020820190506113996000830184611375565b92915050565b6000602082840312156113b5576113b46111d7565b5b60006113c38482850161122a565b91505092915050565b600080fd5b600080fd5b600080fd5b60008083601f8401126113f1576113f06113cc565b5b8235905067ffffffffffffffff81111561140e5761140d6113d1565b5b60208301915083600182028301111561142a576114296113d6565b5b9250929050565b61143a81611368565b811461144557600080fd5b50565b60008135905061145781611431565b92915050565b6000806000806000806080878903121561147a576114796111d7565b5b600087013567ffffffffffffffff811115611498576114976111dc565b5b6114a489828a016113db565b9650965050602087013567ffffffffffffffff8111156114c7576114c66111dc565b5b6114d389828a016113db565b945094505060406114e689828a01611448565b92505060606114f789828a0161122a565b9150509295509295509295565b6000806040838503121561151b5761151a6111d7565b5b60006115298582860161122a565b925050602061153a8582860161122a565b9150509250929050565b7f4552433230457874656e6465643a2065786365737369766520616c6c6f77616e60008201527f6365000000000000000000000000000000000000000000000000000000000000602082015250565b60006115a0602283611127565b91506115ab82611544565b604082019050919050565b600060208201905081810360008301526115cf81611593565b9050919050565b7f4552433230457874656e6465643a20696e73756666696369656e7420616c6c6f60008201527f77616e6365000000000000000000000000000000000000000000000000000000602082015250565b6000611632602583611127565b915061163d826115d6565b604082019050919050565b6000602082019050818103600083015261166181611625565b9050919050565b7f436f6e747261637420697320616c726561647920696e697469616c697a656421600082015250565b600061169e602083611127565b91506116a982611668565b602082019050919050565b600060208201905081810360008301526116cd81611691565b9050919050565b7f4e487b7100000000000000000000000000000000000000000000000000000000600052602260045260246000fd5b6000600282049050600182168061171b57607f821691505b6020821081141561172f5761172e6116d4565b5b50919050565b7f45524332303a20617070726f76652066726f6d20746865207a65726f2061646460008201527f7265737300000000000000000000000000000000000000000000000000000000602082015250565b6000611791602483611127565b915061179c82611735565b604082019050919050565b600060208201905081810360008301526117c081611784565b9050919050565b7f45524332303a20617070726f766520746f20746865207a65726f20616464726560008201527f7373000000000000000000000000000000000000000000000000000000000000602082015250565b6000611823602283611127565b915061182e826117c7565b604082019050919050565b6000602082019050818103600083015261185281611816565b9050919050565b7f45524332303a207472616e7366657220616d6f756e742065786365656473206160008201527f6c6c6f77616e6365000000000000000000000000000000000000000000000000602082015250565b60006118b5602883611127565b91506118c082611859565b604082019050919050565b600060208201905081810360008301526118e4816118a8565b9050919050565b7f45524332303a207472616e736665722066726f6d20746865207a65726f20616460008201527f6472657373000000000000000000000000000000000000000000000000000000602082015250565b6000611947602583611127565b9150611952826118eb565b604082019050919050565b600060208201905081810360008301526119768161193a565b9050919050565b7f45524332303a207472616e7366657220746f20746865207a65726f206164647260008201527f6573730000000000000000000000000000000000000000000000000000000000602082015250565b60006119d9602383611127565b91506119e48261197d565b604082019050919050565b60006020820190508181036000830152611a08816119cc565b9050919050565b7f45524332303a207472616e7366657220616d6f756e742065786365656473206260008201527f616c616e63650000000000000000000000000000000000000000000000000000602082015250565b6000611a6b602683611127565b9150611a7682611a0f565b604082019050919050565b60006020820190508181036000830152611a9a81611a5e565b9050919050565b7f4e487b7100000000000000000000000000000000000000000000000000000000600052601160045260246000fd5b6000611adb8261123f565b9150611ae68361123f565b9250827fffffffffffffffffffffffffffffffffffffffffffffffffffffffffffffffff03821115611b1b57611b1a611aa1565b5b828201905092915050565b7f45524332303a206d696e7420746f20746865207a65726f206164647265737300600082015250565b6000611b5c601f83611127565b9150611b6782611b26565b602082019050919050565b60006020820190508181036000830152611b8b81611b4f565b905091905056fea2646970667358221220732ee953fd8c00612b3640b449f738dbaddbc3c7f9ecbb7bb504254eab212da964736f6c634300080c0033",
  "linkReferences": {},
  "deployedLinkReferences": {}
}